:020000040800F2
:100000000000082489140008A10B0008A90B0008AF
:10001000B10B0008B90B0008C10B0008000000007C
:10002000000000000000000000000000C90B0008F4
:10003000D70B000800000000E50B0008F30B0008D8
:10004000D9140008D9140008D9140008D9140008DC
:10005000D9140008D9140008D9140008D9140008CC
:10006000D9140008D9140008D9140008D9140008BC
:10007000D9140008D9140008D9140008D9140008AC
:10008000D9140008D9140008D9140008D91400089C
:10009000D9140008D9140008D9140008D91400088C
:1000A000D9140008D9140008D9140008D91400087C
:1000B000D9140008D9140008D9140008D91400086C
:1000C000D9140008D9140008D9140008D91400085C
:1000D000D9140008D9140008D9140008D91400084C
:1000E000D9140008D914000800000000D914000831
:1000F000D9140008D9140008D9140008D91400082C
:10010000D9140008D9140008D9140008D91400081B
:10011000D9140008D9140008D9140008D91400080B
:10012000D9140008D9140008D9140008D9140008FB
:10013000D9140008D9140008D9140008D9140008EB
:1001400000000000000000000000000000000000AF
:10015000D9140008D9140008D9140008D9140008CB
:10016000D9140008D9140008D9140008D9140008BB
:10017000D9140008D9140008D914000800000000A0
:10018000D9140008D9140008D9140008D91400089B
:10019000D9140008D9140008D9140008D91400088B
:1001A000D9140008D9140008D9140008D91400087B
:1001B000D9140008D9140008D9140008D91400086B
:1001C000D9140008D9140008D9140008D91400085B
:1001D000D9140008D9140008D9140008D91400084B
:1001E000D9140008D9140008D9140008D91400083B
:1001F000D9140008D9140008D9140008D91400082B
:10020000D9140008D9140008D9140008D91400081A
:10021000D9140008D9140008D9140008D91400080A
:10022000D9140008D9140008D914000800000000EF
:10023000D9140008D914000800000000D9140008DF
:10024000D9140008D9140008D9140008D9140008DA
:10025000D9140008D9140008D9140008D9140008CA
:10026000D9140008D9140008D9140008D9140008BA
:10027000D9140008D9140008D9140008000000009F
:10028000D9140008D9140008D9140008000000008F
:0802900000000000D914000871
:1002A00010B5054C237833B9044B13B10448AFF3B0
:1002B00000800123237010BD6C00002400000000AA
:1002C000C86F000808B5034B1BB103490348AFF3DF
:1002D000008008BD0000000070000024C86F000806
:1002E00001F0FF01102A2BDB10F0070F08D010F8E7
:1002F000013B013A8B422DD010F0070F42B3F6D1EB
:10030000F0B441EA012141EA014122F007047FF003
:1003100000070023F0E80256083C85EA010586EA5A
:10032000010685FA47F5A3FA87F586FA47F6A5FA96
:1003300087F68EB9EED1F0BC01F0FF0102F00702A2
:1003400032B110F8013B013A83EA010313B1F8D14D
:100350000020704701387047002D06BF354603382E
:10036000073815F0010F07D1013015F4807F02BF67
:10037000013015F4C03F0130F0BC0138704700BFB8
:1003800053B94AB9002908BF00281CBF4FF0FF31FC
:100390004FF0FF3000F06AB9ADF1080C6DE904CE02
:1003A00000F006F8DDF804E0DDE9022304B0704750
:1003B0002DE9F047089D0C46002B4ED194468C4504
:1003C0008646B2FA82F262D94AB1C2F12003914064
:1003D00020FA03F30CFA02FC194300FA02FE4FEA7A
:1003E0001C471FFA8CF6B1FBF7F44FEA1E4307FBDC
:1003F000141143EA014304FB06F199420AD91CEBAC
:10040000030304F1FF3080F01281994240F20F8122
:10041000023C6344591A1FFA8EF3B1FBF7F007FB55
:10042000101143EA014300FB06F69E420AD91CEB79
:10043000030300F1FF3180F0FC809E4240F2F9801E
:10044000634402389B1B40EA044000211DB1D340A5
:100450000022C5E90032BDE8F0878B4205D90DB115
:10046000C5E9000100210846F5E7B3FA83F1002948
:1004700046D1A34202D39042C0F0F080861A64EBCA
:1004800003030120002DE6D0C5E90063E3E7002A5D
:1004900040F09080A1EB0C044FEA1C481FFA8CF747
:1004A0000121B4FBF8F64FEA1E4308FB164443EA69
:1004B000044307FB06F0984208D91CEB030306F13E
:1004C000FF3402D2984200F2CD8026461C1A1FFA51
:1004D0008EF3B4FBF8F008FB104443EA044300FB3E
:1004E00007F79F4208D91CEB030300F1FF3402D247
:1004F0009F4200F2B0802046DB1B40EA0640A5E7A1
:10050000C1F120068B4022FA06F71F4320FA06FCB1
:1005100004FA01F343EA0C03F44000FA01F8380C42
:100520004FEA1349B4FBF0FE1FFA87FC00FB1E44A0
:1005300049EA04440EFB0CF9A14502FA01F20AD97A
:100540003C190EF1FF3A80F08480A14540F2818091
:10055000AEF1020E3C44A4EB09041FFA83F9B4FB8C
:10056000F0F300FB134449EA044403FB0CFCA445EC
:1005700007D93C1903F1FF3067D2A44565D9023B86
:100580003C4443EA0E40A0FB0293A4EB0C049C42C3
:10059000CE469C4651D34ED055B1B8EB0E0364EB1A
:1005A0000C0404FA06F6CB401E43CC40C5E90064B7
:1005B000002150E7C2F1200320FA03F10CFA02FCFB
:1005C00024FA03F394400C434FEA1C4800FA02FE5D
:1005D0001FFA8CF7B3FBF8F008FB1031230C43EA49
:1005E000014300FB07F1994208D91CEB030300F11A
:1005F000FF362CD299422AD9023863445B1AA4B23E
:10060000B3FBF8F108FB113344EA034401FB07F3A1
:10061000A34208D91CEB040401F1FF3613D2A34214
:1006200011D902396444E41A41EA004139E7044629
:10063000F0E6084606E7C845AED2B9EB020E63EB1A
:10064000070C0138A8E73146EDE7034699E7304645
:10065000D4E7D6467FE7634402384DE70646234693
:1006600008460FE7023E634430E700BF704700BF13
:1006700080B500AF094B1B780133DAB2074B1A7013
:10068000064B1B78142B07D9044B00221A704FF429
:100690000051034801F009FB00BF80BD8800002421
:1006A0000008025880B588B002AF0023FB753B1DDF
:1006B00000221A605A609A60DA6000F0BDF8642087
:1006C00000F09EFF00F088F83B1D184600F05EF831
:1006D000FB7D0133FB75FB7D1D2B0AD90023FB75C8
:1006E0007968BA68F8683B6900930346044805F0E6
:1006F000FDFDFFF7BDFF0A2000F082FFE2E700BF2B
:10070000E06F000880B485B000AF0346FB710023A2
:10071000FB81FB79032B29D801A252F823F000BFFB
:10072000310700083F070008510700085F0700086D
:10073000134B5B6AFB81124B00225A6217E04FF0A9
:1007400080435B6AFB814FF0804300225A620EE0D7
:100750000C4B5B6AFB810B4B00225A6207E00A4B91
:100760005B6AFB81084B00225A6200E000BFB7F9C8
:100770000E3018461437BD465DF8047B704700BF45
:1007800000040040000C00400008004080B483B02A
:1007900000AF78600C4B1A687B681A607B68043382
:1007A0000A4A12681A607B680833094A12681A609C
:1007B0007B680C33074A12681A6000BF0C37BD46CD
:1007C0005DF8047B704700BF8C000024900000247B
:1007D000940000249800002480B500AF0020FFF7AB
:1007E00091FF0246104B1B6813440F4A136001200F
:1007F000FFF788FF02460D4B1B6813440B4A13603A
:100800000220FFF77FFF0246094B1B689B1A084A2C
:1008100013600320FFF776FF0246064B1B689B1A06
:10082000044A136000BF80BD8C00002490000024A7
:10083000940000249800002480B500AF04210848EB
:1008400004F040F90421074804F03CF9042106486B
:1008500004F038F90421054804F034F900BF80BDE4
:10086000A0000024EC0000243801002484010024AE
:1008700080B58AB000AF07F1140300221A605A60F5
:100880009A60DA601A61324BD3F8E030304A43F0B4
:100890000403C2F8E0302E4BD3F8E03003F0040339
:1008A0003B613B692A4BD3F8E030294A43F080038F
:1008B000C2F8E030264BD3F8E03003F08003FB6051
:1008C000FB68234BD3F8E030214A43F00103C2F820
:1008D000E0301F4BD3F8E03003F00103BB60BB688E
:1008E0001B4BD3F8E0301A4A43F00803C2F8E0305B
:1008F000174BD3F8E03003F008037B607B68144BA0
:10090000D3F8E030124A43F00203C2F8E030104B53
:10091000D3F8E03003F002033B603B6800224FF461
:1009200000510C4801F0A8F94FF400537B610123FA
:10093000BB610023FB6100233B6207F114031946EE
:10094000044800F0E9FF00BF2837BD4680BD00BF66
:10095000004402580008025880B500AF00F0D4F8F7
:1009600000F0BCFD00F010F8FFF782FF00F0D6FCAD
:1009700000F070FA00F0C2FA00F016FB00F06AFB1B
:10098000FFF790FE00BFFDE780B59EB000AF07F116
:100990002C034C220021184605F0FDFC07F10C0346
:1009A00020220021184605F0F6FC022001F098F9FB
:1009B0000023BB60484BDB6A474A23F00103D36244
:1009C000454BDB6A03F00103BB60444B9B69434A20
:1009D00043F440439361414B9B6903F44043BB6044
:1009E000BB6800BF3D4B9B6903F40053B3F5005F48
:1009F000F8D13B4BD3F8F430394A43F00203C2F844
:100A0000F430374BD3F8F43003F002037B607B689B
:100A100000233B60314B9B69304A43F44043936170
:100A20002E4B9B6903F440433B602B4BDB6A2A4A05
:100A300043F00103D362284BDB6A03F001033B6000
:100A40003B6800BF254B9B6903F40053B3F5005F7F
:100A5000F8D10123FB624FF480333B6302233B65F3
:100A600002237B650523BB65C023FB6502233B6630
:100A700002237B660223BB660823FB6600233B67D9
:100A800000237B6707F12C03184601F063F9034646
:100A9000002B01D000F064F83F23FB6003233B618F
:100AA00000237B610823BB614023FB6140233B6241
:100AB0004FF480637B624023BB6207F10C03042187
:100AC000184601F0A1FD0346002B01D000F048F8C4
:100AD00000BF7837BD4680BD00040058004802586A
:100AE0000044025880B582B000AF7860391D4FF6DF
:100AF000FF730122034804F01DFA7B68184608378B
:100B0000BD4680BDD001002480B584B000AF3B4617
:100B100000221A605A609A60DA6000F085FE0123B4
:100B20003B7000237B7000237B601F233B72872375
:100B30007B720023BB720023FB7201233B730123F2
:100B40007B730023BB730023FB733B46184600F006
:100B5000A3FE042000F080FE00BF1037BD4680BD1C
:100B600080B400AF72B600BF00BFFDE780B483B0B1
:100B700000AF0A4BD3F8F430084A43F00203C2F83E
:100B8000F430064BD3F8F43003F002037B607B684B
:100B900000BF0C37BD465DF8047B70470044025827
:100BA00080B400AF00BFFDE780B400AF00BFFDE739
:100BB00080B400AF00BFFDE780B400AF00BFFDE729
:100BC00080B400AF00BFFDE780B400AF00BFBD46FA
:100BD0005DF8047B704780B400AF00BFBD465DF890
:100BE000047B704780B400AF00BFBD465DF8047B56
:100BF000704780B500AF00F0E3FC00BF80BD80B55A
:100C000086B000AFF860B9607A6000237B610AE0CB
:100C1000AFF300800146BB685A1CBA60CAB21A70B2
:100C20007B6901337B617A697B689A42F0DB7B6880
:100C300018461837BD4680BD80B586B000AFF86055
:100C4000B9607A6000237B6109E0BB685A1CBA6016
:100C50001B781846FFF746FF7B6901337B617A6991
:100C60007B689A42F1DB7B6818461837BD4680BD29
:100C700080B483B000AF78604FF0FF3318460C3774
:100C8000BD465DF8047B704780B483B000AF7860E8
:100C900039603B684FF400525A60002318460C3705
:100CA000BD465DF8047B704780B483B000AF7860C8
:100CB000012318460C37BD465DF8047B704780B4AD
:100CC00085B000AFF860B9607A6000231846143729
:100CD000BD465DF8047B704780B586B000AF786094
:100CE000144A154BD31A7B617B693B61134B1B681C
:100CF000002B02D1114B124A1A60104B1A687B6804
:100D000013443A699A4207D205F094FB03460C2239
:100D10001A604FF0FF3309E0084B1B68FB60074B7C
:100D20001A687B681344054A1360FB681846183735
:100D3000BD4680BD00000824000400009C00002483
:100D4000B803002480B400AF374BD3F88830364A5C
:100D500043F47003C2F88830344B1B6803F00F0370
:100D6000062B07D8314B1B6823F00F032F4A43F0A3
:100D7000070313602E4B1B682D4A43F001031360D9
:100D80002B4B00221A612A4B1A682949294B134020
:100D90000B60264B1B6803F00803002B07D0234B86
:100DA0001B6823F00F03214A43F007031360204B15
:100DB00000229A611E4B0022DA611D4B00221A624A
:100DC0001B4B1D4A9A621A4B1C4ADA62184B1C4A8A
:100DD0001A63174B00225A63154B194A9A63144B36
:100DE0000022DA63124B164A1A64114B00225A642D
:100DF0000F4B1B680E4A23F4802313600C4B002218
:100E00001A66104B1A68104B1340B3F1005F02D200
:100E10000E4B01221A600E4B43F2D2021A6000BF41
:100E2000BD465DF8047B704700ED00E000200052F5
:100E3000004402587FEDF6EA000202020000FF01C2
:100E4000800201010010005C0000FFFF08810051DA
:100E50000040005280B58CB000AF07F10C03242293
:100E60000021184605F097FA3B4600221A605A60A6
:100E70009A60214B4FF080421A601F4B00225A604B
:100E80001D4B00229A601C4B4FF6FF72DA601A4B22
:100E900000221A61184B00229A610323FB60002391
:100EA0003B6101237B610023BB610023FB610023C5
:100EB0003B6201237B620023BB620023FB6207F1DC
:100EC0000C0319460C4803F057FD0346002B01D0D4
:100ED000FFF746FE00233B600023BB603B461946FC
:100EE000054803F049FF0346002B01D0FFF738FE09
:100EF00000BF3037BD4680BDA000002480B58CB057
:100F000000AF07F10C0324220021184605F043FA34
:100F10003B4600221A605A609A60214B214A1A60AF
:100F20001F4B00225A601E4B00229A601C4B4FF64A
:100F3000FF72DA601A4B00221A61194B00229A6183
:100F40000323FB6000233B6101237B610023BB6122
:100F50000023FB6100233B6201237B620023BB6211
:100F60000023FB6207F10C0319460D4803F004FD52
:100F70000346002B01D0FFF7F3FD00233B60002365
:100F8000BB603B461946064803F0F6FE0346002BBD
:100F900001D0FFF7E5FD00BF3037BD4680BD00BF83
:100FA000EC0000240004004080B58CB000AF07F1D5
:100FB0000C0324220021184605F0EDF93B460022DF
:100FC0001A605A609A60214B214A1A601F4B002216
:100FD0005A601E4B00229A601C4B4FF6FF72DA607B
:100FE0001A4B00221A61194B00229A610323FB60FD
:100FF00000233B6101237B610023BB610023FB6174
:1010000000233B6201237B620023BB620023FB625F
:1010100007F10C0319460D4803F0AEFC0346002B04
:1010200001D0FFF79DFD00233B600023BB603B46E2
:101030001946064803F0A0FE0346002B01D0FFF737
:101040008FFD00BF3037BD4680BD00BF3801002492
:101050000008004080B58CB000AF07F10C032422DB
:101060000021184605F097F93B4600221A605A60A5
:101070009A60214B214A1A601F4B00225A601E4B76
:1010800000229A601C4B4FF6FF72DA601A4B002266
:101090001A61194B00229A610323FB6000233B6114
:1010A00001237B610023BB610023FB6100233B62C2
:1010B00001237B620023BB620023FB6207F10C0368
:1010C00019460D4803F058FC0346002B01D0FFF7EA
:1010D00047FD00233B600023BB603B4619460648A2
:1010E00003F04AFE0346002B01D0FFF739FD00BF95
:1010F0003037BD4680BD00BF84010024000C004095
:1011000080B590B000AF786007F12C0300221A6020
:101110005A609A60DA601A617B681B68B3F1804F8D
:101120004ED1774BD3F8E830754A43F00103C2F84B
:10113000E830734BD3F8E83003F00103BB62BB6ABD
:101140006F4BD3F8E0306E4A43F00103C2F8E03051
:101150006B4BD3F8E03003F001037B627B6A684B92
:10116000D3F8E030664A43F00203C2F8E030644B43
:10117000D3F8E03003F002033B623B6A4FF40043D4
:10118000FB6202233B6300237B630023BB630123D9
:10119000FB6307F12C0319465A4800F0BDFB0823F6
:1011A000FB6202233B6300237B630023BB630123B9
:1011B000FB6307F12C031946534800F0ADFB9BE09D
:1011C0007B681B68514A93422ED14D4BD3F8E830CF
:1011D0004B4A43F00203C2F8E830494BD3F8E830F9
:1011E00003F00203FB61FB69454BD3F8E030444A4E
:1011F00043F00203C2F8E030414BD3F8E03003F093
:101200000203BB61BB693023FB6202233B63002303
:101210007B630023BB630223FB6307F12C031946A6
:10122000394800F079FB67E07B681B68384A9342D5
:101230002FD1334BD3F8E830314A43F00403C2F8DE
:10124000E8302F4BD3F8E83003F004037B617B696F
:101250002B4BD3F8E0302A4A43F00803C2F8E030C1
:10126000274BD3F8E03003F008033B613B694FF4B0
:101270004053FB6202233B6300237B630023BB6379
:101280000223FB6307F12C031946224800F044FBBC
:1012900032E07B681B68204A93422DD1184BD3F86B
:1012A000E830174A43F00803C2F8E830144BD3F88B
:1012B000E83003F00803FB60FB68114BD3F8E03023
:1012C0000F4A43F00103C2F8E0300D4BD3F8E03091
:1012D00003F00103BB60BB680323FB6202233B6393
:1012E00000237B630023BB630223FB6307F12C0312
:1012F0001946044800F010FB00BF4037BD4680BDD2
:101300000044025800000258000402580004004043
:1013100000080040000C0258000C004080B500AFEF
:10132000224B234A1A60214B4FF4E1325A601F4B83
:1013300000229A601D4B0022DA601C4B00221A61C9
:101340001A4B0C225A61194B00229A61174B00224A
:101350001A62164B00225A62144B00229A62134BF7
:1013600000225A66114803F095FD0346002B01D078
:10137000FFF7F6FB00210D4804F02BFE0346002B7F
:1013800001D0FFF7EDFB0021084804F060FE0346A2
:10139000002B01D0FFF7E4FB044804F0E1FD034615
:1013A000002B01D0FFF7DCFB00BF80BDD001002483
:1013B000000C005880B5BAB000AF786007F1D403D4
:1013C00000221A605A609A60DA601A6107F110030D
:1013D000C0220021184604F0DEFF7B681B68274A04
:1013E000934246D14FF004024FF00003C7E90423B3
:1013F0000023C7F8A43007F11003184601F090FC51
:101400000346002B01D0FFF7ABFB1D4BD3F8F430A4
:101410001B4A43F00803C2F8F430194BD3F8F430F8
:1014200003F00803FB60FB68154BD3F8E030144A67
:1014300043F00103C2F8E030114BD3F8E03003F081
:101440000103BB60BB684FF4C063C7F8D43002230C
:10145000C7F8D8300023C7F8DC300023C7F8E030E5
:101460000323C7F8E43007F1D4031946054800F018
:1014700053FA00BFE837BD4680BD00BF000C0058DE
:101480000044025800000258DFF834D0FFF75AFC3D
:101490000C480D490D4A002302E0D458C4500433CF
:1014A000C4188C42F9D30A4A0A4C002301E01360A5
:1014B0000432A242FBD304F0C3FFFFF74DFA70479A
:1014C00000000824000000246C0000247470000850
:1014D0006C000024B4030024FEE7000080B582B055
:1014E00000AF032000F06EF901F044FA0246154BFC
:1014F0009B691B0A03F00F031349CB5C03F01F0326
:1015000022FA03F37B600F4B9B6903F00F030E4A33
:10151000D35C03F01F037A6822FA03F30B4A1360CB
:101520000B4A7B6813600F2000F014F80346002B71
:1015300001D0012302E0FFF719FB0023184608370A
:10154000BD4680BD00440258F86F00080400002426
:101550000000002480B582B000AF7860154B1B7886
:10156000002B01D1012321E0134B1A68114B1B788A
:1015700019464FF47A73B3FBF1F3B2FBF3F3184659
:1015800000F045F90346002B01D001230EE07B68F3
:101590000F2B0AD8002279684FF0FF3000F01DF9B8
:1015A000064A7B681360002300E0012318460837D1
:1015B000BD4680BD0C00002400000024080000246B
:1015C00080B400AF064B1B781A46064B1B681344C9
:1015D000044A136000BFBD465DF8047B704700BF3E
:1015E0000C0000246402002480B400AF034B1B688D
:1015F0001846BD465DF8047B704700BF64020024B6
:1016000080B584B000AF7860FFF7EEFFB8607B680C
:10161000FB60FB68B3F1FF3F05D00A4B1B781A460D
:10162000FB681344FB6000BFFFF7DEFF0246BB68A8
:10163000D31AFA689A42F7D800BF00BF1037BD46E8
:1016400080BD00BF0C00002480B400AF034B1B68BA
:101650001B0C1846BD465DF8047B70470010005C0B
:1016600080B485B000AF78607B6803F00703FB604F
:101670000B4BDB68BB60BA684FF6FF031340BB60DF
:10168000FB681A02BB681A43064B1343BB60044A4B
:10169000BB68D36000BF1437BD465DF8047B70475C
:1016A00000ED00E00000FA0580B400AF044BDB68F9
:1016B0001B0A03F007031846BD465DF8047B70471C
:1016C00000ED00E080B483B000AF03463960FB80DA
:1016D000B7F90630002B0ADB3B68DAB20C49B7F9E0
:1016E00006301201D2B20B4483F800230AE03B68B3
:1016F000DAB20849FB8803F00F03043B1201D2B2AF
:101700000B441A7600BF0C37BD465DF8047B70476A
:1017100000E100E000ED00E080B489B000AFF860C7
:10172000B9607A60FB6803F00703FB61FB69C3F1F2
:101730000703042B28BF0423BB61FB690433062B7A
:1017400002D9FB69033B00E000237B614FF0FF32CD
:10175000BB6902FA03F3DA43BB681A407B699A401B
:101760004FF0FF317B6901FA03F3D9437B680B40EB
:10177000134318462437BD465DF8047B70470000CC
:1017800080B582B000AF78607B68013BB3F1807FA9
:1017900001D301230FE00A4A7B68013B53600F210C
:1017A0004FF0FF30FFF78EFF054B00229A60044B8D
:1017B00007221A60002318460837BD4680BD00BFC7
:1017C00010E000E080B582B000AF78607868FFF785
:1017D00047FF00BF0837BD4680BD80B586B000AF6B
:1017E0000346B9607A60FB81FFF75EFF78617A6833
:1017F000B9687869FFF790FF0246B7F90E301146D5
:101800001846FFF75FFF00BF1837BD4680BD80B5A3
:1018100082B000AF78607868FFF7B2FF03461846E1
:101820000837BD4680BD000080B400AFBFF35F8FB6
:1018300000BF074B5B6A064A23F480335362054BB3
:1018400000225A6000BFBD465DF8047B704700BFB0
:1018500000ED00E090ED00E080B483B000AF786070
:101860000B4A7B6843F0010353600A4B5B6A094AE9
:1018700043F480335362BFF34F8F00BFBFF36F8FCA
:1018800000BF00BF0C37BD465DF8047B704700BF4A
:1018900090ED00E000ED00E080B483B000AF786030
:1018A0007B685A781B4B9A601A4B1B69194A23F0C4
:1018B00001031361174A7B685B68D3607B681B7BFD
:1018C0001A077B68DB7A1B061A437B689B7ADB046A
:1018D0001A437B685B7B9B041A437B689B7B5B049E
:1018E0001A437B68DB7B1B041A437B685B7A1B0211
:1018F0001A437B681B7A5B0013437A68127811469F
:10190000044A0B43136100BF0C37BD465DF8047BEE
:10191000704700BF90ED00E080B489B000AF786000
:1019200039600023FB61894B7B6194E13B681A6855
:101930000121FB6901FA03F313403B613B69002B72
:1019400000F086813B685B6803F00303012B05D040
:101950003B685B6803F00303022B30D17B689B6814
:10196000BB61FB695B00032202FA03F3DB43BA6944
:101970001340BB613B68DA68FB695B0002FA03F362
:10198000BA691343BB617B68BA699A607B685B681C
:10199000BB610122FB6902FA03F3DB43BA6913401E
:1019A000BB613B685B681B0903F00102FB6902FA3B
:1019B00003F3BA691343BB617B68BA695A603B6839
:1019C0005B6803F00303032B17D07B68DB68BB6104
:1019D000FB695B00032202FA03F3DB43BA6913409D
:1019E000BB613B689A68FB695B0002FA03F3BA6962
:1019F0001343BB617B68BA69DA603B685B6803F0DC
:101A00000303022B23D1FB69DA087B68083253F801
:101A10002230BB61FB6903F007039B000F2202FA2F
:101A200003F3DB43BA691340BB613B681A69FB6986
:101A300003F007039B0002FA03F3BA691343BB6187
:101A4000FB69DA087B680832B96943F822107B68C1
:101A50001B68BB61FB695B00032202FA03F3DB43F3
:101A6000BA691340BB613B685B6803F00302FB6922
:101A70005B0002FA03F3BA691343BB617B68BA697E
:101A80001A603B685B6803F44033002B00F0E08091
:101A90002F4BD3F8F4302E4A43F00203C2F8F4304F
:101AA0002B4BD3F8F43003F00203FB60FB68294AA8
:101AB000FB699B08023352F82330BB61FB6903F0DA
:101AC00003039B000F2202FA03F3DB43BA691340BE
:101AD000BB617B68204A934252D07B681F4A934285
:101AE00031D07B681E4A93422BD07B681D4A9342BB
:101AF00025D07B681C4A93421FD07B681B4A9342C7
:101B000019D07B681A4A934213D07B68194A9342D2
:101B10000DD07B68184A934207D07B68174A9342DE
:101B200001D109232DE00A232BE0082329E0072314
:101B300027E0062325E0052323E0042321E00323F7
:101B40001FE002231DE001231BE000BF80000058BE
:101B500000440258000400580000025800040258D3
:101B600000080258000C02580010025800140258D5
:101B700000180258001C0258002002580024025885
:101B80000023FA6902F0030292009340BA691343FA
:101B9000BB613849FB699B080233BA6941F82320CD
:101BA0004FF0B0431B68BB613B69DB43BA6913402C
:101BB000BB613B685B6803F48013002B03D0BA69F8
:101BC0003B691343BB614FF0B042BB6913604FF0F8
:101BD000B0435B68BB613B69DB43BA691340BB61DF
:101BE0003B685B6803F40013002B03D0BA693B69C0
:101BF0001343BB614FF0B042BB6953607B695B68C4
:101C0000BB613B69DB43BA691340BB613B685B68FE
:101C100003F40033002B03D0BA693B691343BB6163
:101C20007B69BA695A607B691B68BB613B69DB43AE
:101C3000BA691340BB613B685B6803F48033002BD7
:101C400003D0BA693B691343BB617B69BA691A6007
:101C5000FB690133FB613B681A68FB6922FA03F3F5
:101C6000002B7FF463AE00BF00BF2437BD465DF894
:101C7000047B70470004005880B483B000AF7860E4
:101C80000B467B8013467B707B78002B03D07A88D1
:101C90007B689A6103E07B881A047B689A6100BFC5
:101CA0000C37BD465DF8047B704780B485B000AF4B
:101CB00078600B467B807B685B69FB607A88FB6899
:101CC00013401A04FB68D9437B880B401A437B6896
:101CD0009A6100BF1437BD465DF8047B7047000071
:101CE00080B584B000AF7860194BDB6803F0040363
:101CF000042B0AD0164BDB6803F007037A689A427C
:101D000001D001231FE000231DE0114BDB6823F00D
:101D100007020F497B681343CB60FFF765FCF8604F
:101D200009E0FFF761FC0246FB68D31AB3F57A7F3E
:101D300001D9012307E0064B5B6803F40053B3F5B8
:101D4000005FEED1002318461037BD4680BD00BFAE
:101D50000048025880B58CB000AF78607B68002BDB
:101D600002D1012300F048BC7B681B6803F001032B
:101D7000002B00F08880994B1B6903F03803FB624D
:101D8000964B9B6ABB62FB6A102B07D0FB6A182B31
:101D900011D1BB6A03F00303022B0CD18F4B1B68DC
:101DA00003F40033002B6DD07B685B68002B69D196
:101DB000012300F021BC7B685B68B3F5803F06D14E
:101DC000864B1B68854A43F4803313602EE07B68A2
:101DD0005B68002B0CD1814B1B68804A23F4803355
:101DE00013607E4B1B687D4A23F4802313601DE043
:101DF0007B685B68B3F5A02F0CD1784B1B68774AE2
:101E000043F480231360754B1B68744A43F480339A
:101E100013600BE0714B1B68704A23F4803313602E
:101E20006E4B1B686D4A23F4802313607B685B68EC
:101E3000002B13D0FFF7D8FB786208E0FFF7D4FB44
:101E400002467B6AD31A642B01D90323D4E3634B84
:101E50001B6803F40033002BF0D014E0FFF7C4FB41
:101E6000786208E0FFF7C0FB02467B6AD31A642B56
:101E700001D90323C0E3594B1B6803F40033002B43
:101E8000F0D100E000BF7B681B6803F00203002B69
:101E900000F0CA80514B1B6903F038033B624F4B83
:101EA0009B6AFB613B6A002B07D03B6A182B56D11B
:101EB000FB6903F00303002B51D1484B1B6803F06F
:101EC0000403002B05D07B68DB68002B01D10123C4
:101ED00092E3424B1B6823F019027B68DB683F49A1
:101EE00013430B60FFF780FB786208E0FFF77CFB91
:101EF00002467B6AD31A022B01D903237CE3374BBA
:101F00001B6803F00403002BF0D0FFF79DFB034692
:101F100041F20302934217D87B681B69402B08D11A
:101F20002E4B5B6823F47C332C4A43F4003353601C
:101F30007AE02A4B5B6823F47C327B681B691B03C5
:101F4000264913434B606FE0244B5B6823F0FE424D
:101F50007B681B691B06214913434B6064E07B6867
:101F6000DB68002B47D01D4B1B6823F019027B68F0
:101F7000DB681A4913430B60FFF736FB786208E011
:101F8000FFF732FB02467B6AD31A022B01D90323E7
:101F900032E3124B1B6803F00403002BF0D0FFF771
:101FA00053FB034641F20302934219D87B681B6935
:101FB000402B08D1094B5B6823F47C33074A43F478
:101FC0000033536030E0054B5B6823F47C327B6860
:101FD0001B691B03014913434B6025E00044025871
:101FE0009A4B5B6823F0FE427B681B691B0697498E
:101FF00013434B6018E0954B1B68944A23F0010390
:102000001360FFF7F1FA786208E0FFF7EDFA024695
:102010007B6AD31A022B01D90323EDE28B4B1B6899
:1020200003F00403002BF0D17B681B6803F010035E
:10203000002B00F0A980854B1B6903F03803BB61BE
:10204000824B9B6A7B61BB69082B07D0BB69182B4D
:102050003AD17B6903F00303012B35D17B4B1B681D
:1020600003F48073002B05D07B68DB69802B01D0E3
:102070000123C1E2FFF7E8FA034641F2030293426B
:1020800017D87B681B6A202B08D1704B5B6823F044
:10209000F8436E4A43F08043536075E06B4B5B68D6
:1020A00023F0F8427B681B6A9B06684913434B6028
:1020B0006AE0664BDB6823F07C527B681B6A1B0678
:1020C00062491343CB605FE07B68DB69002B42D041
:1020D0005E4B1B685D4A43F080031360FFF784FA90
:1020E000786208E0FFF780FA02467B6AD31A022B77
:1020F00001D9032380E2554B1B6803F48073002B46
:10210000F0D0FFF7A1FA034641F20302934217D839
:102110007B681B6A202B08D14C4B5B6823F0F8438B
:102120004A4A43F0804353602EE0484B5B6823F0FB
:10213000F8427B681B6A9B06444913434B6023E0CB
:10214000424BDB6823F07C527B681B6A1B063F49CD
:102150001343CB6018E03D4B1B683C4A23F08003DF
:102160001360FFF741FA786208E0FFF73DFA024694
:102170007B6AD31A022B01D903233DE2334B1B6840
:1021800003F48073002BF0D17B681B6803F0080315
:10219000002B36D07B685B69002B19D02B4B5B6F13
:1021A0002A4A43F001035367FFF71EFA786208E0FA
:1021B000FFF71AFA02467B6AD31A022B01D90323CE
:1021C0001AE2224B5B6F03F00203002BF0D018E001
:1021D0001E4B5B6F1D4A23F001035367FFF704FAA0
:1021E000786208E0FFF700FA02467B6AD31A022BF6
:1021F00001D9032300E2154B5B6F03F00203002BB0
:10220000F0D17B681B6803F02003002B39D07B687A
:102210009B69002B1CD00D4B1B680C4A43F4805368
:102220001360FFF7E1F9786208E0FFF7DDF9024695
:102230007B6AD31A022B01D90323DDE1034B1B6810
:1022400003F40053002BF0D01BE000BF0044025801
:102250009B4B1B689A4A23F480531360FFF7C4F921
:10226000786208E0FFF7C0F902467B6AD31A022BB6
:1022700001D90323C0E1924B1B6803F40053002BE8
:10228000F0D17B681B6803F00403002B00F0818011
:102290008C4B1B688B4A43F480731360FFF7A4F9DF
:1022A000786208E0FFF7A0F902467B6AD31A642B34
:1022B00001D90323A0E1834B1B6803F48073002B37
:1022C000F0D07B689B68012B06D17D4B1B6F7C4A4D
:1022D00043F0010313672DE07B689B68002B0CD152
:1022E000774B1B6F764A23F001031367744B1B6F08
:1022F000734A23F0040313671CE07B689B68052B7B
:102300000CD16F4B1B6F6E4A43F0040313676C4B89
:102310001B6F6B4A43F0010313670BE0684B1B6FA5
:10232000674A23F001031367654B1B6F644A23F070
:10233000040313677B689B68002B15D0FFF754F9E3
:1023400078620AE0FFF750F902467B6AD31A41F23D
:102350008832934201D903234EE1594B1B6F03F09E
:102360000203002BEED014E0FFF73EF978620AE09A
:10237000FFF73AF902467B6AD31A41F28832934258
:1023800001D9032338E14E4B1B6F03F00203002BEE
:10239000EED17B685B6A002B00F02D81484B1B69F6
:1023A00003F03803182B00F0BD807B685B6A022BBA
:1023B00040F09E80424B1B68414A23F080731360BB
:1023C000FFF712F9786208E0FFF70EF902467B6A20
:1023D000D31A022B01D903230EE1394B1B6803F0FA
:1023E0000073002BF0D1364B9A6A374B13407A6852
:1023F000916A7A68D26A12010A43314913438B62A7
:102400007B681B6B013BC3F308027B685B6B013B82
:102410005B029BB21A437B689B6B013B1B0403F47A
:10242000FE031A437B68DB6B013B1B0603F0FE4394
:10243000234913430B63224BDB6A214A23F0010338
:10244000D3621F4B5A6B214B13407A68926CD200B7
:102450001B4913434B631A4BDB6A23F00C027B6866
:102460001B6C17491343CB62154BDB6A23F0020246
:102470007B685B6C12491343CB62114BDB6A104AD9
:1024800043F48033D3620E4BDB6A0D4A43F40033CE
:10249000D3620B4BDB6A0A4A43F48023D362084BB6
:1024A000DB6A074A43F00103D362054B1B68044A09
:1024B00043F080731360FFF797F8786211E000BF74
:1024C00000440258004802580CFCFFFF0700FFFFC1
:1024D000FFF78AF802467B6AD31A022B01D903233D
:1024E0008AE0474B1B6803F00073002BF0D082E0BA
:1024F000434B1B68424A23F080731360FFF774F864
:10250000786208E0FFF770F802467B6AD31A022B64
:1025100001D9032370E03A4B1B6803F00073002BD2
:10252000F0D168E0364B9B6A3B61354B1B6BFB601F
:102530007B685B6A012B31D03B6903F003027B6847
:102540009B6A9A422AD13B691B0903F03F027B68D0
:10255000DB6A9A4222D1FB68C3F308027B681B6BDB
:10256000013B9A421AD1FB685B0A03F07F027B6849
:102570005B6B013B9A4211D1FB681B0C03F07F029D
:102580007B689B6B013B9A4208D1FB681B0E03F0F2
:102590007F027B68DB6B013B9A4201D001232BE079
:1025A000174B5B6BDB08C3F30C033B617B689B6CD5
:1025B0003A699A421FD0124BDB6A114A23F0010399
:1025C000D362FFF711F8786200BFFFF70DF80246FB
:1025D0007B6A9342F9D00A4B5A6B0A4B13407A68D4
:1025E000926CD200064913434B63054BDB6A044AE5
:1025F00043F00103D362002318463037BD4680BD47
:10260000004402580700FFFF80B586B000AF786035
:1026100039607B68002B01D101239CE18A4B1B6848
:1026200003F00F033A689A4210D9874B1B6823F0D6
:102630000F0285493B6813430B60834B1B6803F013
:102640000F033A689A4201D0012384E17B681B683A
:1026500003F00403002B10D07B681A697B4B9B6945
:1026600003F070039A4208D9784B9B6923F07002FB
:102670007B681B69754913438B617B681B6803F09A
:102680000803002B10D07B685A69704BDB6903F09C
:1026900070039A4208D96D4BDB6923F070027B68A6
:1026A0005B696A491343CB617B681B6803F01003C5
:1026B000002B10D07B689A69644BDB6903F4E063FC
:1026C0009A4208D9614BDB6923F4E0627B689B691D
:1026D0005E491343CB617B681B6803F02003002B2A
:1026E00010D07B68DA69594B1B6A03F070039A4279
:1026F00008D9564B1B6A23F070027B68DB6953498B
:1027000013430B627B681B6803F00203002B10D09D
:102710007B68DA684D4B9B6903F00F039A4208D936
:102720004A4B9B6923F00F027B68DB6847491343E0
:102730008B617B681B6803F00103002B55D0434B72
:102740009B6923F470627B689B68404913438B61EB
:102750007B685B68022B07D13C4B1B6803F400339A
:10276000002B21D10123F6E07B685B68032B07D1A6
:10277000364B1B6803F00073002B15D10123EAE0F0
:102780007B685B68012B07D1304B1B6803F48073B7
:10279000002B09D10123DEE02C4B1B6803F004035E
:1027A000002B01D10123D6E0284B1B6923F007023F
:1027B0007B685B68254913430B61FEF715FF786161
:1027C0000AE0FEF711FF02467B69D31A41F2883214
:1027D000934201D90323BEE01C4B1B6903F038026E
:1027E0007B685B68DB009A42EBD17B681B6803F077
:1027F0000203002B10D07B68DA68144B9B6903F04E
:102800000F039A4208D2114B9B6923F00F027B6899
:10281000DB680E4913438B610B4B1B6803F00F03FE
:102820003A689A4214D2084B1B6823F00F020649FB
:102830003B6813430B60044B1B6803F00F033A68BB
:102840009A4205D0012386E000200052004402583D
:102850007B681B6803F00403002B10D07B681A69A7
:102860003F4B9B6903F070039A4208D23C4B9B6933
:1028700023F070027B681B69394913438B617B68C5
:102880001B6803F00803002B10D07B685A69344B97
:10289000DB6903F070039A4208D2314BDB6923F005
:1028A00070027B685B692E491343CB617B681B68B0
:1028B00003F01003002B10D07B689A69284BDB696A
:1028C00003F4E0639A4208D2254BDB6923F4E0620B
:1028D0007B689B6922491343CB617B681B6803F0CB
:1028E0002003002B10D07B68DA691D4B1B6A03F0B4
:1028F00070039A4208D21A4B1B6A23F070027B685D
:10290000DB69174913430B6200F034F80246144B9D
:102910009B691B0A03F00F031249CB5C03F01F03F2
:1029200022FA03F33B610E4B9B6903F00F030D4A40
:10293000D35C03F01F033A6922FA03F30A4A1360D7
:102940000A4A3B6913600A4B1B681846FEF702FEF1
:102950000346FB73FB7B18461837BD4680BD00BF9E
:1029600000440258F86F000804000024000000240E
:102970000800002480B489B000AFB34B1B6903F09A
:102980003803182B00F2558101A252F823F000BF42
:10299000F5290008332C0008332C0008332C0008DC
:1029A000332C0008332C0008332C0008332C00088B
:1029B0001B2A0008332C0008332C0008332C000895
:1029C000332C0008332C0008332C0008332C00086B
:1029D000212A0008332C0008332C0008332C00086F
:1029E000332C0008332C0008332C0008332C00084B
:1029F000272A0008944B1B6803F02003002B09D002
:102A0000914B1B68DB0803F00303904A22FA03F39F
:102A1000BB6111E18D4BBB610EE18D4BBB610BE1E5
:102A20008C4BBB6108E1884B9B6A03F003037B611D
:102A3000854B9B6A1B0903F03F033B61824BDB6ABA
:102A400003F00103FB60804B5B6BDB08C3F30C03FB
:102A5000FA6802FB03F307EE903AF8EE677AC7EDE7
:102A6000027A3B69002B00F0E1807B69022B00F0C9
:102A700083807B69022B00F2A1807B69002B03D04D
:102A80007B69012B56D099E06F4B1B6803F0200344
:102A9000002B2DD06C4B1B68DB0803F003036B4A43
:102AA00022FA03F37B607B6807EE903AF8EE676AE0
:102AB0003B6907EE903AF8EE677A86EEA77A624BAA
:102AC0001B6BC3F3080307EE903AF8EE676A97EDC5
:102AD000026ADFED615AC6EE257A76EEA77AF7EE46
:102AE000006A77EEA67A67EE277AC7ED077A87E065
:102AF0003B6907EE903AF8EE677ADFED586A86EEAA
:102B0000A77A514B1B6BC3F3080307EE903AF8EE1C
:102B1000676A97ED026ADFED505AC6EE257A76EEC7
:102B2000A77AF7EE006A77EEA67A67EE277AC7ED06
:102B3000077A65E03B6907EE903AF8EE677ADFEDD9
:102B4000486A86EEA77A404B1B6BC3F3080307EE77
:102B5000903AF8EE676A97ED026ADFED3F5AC6EEEB
:102B6000257A76EEA77AF7EE006A77EEA67A67EE18
:102B7000277AC7ED077A43E03B6907EE903AF8EE13
:102B8000677ADFED386A86EEA77A2F4B1B6BC3F3AB
:102B9000080307EE903AF8EE676A97ED026ADFEDF8
:102BA0002E5AC6EE257A76EEA77AF7EE006A77EE11
:102BB000A67A67EE277AC7ED077A21E03B6907EE30
:102BC000903AF8EE677ADFED266A86EEA77A1E4B1A
:102BD0001B6BC3F3080307EE903AF8EE676A97EDB4
:102BE000026ADFED1D5AC6EE257A76EEA77AF7EE79
:102BF000006A77EEA67A67EE277AC7ED077A00BFFC
:102C0000114B1B6B5B0A03F07F0301333B603B6896
:102C100007EE903AB8EE677AD7ED076AC6EE877A84
:102C2000FCEEE77A17EE903ABB6105E00023BB614A
:102C300002E0074BBB6100BFBB6918462437BD46A5
:102C40005DF8047B704700BF004402580090D00339
:102C500000093D0040787D01000000460024744CCE
:102C60000024744A20BCBE4B80B582B000AFFFF791
:102C700081FE0246104B9B691B0A03F00F030F49AC
:102C8000CB5C03F01F0322FA03F37B600A4B9B69C2
:102C900003F00F03094AD35C03F01F037A6822FA9A
:102CA00003F3074A1360074A7B681360044B1B68F1
:102CB00018460837BD4680BD00440258F86F00082A
:102CC000040000240000002480B500AFFFF7CCFF13
:102CD0000246064BDB691B0903F007030449CB5C82
:102CE00003F01F0322FA03F3184680BD0044025884
:102CF000F86F000880B500AFFFF7B6FF0246064B3D
:102D0000DB691B0A03F007030449CB5C03F01F03D4
:102D100022FA03F3184680BD00440258F86F0008F9
:102D20002DE9B04FCAB000AFC7F81401002387F8EF
:102D30002731002387F82631D7F81431D3E900234F
:102D400002F00064002554EA050349D0D7F8143195
:102D50009B6EB3F5401F2FD0B3F5401F28D8B3F5B5
:102D6000001F1AD0B3F5001F22D8002B03D0B3F5F3
:102D7000801F07D01CE0B84BDB6AB74A43F400332E
:102D8000D3621AE0D7F8143108330221184601F053
:102D90008FFC034687F827310FE0D7F8143128332A
:102DA0000221184601F036FD034687F8273104E07A
:102DB000012387F8273100E000BF97F82731002B67
:102DC0000AD1A54B1B6D23F44011D7F814319B6E2B
:102DD000A14A0B43136503E097F8273187F82631A2
:102DE000D7F81431D3E9002302F480784FF00009BA
:102DF00058EA090347D0D7F814319B6D042B2AD821
:102E000001A252F823F000BF1D2E00082B2E00084F
:102E1000412E00085F2E00085F2E00088E4BDB6AF3
:102E20008D4A43F40033D3621AE0D7F814310833E3
:102E30000021184601F03CFC034687F827310FE0DB
:102E4000D7F8143128330021184601F0E3FC03467B
:102E500087F8273104E0012387F8273100E000BF1D
:102E600097F82731002B0AD17B4B1B6D23F007010C
:102E7000D7F814319B6D784A0B43136503E097F83C
:102E8000273187F82631D7F81431D3E9002302F42B
:102E9000007A4FF0000B5AEA0B034CD0D7F81431EC
:102EA000DB6DB3F5807F30D0B3F5807F29D8C02BA0
:102EB0002DD0C02B25D8802B18D0802B21D8002BCB
:102EC00002D0402B07D01CE0634BDB6A624A43F41C
:102ED0000033D3621CE0D7F81431083300211846C0
:102EE00001F0E6FB034687F8273111E0D7F81431EB
:102EF00028330021184601F08DFC034687F827315E
:102F000006E0012387F8273102E000BF00E000BFA0
:102F100097F82731002B0AD14F4B1B6D23F4E0713A
:102F2000D7F81431DB6D4C4A0B43136503E097F877
:102F3000273187F82631D7F81431D3E9002302F47A
:102F40008063C7F808310023C7F80C31D7E9421273
:102F50000B46134353D0D7F81431D3F8A830B3F548
:102F6000000F35D0B3F5000F2ED8B3F5C00F31D018
:102F7000B3F5C00F28D8B3F5800F1AD0B3F5800F82
:102F800022D8002B03D0B3F5001F07D01CE0324B32
:102F9000DB6A314A43F40033D3621CE0D7F81431C2
:102FA00008330021184601F083FB034687F82731D8
:102FB00011E0D7F8143128330021184601F02AFC1B
:102FC000034687F8273106E0012387F8273102E01E
:102FD00000BF00E000BF97F82731002B0BD11E4B3C
:102FE0009B6D23F46001D7F81431D3F8A8301A4A46
:102FF0000B43936503E097F8273187F82631D7F81C
:103000001431D3E9002302F40063C7F80031002330
:10301000C7F80431D7E940120B46134356D0D7F80E
:103020001431D3F8AC30B3F1806F38D0B3F1806F86
:1030300031D8B3F1407F34D0B3F1407F2BD8B3F116
:10304000007F1DD0B3F1007F25D8002B06D0B3F14F
:10305000807F0AD01FE000BF00440258A24BDB6A09
:10306000A14A43F40033D3621CE0D7F8143108338B
:103070000021184601F01CFB034687F8273111E0B8
:10308000D7F8143128330021184601F0C3FB03465A
:1030900087F8273106E0012387F8273102E000BFD7
:1030A00000E000BF97F82731002B0BD18E4B9B6DB2
:1030B00023F0E061D7F81431D3F8AC308A4A0B43DF
:1030C000936503E097F8273187F82631D7F8143154
:1030D000D3E9002302F00073C7F8F8300023C7F8E3
:1030E000FC30D7E93E120B4613433AD0D7F81431DF
:1030F000DB6C302B1FD0302B19D8202B0CD0202B81
:1031000015D8002B19D0102B11D1774BDB6A764ADA
:1031100043F40033D36211E0D7F8143108330221AD
:10312000184601F0C5FA034687F8273106E0012367
:1031300087F8273102E000BF00E000BF97F8273191
:10314000002B0AD1684BDB6C23F03001D7F8143127
:10315000DB6C654A0B43D36403E097F8273187F8AB
:103160002631D7F81431D3E9002302F48053C7F88D
:10317000F0300023C7F8F430D7E93C120B46134374
:1031800051D0D7F814311B6EB3F5804F35D0B3F55D
:10319000804F2ED8B3F5405F31D0B3F5405F28D8CB
:1031A000B3F5005F1AD0B3F5005F22D8002B03D02F
:1031B000B3F5805F07D01CE04B4BDB6A4A4A43F40F
:1031C0000033D3621CE0D7F81431083300211846CD
:1031D00001F06EFA034687F8273111E0D7F8143171
:1031E00028330021184601F015FB034687F82731E4
:1031F00006E0012387F8273102E000BF00E000BFAE
:1032000097F82731002B0AD1374B1B6D23F4E0418F
:10321000D7F814311B6E344A0B43136503E097F85B
:10322000273187F82631D7F81431D3E9002302F487
:103230000053C7F8E8300023C7F8EC30D7E93A125A
:103240000B46134356D0D7F814315B6EB3F5A02F5D
:1032500033D0B3F5A02F2CD8B3F5802F2FD0B3F5F2
:10326000802F26D8B3F5403F2BD0B3F5403F20D870
:10327000B3F5003F12D0B3F5003F1AD8002B22D08F
:10328000B3F5803F15D1D7F8143108330121184622
:1032900001F00EFA034687F8273115E0D7F814310C
:1032A00028330121184601F0B5FA034687F8273183
:1032B0000AE0012387F8273106E000BF04E000BFE1
:1032C00002E000BF00E000BF97F82731002B0DD1CE
:1032D000054B1B6D23F4E021D7F814315B6E024AD5
:1032E0000B43136506E000BF0044025897F82731EE
:1032F00087F82631D7F81431D3E9002302F480434C
:10330000C7F8E0300023C7F8E430D7E938120B469D
:10331000134355D0D7F81431D3F8B030B3F1A04FE0
:1033200033D0B3F1A04F2CD8B3F1804F2FD0B3F1ED
:10333000804F26D8B3F1405F2BD0B3F1405F20D847
:10334000B3F1005F12D0B3F1005F1AD8002B22D086
:10335000B3F1805F15D1D7F8143108330121184635
:1033600001F0A6F9034687F8273115E0D7F81431A4
:1033700028330121184601F04DFA034687F827311A
:103380000AE0012387F8273106E000BF04E000BF10
:1033900002E000BF00E000BF97F82731002B0BD1FF
:1033A000A34B9B6D23F0E041D7F81431D3F8B03034
:1033B0009F4A0B43936503E097F8273187F826313E
:1033C000D7F81431D3E9002302F40043C7F8D8300A
:1033D0000023C7F8DC30D7E936120B46134337D049
:1033E000D7F814311B6FB3F1005F0ED0B3F1005F5B
:1033F00016D8002B18D0B3F1805F11D18C4BDB6A4B
:103400008B4A43F40033D3620FE0D7F8143108330A
:103410000121184601F04CF9034687F8273104E0F2
:10342000012387F8273100E000BF97F82731002BF0
:103430000AD17F4B1B6D23F04051D7F814311B6F1D
:103440007B4A0B43136503E097F8273187F8263151
:10345000D7F81431D3E9002302F08073C7F8D030D5
:103460000023C7F8D430D7E934120B46134339D0C0
:10347000D7F814319B6C032B1CD801A252F823F00F
:10348000BD340008913400089F340008BD340008A2
:10349000674BDB6A664A43F40033D3620FE0D7F828
:1034A000143108330221184601F002F9034687F867
:1034B000273104E0012387F8273100E000BF97F8A7
:1034C0002731002B0AD15A4BDB6C23F00301D7F8CC
:1034D00014319B6C564A0B43D36403E097F82731B1
:1034E00087F82631D7F81431D3E9002302F480039A
:1034F000C7F8C8300023C7F8CC30D7E932120B46E2
:10350000134300F09F804B4B1B684A4A43F480737F
:103510001360FEF769F8C7F820010BE0FEF764F8C6
:103520000246D7F82031D31A642B03D9032387F836
:10353000273105E03F4B1B6803F48073002BEDD06F
:1035400097F82731002B79D1394B1A6FD7F81431FE
:10355000D3F8B430534003F44073002B15D0344BF0
:103560001B6F23F44073C7F81C31314B1B6F304A7B
:1035700043F4803313672E4B1B6F2D4A23F48033A3
:1035800013672B4AD7F81C311367D7F81431D3F8D7
:10359000B430B3F5807F18D1FEF726F8C7F82001C4
:1035A0000DE0FEF721F80246D7F82031D21A41F299
:1035B00088339A4203D9032387F8273105E01C4B4F
:1035C0001B6F03F00203002BEBD097F82731002B81
:1035D00029D1D7F81431D3F8B43003F44073B3F5DC
:1035E000407F0ED1124B1B6923F47C51D7F8143164
:1035F000D3F8B4301A09104B13400D4A0B43136132
:1036000005E00B4B1B690A4A23F47C531361084BFA
:10361000196FD7F81431D3F8B430C3F30B03044A4D
:103620000B4313670EE097F8273187F8263109E03E
:103630000044025800480258CFFFFF0097F8273196
:1036400087F82631D7F81431D3E9002302F00103BB
:10365000C7F8C0300023C7F8C430D7E930120B4692
:10366000134300F08980D7F81431DB6F282B6BD817
:1036700001A252F823F000BF513700084937000873
:10368000493700084937000849370008493700081A
:1036900049370008493700081D3700084937000836
:1036A00049370008493700084937000849370008FA
:1036B0004937000849370008333700084937000800
:1036C00049370008493700084937000849370008DA
:1036D00049370008493700085137000849370008C2
:1036E00049370008493700084937000849370008BA
:1036F00049370008493700085137000849370008A2
:103700004937000849370008493700084937000899
:10371000493700084937000851370008D7F81431F5
:1037200008330121184600F0C3FF034687F827310C
:103730000FE0D7F8143128330121184601F06AF858
:10374000034687F8273104E0012387F8273100E09A
:1037500000BF97F82731002B0AD1BF4B5B6D23F0D8
:103760003801D7F81431DB6FBB4A0B43536503E0D4
:1037700097F8273187F82631D7F81431D3E9002399
:1037800002F00203C7F8B8300023C7F8BC30D7E90D
:103790002E120B46134341D0D7F814319B6F052BE3
:1037A00024D801A252F823F0F5370008C1370008E9
:1037B000D7370008F5370008F5370008F537000857
:1037C000D7F8143108330121184600F071FF034681
:1037D00087F827310FE0D7F8143128330121184634
:1037E00001F018F8034687F8273104E0012387F831
:1037F000273100E000BF97F82731002B0AD1964B04
:103800005B6D23F00701D7F814319B6F924A0B438D
:10381000536503E097F8273187F82631D7F814313C
:10382000D3E9002302F00403C7F8B0300023C7F83F
:10383000B430D7E92C120B46134344D0D7F81431D7
:10384000D3F89430052B25D801A252F823F000BFFD
:103850009D380008693800087F3800089D38000846
:103860009D3800089D380008D7F81431083301212D
:10387000184600F01DFF034687F827310FE0D7F800
:10388000143128330121184600F0C4FF034687F89D
:10389000273104E0012387F8273100E000BF97F8C3
:1038A0002731002B0BD16C4B9B6D23F00701D7F810
:1038B0001431D3F89430684A0B43936503E097F8CA
:1038C000273187F82631D7F81431D3E9002302F0E5
:1038D0002003C7F8A8300023C7F8AC30D7E92A1274
:1038E0000B46134355D0D7F81431D3F89030B3F1C9
:1038F000A04F33D0B3F1A04F2CD8B3F1804F2FD0CD
:10390000B3F1804F26D8B3F1405F2BD0B3F1405FC5
:1039100020D8B3F1005F12D0B3F1005F1AD8002BAA
:1039200022D0B3F1805F15D1D7F8143108330021CC
:10393000184600F0BDFE034687F8273115E0D7F89A
:10394000143128330221184600F064FF034687F83B
:1039500027310AE0012387F8273106E000BF04E0A1
:1039600000BF02E000BF00E000BF97F82731002B46
:103970000BD1394B5B6D23F0E041D7F81431D3F80C
:103980009030354A0B43536503E097F8273187F8A9
:103990002631D7F81431D3E9002302F04003C7F8E9
:1039A000A0300023C7F8A430D7E928120B461343F0
:1039B00058D0D7F81431D3F89C30B3F5A05F33D08A
:1039C000B3F5A05F2CD8B3F5805F2FD0B3F5805F3F
:1039D00026D8B3F5406F2BD0B3F5406F20D8B3F5A0
:1039E000006F12D0B3F5006F1AD8002B22D0B3F5B8
:1039F000806F15D1D7F8143108330021184600F034
:103A000057FE034687F8273115E0D7F814312833DD
:103A10000221184600F0FEFE034687F827310AE02F
:103A2000012387F8273106E000BF04E000BF02E071
:103A300000BF00E000BF97F82731002B0ED1064BE6
:103A40009B6D23F4E051D7F81431D3F89C30024A2F
:103A50000B43936506E000BF0044025897F82731F6
:103A600087F82631D7F81431D3E9002302F0800318
:103A7000C7F898300023C7F89C30D7E926120B46C8
:103A8000134355D0D7F81431D3F8A030B3F5204FF5
:103A900033D0B3F5204F2CD8B3F5004F2FD0B3F56A
:103AA000004F26D8B3F5C04F2BD0B3F5C04F20D868
:103AB000B3F5804F12D0B3F5804F1AD8002B22D027
:103AC000B3F5005F15D1D7F814310833002118463B
:103AD00000F0EEFD034687F8273115E0D7F81431E2
:103AE00028330221184600F095FE034687F8273157
:103AF0000AE0012387F8273106E000BF04E000BF99
:103B000002E000BF00E000BF97F82731002B0BD187
:103B1000A14B9B6D23F46041D7F81431D3F8A0304A
:103B20009D4A0B43936503E097F8273187F82631C8
:103B3000D7F81431D3E9002302F00803C7F8903016
:103B40000023C7F89430D7E924120B4613431ED044
:103B5000D7F81431D3F88430B3F5805F0CD1D7F89F
:103B6000143128330221184600F054FE0346002B7E
:103B700002D0012387F82631874B5B6D23F4405137
:103B8000D7F81431D3F88430834A0B435365D7F800
:103B90001431D3E9002302F01003C7F88830002362
:103BA000C7F88C30D7E922120B4613431ED0D7F842
:103BB0001431D3F89830B3F5807F0CD1D7F8143195
:103BC00028330221184600F025FE0346002B02D0C0
:103BD000012387F82631704B9B6D23F44071D7F891
:103BE0001431D3F898306C4A0B439365D7F81431ED
:103BF000D3E9002302F40023C7F880300023C7F87C
:103C00008430D7E920120B4613433ED0D7F8143145
:103C1000D3F8A430B3F5003F22D0B3F5003F1BD852
:103C2000002B03D0B3F5803F0BD015E0D7F814314B
:103C300008330021184600F03BFD034687F8273182
:103C40000FE0D7F8143128330221184600F0E2FDC6
:103C5000034687F8273104E0012387F8273100E085
:103C600000BF97F82731002B0BD14B4B9B6D23F4F2
:103C70004031D7F81431D3F8A430474A0B43936549
:103C800003E097F8273187F82631D7F81431D3E9C4
:103C9000002302F48023BB670023FB67D7E91E12D1
:103CA0000B4613433BD0D7F81431D3F88830B3F523
:103CB000401F1FD0B3F5401F18D8B3F5801F03D0A5
:103CC000B3F5001F07D011E0334BDB6A324A43F4EF
:103CD0000033D3620FE0D7F814312833012118469E
:103CE00000F098FD034687F8273104E0012387F8A8
:103CF000273100E000BF97F82731002B0BD1264B6E
:103D00005B6D23F44011D7F81431D3F88830224A80
:103D10000B43536503E097F8273187F82631D7F82E
:103D20001431D3E9002302F480333B6700237B671F
:103D3000D7E91C120B46134334D0D7F814311B6D4E
:103D4000002B03D0B3F5803F07D011E0124BDB6AA4
:103D5000114A43F40033D3620EE0D7F8143108332C
:103D60000221184600F0A4FC034687F8273103E03F
:103D7000012387F8273100BF97F82731002B0DD199
:103D8000054BDB6C23F48031D7F814311B6D024AEC
:103D90000B43D36406E000BF0044025897F8273174
:103DA00087F82631D7F81431D3E9002302F0005305
:103DB000BB660023FB66D7E91A120B4613430CD0EF
:103DC000D7F8143128330221184600F023FD0346AA
:103DD000002B02D0012387F82631D7F81431D3E91C
:103DE000002302F400333B6600237B66D7E91812F8
:103DF0000B46134338D0D7F81431D3F88030B3F5DD
:103E0000407F18D0B3F5407F11D8B3F5007F14D0B0
:103E1000B3F5007F0BD8002B11D0B3F5807F06D10E
:103E2000C34BDB6AC24A43F40033D36208E0012388
:103E300087F8273104E000BF02E000BF00E000BFC8
:103E400097F82731002B0BD1B94B5B6D23F44071F0
:103E5000D7F81431D3F88030B54A0B43536503E0EB
:103E600097F8273187F82631D7F81431D3E90023A2
:103E700002F48013BB650023FB65D7E916120B46DD
:103E8000134309D0AA4B1B6D23F00041D7F814311E
:103E90005B6FA74A0B431365D7F81431D3E90023AE
:103EA00002F080533B6500237B65D7E914120B4673
:103EB00013430AD09E4B1B6923F48041D7F8143179
:103EC000D3F8B8309A4A0B431361D7F81431D3E9C9
:103ED000002302F40013BB640023FB64D7E9121231
:103EE0000B46134309D0924B1B6D23F08071D7F81A
:103EF0001431DB6E8E4A0B431365D7F81431D3E9C6
:103F0000002302F080433B6400237B64D7E9101256
:103F10000B4613430ED0864B1B69854A23F400439E
:103F20001361834B1969D7F81431D3F8BC30804A38
:103F30000B431361D7F81431D3E9002302F0004397
:103F4000BB630023FB63D7E90E120B46134309D072
:103F5000774BDB6C23F04051D7F814315B6D744A1A
:103F60000B43D364D7F81431D3E9002302F40003E0
:103F70003B6300237B63D7E90C120B4613430AD043
:103F80006B4B5B6D23F44001D7F81431D3F88C30C0
:103F9000674A0B435365D7F81431D3E90023002156
:103FA000B96203F00103FB62D7E90A120B4613431F
:103FB00011D0D7F8143108330021184600F078FBEF
:103FC000034687F8273197F82731002B03D097F85D
:103FD000273187F82631D7F81431D3E9002300219F
:103FE000396203F002037B62D7E908120B461343E0
:103FF00011D0D7F8143108330121184600F058FBCE
:10400000034687F8273197F82731002B03D097F81C
:10401000273187F82631D7F81431D3E9002300215E
:10402000B96103F00403FB61D7E906120B461343A1
:1040300011D0D7F8143108330221184600F038FBAC
:10404000034687F8273197F82731002B03D097F8DC
:10405000273187F82631D7F81431D3E9002300211E
:10406000396103F008037B61D7E904120B4613435F
:1040700011D0D7F8143128330021184600F0CAFBBC
:10408000034687F8273197F82731002B03D097F89C
:10409000273187F82631D7F81431D3E900230021DE
:1040A000B96003F01003FB60D7E902120B4613431B
:1040B00011D0D7F8143128330121184600F0AAFB9B
:1040C000034687F8273197F82731002B03D097F85C
:1040D000273187F82631D7F81431D3E9002300219E
:1040E000396003F020037B60D7E900120B461343CD
:1040F00011D0D7F8143128330221184600F08AFB7A
:10410000034687F8273197F82731002B03D097F81B
:10411000273187F8263197F82631002B01D100236B
:1041200000E00123184607F59477BD46BDE8B08F3F
:104130000044025880B500AFFEF796FD0246064BDC
:104140001B6A1B0903F007030449CB5C03F01F0340
:1041500022FA03F3184680BD00440258F86F0008A5
:1041600080B489B000AF7860A14B9B6A03F0030371
:10417000BB619F4B9B6A1B0B03F03F037B619C4B16
:10418000DB6A1B0903F001033B61994BDB6BDB0826
:10419000C3F30C033A6902FB03F307EE903AF8EE1F
:1041A000677AC7ED037A7B69002B00F01181BB6948
:1041B000022B00F08380BB69022B00F2A180BB6957
:1041C000002B03D0BB69012B56D099E0884B1B68AC
:1041D00003F02003002B2DD0854B1B68DB0803F078
:1041E0000303844A22FA03F3BB60BB6807EE903AEC
:1041F000F8EE676A7B6907EE903AF8EE677A86EE2A
:10420000A77A7B4B9B6BC3F3080307EE903AF8EE5B
:10421000676A97ED036ADFED785AC6EE257A76EE87
:10422000A77AF7EE006A77EEA67A67EE277AC7EDEF
:10423000077A87E07B6907EE903AF8EE677ADFED60
:104240006F6A86EEA77A6A4B9B6BC3F3080307EE8F
:10425000903AF8EE676A97ED036ADFED675AC6EEAB
:10426000257A76EEA77AF7EE006A77EEA67A67EE01
:10427000277AC7ED077A65E07B6907EE903AF8EE9A
:10428000677ADFED5F6A86EEA77A594B9B6BC3F3C3
:10429000080307EE903AF8EE676A97ED036ADFEDE0
:1042A000565AC6EE257A76EEA77AF7EE006A77EED2
:1042B000A67A67EE277AC7ED077A43E07B6907EEB7
:1042C000903AF8EE677ADFED4F6A86EEA77A484BB0
:1042D0009B6BC3F3080307EE903AF8EE676A97ED1D
:1042E000036ADFED455AC6EE257A76EEA77AF7EE39
:1042F000006A77EEA67A67EE277AC7ED077A21E0A3
:104300007B6907EE903AF8EE677ADFED3D6A86EE5C
:10431000A77A374B9B6BC3F3080307EE903AF8EE8E
:10432000676A97ED036ADFED345AC6EE257A76EEBA
:10433000A77AF7EE006A77EEA67A67EE277AC7EDDE
:10434000077A00BF2A4B9B6B5B0A03F07F0307EEE3
:10435000903AF8EE677AB7EE007A37EE877AD7EDC3
:10436000076AC6EE877AFCEEE77A17EE902A7B683A
:104370001A601F4B9B6B1B0C03F07F0307EE903AF8
:10438000F8EE677AB7EE007A37EE877AD7ED076AEC
:10439000C6EE877AFCEEE77A17EE902A7B685A60C1
:1043A000134B9B6B1B0E03F07F0307EE903AF8EE66
:1043B000677AB7EE007A37EE877AD7ED076AC6EEEE
:1043C000877AFCEEE77A17EE902A7B689A6008E01D
:1043D0007B6800221A607B6800225A607B6800229A
:1043E0009A6000BF2437BD465DF8047B704700BF6C
:1043F000004402580090D003000000460024744C92
:104400000024744A20BCBE4B80B489B000AF7860F1
:10441000A14B9B6A03F00303BB619F4B9B6A1B0D7F
:1044200003F03F037B619C4BDB6A1B0A03F0010333
:104430003B61994B5B6CDB08C3F30C033A6902FBED
:1044400003F307EE903AF8EE677AC7ED037A7B69DB
:10445000002B00F01181BB69022B00F08380BB6947
:10446000022B00F2A180BB69002B03D0BB69012B9A
:1044700056D099E0884B1B6803F02003002B2DD009
:10448000854B1B68DB0803F00303844A22FA03F31D
:10449000BB60BB6807EE903AF8EE676A7B6907EE8F
:1044A000903AF8EE677A86EEA77A7B4B1B6CC3F3E3
:1044B000080307EE903AF8EE676A97ED036ADFEDBE
:1044C000785AC6EE257A76EEA77AF7EE006A77EE8E
:1044D000A67A67EE277AC7ED077A87E07B6907EE51
:1044E000903AF8EE677ADFED6F6A86EEA77A6A4B4C
:1044F0001B6CC3F3080307EE903AF8EE676A97ED7A
:10450000036ADFED675AC6EE257A76EEA77AF7EEF4
:10451000006A77EEA67A67EE277AC7ED077A65E03C
:104520007B6907EE903AF8EE677ADFED5F6A86EE18
:10453000A77A594B1B6CC3F3080307EE903AF8EEC9
:10454000676A97ED036ADFED565AC6EE257A76EE76
:10455000A77AF7EE006A77EEA67A67EE277AC7EDBC
:10456000077A43E07B6907EE903AF8EE677ADFED71
:104570004F6A86EEA77A484B1B6CC3F3080307EE1D
:10458000903AF8EE676A97ED036ADFED455AC6EE9A
:10459000257A76EEA77AF7EE006A77EEA67A67EECE
:1045A000277AC7ED077A21E07B6907EE903AF8EEAB
:1045B000677ADFED3D6A86EEA77A374B1B6CC3F353
:1045C000080307EE903AF8EE676A97ED036ADFEDAD
:1045D000345AC6EE257A76EEA77AF7EE006A77EEC1
:1045E000A67A67EE277AC7ED077A00BF2A4B1B6CC5
:1045F0005B0A03F07F0307EE903AF8EE677AB7EEB6
:10460000007A37EE877AD7ED076AC6EE877AFCEE36
:10461000E77A17EE902A7B681A601F4B1B6C1B0C05
:1046200003F07F0307EE903AF8EE677AB7EE007A70
:1046300037EE877AD7ED076AC6EE877AFCEEE77A1F
:1046400017EE902A7B685A60134B1B6C1B0E03F00D
:104650007F0307EE903AF8EE677AB7EE007A37EE0E
:10466000877AD7ED076AC6EE877AFCEEE77A17EE0F
:10467000902A7B689A6008E07B6800221A607B6859
:1046800000225A607B6800229A6000BF2437BD4632
:104690005DF8047B704700BF004402580090D003CF
:1046A000000000460024744C0024744A20BCBE4B19
:1046B00080B584B000AF786039600023FB73534B42
:1046C0009B6A03F00303032B01D1012399E04F4BB5
:1046D0001B684E4A23F080631360FCF785FFB860C7
:1046E00008E0FCF781FF0246BB68D31A022B01D910
:1046F000032386E0454B1B6803F00063002BF0D1D9
:10470000424B9B6A23F47C327B681B681B033F4946
:1047100013438B627B685B68013BC3F308027B68D1
:104720009B68013B5B029BB21A437B68DB68013BE1
:104730001B0403F4FE031A437B681B69013B1B0641
:1047400003F0FE43314913438B63304BDB6A23F0A4
:10475000C0027B685B692D491343CB622B4BDB6A3C
:1047600023F020027B689B6928491343CB62274BC7
:10477000DB6A264A23F01003D362244BDA6B244B06
:1047800013407A68D269D20020491343CB631F4B90
:10479000DB6A1E4A43F01003D3623B68002B06D14C
:1047A0001A4BDB6A194A43F40023D3620FE03B68DB
:1047B000012B06D1154BDB6A144A43F48013D362F4
:1047C00005E0124BDB6A114A43F40013D3620F4B2E
:1047D0001B680E4A43F080631360FCF705FFB86066
:1047E00008E0FCF701FF0246BB68D31A022B01D98F
:1047F000032306E0054B1B6803F00063002BF0D099
:10480000FB7B18461037BD4680BD00BF00440258F0
:104810000700FFFF80B584B000AF786039600023E7
:10482000FB73534B9B6A03F00303032B01D101235A
:1048300099E04F4B1B684E4A23F080531360FCF7FE
:10484000D3FEB86008E0FCF7CFFE0246BB68D31A7F
:10485000022B01D9032386E0454B1B6803F000536C
:10486000002BF0D1424B9B6A23F07C727B681B6863
:104870001B053F4913438B627B685B68013BC3F3B5
:1048800008027B689B68013B5B029BB21A437B6812
:10489000DB68013B1B0403F4FE031A437B681B69BE
:1048A000013B1B0603F0FE43314913430B64304BBD
:1048B000DB6A23F440627B685B692D491343CB625A
:1048C0002B4BDB6A23F400727B689B6928491343F6
:1048D000CB62274BDB6A264A23F48073D362244BD6
:1048E0005A6C244B13407A68D269D2002049134392
:1048F0004B641F4BDB6A1E4A43F48073D3623B68F0
:10490000002B06D11A4BDB6A194A43F48003D362A9
:104910000FE03B68012B06D1154BDB6A144A43F4C8
:104920000003D36205E0124BDB6A114A43F0807347
:10493000D3620F4B1B680E4A43F080531360FCF7A1
:1049400053FEB86008E0FCF74FFE0246BB68D31A7E
:10495000022B01D9032306E0054B1B6803F000532B
:10496000002BF0D0FB7B18461037BD4680BD00BF42
:10497000004402580700FFFF80B586B000AF7860A2
:1049800039607B68002B01D101238FE07B6893F8AD
:104990003D30DBB2002B06D17B68002283F83C203F
:1049A0007868FCF7ADFB7B68022283F83D207B68CA
:1049B0001B6899687B681A683E4B0B4093607B6864
:1049C0001A687B6804331946104600F009F97B68C1
:1049D0001B689B687B617B681B689B693B617B688C
:1049E0001B681B6AFB603B681B687A6913437B6129
:1049F0003A69314B13403B613B689A683B689B695D
:104A00001B0213433A6913433B613A692B4B134032
:104A10003B613A692A4B13403B613B68DA683B686B
:104A2000DB691B0213433A6913433B613B681B6913
:104A30001A013B681B6A1B0313433A6913433B612A
:104A4000FB6823F02203FB60FB6823F08803FB6014
:104A50003B685A683B685B691B011343FA68134360
:104A6000FB607B681B687A699A607B681B683A699F
:104A70009A617B681B68FA681A627B68012283F876
:104A800048207B68012283F83E207B68012283F85E
:104A90003F207B68012283F844207B68012283F851
:104AA00045207B68012283F83D20002318461837F3
:104AB000BD4680BDF8BFFEFFFCFCFFFFF3F3FFFF28
:104AC0000F0FFFFF80B584B000AF786039607B685E
:104AD00093F83E30FB737B6893F83F30BB737B6881
:104AE00093F844307B737B6893F845303B733B68A5
:104AF000002B10D1FB7B012B02D17B7B012B01D042
:104B0000012369E07B68022283F83E207B68022251
:104B100083F8442031E03B68042B10D1BB7B012B90
:104B200002D13B7B012B01D0012355E07B6802229F
:104B300083F83F207B68022283F845201DE0FB7B41
:104B4000012B08D1BB7B012B05D17B7B012B02D133
:104B50003B7B012B01D001233EE07B68022283F8DE
:104B60003E207B68022283F83F207B68022283F884
:104B700044207B68022283F845203B68002B03D049
:104B80003B68042B08D00FE07B681B6801220021E2
:104B9000184600F0CBF816E07B681B680122042160
:104BA000184600F0C3F80EE07B681B680122002164
:104BB000184600F0BBF87B681B68012204211846E8
:104BC00000F0B4F800BF7B681B681A687B681B683C
:104BD00042F001021A60002318461037BD4680BD1E
:104BE00080B485B000AF786039607B681B68FB607B
:104BF0007B68464A934213D07B68B3F1804F0FD055
:104C00007B68434A93420BD07B68424A934207D069
:104C10007B68414A934203D07B68404A934208D163
:104C2000FB6823F07003FB603B685B68FA68134322
:104C3000FB607B68354A93421FD07B68B3F1804F9D
:104C40001BD07B68324A934217D07B68314A93422B
:104C500013D07B68304A93420FD07B682F4A93422F
:104C60000BD07B682E4A934207D07B682D4A934233
:104C700003D07B682C4A934208D1FB6823F440732D
:104C8000FB603B68DB68FA681343FB60FB6823F05A
:104C900080023B685B691343FB607B68FA681A60BB
:104CA0003B689A687B68DA623B681A687B689A623C
:104CB0007B68164A93420FD07B68184A93420BD008
:104CC0007B68174A934207D07B68164A934203D009
:104CD0007B68154A934203D13B681A697B681A6363
:104CE0007B6801225A617B681B6903F00103012B79
:104CF00005D17B681B6923F001027B681A6100BF44
:104D00001437BD465DF8047B704700BF00000140CA
:104D10000004004000080040000C00400004014076
:104D200000400140004401400048014080B487B089
:104D300000AFF860B9607A60BB6803F01F0301221E
:104D400002FA03F37B61FB681A6A7B69DB431A4052
:104D5000FB681A62FB681A6ABB6803F01F03796874
:104D600001FA03F31A43FB681A6200BF1C37BD4601
:104D70005DF8047B7047000080B485B000AF7860B8
:104D800039607B6893F83C30012B01D102236DE040
:104D90007B68012283F83C207B68022283F83D2057
:104DA0007B681B685B68FB607B681B689B68BB60FB
:104DB0007B681B68304A934204D07B681B682F4A8B
:104DC000934208D1FB6823F47003FB603B685B6887
:104DD000FA681343FB60FB6823F07003FB603B68D9
:104DE0001B68FA681343FB607B681B68FA685A60AB
:104DF0007B681B68204A934222D07B681B68B3F112
:104E0000804F1DD07B681B681D4A934218D07B6879
:104E10001B681C4A934213D07B681B681A4A934252
:104E20000ED07B681B68154A934209D07B681B68CB
:104E3000164A934204D07B681B68154A93420CD1F2
:104E4000BB6823F08003BB603B689B68BA68134370
:104E5000BB607B681B68BA689A607B68012283F834
:104E60003D207B68002283F83C200023184614373D
:104E7000BD465DF8047B704700000140000401401E
:104E80000004004000080040000C004000180040F2
:104E90000040014080B582B000AF78607B68002B95
:104EA00001D1012342E07B68D3F88830002B06D182
:104EB0007B68002283F884207868FCF77BFA7B68A3
:104EC0002422C3F888207B681B681A687B681B68EB
:104ED00022F001021A607B689B6A002B02D078687E
:104EE00000F01EFE786800F0B3F80346012B01D1F4
:104EF00001231BE07B681B685A687B681B6822F4EF
:104F000090425A607B681B689A687B681B6822F035
:104F10002A029A607B681B681A687B681B6842F0EB
:104F200001021A60786800F09DFE034618460837B3
:104F3000BD4680BD80B58AB002AFF860B9603B6005
:104F40001346FB80FB68D3F88830202B7BD1BB68ED
:104F5000002B02D0FB88002B01D1012374E0FB68F9
:104F60000022C3F89020FB682122C3F88820FCF7B8
:104F70003BFB7861FB68FA88A3F85420FB68FA8849
:104F8000A3F85620FB689B68B3F5805F08D1FB68E7
:104F90001B69002B04D10023FB61BB68BB6103E0EC
:104FA000BB68FB610023BB6130E03B6800937B6919
:104FB00000228021F86800F0FFFE0346002B05D098
:104FC000FB682022C3F8882003233DE0FB69002B07
:104FD0000BD1BB691B881A46FB681B68C2F3080229
:104FE0009A62BB690233BB6107E0FB691A78FB6810
:104FF0001B689A62FB690133FB61FB68B3F85630AA
:105000009BB2013B9AB2FB68A3F85620FB68B3F849
:1050100056309BB2002BC8D13B6800937B690022BD
:105020004021F86800F0C8FE0346002B05D0FB685D
:105030002022C3F88820032306E0FB682022C3F85F
:105040008820002300E0022318462037BD4680BD9B
:105050002DE9B04F92B000AF7861002387F842305D
:105060007B699A687B691B691A437B695B691A4390
:105070007B69DB6913437B647B691B681A68BE4BE1
:1050800013407A691268796C0B4313607B691B6863
:105090005B6823F440517B69DA687B691B680A43CB
:1050A0005A607B699B697B647B691B68B34A934246
:1050B00004D07B691B6A7A6C13437B647B691B6831
:1050C0009A68AF4B13407A691268796C0B4393600E
:1050D0007B691B68DB6A23F00F017B695A6A7B6975
:1050E0001B680A43DA627B691B68A64A934277D140
:1050F000A54B5B6D03F03803282B6DD801A252F845
:1051000023F000BFA9510008D9510008D951000867
:10511000D9510008D9510008D9510008D9510008C7
:10512000D9510008B1510008D9510008D9510008DF
:10513000D9510008D9510008D9510008D9510008A7
:10514000D9510008B9510008D9510008D9510008B7
:10515000D9510008D9510008D9510008D951000887
:10516000D9510008C1510008D9510008D95100088F
:10517000D9510008D9510008D9510008D951000867
:10518000D9510008C9510008D9510008D951000867
:10519000D9510008D9510008D9510008D951000847
:1051A000D9510008D1510008012387F8433022E289
:1051B000042387F843301EE2082387F843301AE2BD
:1051C000102387F8433016E2202387F8433012E299
:1051D000402387F843300EE2802387F843300AE209
:1051E0007B691B68694A934230D1674B5B6D03F062
:1051F0000703052B26D801A252F823F01552000808
:105200001D520008255200082D5200083552000892
:105210003D520008002387F84330ECE1042387F86F
:105220004330E8E1082387F84330E4E1102387F8AE
:105230004330E0E1202387F84330DCE1402387F866
:105240004330D8E1802387F84330D4E17B691B6881
:105250004F4A934230D14C4B5B6D03F00703052B53
:1052600026D801A252F823F0815200088952000882
:105270009152000899520008A1520008A952000852
:10528000002387F84330B6E1042387F84330B2E1C6
:10529000082387F84330AEE1102387F84330AAE1B2
:1052A000202387F84330A6E1402387F84330A2E16A
:1052B000802387F843309EE17B691B68354A93421F
:1052C00030D1314B5B6D03F00703052B26D801A2CB
:1052D00052F823F0ED520008F5520008FD52000884
:1052E000055300080D53000815530008002387F8E4
:1052F000433080E1042387F843307CE1082387F8BA
:10530000433078E1102387F8433074E1202387F895
:10531000433070E1402387F843306CE1802387F805
:10532000433068E17B691B681B4A934242D1164BAC
:105330005B6D03F00703052B38D801A252F823F068
:10534000595300086153000869530008715300085D
:105350009D530008A5530008002387F843304AE115
:10536000042387F8433046E1082387F8433042E1BD
:10537000102387F843303EE1F369FFCF000C00585B
:10538000FFF4FF11001001400044025800440040A7
:1053900000480040004C004000500040202387F8A7
:1053A000433028E1402387F8433024E1802387F805
:1053B000433020E17B691B68CB4A934276D1CB4BCB
:1053C0005B6D03F03803282B6CD801A252F823F050
:1053D00075540008A5540008A5540008A5540008F9
:1053E000A5540008A5540008A5540008A5540008B9
:1053F0007D540008A5540008A5540008A5540008D1
:10540000A5540008A5540008A5540008A554000898
:1054100085540008A5540008A5540008A5540008A8
:10542000A5540008A5540008A5540008A554000878
:105430008D540008A5540008A5540008A554000880
:10544000A5540008A5540008A5540008A554000858
:1054500095540008A5540008A5540008A554000858
:10546000A5540008A5540008A5540008A554000838
:105470009D540008012387F84330BCE0042387F8DB
:105480004330B8E0082387F84330B4E0102387F8AE
:105490004330B0E0202387F84330ACE0402387F866
:1054A0004330A8E0802387F84330A4E07B691B6881
:1054B0008F4A934230D18D4B5B6D03F00703052B70
:1054C00026D801A252F823F0E1540008E95400085C
:1054D000F1540008F9540008015500080955000866
:1054E000002387F8433086E0042387F8433082E0C6
:1054F000082387F843307EE0102387F843307AE0B2
:10550000202387F8433076E0402387F8433072E069
:10551000802387F843306EE07B691B68754A9342AD
:1055200030D1724B5B6D03F00703052B26D801A227
:1055300052F823F04D550008555500085D550008F8
:10554000655500086D55000875550008002387F85B
:10555000433050E0042387F843304CE0082387F8B9
:10556000433048E0102387F8433044E0202387F895
:10557000433040E0402387F843303CE0802387F805
:10558000433038E07B691B685B4A934230D1574B0C
:105590009B6D03F00703052B26D801A252F823F0D8
:1055A000B9550008C1550008C9550008D155000873
:1055B000D9550008E1550008022387F843301AE066
:1055C000042387F8433016E0082387F8433012E0BD
:1055D000102387F843300EE0202387F843300AE099
:1055E000402387F8433006E0802387F8433002E009
:1055F000802387F843307B691B683F4A934240F021
:10560000F88097F84330202B46DC022BC0F28280D2
:10561000023B1E2B7ED801A252F823F09F560008B1
:1056200015570008A7560008155700081557000819
:1056300015570008B75600081557000815570008F9
:10564000155700081557000815570008155700088A
:1056500015570008C75600081557000815570008C9
:10566000155700081557000815570008155700086A
:10567000155700081557000815570008155700085A
:10568000155700081557000815570008155700084A
:105690001557000807570008402B37D03AE0FEF7AF
:1056A00049FDF8633CE007F124031846FEF758FD76
:1056B000BB6AFB6334E007F118031846FEF7A4FE4B
:1056C000FB69FB632CE0094B1B6803F02003002BF4
:1056D00016D0064B1B68DB0803F00303074A22FAC7
:1056E00003F3FB631CE000BF0014014000440258B8
:1056F00000780040007C0040000C00580090D0036F
:105700009D4BFB630CE09D4BFB6309E04FF40043B2
:10571000FB6305E00023FB63012387F8423000BFF1
:10572000FB6B002B00F0DE817B695B6A944A32F8E8
:1057300013301A46FB6BB3FBF2F33B637B695A6889
:1057400013465B0013443A6B9A4205D37B695B684E
:105750001B033A6B9A4203D9012387F84230C1E117
:10576000FB6B0022BB60FA607B695B6A844A32F89B
:1057700013309BB200223B607A60D7E90023D7E95F
:105780000201FAF7FDFD02460B46104619464FF09E
:1057900000024FF000030B0243EA10630202796932
:1057A0004968490800200C46054612EB040843EB03
:1057B00005097B695B6800229A46934652465B4620
:1057C00040464946FAF7DCFD02460B461346BB63EA
:1057D000BB6BB3F5407F08D3BB6BB3F5801F04D21E
:1057E0007B691B68BA6BDA607CE1012387F8423081
:1057F00078E17B69DB69B3F5004F40F0C58097F82D
:105800004330202B48DC002B7BDB202B79D801A2F6
:1058100052F823F09F580008A758000803590008C1
:1058200003590008AF58000803590008035900083D
:1058300003590008BF58000803590008035900081D
:1058400003590008035900080359000803590008C8
:1058500003590008CF5800080359000803590008ED
:1058600003590008035900080359000803590008A8
:105870000359000803590008035900080359000898
:105880000359000803590008035900080359000888
:1058900003590008F5580008402B2ED031E0FDF7E1
:1058A00013FAF86333E0FDF725FAF8632FE007F108
:1058B00024031846FEF754FCBB6AFB6327E007F19C
:1058C00018031846FEF7A0FDFB69FB631FE02D4B94
:1058D0001B6803F02003002B09D02A4B1B68DB0850
:1058E00003F00303244A22FA03F3FB630FE0224B85
:1058F000FB630CE0214BFB6309E04FF40043FB63C7
:1059000005E00023FB63012387F8423000BFFB6BF7
:10591000002B00F0E7807B695B6A194A32F813308C
:105920001A46FB6BB3FBF2F35A007B695B685B08BA
:105930001A447B695B68B2FBF3F3BB63BB6B0F2B51
:1059400016D9BB6BB3F5803F12D2BB6B9BB223F071
:105950000F03FB86BB6B5B089BB203F007039AB295
:10596000FB8E1343FB867B691B68FA8EDA60B9E015
:10597000012387F84230B5E00090D00300093D00D4
:10598000087000080044025897F84330202B49DC87
:10599000002B7CDB202B7AD801A252F823F000BF29
:1059A0002B5A0008335A00088F5A00088F5A0008F3
:1059B0003B5A00088F5A00088F5A00088F5A000877
:1059C0004B5A00088F5A00088F5A00088F5A000857
:1059D0008F5A00088F5A00088F5A00088F5A000803
:1059E0005B5A00088F5A00088F5A00088F5A000827
:1059F0008F5A00088F5A00088F5A00088F5A0008E3
:105A00008F5A00088F5A00088F5A00088F5A0008D2
:105A10008F5A00088F5A00088F5A00088F5A0008C2
:105A2000815A0008402B2ED031E0FDF74DF9F86384
:105A300033E0FDF75FF9F8632FE007F12403184620
:105A4000FEF78EFBBB6AFB6327E007F118031846DD
:105A5000FEF7DAFCFB69FB631FE02D4B1B6803F0CC
:105A60002003002B09D02A4B1B68DB0803F003033B
:105A7000284A22FA03F3FB630FE0264BFB630CE09A
:105A8000254BFB6309E04FF40043FB6305E0002373
:105A9000FB63012387F8423000BFFB6B002B21D052
:105AA0007B695B6A1D4A32F813301A46FB6BB3FB05
:105AB000F2F27B695B685B081A447B695B68B2FB46
:105AC000F3F3BB63BB6B0F2B09D9BB6BB3F5803F03
:105AD00005D2BB6B9AB27B691B68DA6002E00123D6
