:020000040800F2
:1000000000000824E50F0008E1090008E9090008DC
:10001000F1090008F9090008010A000800000000C1
:10002000000000000000000000000000090A0008B5
:10003000170A000800000000250A0008330A00081B
:10004000351000083510000835100008351000087C
:10005000351000083510000835100008351000086C
:10006000351000083510000835100008351000085C
:10007000351000083510000835100008351000084C
:10008000351000083510000835100008351000083C
:10009000351000083510000835100008351000082C
:1000A000351000083510000835100008351000081C
:1000B000351000083510000835100008351000080C
:1000C00035100008351000083510000835100008FC
:1000D00035100008351000083510000835100008EC
:1000E0003510000835100008000000003510000829
:1000F00035100008351000083510000835100008CC
:1001000035100008351000083510000835100008BB
:1001100035100008351000083510000835100008AB
:10012000351000083510000835100008351000089B
:10013000351000083510000835100008351000088B
:1001400000000000000000000000000000000000AF
:10015000351000083510000835100008351000086B
:10016000351000083510000835100008351000085B
:100170003510000835100008351000080000000098
:10018000351000083510000835100008351000083B
:10019000351000083510000835100008351000082B
:1001A000351000083510000835100008351000081B
:1001B000351000083510000835100008351000080B
:1001C00035100008351000083510000835100008FB
:1001D00035100008351000083510000835100008EB
:1001E00035100008351000083510000835100008DB
:1001F00035100008351000083510000835100008CB
:1002000035100008351000083510000835100008BA
:1002100035100008351000083510000835100008AA
:1002200035100008351000083510000800000000E7
:1002300035100008351000080000000035100008D7
:10024000351000083510000835100008351000087A
:10025000351000083510000835100008351000086A
:10026000351000083510000835100008351000085A
:100270003510000835100008351000080000000097
:100280003510000835100008351000080000000087
:08029000000000003510000819
:1002980010B5054C237833B9044B13B10448AFF3B8
:1002A80000800123237010BD10000024000000000E
:1002B8000838000808B5034B1BB103490348AFF3DE
:1002C800008008BD00000000140000240838000861
:1002D80080B500AF00F098F84FF47A7000F03AFF5C
:1002E80040F29A21002000F003F940F29A210120FF
:1002F80000F0FEF840F29A21022000F0F9F840F2EE
:100308009A21032000F0F4F84FF47A7000F022FFED
:10031800002000F0A1F84FF47A7000F01BFF0E499E
:10032800002000F0E5F80C49012000F0E1F80A4946
:10033800022000F0DDF80849032000F0D9F84FF456
:100348007A7000F007FF012000F086F84FF47A7009
:1003580000F000FF00BFC3E766FDFFFF80B483B075
:1003680000AF0346FB80B7F90630002B05DDFB889C
:1003780003F2E7339BB21BB20AE0B7F90630002B51
:1003880005DAFB88A3F2E7339BB21BB200E0002337
:1003980018460C37BD465DF8047B704780B483B0BF
:1003A80000AF0346FB80B7F9063040F2CE729342A5
:1003B80002DD40F2CF7308E0B7F90630064A9342EF
:1003C80001DA064B01E0B7F9063018460C37BD468E
:1003D8005DF8047B704700BF32F8FFFF31F8FFFF7C
:1003E80080B483B000AF0346FB80B7F90630002B1A
:1003F80003DAFB885B429BB200E0FB8818460C37A7
:10040800BD465DF8047B704780B500AF00211048F9
:1004180002F012FA04210E4802F00EFA08210C48E4
:1004280002F00AFA0C210A4802F006FA00210948EB
:1004380002F0C6FF0421074802F0C2FF0821054860
:1004480002F0FAF90C21034802F0F6F900BF80BD6A
:100458002C0000247800002480B483B000AF034649
:10046800FB71FB79002B01D00123FB71FB7940F272
:10047800CF7203FB02F21C4BDA63FB7940F2CF72B6
:1004880003FB02F2184B1A64FB7940F2CF7203FBAC
:1004980002F2154B5A63FB7940F2CF7203FB02F26A
:1004A800114B9A63FB7940F2CF7203FB02F20F4BB8
:1004B8005A63FB7940F2CF7203FB02F20B4B9A634B
:1004C800FB7940F2CF7203FB02F2084BDA63FB7947
:1004D80040F2CF7203FB02F2044B1A6400BF0C37E0
:1004E800BD465DF8047B70470000014000040140F0
:1004F80080B584B000AF03460A46FB711346BB8043
:10050800B7F904301846FFF729FF0346FB81B7F90E
:100518000E301846FFF742FF0346FB81FB79042B98
:1005280000F2D08001A252F823F000BF490500086C
:100538007B050008AD050008D7050008010600087E
:10054800FB895B429BB2FB81B7F90E30002B07DBBE
:100558005F4AB7F90E30D3635D4B00221A64B2E0EC
:100568005B4B0022DA63B7F90E305A42584B1A64D3
:10057800A9E0FB895B429BB2FB81B7F90E30002BE7
:1005880007DB534AB7F90E305363514B00229A6385
:1005980099E04F4B00225A63B7F90E305A424C4B40
:1005A8009A6390E0B7F90E30002B07DB494AB7F998
:1005B8000E305363474B00229A6384E0454B002278
:1005C8005A63B7F90E305A42424B9A637BE0B7F947
:1005D8000E30002B07DB3F4AB7F90E30D3633D4B93
:1005E80000221A646FE03B4B0022DA63B7F90E3041
:1005F8005A42384B1A6466E0B7F90E30002B30DBEC
:10060800334B0022DA63B7F90E301846FFF7E8FEDD
:1006180003461A462E4B1A642D4B00225A63B7F92B
:100628000E301846FFF7DCFE03461A46284B9A633D
:10063800B7F90E301846FFF7D3FE03461A46254B86
:100648005A63244B00229A63B7F90E301846FFF715
:10065800C7FE03461A461F4BDA631E4B00221A6474
:1006680031E0B7F90E301846FFF7BAFE03461A46CE
:10067800174BDA63164B00221A64B7F90E30184686
:10068800FFF7AEFE03461A46114B5A63104B002281
:100698009A63104B00225A63B7F90E301846FFF7D9
:1006A8009FFE03461A460B4B9A630A4B0022DA63F5
:1006B800B7F90E301846FFF793FE03461A46054B66
:1006C8001A6400E000BF00BF1037BD4680BD00BF00
:1006D800000001400004014080B58AB000AF07F176
:1006E800140300221A605A609A60DA601A61324B69
:1006F800D3F8E030304A43F00403C2F8E0302E4B20
:10070800D3F8E03003F004033B613B692A4BD3F88C
:10071800E030294A43F08003C2F8E030264BD3F892
:10072800E03003F08003FB60FB68234BD3F8E03034
:10073800214A43F00103C2F8E0301F4BD3F8E03000
:1007480003F00103BB60BB681B4BD3F8E0301A4AC7
:1007580043F00203C2F8E030174BD3F8E03003F05F
:1007680002037B607B68144BD3F8E030124A43F0F5
:100778001003C2F8E030104BD3F8E03003F0100358
:100788003B603B6800224FF400510C4801F01EF812
:100798004FF400537B610123BB610023FB610023FD
:1007A8003B6207F114031946044800F05FFE00BFDE
:1007B8002837BD4680BD00BF0044025800080258D3
:1007C80080B500AF00F0BCF800F032FC00F00AF889
:1007D800FFF782FF00F0B8F900F06AFAFFF778FD3A
:1007E80000BFFDE780B59EB000AF07F12C034C2297
:1007F8000021184602F0D7FF07F10C032022002140
:10080800184602F0D0FF022000F0FAFF0023BB6078
:10081800484BDB6A474A23F00103D362454BDB6A46
:1008280003F00103BB60444B9B69434A43F44043D4
:100838009361414B9B6903F44043BB60BB6800BFB5
:100848003D4B9B6903F40053B3F5005FF8D13B4B74
:10085800D3F8F430394A43F00203C2F8F430374B86
:10086800D3F8F43003F002037B607B6800233B601D
:10087800314B9B69304A43F4404393612E4B9B694B
:1008880003F440433B602B4BDB6A2A4A43F00103E5
:10089800D362284BDB6A03F001033B603B6800BF6F
:1008A800254B9B6903F40053B3F5005FF8D101238E
:1008B800FB624FF480333B6302233B6502237B6575
:1008C8000523BB65C023FB6502233B6602237B66C9
:1008D8000223BB660823FB6600233B6700237B6774
:1008E80007F12C03184600F0C5FF0346002B01D082
:1008F80000F052F83F23FB6003233B6100237B6138
:100908000823BB614023FB6140233B624FF48063B3
:100918007B624023BB6207F10C030421184601F0F7
:1009280003FC0346002B01D000F036F800BF7837EF
:10093800BD4680BD000400580048025800440258D3
:1009480080B584B000AF3B4600221A605A609A60B6
:10095800DA6000F013FD01233B7000237B70002355
:100968007B601F233B7287237B720023BB720023AB
:10097800FB7201233B7301237B730023BB730023AA
:10098800FB733B46184600F031FD042000F00EFDD5
:1009980000BF1037BD4680BD80B400AF72B600BF3F
:1009A80000BFFDE780B483B000AF0A4BD3F8F43042
:1009B800084A43F00203C2F8F430064BD3F8F43087
:1009C80003F002037B607B6800BF0C37BD465DF80F
:1009D800047B70470044025880B400AF00BFFDE7B5
:1009E80080B400AF00BFFDE780B400AF00BFFDE7F3
:1009F80080B400AF00BFFDE780B400AF00BFFDE7E3
:100A080080B400AF00BFBD465DF8047B704780B47A
:100A180000AF00BFBD465DF8047B704780B400AFEF
:100A280000BFBD465DF8047B704780B500AF00F09D
:100A380071FB00BF80BD000080B400AF374BD3F816
:100A48008830364A43F47003C2F88830344B1B6848
:100A580003F00F03062B07D8314B1B6823F00F0355
:100A68002F4A43F0070313602E4B1B682D4A43F0AF
:100A7800010313602B4B00221A612A4B1A6829497B
:100A8800294B13400B60264B1B6803F00803002B0F
:100A980007D0234B1B6823F00F03214A43F00703B9
:100AA8001360204B00229A611E4B0022DA611D4B15
:100AB80000221A621B4B1D4A9A621A4B1C4ADA62C0
:100AC800184B1C4A1A63174B00225A63154B194AD4
:100AD8009A63144B0022DA63124B164A1A64114BBC
:100AE80000225A640F4B1B680E4A23F480231360BC
:100AF8000C4B00221A66104B1A68104B1340B3F1C6
:100B0800005F02D20E4B01221A600E4B43F2D20252
:100B18001A6000BFBD465DF8047B704700ED00E039
:100B280000200052004402587FEDF6EA000202025B
:100B38000000FF01800201010010005C0000FFFFBF
:100B4800088100510040005280B596B000AF07F10F
:100B58004C0300221A605A609A6007F130030022A1
:100B68001A605A609A60DA601A615A619A613B1D8C
:100B78002C220021184602F016FE4B4B4B4A1A60F5
:100B8800494B04225A60484B00229A60464B40F277
:100B9800CF72DA60444B00221A61434B00225A613B
:100BA800414B80229A61404801F0EEFD0346002B3C
:100BB80001D0FFF7F1FE0023FB6400233B6500230F
:100BC8007B6507F14C031946374802F0BBFC034626
:100BD800002B01D0FFF7E0FE60233B6300237B631B
:100BE8000023BB630023FB6300233B6400237B6477
:100BF8000023BB6407F13003002219462A4801F09C
:100C080029FF0346002B01D0FFF7C6FE07F130038A
:100C180004221946244801F01DFF0346002B01D089
:100C2800FFF7BAFE07F13003082219461E4801F003
:100C380011FF0346002B01D0FFF7AEFE07F130038A
:100C48000C221946184801F005FF0346002B01D075
:100C5800FFF7A2FE00237B600023BB600023FB603C
:100C680000233B6100237B614FF40053BB610023E9
:100C7800FB6100233B624FF000737B620023BB6281
:100C88000023FB623B1D1946074802F0E9FC0346B6
:100C9800002B01D0FFF780FE034800F0F7F800BFF3
:100CA8005837BD4680BD00BF2C000024000001401D
:100CB80080B596B000AF07F14C0300221A605A6065
:100CC8009A6007F1300300221A605A609A60DA606D
:100CD8001A615A619A613B1D2C220021184602F0C4
:100CE80062FD4B4B4B4A1A60494B04225A60484BF1
:100CF80000229A60464B40F2CF72DA60444B0022E1
:100D08001A61434B00225A61414B80229A61404844
:100D180001F03AFD0346002B01D0FFF73DFE00230A
:100D2800FB6400233B6500237B6507F14C031946F0
:100D3800374802F007FC0346002B01D0FFF72CFED2
:100D480060233B6300237B630023BB630023FB63B7
:100D580000233B6400237B640023BB6407F130035A
:100D6800002219462A4801F075FE0346002B01D0DF
:100D7800FFF712FE07F1300304221946244801F058
:100D880069FE0346002B01D0FFF706FE07F130038A
:100D9800082219461E4801F05DFE0346002B01D0CB
:100DA800FFF7FAFD07F130030C221946184801F045
:100DB80051FE0346002B01D0FFF7EEFD00237B60B8
:100DC8000023BB600023FB6000233B6100237B61A1
:100DD8004FF40053BB610023FB6100233B624FF0DB
:100DE80000737B620023BB620023FB623B1D194634
:100DF800074802F035FC0346002B01D0FFF7CCFD75
:100E0800034800F043F800BF5837BD4680BD00BF17
:100E1800780000240004014080B485B000AF7860F9
:100E28007B681B68164A93420FD1164BD3F8F030F3
:100E3800144A43F00103C2F8F030124BD3F8F030F3
:100E480003F00103FB60FB6813E07B681B680E4A34
:100E580093420ED10B4BD3F8F0300A4A43F0020309
:100E6800C2F8F030074BD3F8F03003F00203BB6050
:100E7800BB6800BF1437BD465DF8047B704700BFF0
:100E880000000140004402580004014080B58CB0C5
:100E980000AF786007F11C0300221A605A609A605C
:100EA800DA601A617B681B68454A934220D1454B3A
:100EB800D3F8E030434A43F01003C2F8E030414B26
:100EC800D3F8E03003F01003BB61BB694FF4D4439F
:100ED800FB6102233B6200237B620023BB62012388
:100EE800FB6207F11C031946374800F0BFFA62E0BD
:100EF8007B681B68354A93425DD1324BD3F8E030AA
:100F0800304A43F00103C2F8E0302E4BD3F8E0300A
:100F180003F001037B617B692A4BD3F8E030294A4F
:100F280043F00203C2F8E030264BD3F8E03003F078
:100F380002033B613B69234BD3F8E030214A43F07D
:100F48000403C2F8E0301F4BD3F8E03003F0040389
:100F5800FB60FB682023FB6102233B6200237B626A
:100F68000023BB620323FB6207F11C0319461848E0
:100F780000F07CFA0123FB6102233B6200237B62C1
:100F88000023BB620323FB6207F11C0319461148C7
:100F980000F06CFA4FF44073FB6102233B620023BC
:100FA8007B620023BB620323FB6207F11C03194623
:100FB800094800F05BFA00BF3037BD4680BD00BF6E
:100FC800000001400044025800100258000401408B
:100FD800000002580004025800080258DFF834D014
:100FE800FFF72AFD0C480D490D4A002302E0D458AA
:100FF800C4500433C4188C42F9D30A4A0A4C00235B
:1010080001E013600432A242FBD302F0D5FBFFF7E4
:10101800D7FB7047000008240000002410000024BB
:101028003838000810000024C8000024FEE700003B
:1010380080B582B000AF032000F06EF901F02AFA03
:101048000246154B9B691B0A03F00F031349CB5C3F
:1010580003F01F0322FA03F37B600F4B9B6903F035
:101068000F030E4AD35C03F01F037A6822FA03F3D6
:101078000B4A13600B4A7B6813600F2000F014F8CA
:101088000346002B01D0012302E0FFF78BFC00236D
:1010980018460837BD4680BD00440258203800086D
:1010A800040000240000002480B582B000AF7860FE
:1010B800154B1B78002B01D1012321E0134B1A6833
:1010C800114B1B7819464FF47A73B3FBF1F3B2FB5B
:1010D800F3F3184600F045F90346002B01D001232D
:1010E8000EE07B680F2B0AD8002279684FF0FF309A
:1010F80000F01DF9064A7B681360002300E0012315
:1011080018460837BD4680BD0C00002400000024A6
:101118000800002480B400AF064B1B781A46064B23
:101128001B681344044A136000BFBD465DF8047B86
:10113800704700BF0C000024C400002480B400AF36
:10114800034B1B681846BD465DF8047B704700BF1B
:10115800C400002480B584B000AF7860FFF7EEFFCC
:10116800B8607B68FB60FB68B3F1FF3F05D00A4BB2
:101178001B781A46FB681344FB6000BFFFF7DEFFCD
:101188000246BB68D31AFA689A42F7D800BF00BF74
:101198001037BD4680BD00BF0C00002480B400AFEE
:1011A800034B1B681B0C1846BD465DF8047B704753
:1011B8000010005C80B485B000AF78607B6803F0F5
:1011C8000703FB600B4BDB68BB60BA684FF6FF0395
:1011D8001340BB60FB681A02BB681A43064B1343F3
:1011E800BB60044ABB68D36000BF1437BD465DF8D6
:1011F800047B704700ED00E00000FA0580B400AF02
:10120800044BDB681B0A03F007031846BD465DF86C
:10121800047B704700ED00E080B483B000AF034664
:101228003960FB80B7F90630002B0ADB3B68DAB27D
:101238000C49B7F906301201D2B20B4483F80023E7
:101248000AE03B68DAB20849FB8803F00F03043B65
:101258001201D2B20B441A7600BF0C37BD465DF8B6
:10126800047B704700E100E000ED00E080B489B045
:1012780000AFF860B9607A60FB6803F00703FB61B0
:10128800FB69C3F10703042B28BF0423BB61FB6977
:101298000433062B02D9FB69033B00E000237B6182
:1012A8004FF0FF32BB6902FA03F3DA43BB681A4016
:1012B8007B699A404FF0FF317B6901FA03F3D94308
:1012C8007B680B40134318462437BD465DF8047B02
:1012D8007047000080B582B000AF78607B68013B42
:1012E800B3F1807F01D301230FE00A4A7B68013BF9
:1012F80053600F214FF0FF30FFF78EFF054B0022A0
:101308009A60044B07221A60002318460837BD4626
:1013180080BD00BF10E000E080B582B000AF78600B
:101328007868FFF747FF00BF0837BD4680BD80B526
:1013380086B000AF0346B9607A60FB81FFF75EFFB5
:1013480078617A68B9687869FFF790FF0246B7F95B
:101358000E3011461846FFF75FFF00BF1837BD462D
:1013680080BD80B582B000AF78607868FFF7B2FFC3
:10137800034618460837BD4680BD000080B400AF5C
:10138800BFF35F8F00BF074B5B6A064A23F48033C5
:101398005362054B00225A6000BFBD465DF8047BCE
:1013A800704700BF00ED00E090ED00E080B483B02E
:1013B80000AF78600B4A7B6843F0010353600A4B27
:1013C8005B6A094A43F480335362BFF34F8F00BF0F
:1013D800BFF36F8F00BF00BF0C37BD465DF8047BBD
:1013E800704700BF90ED00E000ED00E080B483B0EE
:1013F80000AF78607B685A781B4B9A601A4B1B6960
:10140800194A23F001031361174A7B685B68D360AC
:101418007B681B7B1A077B68DB7A1B061A437B6891
:101428009B7ADB041A437B685B7B9B041A437B68CB
:101438009B7B5B041A437B68DB7B1B041A437B683A
:101448005B7A1B021A437B681B7A5B0013437A683A
:1014580012781146044A0B43136100BF0C37BD468E
:101468005DF8047B704700BF90ED00E080B489B060
:1014780000AF786039600023FB61894B7B6194E1A0
:101488003B681A680121FB6901FA03F313403B61C9
:101498003B69002B00F086813B685B6803F003031F
:1014A800012B05D03B685B6803F00303022B30D1A6
:1014B8007B689B68BB61FB695B00032202FA03F34C
:1014C800DB43BA691340BB613B68DA68FB695B00C0
:1014D80002FA03F3BA691343BB617B68BA699A607D
:1014E8007B685B68BB610122FB6902FA03F3DB439B
:1014F800BA691340BB613B685B681B0903F00102D2
:10150800FB6902FA03F3BA691343BB617B68BA69E2
:101518005A603B685B6803F00303032B17D07B68B2
:10152800DB68BB61FB695B00032202FA03F3DB4360
:10153800BA691340BB613B689A68FB695B0002FAB1
:1015480003F3BA691343BB617B68BA69DA603B6825
:101558005B6803F00303022B23D1FB69DA087B687D
:10156800083253F82230BB61FB6903F007039B0084
:101578000F2202FA03F3DB43BA691340BB613B68ED
:101588001A69FB6903F007039B0002FA03F3BA69BF
:101598001343BB61FB69DA087B680832B96943F811
:1015A80022107B681B68BB61FB695B00032202FA9F
:1015B80003F3DB43BA691340BB613B685B6803F024
:1015C8000302FB695B0002FA03F3BA691343BB61C8
:1015D8007B68BA691A603B685B6803F44033002B88
:1015E80000F0E0802F4BD3F8F4302E4A43F002038A
:1015F800C2F8F4302B4BD3F8F43003F00203FB604D
:10160800FB68294AFB699B08023352F82330BB6107
:10161800FB6903F003039B000F2202FA03F3DB4389
:10162800BA691340BB617B68204A934252D07B68F9
:101638001F4A934231D07B681E4A93422BD07B6865
:101648001D4A934225D07B681C4A93421FD07B6871
:101658001B4A934219D07B681A4A934213D07B687D
:10166800194A93420DD07B68184A934207D07B6889
:10167800174A934201D109232DE00A232BE00823BE
:1016880029E0072327E0062325E0052323E0042398
:1016980021E003231FE002231DE001231BE000BF1C
:1016A8008000005800440258000400580000025806
:1016B8000004025800080258000C02580010025892
:1016C8000014025800180258001C02580020025842
:1016D800002402580023FA6902F0030292009340A2
:1016E800BA691343BB613849FB699B080233BA697D
:1016F80041F823204FF0B0431B68BB613B69DB43D3
:10170800BA691340BB613B685B6803F48013002B24
:1017180003D0BA693B691343BB614FF0B042BB6960
:1017280013604FF0B0435B68BB613B69DB43BA6948
:101738001340BB613B685B6803F40013002B03D0C4
:10174800BA693B691343BB614FF0B042BB69536050
:101758007B695B68BB613B69DB43BA691340BB616A
:101768003B685B6803F40033002B03D0BA693B691C
:101778001343BB617B69BA695A607B691B68BB61AB
:101788003B69DB43BA691340BB613B685B6803F4A0
:101798008033002B03D0BA693B691343BB617B6973
:1017A800BA691A60FB690133FB613B681A68FB6917
:1017B80022FA03F3002B7FF463AE00BF00BF243787
:1017C800BD465DF8047B70470004005880B483B0C0
:1017D80000AF78600B467B8013467B707B78002BCC
:1017E80003D07A887B689A6103E07B881A047B6857
:1017F8009A6100BF0C37BD465DF8047B7047000056
:1018080080B584B000AF7860194BDB6803F004033F
:10181800042B0AD0164BDB6803F007037A689A4258
:1018280001D001231FE000231DE0114BDB6823F0EA
:1018380007020F497B681343CB60FFF77FFCF86012
:1018480009E0FFF77BFC0246FB68D31AB3F57A7F01
:1018580001D9012307E0064B5B6803F40053B3F595
:10186800005FEED1002318461037BD4680BD00BF8B
:101878000048025880B58CB000AF78607B68002BB8
:1018880002D1012300F048BC7B681B6803F0010308
:10189800002B00F08880994B1B6903F03803FB622A
:1018A800964B9B6ABB62FB6A102B07D0FB6A182B0E
:1018B80011D1BB6A03F00303022B0CD18F4B1B68B9
:1018C80003F40033002B6DD07B685B68002B69D173
:1018D800012300F021BC7B685B68B3F5803F06D12B
:1018E800864B1B68854A43F4803313602EE07B687F
:1018F8005B68002B0CD1814B1B68804A23F4803332
:1019080013607E4B1B687D4A23F4802313601DE01F
:101918007B685B68B3F5A02F0CD1784B1B68774ABE
:1019280043F480231360754B1B68744A43F4803377
:1019380013600BE0714B1B68704A23F4803313600B
:101948006E4B1B686D4A23F4802313607B685B68C9
:10195800002B13D0FFF7F2FB786208E0FFF7EEFBED
:1019680002467B6AD31A642B01D90323D4E3634B61
:101978001B6803F40033002BF0D014E0FFF7DEFB04
:10198800786208E0FFF7DAFB02467B6AD31A642B19
:1019980001D90323C0E3594B1B6803F40033002B20
:1019A800F0D100E000BF7B681B6803F00203002B46
:1019B80000F0CA80514B1B6903F038033B624F4B60
:1019C8009B6AFB613B6A002B07D03B6A182B56D1F8
:1019D800FB6903F00303002B51D1484B1B6803F04C
:1019E8000403002B05D07B68DB68002B01D10123A1
:1019F80092E3424B1B6823F019027B68DB683F497E
:101A080013430B60FFF79AFB786208E0FFF796FB39
:101A180002467B6AD31A022B01D903237CE3374B96
:101A28001B6803F00403002BF0D0FFF7B7FB034655
:101A380041F20302934217D87B681B69402B08D1F7
:101A48002E4B5B6823F47C332C4A43F400335360F9
:101A58007AE02A4B5B6823F47C327B681B691B03A2
:101A6800264913434B606FE0244B5B6823F0FE422A
:101A78007B681B691B06214913434B6064E07B6844
:101A8800DB68002B47D01D4B1B6823F019027B68CD
:101A9800DB681A4913430B60FFF750FB786208E0D4
:101AA800FFF74CFB02467B6AD31A022B01D90323AA
:101AB80032E3124B1B6803F00403002BF0D0FFF74E
:101AC8006DFB034641F20302934219D87B681B69F8
:101AD800402B08D1094B5B6823F47C33074A43F455
:101AE8000033536030E0054B5B6823F47C327B683D
:101AF8001B691B03014913434B6025E0004402584E
:101B08009A4B5B6823F0FE427B681B691B0697496A
:101B180013434B6018E0954B1B68944A23F001036C
:101B28001360FFF70BFB786208E0FFF707FB02463C
:101B38007B6AD31A022B01D90323EDE28B4B1B6876
:101B480003F00403002BF0D17B681B6803F010033B
:101B5800002B00F0A980854B1B6903F03803BB619B
:101B6800824B9B6A7B61BB69082B07D0BB69182B2A
:101B78003AD17B6903F00303012B35D17B4B1B68FA
:101B880003F48073002B05D07B68DB69802B01D0C0
:101B98000123C1E2FFF702FB034641F2030293422D
:101BA80017D87B681B6A202B08D1704B5B6823F021
:101BB800F8436E4A43F08043536075E06B4B5B68B3
:101BC80023F0F8427B681B6A9B06684913434B6005
:101BD8006AE0664BDB6823F07C527B681B6A1B0655
:101BE80062491343CB605FE07B68DB69002B42D01E
:101BF8005E4B1B685D4A43F080031360FFF79EFA53
:101C0800786208E0FFF79AFA02467B6AD31A022B39
:101C180001D9032380E2554B1B6803F48073002B22
:101C2800F0D0FFF7BBFA034641F20302934217D8FC
:101C38007B681B6A202B08D14C4B5B6823F0F84368
:101C48004A4A43F0804353602EE0484B5B6823F0D8
:101C5800F8427B681B6A9B06444913434B6023E0A8
:101C6800424BDB6823F07C527B681B6A1B063F49AA
:101C78001343CB6018E03D4B1B683C4A23F08003BC
:101C88001360FFF75BFA786208E0FFF757FA02463D
:101C98007B6AD31A022B01D903233DE2334B1B681D
:101CA80003F48073002BF0D17B681B6803F00803F2
:101CB800002B36D07B685B69002B19D02B4B5B6FF0
:101CC8002A4A43F001035367FFF738FA786208E0BD
:101CD800FFF734FA02467B6AD31A022B01D9032391
:101CE8001AE2224B5B6F03F00203002BF0D018E0DE
:101CF8001E4B5B6F1D4A23F001035367FFF71EFA63
:101D0800786208E0FFF71AFA02467B6AD31A022BB8
:101D180001D9032300E2154B5B6F03F00203002B8C
:101D2800F0D17B681B6803F02003002B39D07B6857
:101D38009B69002B1CD00D4B1B680C4A43F4805345
:101D48001360FFF7FBF9786208E0FFF7F7F902463E
:101D58007B6AD31A022B01D90323DDE1034B1B68ED
:101D680003F40053002BF0D01BE000BF00440258DE
:101D78009B4B1B689A4A23F480531360FFF7DEF9E4
:101D8800786208E0FFF7DAF902467B6AD31A022B79
:101D980001D90323C0E1924B1B6803F40053002BC5
:101DA800F0D17B681B6803F00403002B00F08180EE
:101DB8008C4B1B688B4A43F480731360FFF7BEF9A2
:101DC800786208E0FFF7BAF902467B6AD31A642BF7
:101DD80001D90323A0E1834B1B6803F48073002B14
:101DE800F0D07B689B68012B06D17D4B1B6F7C4A2A
:101DF80043F0010313672DE07B689B68002B0CD12F
:101E0800774B1B6F764A23F001031367744B1B6FE4
:101E1800734A23F0040313671CE07B689B68052B57
:101E28000CD16F4B1B6F6E4A43F0040313676C4B66
:101E38001B6F6B4A43F0010313670BE0684B1B6F82
:101E4800674A23F001031367654B1B6F644A23F04D
:101E5800040313677B689B68002B15D0FFF76EF9A6
:101E680078620AE0FFF76AF902467B6AD31A41F200
:101E78008832934201D903234EE1594B1B6F03F07B
:101E88000203002BEED014E0FFF758F978620AE05D
:101E9800FFF754F902467B6AD31A41F2883293421B
:101EA80001D9032338E14E4B1B6F03F00203002BCB
:101EB800EED17B685B6A002B00F02D81484B1B69D3
:101EC80003F03803182B00F0BD807B685B6A022B97
:101ED80040F09E80424B1B68414A23F08073136098
:101EE800FFF72CF9786208E0FFF728F902467B6AC9
:101EF800D31A022B01D903230EE1394B1B6803F0D7
:101F08000073002BF0D1364B9A6A374B13407A682E
:101F1800916A7A68D26A12010A43314913438B6283
:101F28007B681B6B013BC3F308027B685B6B013B5F
:101F38005B029BB21A437B689B6B013B1B0403F457
:101F4800FE031A437B68DB6B013B1B0603F0FE4371
:101F5800234913430B63224BDB6A214A23F0010315
:101F6800D3621F4B5A6B214B13407A68926CD20094
:101F78001B4913434B631A4BDB6A23F00C027B6843
:101F88001B6C17491343CB62154BDB6A23F0020223
:101F98007B685B6C12491343CB62114BDB6A104AB6
:101FA80043F48033D3620E4BDB6A0D4A43F40033AB
:101FB800D3620B4BDB6A0A4A43F48023D362084B93
:101FC800DB6A074A43F00103D362054B1B68044AE6
:101FD80043F080731360FFF7B1F8786211E000BF37
:101FE80000440258004802580CFCFFFF0700FFFF9E
:101FF800FFF7A4F802467B6AD31A022B01D9032300
:102008008AE0474B1B6803F00073002BF0D082E096
:10201800434B1B68424A23F080731360FFF78EF826
:10202800786208E0FFF78AF802467B6AD31A022B27
:1020380001D9032370E03A4B1B6803F00073002BAF
:10204800F0D168E0364B9B6A3B61354B1B6BFB60FC
:102058007B685B6A012B31D03B6903F003027B6824
:102068009B6A9A422AD13B691B0903F03F027B68AD
:10207800DB6A9A4222D1FB68C3F308027B681B6BB8
:10208800013B9A421AD1FB685B0A03F07F027B6826
:102098005B6B013B9A4211D1FB681B0C03F07F027A
:1020A8007B689B6B013B9A4208D1FB681B0E03F0CF
:1020B8007F027B68DB6B013B9A4201D001232BE056
:1020C800174B5B6BDB08C3F30C033B617B689B6CB2
:1020D8003A699A421FD0124BDB6A114A23F0010376
:1020E800D362FFF72BF8786200BFFFF727F80246A4
:1020F8007B6A9342F9D00A4B5A6B0A4B13407A68B1
:10210800926CD200064913434B63054BDB6A044AC1
:1021180043F00103D362002318463037BD4680BD23
:10212800004402580700FFFF80B586B000AF786012
:1021380039607B68002B01D101239CE18A4B1B6825
:1021480003F00F033A689A4210D9874B1B6823F0B3
:102158000F0285493B6813430B60834B1B6803F0F0
:102168000F033A689A4201D0012384E17B681B6817
:1021780003F00403002B10D07B681A697B4B9B6922
:1021880003F070039A4208D9784B9B6923F07002D8
:102198007B681B69754913438B617B681B6803F077
:1021A8000803002B10D07B685A69704BDB6903F079
:1021B80070039A4208D96D4BDB6923F070027B6883
:1021C8005B696A491343CB617B681B6803F01003A2
:1021D800002B10D07B689A69644BDB6903F4E063D9
:1021E8009A4208D9614BDB6923F4E0627B689B69FA
:1021F8005E491343CB617B681B6803F02003002B07
:1022080010D07B68DA69594B1B6A03F070039A4255
:1022180008D9564B1B6A23F070027B68DB69534967
:1022280013430B627B681B6803F00203002B10D07A
:102238007B68DA684D4B9B6903F00F039A4208D913
:102248004A4B9B6923F00F027B68DB6847491343BD
:102258008B617B681B6803F00103002B55D0434B4F
:102268009B6923F470627B689B68404913438B61C8
:102278007B685B68022B07D13C4B1B6803F4003377
:10228800002B21D10123F6E07B685B68032B07D183
:10229800364B1B6803F00073002B15D10123EAE0CD
:1022A8007B685B68012B07D1304B1B6803F4807394
:1022B800002B09D10123DEE02C4B1B6803F004033B
:1022C800002B01D10123D6E0284B1B6923F007021C
:1022D8007B685B68254913430B61FEF72FFF786124
:1022E8000AE0FEF72BFF02467B69D31A41F28832D7
:1022F800934201D90323BEE01C4B1B6903F038024B
:102308007B685B68DB009A42EBD17B681B6803F053
:102318000203002B10D07B68DA68144B9B6903F02A
:102328000F039A4208D2114B9B6923F00F027B6876
:10233800DB680E4913438B610B4B1B6803F00F03DB
:102348003A689A4214D2084B1B6823F00F020649D8
:102358003B6813430B60044B1B6803F00F033A6898
:102368009A4205D0012386E000200052004402581A
:102378007B681B6803F00403002B10D07B681A6984
:102388003F4B9B6903F070039A4208D23C4B9B6910
:1023980023F070027B681B69394913438B617B68A2
:1023A8001B6803F00803002B10D07B685A69344B74
:1023B800DB6903F070039A4208D2314BDB6923F0E2
:1023C80070027B685B692E491343CB617B681B688D
:1023D80003F01003002B10D07B689A69284BDB6947
:1023E80003F4E0639A4208D2254BDB6923F4E062E8
:1023F8007B689B6922491343CB617B681B6803F0A8
:102408002003002B10D07B68DA691D4B1B6A03F090
:1024180070039A4208D21A4B1B6A23F070027B6839
:10242800DB69174913430B6200F034F80246144B7A
:102438009B691B0A03F00F031249CB5C03F01F03CF
:1024480022FA03F33B610E4B9B6903F00F030D4A1D
:10245800D35C03F01F033A6922FA03F30A4A1360B4
:102468000A4A3B6913600A4B1B681846FEF71CFEB4
:102478000346FB73FB7B18461837BD4680BD00BF7B
:1024880000440258203800080400002400000024FA
:102498000800002480B489B000AFB34B1B6903F077
:1024A8003803182B00F2558101A252F823F000BF1F
:1024B8001D2500085B2700085B2700085B2700082C
:1024C8005B2700085B2700085B2700085B270008DC
:1024D800432500085B2700085B2700085B270008E6
:1024E8005B2700085B2700085B2700085B270008BC
:1024F800492500085B2700085B2700085B270008C0
:102508005B2700085B2700085B2700085B2700089B
:102518004F250008944B1B6803F02003002B09D0BB
:10252800914B1B68DB0803F00303904A22FA03F37C
:10253800BB6111E18D4BBB610EE18D4BBB610BE1C2
:102548008C4BBB6108E1884B9B6A03F003037B61FA
:10255800854B9B6A1B0903F03F033B61824BDB6A97
:1025680003F00103FB60804B5B6BDB08C3F30C03D8
:10257800FA6802FB03F307EE903AF8EE677AC7EDC4
:10258800027A3B69002B00F0E1807B69022B00F0A6
:1025980083807B69022B00F2A1807B69002B03D02A
:1025A8007B69012B56D099E06F4B1B6803F0200321
:1025B800002B2DD06C4B1B68DB0803F003036B4A20
:1025C80022FA03F37B607B6807EE903AF8EE676ABD
:1025D8003B6907EE903AF8EE677A86EEA77A624B87
:1025E8001B6BC3F3080307EE903AF8EE676A97EDA2
:1025F800026ADFED615AC6EE257A76EEA77AF7EE23
:10260800006A77EEA67A67EE277AC7ED077A87E041
:102618003B6907EE903AF8EE677ADFED586A86EE86
:10262800A77A514B1B6BC3F3080307EE903AF8EEF9
:10263800676A97ED026ADFED505AC6EE257A76EEA4
:10264800A77AF7EE006A77EEA67A67EE277AC7EDE3
:10265800077A65E03B6907EE903AF8EE677ADFEDB6
:10266800486A86EEA77A404B1B6BC3F3080307EE54
:10267800903AF8EE676A97ED026ADFED3F5AC6EEC8
:10268800257A76EEA77AF7EE006A77EEA67A67EEF5
:10269800277AC7ED077A43E03B6907EE903AF8EEF0
:1026A800677ADFED386A86EEA77A2F4B1B6BC3F388
:1026B800080307EE903AF8EE676A97ED026ADFEDD5
:1026C8002E5AC6EE257A76EEA77AF7EE006A77EEEE
:1026D800A67A67EE277AC7ED077A21E03B6907EE0D
:1026E800903AF8EE677ADFED266A86EEA77A1E4BF7
:1026F8001B6BC3F3080307EE903AF8EE676A97ED91
:10270800026ADFED1D5AC6EE257A76EEA77AF7EE55
:10271800006A77EEA67A67EE277AC7ED077A00BFD8
:10272800114B1B6B5B0A03F07F0301333B603B6873
:1027380007EE903AB8EE677AD7ED076AC6EE877A61
:10274800FCEEE77A17EE903ABB6105E00023BB6127
:1027580002E0074BBB6100BFBB6918462437BD4682
:102768005DF8047B704700BF004402580090D00316
:1027780000093D0040787D01000000460024744CAB
:102788000024744A20BCBE4B80B582B000AF78608C
:102798007B68002B01D1012349E07B6893F83D3029
:1027A800DBB2002B06D17B68002283F83C207868D6
:1027B800FEF732FB7B68022283F83D207B681A68AB
:1027C8007B6804331946104600F058FA7B680122EA
:1027D80083F848207B68012283F83E207B68012229
:1027E80083F83F207B68012283F840207B68012220
:1027F80083F841207B68012283F842207B6801220C
:1028080083F843207B68012283F844207B680122F7
:1028180083F845207B68012283F846207B680122E3
:1028280083F847207B68012283F83D20002318465F
:102838000837BD4680BD000080B584B000AF786021
:1028480039603B68002B09D17B6893F83E30DBB2D6
:10285800012B14BF01230023DBB23CE03B68042BAF
:1028680009D17B6893F83F30DBB2012B14BF0123F9
:102878000023DBB22FE03B68082B09D17B6893F873
:102888004030DBB2012B14BF01230023DBB222E06E
:102898003B680C2B09D17B6893F84130DBB2012BE4
:1028A80014BF01230023DBB215E03B68102B09D1CC
:1028B8007B6893F84230DBB2012B14BF012300235D
:1028C800DBB208E07B6893F84330DBB2012B14BF1E
:1028D80001230023DBB2002B01D00123A1E03B68D8
:1028E800002B04D17B68022283F83E2023E03B685A
:1028F800042B04D17B68022283F83F201BE03B684D
:10290800082B04D17B68022283F8402013E03B683F
:102918000C2B04D17B68022283F841200BE03B6832
:10292800102B04D17B68022283F8422003E07B68E5
:10293800022283F843207B681B6801223968184605
:1029480000F018FD7B681B68384A934213D07B68F7
:102958001B68374A93420ED07B681B68354A9342FE
:1029680009D07B681B68344A934204D07B681B6893
:10297800324A934201D1012300E00023002B07D003
:102988007B681B685A6C7B681B6842F400425A6477
:102998007B681B68254A934222D07B681B68B3F189
:1029A800804F1DD07B681B68254A934218D07B68EE
:1029B8001B68244A934213D07B681B68224A9342BF
:1029C8000ED07B681B681A4A934209D07B681B6843
:1029D8001E4A934204D07B681B68164A934215D15D
:1029E8007B681B689A681A4B1340FB60FB68062BD0
:1029F80015D0FB68B3F5803F11D07B681B681A6857
:102A08007B681B6842F001021A6008E07B681B685B
:102A18001A687B681B6842F001021A6000E000BF78
:102A2800002318461037BD4680BD00BF0000014096
:102A380000040140004001400044014000480140BA
:102A48000004004000080040000C0040001800404E
:102A58000700010080B586B000AFF860B9607A6001
:102A68000023FB75FB6893F83C30012B01D102234E
:102A7800FFE0FB68012283F83C207B68142B00F2FE
:102A8800F08001A252F823F0E52A00086B2C000818
:102A98006B2C00086B2C0008252B00086B2C0008F9
:102AA8006B2C00086B2C0008672B00086B2C0008A7
:102AB8006B2C00086B2C0008A72B00086B2C000857
:102AC8006B2C00086B2C0008E92B00086B2C000805
:102AD8006B2C00086B2C0008292C0008FB681B686D
:102AE800B968184600F070F9FB681B689A69FB68BA
:102AF8001B6842F008029A61FB681B689A69FB68C8
:102B08001B6822F004029A61FB681B689969BB681C
:102B18001A69FB681B680A439A61A5E0FB681B6891
:102B2800B968184600F0E0F9FB681B689A69FB6809
:102B38001B6842F400629A61FB681B689A69FB682B
:102B48001B6822F480629A61FB681B689969BB68FC
:102B58001B691A02FB681B680A439A6184E0FB68D8
:102B68001B68B968184600F049FAFB681B68DA69FF
:102B7800FB681B6842F00802DA61FB681B68DA69C7
:102B8800FB681B6822F00402DA61FB681B68D969DC
:102B9800BB681A69FB681B680A43DA6164E0FB6872
:102BA8001B68B968184600F0B1FAFB681B68DA6957
:102BB800FB681B6842F40062DA61FB681B68DA692B
:102BC800FB681B6822F48062DA61FB681B68D969BC
:102BD800BB681B691A02FB681B680A43DA6143E099
:102BE800FB681B68B968184600F0FAFAFB681B68AE
:102BF8005A6DFB681B6842F008025A65FB681B683F
:102C08005A6DFB681B6822F004025A65FB681B6852
:102C1800596DBB681A69FB681B680A435A6523E04B
:102C2800FB681B68B968184600F03EFBFB681B6828
:102C38005A6DFB681B6842F400625A65FB681B68A2
:102C48005A6DFB681B6822F480625A65FB681B6832
:102C5800596DBB681B691A02FB681B680A435A65F1
:102C680002E00123FB7500BFFB68002283F83C20CB
:102C7800FB7D18461837BD4680BD00BF80B485B0BF
:102C880000AF786039607B681B68FB607B68464AE8
:102C9800934213D07B68B3F1804F0FD07B68434ACF
:102CA80093420BD07B68424A934207D07B68414AE3
:102CB800934203D07B68404A934208D1FB6823F0D3
:102CC8007003FB603B685B68FA681343FB607B68D2
:102CD800354A93421FD07B68B3F1804F1BD07B6885
:102CE800324A934217D07B68314A934213D07B68AB
:102CF800304A93420FD07B682F4A93420BD07B68AF
:102D08002E4A934207D07B682D4A934203D07B68B2
:102D18002C4A934208D1FB6823F44073FB603B685C
:102D2800DB68FA681343FB60FB6823F080023B68AA
:102D38005B691343FB607B68FA681A603B689A68B2
:102D48007B68DA623B681A687B689A627B68164A15
:102D580093420FD07B68184A93420BD07B68174A7E
:102D6800934207D07B68164A934203D07B68154A82
:102D7800934203D13B681A697B681A637B68012216
:102D88005A617B681B6903F00103012B05D17B683D
:102D98001B6923F001027B681A6100BF1437BD4626
:102DA8005DF8047B704700BF00000140000400404C
:102DB80000080040000C00400004014000400140B1
:102DC800004401400048014080B487B000AF7860FB
:102DD80039607B681B6A7B617B681B6A23F0010290
:102DE8007B681A627B685B683B617B689B69FB60F8
:102DF800FA68374B1340FB60FB6823F00303FB6062
:102E08003B681B68FA681343FB607B6923F0020385
:102E18007B613B689B687A6913437B617B682D4AB9
:102E280093420FD07B682C4A93420BD07B682B4A85
:102E3800934207D07B682A4A934203D07B68294A89
:102E480093420CD17B6923F008037B613B68DB6804
:102E58007A6913437B617B6923F004037B617B6898
:102E68001C4A93420FD07B681B4A93420BD07B6865
:102E78001A4A934207D07B68194A934203D07B6869
:102E8800184A934211D13B6923F480733B613B6933
:102E980023F400733B613B685B693A6913433B6108
:102EA8003B689B693A6913433B617B683A695A609E
:102EB8007B68FA689A613B685A687B685A637B68E2
:102EC8007A691A6200BF1C37BD465DF8047B7047FB
:102ED8008FFFFEFF00000140000401400040014058
:102EE800004401400048014080B487B000AF7860DA
:102EF80039607B681B6A7B617B681B6A23F0100260
:102F08007B681A627B685B683B617B689B69FB60D6
:102F1800FA68344B1340FB60FB6823F44073FB6092
:102F28003B681B681B02FA681343FB607B6923F04C
:102F380020037B613B689B681B017A6913437B61B3
:102F48007B68294A934203D07B68284A93420DD173
:102F58007B6923F080037B613B68DB681B017A692E
:102F680013437B617B6923F040037B617B681E4AC6
:102F780093420FD07B681D4A93420BD07B681C4A52
:102F8800934207D07B681B4A934203D07B681A4A56
:102F9800934213D13B6923F480633B613B6923F47B
:102FA80000633B613B685B699B003A6913433B6183
:102FB8003B689B699B003A6913433B617B683A69AC
:102FC8005A607B68FA689A613B685A687B689A63BA
:102FD8007B687A691A6200BF1C37BD465DF8047BBE
:102FE800704700BFFF8FFFFE000001400004014052
:102FF80000400140004401400048014080B487B0CF
:1030080000AF786039607B681B6A7B617B681B6AEC
:1030180023F480727B681A627B685B683B617B681B
:10302800DB69FB60FA68334B1340FB60FB6823F0F5
:103038000303FB603B681B68FA681343FB607B690A
:1030480023F400737B613B689B681B027A69134316
:103058007B617B68284A934203D07B68274A934266
:103068000DD17B6923F400637B613B68DB681B023D
:103078007A6913437B617B6923F480637B617B6896
:103088001D4A93420FD07B681C4A93420BD07B6841
:103098001B4A934207D07B681A4A934203D07B6845
:1030A800194A934213D13B6923F480533B613B692E
:1030B80023F400533B613B685B691B013A69134386
:1030C8003B613B689B691B013A6913433B617B6821
:1030D8003A695A607B68FA68DA613B685A687B68C3
:1030E800DA637B687A691A6200BF1C37BD465DF8EF
:1030F800047B70478FFFFEFF000001400004014081
:1031080000400140004401400048014080B487B0BD
:1031180000AF786039607B681B6A3B617B681B6A1B
:1031280023F480527B681A627B685B687B617B68EA
:10313800DB69FB60FA68244B1340FB60FB6823F4EF
:103148004073FB603B681B681B02FA681343FB6013
:103158003B6923F400533B613B689B681B033A6956
:1031680013433B617B68194A93420FD07B68184A26
:1031780093420BD07B68174A934207D07B68164A64
:10318800934203D07B68154A934209D17B6923F4A3
:1031980080437B613B685B699B017A6913437B6170
:1031A8007B687A695A607B68FA68DA613B685A68B2
:1031B8007B681A647B683A691A6200BF1C37BD468F
:1031C8005DF8047B704700BFFF8FFFFE00000140E1
:1031D8000004014000400140004401400048014013
:1031E80080B487B000AF786039607B681B6A3B6148
:1031F8007B681B6A23F480327B681A627B685B6891
:103208007B617B685B6DFB60FA68214B1340FB6058
:103218003B681B68FA681343FB603B6923F400337F
:103228003B613B689B681B043A6913433B617B68BD
:10323800184A93420FD07B68174A93420BD07B6899
:10324800164A934207D07B68154A934203D07B689D
:10325800144A934209D17B6923F480337B613B682C
:103268005B691B027A6913437B617B687A695A60E0
:103278007B68FA685A653B685A687B689A657B6818
:103288003A691A6200BF1C37BD465DF8047B704777
:103298008FFFFEFF00000140000401400040014094
:1032A800004401400048014080B487B000AF786016
:1032B80039607B681B6A3B617B681B6A23F4801258
:1032C8007B681A627B685B687B617B685B6DFB600F
:1032D800FA68224B1340FB603B681B681B02FA68C4
:1032E8001343FB603B6923F400133B613B689B6815
:1032F8001B053A6913433B617B68194A93420FD017
:103308007B68184A93420BD07B68174A934207D0D0
:103318007B68164A934203D07B68154A934209D1C9
:103328007B6923F480237B613B685B699B027A6934
:1033380013437B617B687A695A607B68FA685A65CF
:103348003B685A687B68DA657B683A691A6200BF2D
:103358001C37BD465DF8047B704700BFFF8FFFFE3A
:1033680000000140000401400040014000440140C9
:103378000048014080B487B000AFF860B9607A6057
:10338800BB6803F01F03012202FA03F37B61FB68A9
:103398001A6A7B69DB431A40FB681A62FB681A6A7F
:1033A800BB6803F01F03796801FA03F31A43FB684B
:1033B8001A6200BF1C37BD465DF8047B70470000E9
:1033C80080B584B000AF786039603B68002B09D1C4
:1033D8007B6893F84430DBB2012B14BF0123002330
:1033E800DBB222E03B68042B09D17B6893F84530B7
:1033F800DBB2012B14BF01230023DBB215E03B68CD
:10340800082B09D17B6893F84630DBB2012B14BF37
:1034180001230023DBB208E07B6893F84730DBB276
:10342800012B14BF01230023DBB2002B01D00123A1
:1034380073E03B68002B04D17B68022283F84420A8
:1034480013E03B68042B04D17B68022283F84520F3
:103458000BE03B68082B04D17B68022283F84620E6
:1034680003E07B68022283F847207B681B680422FC
:103478003968184600F072F97B681B685A6C7B68DB
:103488001B6842F400425A647B681B68254A9342D1
:1034980022D07B681B68B3F1804F1DD07B681B6806
:1034A800214A934218D07B681B68204A934213D064
:1034B8007B681B681E4A93420ED07B681B681D4AB6
:1034C800934209D07B681B681B4A934204D07B68EF
:1034D8001B681A4A934215D17B681B689A68184B77
:1034E8001340FB60FB68062B15D0FB68B3F5803FE3
:1034F80011D07B681B681A687B681B6842F0010260
:103508001A6008E07B681B681A687B681B6842F0D1
:1035180001021A6000E000BF002318461037BD46BC
:1035280080BD00BF000001400004004000080040CA
:10353800000C004000040140001800400040014019
:103548000700010080B485B000AF786039607B68FF
:1035580093F83C30012B01D102236DE07B680122F6
:1035680083F83C207B68022283F83D207B681B6837
:103578005B68FB607B681B689B68BB607B681B683B
:10358800304A934204D07B681B682F4A934208D183
:10359800FB6823F47003FB603B685B68FA681343BD
:1035A800FB60FB6823F07003FB603B681B68FA68EC
:1035B8001343FB607B681B68FA685A607B681B686A
:1035C800204A934222D07B681B68B3F1804F1DD0FC
:1035D8007B681B681D4A934218D07B681B681C4A8D
:1035E800934213D07B681B681A4A93420ED07B68BB
:1035F8001B68154A934209D07B681B68164A934298
:1036080004D07B681B68154A93420CD1BB6823F031
:103618008003BB603B689B68BA681343BB607B68E8
:103628001B68BA689A607B68012283F83D207B6832
:10363800002283F83C20002318461437BD465DF865
:10364800047B704700000140000401400004004072
:1036580000080040000C00400018004000400140F5
:1036680080B485B000AF786039600023FB607B6868
:1036780093F83C30012B01D1022365E07B680122DD
:1036880083F83C20FB6823F0FF023B68DB681343A8
:10369800FB60FB6823F440723B689B681343FB6044
:1036A800FB6823F480623B685B681343FB60FB683C
:1036B80023F400623B681B681343FB60FB6823F438
:1036C80080523B681B691343FB60FB6823F400527C
:1036D8003B685B691343FB60FB6823F480423B68EB
:1036E8009B6A1343FB60FB6823F470223B689B6969
:1036F8001B041343FB607B681B68164A934204D083
:103708007B681B68144A934215D1FB6823F4700246
:103718003B685B6A1B051343FB60FB6823F0807200
:103728003B68DB691343FB60FB6823F000723B686E
:103738001B6A1343FB607B681B68FA685A647B68E2
:10374800002283F83C20002318461437BD465DF854
:10375800047B7047000001400004014080B487B03A
:1037680000AFF860B9607A60BB6803F00F03042209
:1037780002FA03F37B61FB681A6A7B69DB431A4030
:10378800FB681A62FB681A6ABB6803F00F03796862
:1037980001FA03F31A43FB681A6200BF1C37BD46DF
:1037A8005DF8047B704702440346934200D170479A
:1037B80003F8011BF9E7000070B50D4D0D4C641BB3
:1037C800A4100026A64209D10B4D0C4C00F018F8A5
:1037D800641BA4100026A64205D170BD55F8043B11
:1037E80098470136EEE755F8043B98470136F2E76B
:1037F80030380008303800083038000834380008FD
:10380800F8B500BFF8BC08BC9E467047F8B500BFC5
:08381800F8BC08BC9E46704795
:103820000000000001020304010203040607080966
:04383000BD020008CD
:0438340099020008ED
:103838000090D0030090D0031000000001000000A9
:0400000508000FE5FB
:00000001FF
