:020000040800F2
:100000000000082405190008951200089D12000838
:10001000A5120008AD120008B5120008000000008B
:10002000000000000000000000000000B1D3000844
:10003000BD1200080000000001D6000899AD0008BC
:1000400055190008551900085519000855190008D8
:1000500055190008551900085519000855190008C8
:10006000551900085519000855190008CD12000847
:10007000E112000855190008551900085519000823
:100080005519000855190008551900085519000898
:100090005519000855190008551900085519000888
:1000A0005519000855190008551900085519000878
:1000B0005519000855190008551900085519000868
:1000C0005519000855190008551900085519000858
:1000D00055190008F51200085519000855190008AF
:1000E00055190008551900080000000055190008AE
:1000F0005519000855190008551900085519000828
:100100005519000855190008551900085519000817
:100110005519000855190008551900080913000859
:1001200055190008551900085519000855190008F7
:1001300055190008551900085519000855190008E7
:1001400000000000000000000000000000000000AF
:1001500055190008551900085519000855190008C7
:1001600055190008551900085519000855190008B7
:10017000551900085519000855190008000000001D
:100180005519000855190008551900085519000897
:100190005519000855190008551900085519000887
:1001A0005519000855190008551900085519000877
:1001B0005519000855190008551900085519000867
:1001C0005519000855190008551900085519000857
:1001D0005519000855190008551900085519000847
:1001E0005519000855190008551900085519000837
:1001F0005519000855190008551900085519000827
:100200005519000855190008551900085519000816
:100210005519000855190008551900085519000806
:10022000551900085519000855190008000000006C
:10023000551900085519000800000000551900085C
:1002400055190008551900085519000855190008D6
:1002500055190008551900085519000855190008C6
:1002600055190008551900085519000855190008B6
:10027000551900085519000855190008000000001C
:10028000551900085519000855190008000000000C
:080290000000000055190008F0
:1002A00010B5054C237833B9044B13B10448AFF3B0
:1002B00000800123237010BD88020024000000008C
:1002C00018CE010808B5034B1BB103490348AFF32F
:1002D000008008BD000000008C02002418CE010838
:1002E00010F8012B11F8013B012A28BF9A42F7D0E0
:1002F000D01A70470000000000000000000000005D
:1003000001F0FF01102A2BDB10F0070F08D010F8C6
:10031000013B013A8B422DD010F0070F42B3F6D1CA
:10032000F0B441EA012141EA014122F007047FF0E3
:1003300000070023F0E80256083C85EA010586EA3A
:10034000010685FA47F5A3FA87F586FA47F6A5FA76
:1003500087F68EB9EED1F0BC01F0FF0102F0070282
:1003600032B110F8013B013A83EA010313B1F8D12D
:100370000020704701387047002D06BF354603380E
:10038000073815F0010F07D1013015F4807F02BF47
:10039000013015F4C03F0130F0BC0138704700BF98
:1003A000034613F8012B002AFBD1181A01387047B5
:1003B0007BB972B90029BEBF00204FF0004106E0B2
:1003C00008BF00281CBF6FF000414FF0FF3000F065
:1003D000B5B9ADF1080C6DE904CE002909DB002B9D
:1003E0001ADB00F04DF8DDF804E0DDE9022304B08B
:1003F0007047404261EB4101002B1BDB00F040F8ED
:10040000DDF804E0DDE9022304B0404261EB410184
:10041000524263EB43037047524263EB430300F0E5
:100420002FF8DDF804E0DDE9022304B0404261EB7F
:1004300041017047524263EB430300F021F8DDF8BD
:1004400004E0DDE9022304B0524263EB430370474A
:1004500053B94AB9002908BF00281CBF4FF0FF312B
:100460004FF0FF3000F06AB9ADF1080C6DE904CE31
:1004700000F006F8DDF804E0DDE9022304B070477F
:100480002DE9F047089D0C46002B4ED194468C4533
:100490008646B2FA82F262D94AB1C2F12003914093
:1004A00020FA03F30CFA02FC194300FA02FE4FEAA9
:1004B0001C471FFA8CF6B1FBF7F44FEA1E4307FB0B
:1004C000141143EA014304FB06F199420AD91CEBDB
:1004D000030304F1FF3080F01281994240F20F8152
:1004E000023C6344591A1FFA8EF3B1FBF7F007FB85
:1004F000101143EA014300FB06F69E420AD91CEBA9
:10050000030300F1FF3180F0FC809E4240F2F9804D
:10051000634402389B1B40EA044000211DB1D340D4
:100520000022C5E90032BDE8F0878B4205D90DB144
:10053000C5E9000100210846F5E7B3FA83F1002977
:1005400046D1A34202D39042C0F0F080861A64EBF9
:1005500003030120002DE6D0C5E90063E3E7002A8C
:1005600040F09080A1EB0C044FEA1C481FFA8CF776
:100570000121B4FBF8F64FEA1E4308FB164443EA98
:10058000044307FB06F0984208D91CEB030306F16D
:10059000FF3402D2984200F2CD8026461C1A1FFA80
:1005A0008EF3B4FBF8F008FB104443EA044300FB6D
:1005B00007F79F4208D91CEB030300F1FF3402D276
:1005C0009F4200F2B0802046DB1B40EA0640A5E7D0
:1005D000C1F120068B4022FA06F71F4320FA06FCE1
:1005E00004FA01F343EA0C03F44000FA01F8380C72
:1005F0004FEA1349B4FBF0FE1FFA87FC00FB1E44D0
:1006000049EA04440EFB0CF9A14502FA01F20AD9A9
:100610003C190EF1FF3A80F08480A14540F28180C0
:10062000AEF1020E3C44A4EB09041FFA83F9B4FBBB
:10063000F0F300FB134449EA044403FB0CFCA4451B
:1006400007D93C1903F1FF3067D2A44565D9023BB5
:100650003C4443EA0E40A0FB0293A4EB0C049C42F2
:10066000CE469C4651D34ED055B1B8EB0E0364EB49
:100670000C0404FA06F6CB401E43CC40C5E90064E6
:10068000002150E7C2F1200320FA03F10CFA02FC2A
:1006900024FA03F394400C434FEA1C4800FA02FE8C
:1006A0001FFA8CF7B3FBF8F008FB1031230C43EA78
:1006B000014300FB07F1994208D91CEB030300F149
:1006C000FF362CD299422AD9023863445B1AA4B26D
:1006D000B3FBF8F108FB113344EA034401FB07F3D1
:1006E000A34208D91CEB040401F1FF3613D2A34244
:1006F00011D902396444E41A41EA004139E7044659
:10070000F0E6084606E7C845AED2B9EB020E63EB49
:10071000070C0138A8E73146EDE7034699E7304674
:10072000D4E7D6467FE7634402384DE706462346C2
:1007300008460FE7023E634430E700BF704700BF42
:1007400080B500AF094B1B780133DAB2074B1A7042
:10075000064B1B78142B07D9044B00221A704FF458
:100760000051034804F0E5FA00BF80BDA402002454
:100770000008025880B582B000AF0BF005FE0346BA
:100780007B6007481AF0ACFAFFF7DAFF00F082F856
:100790003B1D0A2118460BF025FC00BFF4E700BF03
:1007A00030CE010880B483B000AF0346FB80044A1A
:1007B000FB88138000BF0C37BD465DF8047B704793
:1007C000A602002480B400AF034B1B881846BD4628
:1007D0005DF8047B704700BFA602002480B483B09C
:1007E00000AF0346FB71044AFB79137000BF0C375E
:1007F000BD465DF8047B7047A802002480B400AFBA
:10080000034B1B781846BD465DF8047B704700BF5C
:10081000A802002480B582B000AF0346FB80FB88AD
:10082000012B0BD10120FFF7D9FF0020FFF7BAFF02
:1008300001222021154804F063FA22E0FB88002BF6
:100840000BD10020FFF7CAFF0020FFF7ABFF00220B
:1008500020210E4804F054FA13E0FB88092B10D92C
:100860000220FFF7BBFFFB88094AA2FB0323DB083A
:100870009BB21846FFF796FF01222021034804F09F
:100880003FFA00BF0837BD4680BD00BF00100258C8
:10089000CDCCCCCC80B500AFFFF7B0FF0346022B28
:1008A00013D1FFF78FFF0346002B06D0084B1B88A0
:1008B000013B9AB2064B1A8007E00022202105482E
:1008C00004F01EFA0020FFF789FF00BF80BD00BFC3
:1008D000A602002400100258B0B500AF01F08CF859
:1008E000034600221C46154622462B461046194652
:1008F000B0BD0000B0B588B000AFFFF7EDFFC7E9AD
:1009000004010023FB770DE04FF47A7011F05EFED6
:10091000FB7F0133FB7711F033FE0346002B01D040
:100920000523FB77FB7F042BEED911F029FE03464C
:1009300083F00103DBB2002B12D04FF47A7011F078
:1009400045FEF860FB68002B0AD0FA6877210F4853
:100950001AF05EF90E4B05221A6000200BF0CEFA59
:1009600011F018FEC7E90001FFF7B6FFC7E904015F
:10097000D7E90001D7E90423841A61EB0305054B8D
:10098000C3E9004500BF2037BD46B0BD44CE0108D5
:10099000AC0200249003002480B586B000AF3B1D5C
:1009A000184610F029F80F4B7B600F4BBB600F4BC4
:1009B000FB600F4B3B613B1D184610F02BF80346C4
:1009C00083F00103DBB2002B06D09C2109481AF00A
:1009D0001FF94FF0FF3300E0002318461837BD46DB
:1009E00080BD00BFF1A9000835AA00086DAA000863
:1009F000D9AA000868CE010880B588B004AF786035
:100A00000023FB607B680293074B0193074B009325
:100A1000074B084A0849012010F04EFCF860FB68BB
:100A200018461037BD4680BD15A80008B9A70008B4
:100A300099A700086DA700089C04002480B500AFAA
:100A40000A4B1B680133094A1360084B1B68642B6F
:100A500008DD064B00221A600121642010F044FCDE
:100A6000034600E00023184680BD00BFA803002411
:100A700080B584B000AF78607B68FB60FB681B8842
:100A80007B817B89194605481AF0C2F87B89184694
:100A9000FFF7C0FE00BF1037BD4680BD90CE0108F5
:100AA000B0B5B4B002AF0023C7F8C430A14C07F111
:100AB000880318460FF0CCFF254607F188040FCCB9
:100AC0000FC523682B600EF03BF90346C7F8A4302E
:100AD000984B07F1A4046D4603F10C0292E8030061
:100AE00085E803000ECB20460EF02CF9C7F8C000B5
:100AF000D7F8C030002B0BD0D7F8C020DA218E48B1
:100B00001AF086F88D4B05221A6000200BF0F6F9DA
:100B10008B4B1B781A4607F1A403114618460EF0BA
:100B20000FFAC7F8BC00D7F8BC30002B0BD0D7F8B1
:100B3000BC20DB2180481AF06BF8804B05221A603C
:100B400000200BF0DBF907F1A40318460EF000FAC1
:100B5000C7F8B80032200AF015FA794B1B7819460D
:100B600078481AF055F8D7F8B800FFF745FFFFF7B7
:100B700013FF4FF4FA700AF005FA07F1A4036D4A67
:100B800000920022002170480DF022FEC7F8C40038
:100B9000D7F8C430002B03D06C481AF0A1F8E8E76E
:100BA00000BF6B481AF09CF8FFF7A4FE694C07F1F0
:100BB000880318460EF0F4F9224607F1880393E8FB
:100BC000030082E80300604B634A644961480DF00A
:100BD000C5FEC7F8B400D7F8B430002B0BD0D7F857
:100BE000B420EE2154481AF013F8544B05221A6031
:100BF00000200BF083F95A4B1B780133DAB2584BC3
:100C00001A7012F06DFA0246564B524956480DF0D2
:100C100057FFC7F8B000D7F8B030002B0BD0D7F88B
:100C2000B020F421444819F0F3FF444B05221A6028
:100C300000200BF063F94A4B1B7819464B4819F01A
:100C4000E7FF4B4C3B4618460DF0D6FA20463B4694
:100C5000882219461AF0DDFA414B1B781A46354BAB
:100C6000394943480DF0D4FAC7F8AC00D7F8AC3096
:100C7000002B0BD0D7F8AC20FD212F4819F0C8FF6E
:100C80002E4B05221A6000200BF038F90023009348
:100C9000384B394A344936480DF036FBC7F8A800BE
:100CA000D7F8A830002B0CD0D7F8A8204FF48171CA
:100CB000214819F0ADFF214B05221A6000200BF0EE
:100CC0001DF901224FF480412C4804F019F80BF073
:100CD0005BFB0346C7F8A03010E0294A4FF0000341
:100CE00023480DF03BFDFFF7A9FE0346002B0AD178
:100CF00007F1A0030A2118460BF074F90F4B1B688B
:100D0000022BEADD00E000BF00224FF480411B48C7
:100D100003F0F6FF1B4819F0E3FF1B4819F0E0FF52
:100D20000A200BF0DFF900F076FF00BFC837BD46A0
:100D3000B0BD00BFB802002444CE0108AC020024BC
:100D4000000000249CCE0108CC020024B0CE010893
:100D5000C8CE0108880300249C030024E0CE0108CB
:100D600098030024F0CE0108B0020024F8CE010858
:100D700000030024710A0008B4020024000802588D
:100D8000809698000CCF01081CCF010880B582B076
:100D900000AF114BD3F8D8300F4A43F00103C2F82B
:100DA000D8300D4BD3F8D83003F001037B607B685B
:100DB000002205210B2000F006FF0B2000F01DFF94
:100DC000002205210C2000F0FEFE0C2000F015FF93
:100DD00000BF0837BD4680BD0044025880B500AF53
:100DE000084A002108480AF03BF80346074A136006
:100DF000074A002107480AF033F80346064A136001
:100E000000BF80BDA0CF01081D0E0008AC03002468
:100E1000C4CF0108330E0008B003002480B582B0AF
:100E200000AF7860FFF7A6FC4FF47A700AF0AAF8DA
:100E3000FAE780B582B000AF786064200AF0A2F8CB
:100E4000FFF72EFE4FF47A700AF09CF8FAE70000E4
:100E500080B58AB000AF07F1140300221A605A600F
:100E60009A60DA601A61344BD3F8E030324A43F0CA
:100E70001003C2F8E030304BD3F8E03003F0100339
:100E80003B613B692C4BD3F8E0302B4A43F0040321
:100E9000C2F8E030284BD3F8E03003F00403FB60E5
:100EA000FB68254BD3F8E030234A43F08003C2F8B7
:100EB000E030214BD3F8E03003F08003BB60BB6827
:100EC0001D4BD3F8E0301C4A43F00103C2F8E03078
:100ED000194BD3F8E03003F001037B607B680022FC
:100EE0002021164803F00CFF00224FF4C0411448A3
:100EF00003F006FF20237B610123BB610023FB611C
:100F000000233B6207F1140319460C4803F048FD27
:100F10004FF4C0437B610123BB610023FB610023CD
:100F20003B6207F114031946054803F039FD00BF81
:100F30002837BD4680BD00BF00440258001002584B
:100F40000008025880B500AF00F0D6F800F004FDAC
:100F500000F010F8FFF77CFFFFF718FF00F05CFBD4
:100F600000F00EFB09F032FFFFF738FF09F052FFE7
:100F700000BFFDE780B59EB000AF07F12C034C2207
:100F8000002118461AF022F807F10C032022002154
:100F900018461AF01BF8022003F0E6FE0023BB609F
:100FA000484BDB6A474A23F00103D362454BDB6AB7
:100FB00003F00103BB60444B9B69434A43F4404345
:100FC0009361414B9B6903F44043BB60BB6800BF26
:100FD0003D4B9B6903F40053B3F5005FF8D13B4BE5
:100FE000D3F8F430394A43F00203C2F8F430374BF7
:100FF000D3F8F43003F002037B607B6800233B608E
:10100000314B9B69304A43F4404393612E4B9B69BB
:1010100003F440433B602B4BDB6A2A4A43F0010355
:10102000D362284BDB6A03F001033B603B6800BFDF
:10103000254B9B6903F40053B3F5005FF8D10123FE
:10104000FB624FF480333B6302233B6502237B65E5
:101050000523BB65C023FB6502233B6608237B6633
:101060000223BB660823FB6600233B6700237B67E4
:1010700007F12C03184603F0B1FE0346002B01D004
:1010800000F078F83F23FB6003233B6100237B6182
:101090000823BB614023FB6140233B624FF4806324
:1010A0007B624023BB6207F10C030421184604F065
:1010B000EFFA0346002B01D000F05CF800BF783750
:1010C000BD4680BD00040058004802580044025844
:1010D00080B584B000AFF860B9607A607B689AB27E
:1010E000FF23B968034806F0EBFF7B68184610370A
:1010F000BD4680BD0804002480B584B000AF3B46E7
:1011000000221A605A609A60DA6000F089FD0123BB
:101110003B7000237B7000237B601F233B7287237F
:101120007B720023BB720023FB7201233B730123FC
:101130007B730023BB730023FB733B46184600F010
:10114000A7FD042000F084FD00BF1037BD4680BD20
:1011500080B582B000AF78607B681B68044A934218
:1011600001D100F035FC00BF0837BD4680BD00BF8F
:101170000014004080B400AF72B600BF00BFFDE7AE
:1011800080B582B000AF0C4BD3F8F4300A4A43F07C
:101190000203C2F8F430084BD3F8F43003F0020332
:1011A0007B607B6800220F216FF0010000F00BFDD7
:1011B00000BF0837BD4680BD0044025880B590B0DE
:1011C00000AF78607B680F2B27D800227968372022
:1011D00000F0F9FC372000F010FD294A7B6813600D
:1011E000284BD3F8E830274A43F02003C2F8E83010
:1011F000244BD3F8E83003F02003FB60FB6807F1D1
:10120000100207F114031146184604F0CDFDBB6A25
:10121000BB63BB6B002B06D101E001232BE004F084
:1012200097FDF86304E004F093FD03465B00FB6365
:10123000FB6B154AA2FB03239B0C013B7B63134B07
:10124000134A1A60114B40F2E732DA600F4A7B6BA7
:1012500053600E4B00221A610C4B00229A600B481F
:1012600006F010FC0346002B04D1084806F06CFC85
:10127000034600E0012318464037BD4680BD00BF4D
:10128000100000240044025883DE1B43B4030024F2
:101290000014004080B400AF00BFFDE780B400AF91
:1012A00000BFFDE780B400AF00BFFDE780B400AF32
:1012B00000BFFDE780B400AF00BFFDE780B400AF22
:1012C00000BFBD465DF8047B7047000080B500AFED
:1012D000024802F047F800BF80BD00BF300500247F
:1012E00080B500AF024802F03DF800BF80BD00BFEE
:1012F000A805002480B500AF024807F0D1F800BF70
:1013000080BD00BF9C04002480B500AF024806F0F9
:1013100093FC00BF80BD00BFB403002480B400AFC5
:1013200001231846BD465DF8047B704780B582B046
:1013300000AF7860396019F037FF034616221A6053
:101340004FF0FF3318460837BD4680BD80B582B0E8
:1013500000AF78604FF0FF317868FFF7E7FF00BF1C
:10136000FDE780B586B000AFF860B9607A60002311
:101370007B610AE0AFF300800146BB685A1CBA608B
:10138000CAB21A707B6901337B617A697B689A42C1
:10139000F0DB7B6818461837BD4680BD80B483B04B
:1013A00000AF78604FF0FF3318460C37BD465DF84C
:1013B000047B704780B483B000AF786039603B68CD
:1013C0004FF400525A60002318460C37BD465DF8B2
:1013D000047B704780B483B000AF78600123184667
:1013E0000C37BD465DF8047B704780B485B000AF14
:1013F000F860B9607A60002318461437BD465DF87E
:10140000047B704780B586B000AF7860144A154BF6
:10141000D31A7B617B693B61134B1B68002B02D1A4
:10142000114B124A1A60104B1A687B6813443A69D0
:101430009A4207D219F0B8FE03460C221A604FF008
:10144000FF3309E0084B1B68FB60074B1A687B6899
:101450001344054A1360FB6818461837BD4680BD23
:10146000000008240004000004040024C8FC012437
:1014700080B400AF374BD3F88830364A43F470035A
:10148000C2F88830344B1B6803F00F03062B07D8D3
:10149000314B1B6823F00F032F4A43F007031360FF
:1014A0002E4B1B682D4A43F0010313602B4B002287
:1014B0001A612A4B1A682949294B13400B60264BA5
:1014C0001B6803F00803002B07D0234B1B6823F095
:1014D0000F03214A43F007031360204B00229A6157
:1014E0001E4B0022DA611D4B00221A621B4B1D4A63
:1014F0009A621A4B1C4ADA62184B1C4A1A63174B41
:1015000000225A63154B194A9A63144B0022DA637E
:10151000124B164A1A64114B00225A640F4B1B6877
:101520000E4A23F4802313600C4B00221A66104BE2
:101530001A68104B1340B3F1005F02D20E4B012228
:101540001A600E4B43F2D2021A6000BFBD465DF82E
:10155000047B704700ED00E0002000520044025878
:101560007FEDF6EA000202020000FF0180020101A5
:101570000010005C0000FFFF088100510040005295
:1015800080B500AF224B234A1A60214B4FF4E13261
:101590005A601F4B00229A601D4B0022DA601C4BE0
:1015A00000221A611A4B0C225A61194B00229A61CF
:1015B000174B0022DA61164B00221A62144B0022EC
:1015C0005A62134B00229A62114806F029FD034625
:1015D000002B01D0FFF7CEFD00210D4808F0ACFD37
:1015E0000346002B01D0FFF7C5FD0021084808F095
:1015F000E1FD0346002B01D0FFF7BCFD044808F0D5
:1016000062FD0346002B01D0FFF7B4FD00BF80BD93
:10161000080400240078004080B500AF224B234A24
:101620001A60214B224A5A601F4B00229A601E4BBF
:101630000022DA601C4B00221A611B4B0C225A61FB
:10164000194B00229A61184B0022DA61164B0022D6
:101650001A62154B00225A62134B00229A621248FA
:1016600006F0DEFC0346002B01D0FFF783FD0021CE
:101670000D4808F061FD0346002B01D0FFF77AFD0D
:101680000021094808F096FD0346002B01D0FFF722
:1016900071FD054808F017FD0346002B01D0FFF748
:1016A00069FD00BF80BD00BF9C0400240010014004
:1016B00080841E0080B5BCB000AF786007F1DC0309
:1016C00000221A605A609A60DA601A6107F1180302
:1016D000C0220021184619F079FC7B681B68804AFB
:1016E000934247D14FF002024FF00003C7E90623AF
:1016F0000023C7F8903007F11803184604F096FB52
:101700000346002B01D0FFF735FD764BD3F8E830C8
:10171000744A43F08043C2F8E830724BD3F8E830A3
:1017200003F080437B617B696E4BD3F8E0306D4AF8
:1017300043F01003C2F8E0306A4BD3F8E03003F016
:1017400010033B613B694FF4C073C7F8DC300223E0
:10175000C7F8E0300023C7F8E4300023C7F8E830CA
:101760000723C7F8EC3007F1DC0319465E4803F0A5
:1017700017F9B0E07B681B685C4A934240F0AB808D
:101780004FF001024FF00003C7E906230023C7F81A
:10179000943007F11803184604F048FB0346002B69
:1017A00001D0FFF7E7FC4F4BD3F8F0304D4A43F040
:1017B0001003C2F8F0304B4BD3F8F03003F01003B5
:1017C000FB60FB68474BD3F8E030464A43F0010327
:1017D000C2F8E030434BD3F8E03003F00103BB60C4
:1017E000BB684FF4C063C7F8DC300223C7F8E030B1
:1017F0000023C7F8E4300023C7F8E8300723C7F810
:10180000EC3007F1DC031946394803F0C9F8394BCD
:10181000394A1A60374B29225A60364B00229A60A7
:10182000344B0022DA60334B4FF480621A61314B43
:1018300000225A612F4B00229A612E4B4FF4807286
:10184000DA612C4B00221A622A4B00225A62294884
:1018500000F05EFA0346002B01D0FFF78BFC7B689B
:10186000244AC3F88020234A7B689363234B244A8D
:101870001A60224B2A225A60204B40229A601F4B4A
:101880000022DA601D4B4FF480621A611B4B00226C
:101890005A611A4B00229A61184B0022DA61174BE9
:1018A00000221A62154B00225A62144800F030FAE6
:1018B0000346002B01D0FFF75DFC7B680F4ADA6717
:1018C0000E4A7B68936300220521252000F07BF9F6
:1018D000252000F092F900BFF037BD4680BD00BF63
:1018E00000780040004402580010025800100140E7
:1018F000000002583005002410000240A805002412
:1019000028000240DFF834D0FFF7B2FD0C480D4943
:101910000D4A002302E0D458C4500433C4188C424A
:10192000F9D30A4A0A4C002301E013600432A242B0
:10193000FBD319F03FFCFFF705FB704700000824BC
:10194000000000248402002490DE010888020024A4
:10195000C4FC0124FEE7000080B582B000AF032084
:1019600000F026F904F04AF80246154B9B691B0A61
:1019700003F00F031349CB5C03F01F0322FA03F3B8
:101980007B600F4B9B6903F00F030E4AD35C03F09F
:101990001F037A6822FA03F30B4A13600B4A7B6831
:1019A00013600F20FFF70AFC0346002B01D0012330
:1019B00002E0FFF7E5FB002318460837BD4680BD6F
:1019C00000440258E8CF01080C000024080000245D
:1019D00080B400AF064B1B781A46064B1B681344B5
:1019E000044A136000BFBD465DF8047B704700BF2A
:1019F000140000242006002480B400AF034B1B68B1
:101A00001846BD465DF8047B704700BF20060024E1
:101A100080B400AF034B1B681B0C1846BD465DF835
:101A2000047B70470010005C80B485B000AF786024
:101A30007B6803F00703FB600B4BDB68BB60BA6895
:101A40004FF6FF031340BB60FB681A02BB681A43E2
:101A5000064B1343BB60044ABB68D36000BF143716
:101A6000BD465DF8047B704700ED00E00000FA051C
:101A700080B400AF044BDB681B0A03F00703184671
:101A8000BD465DF8047B704700ED00E080B483B094
:101A900000AF0346FB80B7F90630002B0BDBFB8859
:101AA00003F01F020749B7F906305B09012000FA6D
:101AB00002F241F8232000BF0C37BD465DF8047BDD
:101AC000704700BF00E100E080B483B000AF034680
:101AD0003960FB80B7F90630002B0ADB3B68DAB2CD
:101AE0000C49B7F906301201D2B20B4483F8002337
:101AF0000AE03B68DAB20849FB8803F00F03043BB5
:101B00001201D2B20B441A7600BF0C37BD465DF805
:101B1000047B704700E100E000ED00E080B489B094
:101B200000AFF860B9607A60FB6803F00703FB61FF
:101B3000FB69C3F10703042B28BF0423BB61FB69C6
:101B40000433062B02D9FB69033B00E000237B61D1
:101B50004FF0FF32BB6902FA03F3DA43BB681A4065
:101B60007B699A404FF0FF317B6901FA03F3D94357
:101B70007B680B40134318462437BD465DF8047B51
:101B80007047000080B400AFBFF34F8F00BF064B1B
:101B9000DB6803F4E0620449044B1343CB60BFF3FA
:101BA0004F8F00BF00BFFDE700ED00E00400FA0525
:101BB00080B582B000AF78607868FFF735FF00BF6E
:101BC0000837BD4680BD80B586B000AF0346B9601A
:101BD0007A60FB81FFF74CFF78617A68B9687869B1
:101BE000FFF79CFF0246B7F90E3011461846FFF783
:101BF0006BFF00BF1837BD4680BD80B582B000AF17
:101C00000346FB80B7F906301846FFF73FFF00BFD9
:101C10000837BD4680BD80B500AFFFF7B3FF0000B9
:101C200080B400AFBFF35F8F00BF074B5B6A064A0B
:101C300023F480335362054B00225A6000BFBD4637
:101C40005DF8047B704700BF00ED00E090ED00E020
:101C500080B483B000AF78600B4A7B6843F0010327
:101C600053600A4B5B6A094A43F480335362BFF303
:101C70004F8F00BFBFF36F8F00BF00BF0C37BD4653
:101C80005DF8047B704700BF90ED00E000ED00E0E0
:101C900080B483B000AF78607B685A781B4B9A6041
:101CA0001A4B1B69194A23F001031361174A7B6819
:101CB0005B68D3607B681B7B1A077B68DB7A1B063B
:101CC0001A437B689B7ADB041A437B685B7B9B042B
:101CD0001A437B689B7B5B041A437B68DB7B1B049A
:101CE0001A437B685B7A1B021A437B681B7A5B0092
:101CF00013437A6812781146044A0B43136100BFFC
:101D00000C37BD465DF8047B704700BF90ED00E0E6
:101D100080B586B000AF7860FFF76EFE38617B68F3
:101D2000002B01D1012316E37B681B68664A9342AE
:101D30004AD07B681B68654A934245D07B681B6824
:101D4000634A934240D07B681B68624A93423BD00F
:101D50007B681B68604A934236D07B681B685F4A89
:101D6000934231D07B681B685D4A93422CD07B68DC
:101D70001B685C4A934227D07B681B685A4A93428F
:101D800022D07B681B68594A93421DD07B681B6830
:101D9000574A934218D07B681B68564A934213D027
:101DA0007B681B68544A93420ED07B681B68534A79
:101DB000934209D07B681B68514A934204D07B68E8
:101DC0001B68504A934201D1012300E00023002BFD
:101DD00000F03B817B68022283F835207B6800227B
:101DE00083F834207B681B68374A93424AD07B686B
:101DF0001B68364A934245D07B681B68344A93423D
:101E000040D07B681B68334A93423BD07B681B6899
:101E1000314A934236D07B681B68304A934231D0B6
:101E20007B681B682E4A93422CD07B681B682D4A26
:101E3000934227D07B681B682B4A934222D07B6851
:101E40001B682A4A93421DD07B681B68284A93422C
:101E500018D07B681B68274A934213D07B681B68A5
:101E6000254A93420ED07B681B68244A934209D0CE
:101E70007B681B68224A934204D07B681B68214A16
:101E8000934208D17B681B681A687B681B6822F044
:101E900001021A6007E07B681B681A687B681B6890
:101EA00022F001021A602FE0FFF7A6FD02463B690F
:101EB000D31A052B28D97B6820225A657B68032218
:101EC00083F83520012346E210000240280002403A
:101ED000400002405800024070000240880002406A
:101EE000A0000240B8000240100402402804024052
:101EF000400402405804024070040240880402403A
:101F0000A0040240B80402407B681B681B6803F011
:101F10000103002BC8D17B681B681B687B617A6951
:101F2000834B13407B617B689A687B68DB681A434C
:101F30007B681B691A437B685B691A437B689B69F2
:101F40001A437B68DB691A437B681B6A13437A690F
:101F500013437B617B685B6A042B07D17B68DA6A79
:101F60007B681B6B13437A6913437B61714B1A685F
:101F7000714B1340B3F1005F28D37B685B68282B5B
:101F800003D97B685B682E2B17D97B685B683E2B77
:101F900003D97B685B68422B0FD97B685B68462B53
:101FA00003D97B685B68482B07D97B685B684E2B3D
:101FB00005D97B685B68522B01D8012300E0002320
:101FC000002B03D07B6943F480137B617B681B6823
:101FD0007A691A607B681B685B697B617B6923F0A7
:101FE00007037B617B685B6A7A6913437B617B686B
:101FF0005B6A042B17D17B689B6A7A6913437B6108
:102000007B68DB6A002B0ED0786802F03FFB03464A
:10201000002B08D07B6840225A657B68012283F838
:102020003520012397E17B681B687A695A617868DB
:1020300002F07AFA0346BB607B68DB6D03F01F0396
:102040003F229A40BB689A60CDE07B681B683B4AA0
:10205000934222D07B681B68394A93421DD07B682B
:102060001B68384A934218D07B681B68364A9342F3
:1020700013D07B681B68354A93420ED07B681B687F
:10208000334A934209D07B681B68324A934204D09A
:102090007B681B68304A934201D1012300E0002392
:1020A000002B00F097807B681B68244A934221D064
:1020B0007B681B68224A93421CD07B681B68214ABC
:1020C000934217D07B681B681F4A934212D07B68EB
:1020D0001B681E4A93420DD07B681B681C4A9342C2
:1020E00008D07B681B681B4A934203D07B681B683F
:1020F000194A93427B68022283F835207B680022CC
:1021000083F834207B681B681B687B617A69134BFA
:1021100013407B617B689B68402B21D07B689B6868
:10212000802B02D14FF480431BE0002319E000BF55
:102130003F8010FE0010005C0000FFFF08540258B2
:102140001C540258305402584454025858540258EF
:102150006C54025880540258945402580F00FEFFE9
:1021600010237A68D268D2081A437B681B69DB089F
:102170001A437B685B69DB081A437B689B69DB0851
:102180001A437B68DB69DB081A437B681B6A1B09FF
:1021900013437A6913437B617B681B687A691A6011
:1021A0007B681B681A466E4B13446E4AA2FB0323DE
:1021B0001B099A007B68DA65786802F0B5F9034676
:1021C000FB607B68DB6D03F01F0301229A40FB6814
:1021D0005A6008E07B6840225A657B68032283F8D6
:1021E00035200123B7E07B681B685F4A934272D0B9
:1021F0007B681B685D4A93426DD07B681B685C4AB4
:10220000934268D07B681B685A4A934263D07B68CC
:102210001B68594A93425ED07B681B68574A9342B9
:1022200059D07B681B68564A934254D07B681B6820
:10223000544A93424FD07B681B68534A93424AD01A
:102240007B681B68514A934245D07B681B68504AA3
:10225000934240D07B681B684E4A93423BD07B68D8
:102260001B684D4A934236D07B681B684B4A9342A9
:1022700031D07B681B684A4A93422CD07B681B682C
:10228000484A934227D07B681B68474A934222D032
:102290007B681B68454A93421DD07B681B68444A93
:1022A000934218D07B681B68424A934213D07B68E4
:1022B0001B68414A93420ED07B681B683F4A934299
:1022C00009D07B681B683E4A934204D07B681B6838
:1022D0003C4A934201D1012300E00023002B32D07D
:1022E000786802F04FFA7B689B68802B02D17B688C
:1022F00000225A607B685A687B681B6ED2B21A60F3
:102300007B685B6E7A68926E5A607B685B68002BB4
:1023100010D07B685B68082B0CD8786802F0CCFA88
:102320007B68DB6E00221A607B681B6F7A68526FD5
:102330005A6008E07B680022DA667B6800221A6730
:102340007B6800225A677B6800225A657B680122FD
:1023500083F83520002318461837BD4680BD00BFDE
:10236000F8ABFDA7CDCCCCCC100002402800024039
:1023700040000240580002407000024088000240C5
:10238000A0000240B80002401004024028040240AD
:102390004004024058040240700402408804024095
:1023A000A0040240B8040240085402581C540258C9
:1023B0003054025844540258585402586C5402582D
:1023C000805402589454025880B586B000AFF8602B
:1023D000B9607A603B600023FB75FB68002B01D17C
:1023E000012326E2FB6893F83430012B01D102234C
:1023F0001FE2FB68012283F83420FB6893F8353034
:10240000DBB2012B40F00A82FB68022283F8352000
:10241000FB6800225A65FB681B68684A93424AD0F1
:10242000FB681B68664A934245D0FB681B68654A97
:10243000934240D0FB681B68634A93423BD0FB68E1
:102440001B68624A934236D0FB681B68604A93421D
:1024500031D0FB681B685F4A93422CD0FB681B6835
:102460005D4A934227D0FB681B685C4A934222D0A6
:10247000FB681B685A4A93421DD0FB681B68594A87
:10248000934218D0FB681B68574A934213D0FB68ED
:102490001B68564A93420ED0FB681B68544A93420D
:1024A00009D0FB681B68534A934204D0FB681B6841
:1024B000514A934208D1FB681B681A68FB681B6885
:1024C00022F001021A6007E0FB681B681A68FB68CB
:1024D0001B6822F001021A603B687A68B968F868E4
:1024E00001F076FEFB681B68344A93424AD0FB68D1
:1024F0001B68334A934245D0FB681B68314A9342BC
:1025000040D0FB681B68304A93423BD0FB681B6895
:102510002E4A934236D0FB681B682D4A934231D035
:10252000FB681B682B4A93422CD0FB681B682A4A25
:10253000934227D0FB681B68284A934222D0FB684D
:102540001B68274A93421DD0FB681B68254A9342AB
:1025500018D0FB681B68244A934213D0FB681B68A1
:10256000224A93420ED0FB681B68214A934209D04D
:10257000FB681B681F4A934204D0FB681B681E4A15
:10258000934201D1012300E00023002B36D0FB68E9
:102590001B681B6823F01E02FB681B6842F01602D2
:1025A0001A60FB681B6C002B3ED0FB681B681A6826
:1025B000FB681B6842F008021A6035E01000024018
:1025C00028000240400002405800024070000240D3
:1025D00088000240A0000240B800024010040240FF
:1025E00028040240400402405804024070040240A3
:1025F00088040240A0040240B8040240FB681B6843
:102600001B6823F00E02FB681B6842F00A021A6086
:10261000FB681B6C002B07D0FB681B681A68FB6803
:102620001B6842F004021A60FB681B68834A9342ED
:1026300072D0FB681B68824A93426DD0FB681B68AE
:10264000804A934268D0FB681B687F4A934263D0FC
:10265000FB681B687D4A93425ED0FB681B687C4A1E
:10266000934259D0FB681B687A4A934254D0FB6866
:102670001B68794A93424FD0FB681B68774A9342A4
:102680004AD0FB681B68764A934245D0FB681B68BA
:10269000744A934240D0FB681B68734A93423BD014
:1026A000FB681B68714A934236D0FB681B68704A0E
:1026B000934231D0FB681B686E4A93422CD0FB6872
:1026C0001B686D4A934227D0FB681B686B4A934294
:1026D00022D0FB681B686A4A93421DD0FB681B68C6
:1026E000684A934218D0FB681B68674A934213D02C
:1026F000FB681B68654A93420ED0FB681B68644AFE
:10270000934209D0FB681B68624A934204D0FB687D
:102710001B68614A934201D1012300E00023002B92
:102720001AD0FB681B6E1B6803F48033002B07D0A4
:10273000FB681B6E1A68FB681B6E42F480721A609D
:10274000FB68DB6E002B07D0FB68DB6E1A68FB684A
:10275000DB6E42F480721A60FB681B68374A934252
:102760004AD0FB681B68364A934245D0FB681B6819
:10277000344A934240D0FB681B68334A93423BD0B3
:10278000FB681B68314A934236D0FB681B68304AAD
:10279000934231D0FB681B682E4A93422CD0FB68D1
:1027A0001B682D4A934227D0FB681B682B4A934233
:1027B00022D0FB681B682A4A93421DD0FB681B6825
:1027C000284A934218D0FB681B68274A934213D0CB
:1027D000FB681B68254A93420ED0FB681B68244A9D
:1027E000934209D0FB681B68224A934204D0FB68DD
:1027F0001B68214A934208D1FB681B681A68FB6872
:102800001B6842F001021A6012E0FB681B681A683C
:10281000FB681B6842F001021A6009E0FB684FF494
:1028200000625A65FB68002283F834200123FB759F
:10283000FB7D18461837BD4680BD00BF1000024022
:102840002800024040000240580002407000024050
:1028500088000240A0000240B8000240100402407C
:102860002804024040040240580402407004024020
:1028700088040240A0040240B804024008540258F0
:102880001C540258305402584454025858540258A8
:102890006C540258805402589454025880B586B043
:1028A00000AF7860FFF7A8F838617B68002B01D192
:1028B0000123DCE27B6893F83530DBB2022B08D0D1
:1028C0007B6880225A657B68002283F834200123CC
:1028D000CDE27B681B68764A93424AD07B681B68CE
:1028E000744A934245D07B681B68734A934240D038
:1028F0007B681B68714A93423BD07B681B68704AB7
:10290000934236D07B681B686E4A934231D07B6815
:102910001B686D4A93422CD07B681B686B4A9342BC
:1029200027D07B681B686A4A934222D07B681B6869
:10293000684A93421DD07B681B68674A934218D04F
:102940007B681B68654A934213D07B681B68644AA6
:1029500093420ED07B681B68624A934209D07B6821
:102960001B68614A934204D07B681B685F4A9342AC
:1029700001D1012300E00023002B13D07B681B68EA
:102980001A687B681B6822F01E021A607B681B684D
:102990005A697B681B6822F080025A617B681B6859
:1029A0007B610AE07B681B681A687B681B6822F001
:1029B0000E021A607B681B687B617B681B683C4A5F
:1029C000934272D07B681B683A4A93426DD07B6811
:1029D0001B68394A934268D07B681B68374A934228
:1029E00063D07B681B68364A93425ED07B681B6865
:1029F000344A934259D07B681B68334A934254D07F
:102A00007B681B68314A93424FD07B681B68304A11
:102A100093424AD07B681B682E4A934245D07B681C
:102A20001B682D4A934240D07B681B682B4A934217
:102A30003BD07B681B682A4A934236D07B681B6870
:102A4000284A934231D07B681B68274A93422CD096
:102A50007B681B68254A934227D07B681B68244A01
:102A6000934222D07B681B68224A93421DD07B6828
:102A70001B68214A934218D07B681B681F4A934207
:102A800013D07B681B681E4A93420ED07B681B687C
:102A90001C4A934209D07B681B681B4A934204D0AE
:102AA0007B681B68194A934232D1012331E000BF91
:102AB000100002402800024040000240580002403E
:102AC0007000024088000240A0000240B8000240AE
:102AD000100402402804024040040240580402400E
:102AE0007004024088040240A0040240B80402407E
:102AF000085402581C540258305402584454025886
:102B0000585402586C540258805402589454025835
:102B10000023002B07D07B681B6E1A687B681B6E36
:102B200022F480721A607B681B686D4A93424AD017
:102B30007B681B686B4A934245D07B681B686A4A76
:102B4000934240D07B681B68684A93423BD07B68C5
:102B50001B68674A934236D07B681B68654A93427C
:102B600031D07B681B68644A93422CD07B681B6819
:102B7000624A934227D07B681B68614A934222D005
:102B80007B681B685F4A93421DD07B681B685E4A66
:102B9000934218D07B681B685C4A934213D07B68D1
:102BA0001B685B4A93420ED07B681B68594A93426C
:102BB00009D07B681B68584A934204D07B681B6825
:102BC000564A934208D17B681B681A687B681B6869
:102BD00022F001021A6007E07B681B681A687B68B4
:102BE0001B6822F001021A6013E0FEF705FF02469F
:102BF0003B69D31A052B0CD97B6820225A657B6868
:102C0000032283F835207B68002283F834200123D7
:102C10002DE17B691B6803F00103002BE5D17B6884
:102C20001B682F4A93424AD07B681B682D4A934207
:102C300045D07B681B682C4A934240D07B681B6858
:102C40002A4A93423BD07B681B68294A934236D07C
:102C50007B681B68274A934231D07B681B68264AF1
:102C600093422CD07B681B68244A934227D07B6810
:102C70001B68234A934222D07B681B68214A9342F7
:102C80001DD07B681B68204A934218D07B681B6864
:102C90001E4A934213D07B681B681D4A93420ED094
:102CA0007B681B681B4A934209D07B681B681A4AE1
:102CB000934204D07B681B68184A934201D10123D8
:102CC00000E00023002B2BD07B689B6DBB607B68F2
:102CD000DB6D03F01F033F229A40BB689A602AE035
:102CE000100002402800024040000240580002400C
:102CF0007000024088000240A0000240B80002407C
:102D000010040240280402404004024058040240DB
:102D10007004024088040240A0040240B80402404B
:102D20007B689B6DFB607B68DB6D03F01F030122FA
:102D30009A40FB685A607B681B684F4A934272D086
:102D40007B681B684D4A93426DD07B681B684C4A78
:102D5000934268D07B681B684A4A934263D07B6881
:102D60001B68494A93425ED07B681B68474A93427E
:102D700059D07B681B68464A934254D07B681B68D5
:102D8000444A93424FD07B681B68434A93424AD0DF
:102D90007B681B68414A934245D07B681B68404A68
:102DA000934240D07B681B683E4A93423BD07B688D
:102DB0001B683D4A934236D07B681B683B4A93426E
:102DC00031D07B681B683A4A93422CD07B681B68E1
:102DD000384A934227D07B681B68374A934222D0F7
:102DE0007B681B68354A93421DD07B681B68344A58
:102DF000934218D07B681B68324A934213D07B6899
:102E00001B68314A93420ED07B681B682F4A93425D
:102E100009D07B681B682E4A934204D07B681B68EC
:102E20002C4A934201D1012300E00023002B15D04E
:102E30007B685B6E7A68926E5A607B68DB6E002BF3
:102E40000CD07B68DB6E1A687B68DB6E22F48072C4
:102E50001A607B681B6F7A68526F5A607B68012228
:102E600083F835207B68002283F83420002318463D
:102E70001837BD4680BD00BF100002402800024048
:102E800040000240580002407000024088000240AA
:102E9000A0000240B8000240100402402804024092
:102EA000400402405804024070040240880402407A
:102EB000A0040240B8040240085402581C540258AE
:102EC0003054025844540258585402586C54025812
:102ED000805402589454025880B584B000AF786092
:102EE0007B68002B01D1012337E27B6893F83530F2
:102EF000DBB2022B04D07B6880225A6501232CE2CE
:102F00007B681B685C4A93424AD07B681B685B4ABB
:102F1000934245D07B681B68594A934240D07B68F6
:102F20001B68584A93423BD07B681B68564A9342C1
:102F300036D07B681B68554A934231D07B681B684A
:102F4000534A93422CD07B681B68524A934227D045
:102F50007B681B68504A934222D07B681B684F4AAB
:102F600093421DD07B681B684D4A934218D07B6802
:102F70001B684C4A934213D07B681B684A4A9342B1
:102F80000ED07B681B68494A934209D07B681B6856
:102F9000474A934204D07B681B68464A934201D15A
:102FA000012300E00023002B00F086807B680422D0
:102FB00083F835207B681B682F4A93424AD07B6890
:102FC0001B682E4A934245D07B681B682C4A93426B
:102FD00040D07B681B682B4A93423BD07B681B68C0
:102FE000294A934236D07B681B68284A934231D0E5
:102FF0007B681B68264A93422CD07B681B68254A55
:10300000934227D07B681B68234A934222D07B6877
:103010001B68224A93421DD07B681B68204A93425A
:1030200018D07B681B681F4A934213D07B681B68CB
:103030001D4A93420ED07B681B681C4A934209D0FC
:103040007B681B681A4A934204D07B681B68194A44
:10305000934208D17B681B681A687B681B6822F062
:1030600001021A6078E17B681B681A687B681B683C
:1030700022F001021A606FE11000024028000240B5
:1030800040000240580002407000024088000240A8
:10309000A0000240B8000240100402402804024090
:1030A0004004024058040240700402408804024078
:1030B000A0040240B80402407B681B681A687B6861
:1030C0001B6822F00E021A607B681B686C4A9342F0
:1030D0004AD07B681B686B4A934245D07B681B686B
:1030E000694A934240D07B681B68684A93423BD050
:1030F0007B681B68664A934236D07B681B68654ACA
:10310000934231D07B681B68634A93422CD07B6822
:103110001B68624A934227D07B681B68604A9342CF
:1031200022D07B681B685F4A93421DD07B681B6876
:103130005D4A934218D07B681B685C4A934213D067
:103140007B681B685A4A93420ED07B681B68594AB9
:10315000934209D07B681B68574A934204D07B682E
:103160001B68564A934208D17B681B681A687B68C3
:103170001B6822F001021A6007E07B681B681A686E
:103180007B681B6822F001021A607B681B683C4A5E
:10319000934272D07B681B683A4A93426DD07B6839
:1031A0001B68394A934268D07B681B68374A934250
:1031B00063D07B681B68364A93425ED07B681B688D
:1031C000344A934259D07B681B68334A934254D0A7
:1031D0007B681B68314A93424FD07B681B68304A3A
:1031E00093424AD07B681B682E4A934245D07B6845
:1031F0001B682D4A934240D07B681B682B4A934240
:103200003BD07B681B682A4A934236D07B681B6898
:10321000284A934231D07B681B68274A93422CD0BE
:103220007B681B68254A934227D07B681B68244A29
:10323000934222D07B681B68224A93421DD07B6850
:103240001B68214A934218D07B681B681F4A93422F
:1032500013D07B681B681E4A93420ED07B681B68A4
:103260001C4A934209D07B681B681B4A934204D0D6
:103270007B681B68194A934232D1012331E000BFB9
:103280001000024028000240400002405800024066
:103290007000024088000240A0000240B8000240D6
:1032A0001004024028040240400402405804024036
:1032B0007004024088040240A0040240B8040240A6
:1032C000085402581C5402583054025844540258AE
:1032D000585402586C54025880540258945402585E
:1032E0000023002B28D07B681B6E1A687B681B6E3E
:1032F00022F480721A607B689B6DFB607B68DB6DDB
:1033000003F01F0301229A40FB685A607B685B6EE2
:103310007A68926E5A607B68DB6E002B0CD07B68FB
:10332000DB6E1A687B68DB6E22F480721A607B6841
:103330001B6F7A68526F5A607B68012283F83520D0
:103340007B68002283F834207B681B6D002B03D040
:103350007B681B6D78689847002318461037BD4678
:1033600080BD00BF80B58AB000AF78600023FB60ED
:10337000674B1B68674AA2FB03239B0A7B627B683F
:103380009B6D3B627B689B6DFB613B6A1B68BB610D
:10339000FB691B687B617B681B685F4A93424AD06C
:1033A0007B681B685D4A934245D07B681B685C4A1A
:1033B000934240D07B681B685A4A93423BD07B685B
:1033C0001B68594A934236D07B681B68574A934220
:1033D00031D07B681B68564A93422CD07B681B68AF
:1033E000544A934227D07B681B68534A934222D0A9
:1033F0007B681B68514A93421DD07B681B68504A0A
:10340000934218D07B681B684E4A934213D07B6866
:103410001B684D4A93420ED07B681B684B4A93420F
:1034200009D07B681B684A4A934204D07B681B68BA
:10343000484A934201D1012300E00023002B00F011
:103440002B847B68DB6D03F01F0308229A40BB6965
:103450001340002B00F0A2807B681B682E4A934229
:103460004AD07B681B682D4A934245D07B681B6815
:103470002B4A934240D07B681B682A4A93423BD038
:103480007B681B68284A934236D07B681B68274AB2
:10349000934231D07B681B68254A93422CD07B68CD
:1034A0001B68244A934227D07B681B68224A9342B8
:1034B00022D07B681B68214A93421DD07B681B6821
:1034C0001F4A934218D07B681B681E4A934213D050
:1034D0007B681B681C4A93420ED07B681B681B4AA2
:1034E000934209D07B681B68194A934204D07B68D9
:1034F0001B68184A93422FD17B681B681B6803F036
:103500000403002B14BF01230023DBB22EE000BF15
:1035100008000024B5814E1B100002402800024024
:103520004000024058000240700002408800024003
:10353000A0000240B80002401004024028040240EB
:1035400040040240580402407004024088040240D3
:10355000A0040240B80402407B681B681B6803F0AB
:103560000803002B14BF01230023DBB2002B15D06E
:103570007B681B681A687B681B6822F004021A606B
:103580007B68DB6D03F01F0308229A403B6A9A6058
:103590007B685B6D43F001027B685A657B68DB6D7D
:1035A00003F01F03BA6922FA03F303F00103002BAF
:1035B0006ED07B681B68694A93424AD07B681B685F
:1035C000674A934245D07B681B68664A934240D065
:1035D0007B681B68644A93423BD07B681B68634AE4
:1035E000934236D07B681B68614A934231D07B6836
:1035F0001B68604A93422CD07B681B685E4A9342EA
:1036000027D07B681B685D4A934222D07B681B6889
:103610005B4A93421DD07B681B685A4A934218D07C
:103620007B681B68584A934213D07B681B68574AD3
:1036300093420ED07B681B68554A934209D07B6841
:103640001B68544A934204D07B681B68524A9342D9
:103650000AD17B681B685B6903F08003002B14BFF1
:1036600001230023DBB203E07B681B681B68002397
:10367000002B0DD07B68DB6D03F01F0301229A4005
:103680003B6A9A607B685B6D43F002027B685A6517
:103690007B68DB6D03F01F0304229A40BB69134073
:1036A000002B00F08F807B681B682C4A93424AD025
:1036B0007B681B682A4A934245D07B681B68294A6D
:1036C000934240D07B681B68274A93423BD07B687B
:1036D0001B68264A934236D07B681B68244A934273
:1036E00031D07B681B68234A93422CD07B681B68CF
:1036F000214A934227D07B681B68204A934222D0FC
:103700007B681B681E4A93421DD07B681B681D4A5C
:10371000934218D07B681B681B4A934213D07B6886
:103720001B681A4A93420ED07B681B68184A934262
:1037300009D07B681B68174A934204D07B681B68DA
:10374000154A93422AD17B681B681B6803F0020369
:10375000002B14BF01230023DBB223E01000024042
:103760002800024040000240580002407000024021
:1037700088000240A0000240B8000240100402404D
:1037800028040240400402405804024070040240F1
:1037900088040240A0040240B80402407B681B6811
:1037A0001B680023002B0DD07B68DB6D03F01F032B
:1037B00004229A403B6A9A607B685B6D43F0040286
:1037C0007B685A657B68DB6D03F01F0310229A400B
:1037D000BB691340002B00F0A6807B681B68854AFC
:1037E00093424AD07B681B68834A934245D07B68EA
:1037F0001B68824A934240D07B681B68804A934290
:103800003BD07B681B687F4A934236D07B681B683D
:103810007D4A934231D07B681B687C4A93422CD00E
:103820007B681B687A4A934227D07B681B68794A79
:10383000934222D07B681B68774A93421DD07B68F5
:103840001B68764A934218D07B681B68744A93427F
:1038500013D07B681B68734A93420ED07B681B6849
:10386000714A934209D07B681B68704A934204D026
:103870007B681B686E4A93420AD17B681B681B6891
:1038800003F00803002B14BF01230023DBB209E07F
:103890007B681B681B6803F00403002B14BF012323
:1038A0000023DBB2002B3ED07B68DB6D03F01F03EF
:1038B00010229A403B6A9A607B681B681B6803F47D
:1038C0008023002B18D07B681B681B6803F400233F
:1038D000002B08D17B681B6C002B24D07B681B6CF1
:1038E000786898471FE07B689B6C002B1BD07B6837
:1038F0009B6C7868984716E07B681B681B6803F42C
:103900008073002B07D17B681B681A687B681B6873
:1039100022F008021A607B681B6C002B03D07B68C6
:103920001B6C786898477B68DB6D03F01F032022CF
:103930009A40BB691340002B00F010817B681B6824
:103940002C4A93424AD07B681B682B4A934245D04D
:103950007B681B68294A934240D07B681B68284AD1
:1039600093423BD07B681B68264A934236D07B68E3
:103970001B68254A934231D07B681B68234A9342D7
:103980002CD07B681B68224A934227D07B681B6837
:10399000204A934222D07B681B681F4A93421DD065
:1039A0007B681B681D4A934218D07B681B681C4AC1
:1039B000934213D07B681B681A4A93420ED07B68EF
:1039C0001B68194A934209D07B681B68174A9342C7
:1039D00004D07B681B68164A93422BD17B681B6816
:1039E0001B6803F01003002B14BF01230023DBB27C
:1039F0002AE000BF100002402800024040000240C0
:103A0000580002407000024088000240A0000240BE
:103A1000B800024010040240280402404004024062
:103A2000580402407004024088040240A00402408E
:103A3000B80402407B681B681B6803F00203002B7C
:103A400014BF01230023DBB2002B00F087807B68CA
:103A5000DB6D03F01F0320229A403B6A9A607B686B
:103A600093F83530DBB2042B39D17B681B681A68B8
:103A70007B681B6822F016021A607B681B685A6913
:103A80007B681B6822F080025A617B681B6C002BEC
:103A900003D17B689B6C002B07D07B681B681A687E
:103AA0007B681B6822F008021A607B68DB6D03F0FC
:103AB0001F033F229A403B6A9A607B68012283F889
:103AC00035207B68002283F834207B681B6D002B37
:103AD00000F04A837B681B6D7868984744E37B68F5
:103AE0001B681B6803F48023002B18D07B681B68BD
:103AF0001B6803F40023002B08D17B685B6C002B50
:103B00002CD07B685B6C7868984727E07B68DB6B20
:103B1000002B23D07B68DB6B786898471EE07B68BE
:103B20001B681B6803F48073002B0FD17B681B6834
:103B30001A687B681B6822F010021A607B680122F9
:103B400083F835207B68002283F834207B68DB6BA8
:103B5000002B03D07B68DB6B786898477B685B6DD4
:103B6000002B00F006837B685B6D03F00103002BE4
:103B700000F088807B68042283F835207B681B680E
:103B80007A4A93424AD07B681B68794A934245D06F
:103B90007B681B68774A934240D07B681B68764AF3
:103BA00093423BD07B681B68744A934236D07B6853
:103BB0001B68734A934231D07B681B68714A9342F9
:103BC0002CD07B681B68704A934227D07B681B68A7
:103BD0006E4A934222D07B681B686D4A93421DD087
:103BE0007B681B686B4A934218D07B681B686A4AE3
:103BF000934213D07B681B68684A93420ED07B685F
:103C00001B68674A934209D07B681B68654A9342E8
:103C100004D07B681B68644A934208D17B681B68A8
:103C20001A687B681B6822F001021A6007E07B6853
:103C30001B681A687B681B6822F001021A60FB6827
:103C40000133FB607A6A9A4207D37B681B681B6862
:103C500003F00103002BF2D100E000BF7B681B687A
:103C60001B6803F00103002B04D07B68032283F858
:103C7000352003E07B68012283F835207B68002231
:103C800083F834207B68DB6C002B00F072827B6849
:103C9000DB6C786898476CE27B681B68434A934208
:103CA00022D07B681B68424A93421DD07B681B6808
:103CB000404A934218D07B681B683F4A934213D016
:103CC0007B681B683D4A93420ED07B681B683C4A68
:103CD000934209D07B681B683A4A934204D07B68C0
:103CE0001B68394A934201D1012300E00023002BD5
:103CF00000F03F827B681B681B683B617B68DB6D63
:103D000003F01F0304229A407B691340002B00F04C
:103D1000CD803B6903F00403002B00F0C7807B6873
:103D2000DB6D03F01F0304229A40FB695A603B6974
:103D300003F40043002B49D03B6903F48033002B8C
:103D400009D17B689B6C002B00F010827B689B6C18
:103D5000786898470AE27B681B6C002B00F00682AB
:103D60007B681B6C7868984700E200BF1000024037
:103D7000280002404000024058000240700002400B
:103D800088000240A0000240B80002401004024037
:103D900028040240400402405804024070040240DB
:103DA00088040240A0040240B804024008540258AB
:103DB0001C54025830540258445402585854025863
:103DC0006C54025880540258945402583B6903F0D2
:103DD0002003002B60D17B681B687F4A93424AD046
:103DE0007B681B687D4A934245D07B681B687C4A90
:103DF000934240D07B681B687A4A93423BD07B68F1
:103E00001B68794A934236D07B681B68774A934295
:103E100031D07B681B68764A93422CD07B681B6844
:103E2000744A934227D07B681B68734A934222D01E
:103E30007B681B68714A93421DD07B681B68704A7F
:103E4000934218D07B681B686E4A934213D07B68FC
:103E50001B686D4A93420ED07B681B686B4A934285
:103E600009D07B681B686A4A934204D07B681B6850
:103E7000684A934208D17B681B681A687B681B6894
:103E800022F008021A6007E07B681B681A687B68EA
:103E90001B6822F004021A607B681B6C002B00F088
:103EA00065817B681B6C786898475FE17B68DB6D98
:103EB00003F01F0302229A407B691340002B00F09D
:103EC000C5803B6903F00203002B00F0BF807B68D4
:103ED000DB6D03F01F0302229A40FB695A603B69C5
:103EE00003F40043002B18D03B6903F48033002B0C
:103EF00009D17B685B6C002B00F03A817B685B6CBE
:103F00007868984734E17B68DB6B002B00F03081E8
:103F10007B68DB6B786898472AE13B6903F02003F4
:103F2000002B40F089807B681B682B4A93424AD063
:103F30007B681B68294A934245D07B681B68284AE6
:103F4000934240D07B681B68264A93423BD07B68F3
:103F50001B68254A934236D07B681B68234A9342EC
:103F600031D07B681B68224A93422CD07B681B6847
:103F7000204A934227D07B681B681F4A934222D075
:103F80007B681B681D4A93421DD07B681B681C4AD6
:103F9000934218D07B681B681A4A934213D07B68FF
:103FA0001B68194A93420ED07B681B68174A9342DC
:103FB00009D07B681B68164A934204D07B681B6853
:103FC000144A934228D17B681B681A687B681B6877
:103FD00022F014021A6027E010000240280002407C
:103FE0004000024058000240700002408800024039
:103FF000A0000240B8000240100402402804024021
:104000004004024058040240700402408804024008
:10401000A0040240B80402407B681B681A687B68F1
:104020001B6822F00A021A607B68012283F835209F
:104030007B68002283F834207B68DB6B002B00F068
:1040400097807B68DB6B7868984791E07B68DB6DD5
:1040500003F01F0308229A407B691340002B00F0F5
:1040600088803B6903F00803002B00F082807B68A6
:104070001B68414A93424AD07B681B683F4A93427F
:1040800045D07B681B683E4A934240D07B681B68E2
:104090003C4A93423BD07B681B683B4A934236D0F4
:1040A0007B681B68394A934231D07B681B68384A69
:1040B00093422CD07B681B68364A934227D07B689A
:1040C0001B68354A934222D07B681B68334A93426F
:1040D0001DD07B681B68324A934218D07B681B68EE
:1040E000304A934213D07B681B682F4A93420ED00C
:1040F0007B681B682D4A934209D07B681B682C4A59
:10410000934204D07B681B682A4A934208D17B689B
:104110001B681A687B681B6822F01C021A6007E0A3
:104120007B681B681A687B681B6822F00E021A60A5
:104130007B68DB6D03F01F0301229A40FB695A6024
:104140007B6801225A657B68012283F835207B68F1
:10415000002283F834207B68DB6C002B09D07B685D
:10416000DB6C7868984704E000BF02E000BF00E025
:1041700000BF2837BD4680BD100002402800024025
:104180004000024058000240700002408800024097
:10419000A0000240B800024010040240280402407F
:1041A0004004024058040240700402408804024067
:1041B000A0040240B804024080B483B000AF78602D
:1041C0007B685B6D18460C37BD465DF8047B704715
:1041D00080B487B000AFF860B9607A603B60FB687C
:1041E0009B6D7B61FB689B6D3B61FB681B687F4A35
:1041F000934272D0FB681B687D4A93426DD0FB6886
:104200001B687C4A934268D0FB681B687A4A9342D9
:1042100063D0FB681B68794A93425ED0FB681B68D9
:10422000774A934259D0FB681B68764A934254D030
:10423000FB681B68744A93424FD0FB681B68734A43
:1042400093424AD0FB681B68714A934245D0FB6891
:104250001B68704A934240D0FB681B686E4A9342C9
:104260003BD0FB681B686D4A934236D0FB681B68E5
:104270006B4A934231D0FB681B686A4A93422CD048
:10428000FB681B68684A934227D0FB681B68674A33
:10429000934222D0FB681B68654A93421DD0FB689D
:1042A0001B68644A934218D0FB681B68624A9342B9
:1042B00013D0FB681B68614A93420ED0FB681B68F1
:1042C0005F4A934209D0FB681B685E4A934204D060
:1042D000FB681B685C4A934201D1012300E0002384
:1042E000002B0DD0FB685B6EFA68926E5A60FB681B
:1042F000DB6E002B04D0FB681B6FFA68526F5A60AC
:10430000FB681B68394A93424AD0FB681B68384AED
:10431000934245D0FB681B68364A934240D0FB6805
:104320001B68354A93423BD0FB681B68334A934273
:1043300036D0FB681B68324A934231D0FB681B6859
:10434000304A93422CD0FB681B682F4A934227D0F7
:10435000FB681B682D4A934222D0FB681B682C4ADD
:1043600093421DD0FB681B682A4A934218D0FB6811
:104370001B68294A934213D0FB681B68274A934263
:104380000ED0FB681B68264A934209D0FB681B6865
:10439000244A934204D0FB681B68234A934201D10C
:1043A000012300E00023002B59D0FB68DB6D03F0F4
:1043B0001F033F229A407B699A60FB681B681A685A
:1043C000FB681B6822F480221A60FB681B683A684D
:1043D0005A60FB689B68402B38D1FB681B687A6881
:1043E0009A60FB681B68BA68DA6086E010000240D9
:1043F0002800024040000240580002407000024085
:1044000088000240A0000240B800024010040240B0
:104410002804024040040240580402407004024054
:1044200088040240A0040240B80402400854025824
:104430001C540258305402584454025858540258DC
:104440006C5402588054025894540258FB681B68FC
:10445000BA689A60FB681B687A68DA604DE0FB68AE
:104460001B68294A934222D0FB681B68274A934263
:104470001DD0FB681B68264A934218D0FB681B6856
:10448000244A934213D0FB681B68234A93420ED000
:10449000FB681B68214A934209D0FB681B68204ACD
:1044A000934204D0FB681B681E4A934201D101234A
:1044B00000E00023002B20D0FB68DB6D03F01F031E
:1044C00001229A403B695A60FB681B683A685A604F
:1044D000FB689B68402B08D1FB681B687A689A6070
:1044E000FB681B68BA68DA6007E0FB681B68BA689B
:1044F0009A60FB681B687A68DA6000BF1C37BD46AB
:104500005DF8047B704700BF085402581C540258E1
:104510003054025844540258585402586C540258AB
:10452000805402589454025880B485B000AF78602B
:104530007B681B68424A93424AD07B681B68414AA9
:10454000934245D07B681B683F4A934240D07B68CA
:104550001B683E4A93423BD07B681B683C4A9342AF
:1045600036D07B681B683B4A934231D07B681B681E
:10457000394A93422CD07B681B68384A934227D033
:104580007B681B68364A934222D07B681B68354A99
:1045900093421DD07B681B68334A934218D07B68D6
:1045A0001B68324A934213D07B681B68304A93429F
:1045B0000ED07B681B682F4A934209D07B681B682A
:1045C0002D4A934204D07B681B682C4A934201D148
:1045D000012300E00023002B24D07B681B68DBB2A2
:1045E000103B274AA2FB03231B09FB60FB6803F077
:1045F0000703244AD35C1A467B68DA65FB68032B01
:1046000008D97B681B681A461F4B13401A1D7B682C
:104610009A650DE07B681B681A461B4B13407A684D
:10462000936505E07B681B6823F0FF027B689A6551
:104630007B689B6D18461437BD465DF8047B704758
:104640001000024028000240400002405800024092
:104650007000024088000240A0000240B800024002
:104660001004024028040240400402405804024062
:104670007004024088040240A0040240B8040240D2
:10468000ABAAAAAAF8CF010800FCFFFF80B485B04E
:1046900000AF78600023FB737B689B69002B20D1FF
:1046A0007B689B6A032B58D801A252F823F000BF05
:1046B000C1460008D3460008C14600085B47000811
:1046C0007B68DB6A03F08073002B48D00123FB7307
:1046D00045E07B68DB6AB3F1C07F42D10123FB7305
:1046E0003FE07B689B69B3F5005F23D17B689B6AE1
:1046F000032B38D801A252F823F000BF0D47000861
:10470000134700080D470008254700080123FB73E5
:1047100030E07B68DB6A03F08073002B25D0012337
:10472000FB7322E07B68DB6AB3F1C07F1FD10123FA
:10473000FB731CE07B689B6A022B02D9032B03D01E
:1047400018E00123FB7315E07B68DB6A03F08073DC
:10475000002B0ED00123FB730BE000BF0AE000BF6B
:1047600008E000BF06E000BF04E000BF02E000BFB9
:1047700000E000BFFB7B18461437BD465DF8047BA4
:10478000704700BF80B485B000AF78607B681B685D
:10479000BB607B681B68384A934222D07B681B68E9
:1047A000364A93421DD07B681B68354A934218D025
:1047B0007B681B68334A934213D07B681B68324A7C
:1047C00093420ED07B681B68304A934209D07B68C5
:1047D0001B682F4A934204D07B681B682D4A934282
:1047E00001D1012300E00023002B1AD07B681B6855
:1047F000DBB2083B284AA2FB03231B09FB60FA68D3
:10480000264B13449B001A467B681A667B68244A31
:104810005A66FB6803F01F0301229A407B689A6680
:1048200024E07B681B68DBB2103B1E4AA2FB03231B
:104830001B09FB60BB681C4A934206D8BB681B4A35
:10484000934202D9FB680833FB60FA68184B1344A3
:104850009B001A467B681A667B68164A5A66FB6894
:1048600003F01F0301229A407B689A6600BF143749
:10487000BD465DF8047B7047085402581C5402582A
:104880003054025844540258585402586C54025838
:104890008054025894540258CDCCCCCC00960016CB
:1048A00080580258ABAAAAAAB80402400F040240DA
:1048B000008200108008024080B485B000AF7860AC
:1048C0007B685B68DBB2FB60FB68002B4AD0FB684F
:1048D000082B47D87B681B68254A934222D07B6807
:1048E0001B68244A93421DD07B681B68224A93426E
:1048F00018D07B681B68214A934213D07B681B68E1
:104900001F4A93420ED07B681B681E4A934209D00F
:104910007B681B681C4A934204D07B681B681B4A57
:10492000934201D1012300E00023002B0AD0FA6852
:10493000174B13449B001A467B68DA667B68154A5E
:104940001A6709E0FA68144B13449B001A467B6807
:10495000DA667B68114A1A67FB68013B01229A40BC
:104960007B685A6700BF1437BD465DF8047B70470B
:10497000085402581C5402583054025844540258E7
:10498000585402586C540258805402589454025897
:104990003F960016405902583F82001040090240DD
:1049A00080B489B000AF786039600023FB61894B27
:1049B0007B6194E13B681A680121FB6901FA03F30A
:1049C00013403B613B69002B00F086813B685B68CC
:1049D00003F00303012B05D03B685B6803F003037E
:1049E000022B30D17B689B68BB61FB695B000322B3
:1049F00002FA03F3DB43BA691340BB613B68DA6830
:104A0000FB695B0002FA03F3BA691343BB617B687D
:104A1000BA699A607B685B68BB610122FB6902FA34
:104A200003F3DB43BA691340BB613B685B681B0956
:104A300003F00102FB6902FA03F3BA691343BB6195
:104A40007B68BA695A603B685B6803F00303032B19
:104A500017D07B68DB68BB61FB695B00032202FA4D
:104A600003F3DB43BA691340BB613B689A68FB6997
:104A70005B0002FA03F3BA691343BB617B68BA694E
:104A8000DA603B685B6803F00303022B23D1FB6908
:104A9000DA087B68083253F82230BB61FB6903F007
:104AA00007039B000F2202FA03F3DB43BA691340AA
:104AB000BB613B681A69FB6903F007039B0002FABC
:104AC00003F3BA691343BB61FB69DA087B680832F8
:104AD000B96943F822107B681B68BB61FB695B0006
:104AE000032202FA03F3DB43BA691340BB613B685C
:104AF0005B6803F00302FB695B0002FA03F3BA6927
:104B00001343BB617B68BA691A603B685B6803F456
:104B10004033002B00F0E0802F4BD3F8F4302E4AC6
:104B200043F00203C2F8F4302B4BD3F8F43003F017
:104B30000203FB60FB68294AFB699B08023352F8B9
:104B40002330BB61FB6903F003039B000F2202FAD1
:104B500003F3DB43BA691340BB617B68204A93428D
:104B600052D07B681F4A934231D07B681E4A9342E1
:104B70002BD07B681D4A934225D07B681C4A934208
:104B80001FD07B681B4A934219D07B681A4A934214
:104B900013D07B68194A93420DD07B68184A934220
:104BA00007D07B68174A934201D109232DE00A23DD
:104BB0002BE0082329E0072327E0062325E005232F
:104BC00023E0042321E003231FE002231DE001234F
:104BD0001BE000BF80000058004402580004005849
:104BE000000002580004025800080258000C025845
:104BF000001002580014025800180258001C0258F5
:104C000000200258002402580023FA6902F003022F
:104C100092009340BA691343BB613849FB699B0812
:104C20000233BA6941F823204FF0B0431B68BB61DF
:104C30003B69DB43BA691340BB613B685B6803F4C3
:104C40008013002B03D0BA693B691343BB614FF05B
:104C5000B042BB6913604FF0B0435B68BB613B6916
:104C6000DB43BA691340BB613B685B6803F4001324
:104C7000002B03D0BA693B691343BB614FF0B042CC
:104C8000BB6953607B695B68BB613B69DB43BA69A5
:104C90001340BB613B685B6803F40033002B03D017
:104CA000BA693B691343BB617B69BA695A607B6926
:104CB0001B68BB613B69DB43BA691340BB613B685E
:104CC0005B6803F48033002B03D0BA693B6913435C
:104CD000BB617B69BA691A60FB690133FB613B68A0
:104CE0001A68FB6922FA03F3002B7FF463AE00BF5E
:104CF00000BF2437BD465DF8047B704700040058B0
:104D000080B483B000AF78600B467B8013467B7025
:104D10007B78002B03D07A887B689A6103E07B88DC
:104D20001A047B689A6100BF0C37BD465DF8047BAE
:104D3000704780B485B000AF78600B467B807B689D
:104D40005B69FB607A88FB6813401A04FB68D943EF
:104D50007B880B401A437B689A6100BF1437BD46BD
:104D60005DF8047B7047000080B584B000AF7860C8
:104D7000194BDB6803F00403042B0AD0164BDB68E5
:104D800003F007037A689A4201D001231FE0002351
:104D90001DE0114BDB6823F007020F497B681343CA
:104DA000CB60FCF729FEF86009E0FCF725FE02461F
:104DB000FB68D31AB3F57A7F01D9012307E0064BCC
:104DC0005B6803F40053B3F5005FEED1002318468F
:104DD0001037BD4680BD00BF0048025880B58CB07A
:104DE00000AF78607B68002B02D1012300F048BC43
:104DF0007B681B6803F00103002B00F08880994B4F
:104E00001B6903F03803FB62964B9B6ABB62FB6A2B
:104E1000102B07D0FB6A182B11D1BB6A03F00303D8
:104E2000022B0CD18F4B1B6803F40033002B6DD089
:104E30007B685B68002B69D1012300F021BC7B6893
:104E40005B68B3F5803F06D1864B1B68854A43F407
:104E5000803313602EE07B685B68002B0CD1814BA4
:104E60001B68804A23F4803313607E4B1B687D4AA5
:104E700023F4802313601DE07B685B68B3F5A02FEB
:104E80000CD1784B1B68774A43F480231360754B31
:104E90001B68744A43F4803313600BE0714B1B684A
:104EA000704A23F4803313606E4B1B686D4A23F401
:104EB000802313607B685B68002B13D0FCF79CFD9C
:104EC000786208E0FCF798FD02467B6AD31A642BEF
:104ED00001D90323D4E3634B1B6803F40033002B95
:104EE000F0D014E0FCF788FD786208E0FCF784FD60
:104EF00002467B6AD31A642B01D90323C0E3594BC2
:104F00001B6803F40033002BF0D100E000BF7B6886
:104F10001B6803F00203002B00F0CA80514B1B6991
:104F200003F038033B624F4B9B6AFB613B6A002BEB
:104F300007D03B6A182B56D1FB6903F00303002B03
:104F400051D1484B1B6803F00403002B05D07B684C
:104F5000DB68002B01D1012392E3424B1B6823F055
:104F600019027B68DB683F4913430B60FCF744FD83
:104F7000786208E0FCF740FD02467B6AD31A022BF8
:104F800001D903237CE3374B1B6803F00403002B98
:104F9000F0D0FCF73DFD034641F20302934217D8DF
:104FA0007B681B69402B08D12E4B5B6823F47C3354
:104FB0002C4A43F4003353607AE02A4B5B6823F4B5
:104FC0007C327B681B691B03264913434B606FE0EF
:104FD000244B5B6823F0FE427B681B691B0621495A
:104FE00013434B6064E07B68DB68002B47D01D4BAC
:104FF0001B6823F019027B68DB681A4913430B60B6
:10500000FCF7FAFC786208E0FCF7F6FC02467B6AE3
:10501000D31A022B01D9032332E3124B1B6803F08E
:105020000403002BF0D0FCF7F3FC034641F203022B
:10503000934219D87B681B69402B08D1094B5B68E8
:1050400023F47C33074A43F40033536030E0054BCC
:105050005B6823F47C327B681B691B0301491343A3
:105060004B6025E0004402589A4B5B6823F0FE42F7
:105070007B681B691B06974913434B6018E0954BEF
:105080001B68944A23F001031360FCF7B5FC7862B7
:1050900008E0FCF7B1FC02467B6AD31A022B01D967
:1050A0000323EDE28B4B1B6803F00403002BF0D1CC
:1050B0007B681B6803F01003002B00F0A980854B70
:1050C0001B6903F03803BB61824B9B6A7B61BB6940
:1050D000082B07D0BB69182B3AD17B6903F0030377
:1050E000012B35D17B4B1B6803F48073002B05D05B
:1050F0007B68DB69802B01D00123C1E2FCF788FCCF
:10510000034641F20302934217D87B681B6A202BA7
:1051100008D1704B5B6823F0F8436E4A43F080433C
:10512000536075E06B4B5B6823F0F8427B681B6A49
:105130009B06684913434B606AE0664BDB6823F0CB
:105140007C527B681B6A1B0662491343CB605FE09D
:105150007B68DB69002B42D05E4B1B685D4A43F0E5
:1051600080031360FCF748FC786208E0FCF744FC1D
:1051700002467B6AD31A022B01D9032380E2554BE6
:105180001B6803F48073002BF0D0FCF741FC03464E
:1051900041F20302934217D87B681B6A202B08D187
:1051A0004C4B5B6823F0F8434A4A43F0804353601A
:1051B0002EE0484B5B6823F0F8427B681B6A9B0635
:1051C000444913434B6023E0424BDB6823F07C529D
:1051D0007B681B6A1B063F491343CB6018E03D4BBD
:1051E0001B683C4A23F080031360FCF705FC7862DF
:1051F00008E0FCF701FC02467B6AD31A022B01D9B6
:1052000003233DE2334B1B6803F48073002BF0D182
:105210007B681B6803F00803002B36D07B685B6952
:10522000002B19D02B4B5B6F2A4A43F001035367C5
:10523000FCF7E2FB786208E0FCF7DEFB02467B6AE3
:10524000D31A022B01D903231AE2224B5B6F03F01E
:105250000203002BF0D018E01E4B5B6F1D4A23F0B9
:1052600001035367FCF7C8FB786208E0FCF7C4FB56
:1052700002467B6AD31A022B01D9032300E2154BA5
:105280005B6F03F00203002BF0D17B681B6803F017
:105290002003002B39D07B689B69002B1CD00D4B61
:1052A0001B680C4A43F480531360FCF7A5FB78623B
:1052B00008E0FCF7A1FB02467B6AD31A022B01D956
:1052C0000323DDE1034B1B6803F40053002BF0D0F4
:1052D0001BE000BF004402589B4B1B689A4A23F412
:1052E00080531360FCF788FB786208E0FCF784FBCE
:1052F00002467B6AD31A022B01D90323C0E1924BE9
:105300001B6803F40053002BF0D17B681B6803F08B
:105310000403002B00F081808C4B1B688B4A43F404
:1053200080731360FCF768FB786208E0FCF764FBAD
:1053300002467B6AD31A642B01D90323A0E1834B75
:105340001B6803F48073002BF0D07B689B68012BF3
:1053500006D17D4B1B6F7C4A43F0010313672DE0A0
:105360007B689B68002B0CD1774B1B6F764A23F030
:1053700001031367744B1B6F734A23F00403136715
:105380001CE07B689B68052B0CD16F4B1B6F6E4A32
:1053900043F0040313676C4B1B6F6B4A43F001032C
:1053A00013670BE0684B1B6F674A23F00103136719
:1053B000654B1B6F644A23F0040313677B689B688B
:1053C000002B15D0FCF718FB78620AE0FCF714FB01
:1053D00002467B6AD31A41F28832934201D90323F1
:1053E0004EE1594B1B6F03F00203002BEED014E08B
:1053F000FCF702FB78620AE0FCF7FEFA02467B6AE1
:10540000D31A41F28832934201D9032338E14E4B3B
:105410001B6F03F00203002BEED17B685B6A002B4D
:1054200000F02D81484B1B6903F03803182B00F066
:10543000BD807B685B6A022B40F09E80424B1B68FC
:10544000414A23F080731360FCF7D6FA786208E0D3
:10545000FCF7D2FA02467B6AD31A022B01D9032346
:105460000EE1394B1B6803F00073002BF0D1364B73
:105470009A6A374B13407A68916A7A68D26A120145
:105480000A43314913438B627B681B6B013BC3F3B7
:1054900008027B685B6B013B5B029BB21A437B6833
:1054A0009B6B013B1B0403F4FE031A437B68DB6B1D
:1054B000013B1B0603F0FE43234913430B63224BBE
:1054C000DB6A214A23F00103D3621F4B5A6B214B45
:1054D00013407A68926CD2001B4913434B631A4BFA
:1054E000DB6A23F00C027B681B6C17491343CB6209
:1054F000154BDB6A23F002027B685B6C1249134395
:10550000CB62114BDB6A104A43F48033D3620E4BFB
:10551000DB6A0D4A43F40033D3620B4BDB6A0A4A61
:1055200043F48023D362084BDB6A074A43F001034C
:10553000D362054B1B68044A43F080731360FCF789
:105540005BFA786211E000BF00440258004802583C
:105550000CFCFFFF0700FFFFFCF74EFA02467B6AD8
:10556000D31A022B01D903238AE0474B1B6803F0AF
:105570000073002BF0D082E0434B1B68424A23F0BB
:1055800080731360FCF738FA786208E0FCF734FAAD
:1055900002467B6AD31A022B01D9032370E03A4BEF
:1055A0001B6803F00073002BF0D168E0364B9B6A58
:1055B0003B61354B1B6BFB607B685B6A012B31D019
:1055C0003B6903F003027B689B6A9A422AD13B69DC
:1055D0001B0903F03F027B68DB6A9A4222D1FB6819
:1055E000C3F308027B681B6B013B9A421AD1FB682C
:1055F0005B0A03F07F027B685B6B013B9A4211D12F
:10560000FB681B0C03F07F027B689B6B013B9A429B
:1056100008D1FB681B0E03F07F027B68DB6B013B4C
:105620009A4201D001232BE0174B5B6BDB08C3F3DD
:105630000C033B617B689B6C3A699A421FD0124B0A
:10564000DB6A114A23F00103D362FCF7D5F97862D3
:1056500000BFFCF7D1F902467B6A9342F9D00A4BAE
:105660005A6B0A4B13407A68926CD2000649134376
:105670004B63054BDB6A044A43F00103D36200230A
:1056800018463037BD4680BD004402580700FFFF72
:1056900080B586B000AF786039607B68002B01D19F
:1056A00001239CE18A4B1B6803F00F033A689A427E
:1056B00010D9874B1B6823F00F0285493B681343C1
:1056C0000B60834B1B6803F00F033A689A4201D0CA
:1056D000012384E17B681B6803F00403002B10D0D6
:1056E0007B681A697B4B9B6903F070039A4208D967
:1056F000784B9B6923F070027B681B6975491343E3
:105700008B617B681B6803F00803002B10D07B685B
:105710005A69704BDB6903F070039A4208D96D4BEC
:10572000DB6923F070027B685B696A491343CB61D4
:105730007B681B6803F01003002B10D07B689A690C
:10574000644BDB6903F4E0639A4208D9614BDB697F
:1057500023F4E0627B689B695E491343CB617B68FD
:105760001B6803F02003002B10D07B68DA69594BCB
:105770001B6A03F070039A4208D9564B1B6A23F048
:1057800070027B68DB69534913430B627B681B68BB
:1057900003F00203002B10D07B68DA684D4B9B6945
:1057A00003F00F039A4208D94A4B9B6923F00F027A
:1057B0007B68DB68474913438B617B681B6803F098
:1057C0000103002B55D0434B9B6923F470627B6827
:1057D0009B68404913438B617B685B68022B07D150
:1057E0003C4B1B6803F40033002B21D10123F6E06E
:1057F0007B685B68032B07D1364B1B6803F0007393
:10580000002B15D10123EAE07B685B68012B07D1EF
:10581000304B1B6803F48073002B09D10123DEE0B9
:105820002C4B1B6803F00403002B01D10123D6E0AD
:10583000284B1B6923F007027B685B6825491343EB
:105840000B61FCF7D9F878610AE0FCF7D5F802465D
:105850007B69D31A41F28832934201D90323BEE017
:105860001C4B1B6903F038027B685B68DB009A42C3
:10587000EBD17B681B6803F00203002B10D07B6820
:10588000DA68144B9B6903F00F039A4208D2114B5C
:105890009B6923F00F027B68DB680E4913438B6121
:1058A0000B4B1B6803F00F033A689A4214D2084B63
:1058B0001B6823F00F0206493B6813430B60044B3F
:1058C0001B6803F00F033A689A4205D0012386E073
:1058D00000200052004402587B681B6803F0040358
:1058E000002B10D07B681A693F4B9B6903F0700353
:1058F0009A4208D23C4B9B6923F070027B681B697B
:10590000394913438B617B681B6803F00803002B44
:1059100010D07B685A69344BDB6903F070039A42FC
:1059200008D2314BDB6923F070027B685B692E493A
:105930001343CB617B681B6803F01003002B10D06E
:105940007B689A69284BDB6903F4E0639A4208D2CA
:10595000254BDB6923F4E0627B689B692249134392
:10596000CB617B681B6803F02003002B10D07B68A1
:10597000DA691D4B1B6A03F070039A4208D21A4B76
:105980001B6A23F070027B68DB69174913430B62C3
:1059900000F034F80246144B9B691B0A03F00F0316
:1059A0001249CB5C03F01F0322FA03F33B610E4B59
:1059B0009B6903F00F030D4AD35C03F01F033A69A0
:1059C00022FA03F30A4A13600A4A3B6913600A4B3E
:1059D0001B681846FBF7F2FB0346FB73FB7B18467C
:1059E0001837BD4680BD00BF00440258E8CF01080B
:1059F0000C000024080000241000002480B489B0AA
:105A000000AFB34B1B6903F03803182B00F255812C
:105A100001A252F823F000BF7D5A0008BB5C0008C9
:105A2000BB5C0008BB5C0008BB5C0008BB5C0008FA
:105A3000BB5C0008BB5C0008A35A0008BB5C000804
:105A4000BB5C0008BB5C0008BB5C0008BB5C0008DA
:105A5000BB5C0008BB5C0008A95A0008BB5C0008DE
:105A6000BB5C0008BB5C0008BB5C0008BB5C0008BA
:105A7000BB5C0008BB5C0008AF5A0008944B1B6875
:105A800003F02003002B09D0914B1B68DB0803F0C7
:105A90000303904A22FA03F3BB6111E18D4BBB6112
:105AA0000EE18D4BBB610BE18C4BBB6108E1884B78
:105AB0009B6A03F003037B61854B9B6A1B0903F020
:105AC0003F033B61824BDB6A03F00103FB60804BC9
:105AD0005B6BDB08C3F30C03FA6802FB03F307EE0E
