:020000040800F2
:100000000000082435250008011C0008091C000810
:10001000111C0008191C0008211C00080000000029
:1000200000000000000000000000000091E3000854
:10003000291C000800000000E1E500087DBD000863
:1000400085250008852500088525000885250008E8
:1000500085250008852500088525000885250008D8
:10006000852500088525000885250008391C00081D
:100070004D1C0008611C0008751C0008852500083F
:1000800085250008852500088525000885250008A8
:100090008525000885250008852500088525000898
:1000A0008525000885250008852500088525000888
:1000B0008525000885250008852500088525000878
:1000C0008525000885250008852500088525000868
:1000D00085250008891C000885250008852500085D
:1000E00085250008852500080000000085250008FA
:1000F0008525000885250008852500088525000838
:100100008525000885250008852500088525000827
:100110009D1C0008B11C000885250008C51C0008AE
:100120008525000885250008852500088525000807
:1001300085250008852500088525000885250008F7
:1001400000000000000000000000000000000000AF
:1001500085250008852500088525000885250008D7
:1001600085250008852500088525000885250008C7
:100170008525000885250008852500080000000069
:1001800085250008852500088525000885250008A7
:100190008525000885250008852500088525000897
:1001A0008525000885250008852500088525000887
:1001B0008525000885250008852500088525000877
:1001C0008525000885250008852500088525000867
:1001D0008525000885250008852500088525000857
:1001E0008525000885250008852500088525000847
:1001F0008525000885250008852500088525000837
:100200008525000885250008852500088525000826
:100210008525000885250008852500088525000816
:1002200085250008852500088525000800000000B8
:1002300085250008852500080000000085250008A8
:1002400085250008852500088525000885250008E6
:1002500085250008852500088525000885250008D6
:1002600085250008852500088525000885250008C6
:100270008525000885250008852500080000000068
:100280008525000885250008852500080000000058
:080290000000000085250008B4
:1002A00010B5054C237833B9044B13B10448AFF3B0
:1002B00000800123237010BDF80500240000000019
:1002C000C0EF010808B5034B1BB103490348AFF366
:1002D000008008BD00000000FC050024C0EF0108FC
:1002E00010F8012B11F8013B012A28BF9A42F7D0E0
:1002F000D01A70470000000000000000000000005D
:1003000001F0FF01102A2BDB10F0070F08D010F8C6
:10031000013B013A8B422DD010F0070F42B3F6D1CA
:10032000F0B441EA012141EA014122F007047FF0E3
:1003300000070023F0E80256083C85EA010586EA3A
:10034000010685FA47F5A3FA87F586FA47F6A5FA76
:1003500087F68EB9EED1F0BC01F0FF0102F0070282
:1003600032B110F8013B013A83EA010313B1F8D12D
:100370000020704701387047002D06BF354603380E
:10038000073815F0010F07D1013015F4807F02BF47
:10039000013015F4C03F0130F0BC0138704700BF98
:1003A000034613F8012B002AFBD1181A01387047B5
:1003B0007BB972B90029BEBF00204FF0004106E0B2
:1003C00008BF00281CBF6FF000414FF0FF3000F065
:1003D000B5B9ADF1080C6DE904CE002909DB002B9D
:1003E0001ADB00F04DF8DDF804E0DDE9022304B08B
:1003F0007047404261EB4101002B1BDB00F040F8ED
:10040000DDF804E0DDE9022304B0404261EB410184
:10041000524263EB43037047524263EB430300F0E5
:100420002FF8DDF804E0DDE9022304B0404261EB7F
:1004300041017047524263EB430300F021F8DDF8BD
:1004400004E0DDE9022304B0524263EB430370474A
:1004500053B94AB9002908BF00281CBF4FF0FF312B
:100460004FF0FF3000F06AB9ADF1080C6DE904CE31
:1004700000F006F8DDF804E0DDE9022304B070477F
:100480002DE9F047089D0C46002B4ED194468C4533
:100490008646B2FA82F262D94AB1C2F12003914093
:1004A00020FA03F30CFA02FC194300FA02FE4FEAA9
:1004B0001C471FFA8CF6B1FBF7F44FEA1E4307FB0B
:1004C000141143EA014304FB06F199420AD91CEBDB
:1004D000030304F1FF3080F01281994240F20F8152
:1004E000023C6344591A1FFA8EF3B1FBF7F007FB85
:1004F000101143EA014300FB06F69E420AD91CEBA9
:10050000030300F1FF3180F0FC809E4240F2F9804D
:10051000634402389B1B40EA044000211DB1D340D4
:100520000022C5E90032BDE8F0878B4205D90DB144
:10053000C5E9000100210846F5E7B3FA83F1002977
:1005400046D1A34202D39042C0F0F080861A64EBF9
:1005500003030120002DE6D0C5E90063E3E7002A8C
:1005600040F09080A1EB0C044FEA1C481FFA8CF776
:100570000121B4FBF8F64FEA1E4308FB164443EA98
:10058000044307FB06F0984208D91CEB030306F16D
:10059000FF3402D2984200F2CD8026461C1A1FFA80
:1005A0008EF3B4FBF8F008FB104443EA044300FB6D
:1005B00007F79F4208D91CEB030300F1FF3402D276
:1005C0009F4200F2B0802046DB1B40EA0640A5E7D0
:1005D000C1F120068B4022FA06F71F4320FA06FCE1
:1005E00004FA01F343EA0C03F44000FA01F8380C72
:1005F0004FEA1349B4FBF0FE1FFA87FC00FB1E44D0
:1006000049EA04440EFB0CF9A14502FA01F20AD9A9
:100610003C190EF1FF3A80F08480A14540F28180C0
:10062000AEF1020E3C44A4EB09041FFA83F9B4FBBB
:10063000F0F300FB134449EA044403FB0CFCA4451B
:1006400007D93C1903F1FF3067D2A44565D9023BB5
:100650003C4443EA0E40A0FB0293A4EB0C049C42F2
:10066000CE469C4651D34ED055B1B8EB0E0364EB49
:100670000C0404FA06F6CB401E43CC40C5E90064E6
:10068000002150E7C2F1200320FA03F10CFA02FC2A
:1006900024FA03F394400C434FEA1C4800FA02FE8C
:1006A0001FFA8CF7B3FBF8F008FB1031230C43EA78
:1006B000014300FB07F1994208D91CEB030300F149
:1006C000FF362CD299422AD9023863445B1AA4B26D
:1006D000B3FBF8F108FB113344EA034401FB07F3D1
:1006E000A34208D91CEB040401F1FF3613D2A34244
:1006F00011D902396444E41A41EA004139E7044659
:10070000F0E6084606E7C845AED2B9EB020E63EB49
:10071000070C0138A8E73146EDE7034699E7304674
:10072000D4E7D6467FE7634402384DE706462346C2
:1007300008460FE7023E634430E700BF704700BF42
:1007400080B500AF094B1B780133DAB2074B1A7042
:10075000064B1B78142B07D9044B00221A704FF458
:100760000051034805F0FDF800BF80BD14060024C9
:100770000008025880B582B000AF0CF0F7FD0346C8
:100780007B600A481CF082FB094B1B68022B07DCCC
:10079000FFF7D6FF3B1D0A2118460CF015FCF3E7C6
:1007A00000BF00BF0837BD4680BD00BFD8EF0108BD
:1007B0003C47002480B582B000AF78600B467B8058
:1007C0007A884FF6FF737968034808F091FA00BF02
:1007D0000837BD4680BD00BFE048002480B582B028
:1007E00000AF46F2A503BB803B1D02211846FFF770
:1007F000E1FF00BF0837BD4680BD80B582B000AFC5
:1008000046F2A553BB803B1D02211846FFF7D2FFDD
:1008100000BF0837BD4680BD80B582B000AF03463B
:10082000FB71744B1B780A2B00F2E08001A252F896
:1008300023F000BF61080008770800088D08000851
:10084000A7080008F30800080D0900082709000898
:10085000410900085B090008750900088F090008B4
:10086000FB79AA2B40F0BB80624B01221A70624BCD
:10087000AA221A70B3E0FB79552B40F0B2805D4B91
:1008800002221A705C4B55225A70AAE0594B1B7811
:100890001946594AFB795354564B1B780133DAB247
:1008A000544B1A70A2E0534B1B781946524AFB79FD
:1008B0005354504B1B780133DAB24E4B1A70FB790C
:1008C0009BB21A46520013449AB24C4B1A804B4BBF
:1008D0001B88F52B40F28780484B00221A80454B3D
:1008E00000221A704FF48072002143481CF044FC2F
:1008F00079E0404B1B7819463F4AFB7953543D4BF6
:100900001B780133DAB23B4B1A706FE0394B1B781E
:100910001946394AFB795354364B1B780133DAB206
:10092000344B1A7062E0334B1B781946324AFB791C
:100930005354304B1B780133DAB22E4B1A7055E00A
:100940002C4B1B7819462C4AFB795354294B1B78A6
:100950000133DAB2274B1A7048E0264B1B78194650
:10096000254AFB795354234B1B780133DAB2214BD0
:100970001A703BE01F4B1B7819461F4AFB795354F2
:100980001C4B1B780133DAB21A4B1A702EE0194B4C
:100990001B781A461A4B1B7813441749FA79CA5424
:1009A000174B1B780133DAB2154B1A70144B1B78B6
:1009B0001A46124B1B889A4217D300F023F8104BAB
:1009C00000221A700D4B00221A800A4B00221A7066
:1009D0004FF48072002108481CF0CEFB05E000BFF8
:1009E00004E000BF02E000BF00E000BF00BF083726
:1009F000BD4680BD34470024180600243647002435
:100A00003847002480B584B000AF414BBB60414BF8
:100A1000DB781A4652001344FB800023FB733D4BE6
:100A20005B781B021AB23B4B1B781BB213431BB201
:100A30009AB2BB681A80374B9A78BB689A70354B6C
:100A4000DA78BB68DA70334B5B791B021AB2314B30
:100A50001B791BB213431BB29AB2BB689A802D4B11
:100A6000DB791B021AB22B4B9B791BB213431BB2CF
:100A70009AB2BB68DA80274B5B7A1B021AB2254B0D
:100A80001B7A1BB213431BB29AB2BB681A810023B4
:100A9000BB8125E0BB890A331E4AD25CFB7B114631
:100AA000BA6802339B0013440A465A80BB890C3350
:100AB000184AD35C1B021AB2BB890B331549CB5CB5
:100AC0001BB213431AB2FB7B591CF97391B2BA687B
:100AD00002339B0013440A469A80BB890333BB81CF
:100AE000BA89FB889A42D5D3B86800F02FF903463B
:100AF000002B06D040F20A420021B8681CF03CFBF3
:100B000002E0054B01221A701037BD4680BD00BFC0
:100B1000203B0024180600242A3F00240000000087
:100B200090B58FB000AF786039607B689B881846BD
:100B300000F06AF987ED080B7B689B89184600F086
:100B40004DF9F8617FA3D3E90023C7E9042397EDAA
:100B5000085B97ED046B85EE067BFCEEC77B17EE1A
:100B6000903AFB81FB895A087349A1FB0212120AD1
:100B700040F29A2101FB02F29B1AFB817B68DB7831
:100B8000012B2DD86D4AFB8913803B68FA699A6066
:100B90003968D7E90823C1E9002300233B631AE041
:100BA0003B6B1B013A681344FA699A603B6B1B016B
:100BB0003A68D118D7E90823C1E900233B6B1B0130
:100BC0003A6813449B6819465D4A3B6B42F8231010
:100BD0003B6B01333B63FB893A6B9A42E0DBA7E056
:100BE000FA89564B1B8801339A4237DD534B1B88D9
:100BF000FA89D31A9BB2013BBB810023FB6229E037
:100C00004E4B1B885A1CFB6A13441B013A68134461
:100C1000FA699A60494B1B885A1CFB6A13441B01F2
:100C20003A68D118D7E90823C1E90023434B1B8850
:100C30005A1CFB6A13441B013A68134499683F4BE2
:100C40001B885A1CFB6A13443D4A42F82310FB6A76
:100C50000133FB62BB89FA6A9A42D1DBFB891B0133
:100C60003A681344FA699A60FB891B013A68D11803
:100C7000D7E90823C1E90023FB891B013A68134423
:100C80009A68FB8911462E4A42F82310012387F8FF
:100C90002B3044E0FA8997F82B301344264A82FB24
:100CA00003121A445112DA178A1A40F29A2101FBF0
:100CB00002F29A1A1346FB8697F82B307A680233B1
:100CC0009B0013449988FB8E1B013A68D418084690
:100CD00000F084F80346A36097F82B3007EE903AB3
:100CE000B8EEE76B97ED047B26EE076BFB8E1B01DE
:100CF0003A68134497ED087B36EE077B83ED007B63
:100D0000FB8E1B013A6813449A68FB8E11460C4A0D
:100D100042F8231097F82B30013387F82B307B688B
:100D2000DB7897F82B209A42B4D3044AFB8E1380C9
:100D30003C37BD4690BD00BFB107CEC43A47002442
:100D40001807002400000040DF4FE13F80B485B069
:100D500000AF78600023FB817B68DB781B021AB24E
:100D60007B689B781BB213431BB27B817B68DB786B
:100D70007B737B681A887B8953409AB27B689B8817
:100D800053409AB27B68DB885340FB817B7B013BFD
:100D90007A6802339B0013445A88FB895340FB81D5
:100DA0007B7B013B7A6802339B0013449A88FB8962
:100DB0005340FB817B7B013B7B737B7B002BE5D12D
:100DC0007B681B89FA899A4201D0012300E0002345
:100DD00018461437BD465DF8047B704780B483B075
:100DE00000AF0346FB80FB881B0A9BB29A01FB887D
:100DF0009B1003F03F03134318460C37BD465DF8C4
:100E0000047B70470000000080B485B000AF03464B
:100E1000FB80FB885B089BB207EE903AB8EEE76B6D
:100E20009FED095B86EE057B87ED027BD7E9022308
:100E300043EC172BB0EE470B1437BD465DF8047B2F
:100E4000704700BFAFF3008000000000000050407A
:100E500080B500AF02490348FFF762FE00BF80BDC6
:100E600080110024203B002480B582B000AF002315
:100E7000FB804FF400625F495F4808F047F8FFF7D6
:100E8000BCFCC8200BF070F8FFF7A8FC5A4BD3F855
:100E900080301B68594A934268D0574BD3F8803052
:100EA0001B68574A934261D0534BD3F880301B687C
:100EB000544A93425AD0504BD3F880301B68524A60
:100EC000934253D04C4BD3F880301B684F4A934227
:100ED0004CD0494BD3F880301B684D4A934245D0E3
:100EE000454BD3F880301B684A4A93423ED0424B70
:100EF000D3F880301B68484A934237D03E4BD3F832
:100F000080301B68454A934230D03B4BD3F8803049
:100F10001B68434A934229D0374BD3F880301B6873
:100F2000404A934222D0344BD3F880301B683E4A6B
:100F300093421BD0304BD3F880301B683B4A93421E
:100F400014D02D4BD3F880301B68394A93420DD012
:100F5000294BD3F880301B68364A934206D0264B83
:100F6000D3F880301B68344A934207D1224BD3F820
:100F700080301B685B68C3F5006306E01E4BD3F846
:100F800080301B685B68C3F500632C4A1360002344
:100F9000FB8018E02A4B1B68164AD35C1846FFF703
:100FA0003BFC274B1B680133C3F30A03244A13603D
:100FB000244B1B78002B0DD1FB880133FB80FB8871
:100FC000B3F5807F08D81E4B1A681C4B1B689A42E9
:100FD000E0D102E000BF00E000BF1A4B1B78002BFD
:100FE00004D0FFF735FF174B00221A7001200AF0DA
:100FF000BBFF4BE72C3F0024E048002410000240D8
:1010000028000240400002405800024070000240A8
:1010100088000240A0000240B800024010040240D4
:101020002804024040040240580402407004024078
:1010300088040240A0040240B80402403047002463
:101040002C4700242A3F0024B0B500AF01F0ECFA91
:10105000034600221C46154622462B4610461946DA
:10106000B0BD0000B0B588B000AFFFF7EDFFC7E935
:1010700004010023FB770DE04FF47A7012F040FD7D
:10108000FB7F0133FB7712F015FD0346002B01D0E7
:101090000523FB77FB7F042BEED912F00BFD0346F3
:1010A00083F00103DBB2002B12D04FF47A7012F000
:1010B00027FDF860FB68002B0AD0FA686E210F4804
:1010C0001BF07CFE0E4B05221A6000200BF008FF7F
:1010D00012F0FAFCC7E90001FFF7B6FFC7E9040107
:1010E000D7E90001D7E90423841A61EB0305054B16
:1010F000C3E9004500BF2037BD46B0BDECEF010895
:101100003C47002468480024B0B588B000AF786040
:101110004FF000024FF00003C7E9022300233B61B8
:10112000FFF792FF154BD3E90023841841EB030529
:10113000C7E90645D7E906014FF47A724FF000037C
:10114000FFF736F902460B46C7E90223D7E9060145
:101150004FF47A724FF00003FFF72AF9084B02FBB5
:1011600003F33B617B681C4607F108030FCB84E85F
:101170000F0078682037BD46B0BD00BF6848002426
:1011800040420F0080B586B000AF3B1D184610F0FE
:10119000BFFE0F4B7B600F4BBB600F4BFB600F4BD9
:1011A0003B613B1D184610F0C1FE034683F001036E
:1011B000DBB2002B06D0932109481BF0FFFD4FF056
:1011C000FF3300E0002318461837BD4680BD00BF3E
:1011D00021B6000865B600089DB6000809B70008EA
:1011E00010F0010880B588B004AF78600023FB6080
:1011F0007B680293074B0193074B0093074B084A08
:101200000849012011F0E4FAF860FB68184610372D
:10121000BD4680BD45B40008E9B30008C9B3000865
:101220009DB30008084A002490B589B002AF00239E
:101230007B61214B4FF000025A611F4B1F4A9A619C
:101240001D4B1F4ADA611C4B1E4A9A621A4B1E4AFA
:10125000DA6240F668201AF073FE03461A46164B0F
:101260001A63154B40F29A225A6300237B610AE00D
:10127000114B1A6B7B699B0013444FF000021A60FC
:101280007B6901337B610C4B5A6B7B699A42EFD8C7
:10129000094C3846084B0D4A009208330ECB0DF02E
:1012A00053FC04F108033A4607CA83E8070000BF6D
:1012B0001C37BD4690BD00BF44470024DB0FC9402A
:1012C00097B31ABCCDCC4C3D0000404138F001082A
:1012D00080B588B000AF0023BB610023FB6119E03B
:1012E000FB69BB61244ABB6952F8233007EE903A90
:1012F000B8EE676B9FED1E5B86EE057B1F4B1A6B8E
:10130000FB699B001344F7EEC77BC3ED007AFB69D2
:101310000133FB61194B5A6BFB699A42E0D83B469B
:101320001846FFF7F1FED7E90023144B1A60BB689B
:101330001A46124B5A600022104911480FF0B6F9B4
:1013400078617B69002B0AD00E4B1B6801330D4A74
:1013500013607A69E1210C481BF030FD02E0094B73
:1013600000221A6000BF2037BD4680BDAFF3008069
:101370000000000000408F4018070024444700246C
:10138000404700243C47002444F0010880B584B065
:1013900000AFF860C7E90023FB68002B01D0FFF71E
:1013A00097FF00BF1037BD4680BD00000000000061
:1013B000B0B5B6B002AF0023C7F8CC30AE4C07F1E1
:1013C0008803184610F0D0FD254607F188040FCC9D
:1013D0000FC523682B600EF0EBFC0346C7F8A8305E
:1013E000A54B07F1A8046D4603F10C0292E8030037
:1013F00085E803000ECB20460EF0DCFCC7F8C800E1
:10140000D7F8C830002B0BD0D7F8C820F4219B4860
:101410001BF0D4FC9A4B05221A6000200BF060FDF3
:10142000984B1B781A4607F1A803114618460EF090
:10143000BFFDC7F8C400D7F8C430002B0BD0D7F8D5
:10144000C420F5218D481BF0B9FC8D4B05221A6094
:1014500000200BF045FD07F1A80318460EF0B0FD83
:10146000C7F8C00032200AF07FFD864B1B78194672
:1014700085481BF0A3FCD7F8C000FFF7B3FEFFF7C9
:1014800081FE4FF4FA700AF06FFD07F1A8037A4A63
:101490000092002200217D480EF0A2F9C7F8CC008E
:1014A000D7F8CC30002B03D079481BF0EFFCE8E7ED
:1014B00000BF78481BF0EAFCFFF7D4FD764C07F13B
:1014C000880318460EF0A4FD224607F1880393E82E
:1014D000030082E803006D4B704A71496E480EF0BC
:1014E00045FAC7F8BC00D7F8BC30002B0CD0D7F8B1
:1014F000BC204FF4847161481BF060FC604B0522F6
:101500001A6000200BF0ECFCFFF78EFE654B1B7899
:101510000133DAB2634B1A7013F0ECF80246624BF7
:101520005D4962480EF0D4FAC7F8B800D7F8B83071
:10153000002B0CD0D7F8B82040F20D114F481BF00B
:101540003DFC4F4B05221A6000200BF0C9FC584BA4
:10155000009347A3D3E900234C4956480EF0F2FA12
:10156000C7F8B400D7F8B430002B0CD0D7F8B420AB
:1015700040F2131141481BF021FC414B05221A6037
:1015800000200BF0ADFC474B1B7819464A481BF076
:1015900015FC4A4C3B4618460DF048FE20463B469B
:1015A000882219461BF00BFF3E4B1B781A46324B24
:1015B000364942480DF044FEC7F8B000D7F8B030C5
:1015C000002B0CD0D7F8B02040F21B112B481BF099
:1015D000F5FB2B4B05221A6000200BF081FC3549EE
:1015E00036480DF0A9FEC7F8AC00D7F8AC30002B98
:1015F0000CD0D7F8AC204FF48F7120481BF0DEFBE5
:101600001F4B05221A6000200BF06AFC01224FF4E8
:1016100080412B4804F08CF90BF0A8FE0346C7F874
:10162000A4300BE0274A4FF0000324480EF09EF848
:1016300007F1A4030A2118460BF0C6FC104B1B68E7
:10164000022BEFDD00224FF480411D4804F070F9B9
:101650001D481BF01BFC1D481BF018FC0A200BF05A
:1016600033FD01F0F0F800BFD037BD46B0BD00BF7C
:10167000003B58080000000090470024ECEF0108F0
:101680003C4700240000002468F00108A44700241F
:101690007CF0010894F0010860480024744800249C
:1016A000ACF0010870480024BCF001084047002459
:1016B0008D1300088C470024C4F00108D84700248B
:1016C0000008025880969800D8F00108E8F0010858
:1016D00080B582B000AF194BD3F8D830174A43F029
:1016E0000103C2F8D830154BD3F8D83003F001030A
:1016F0007B607B68002205210B2001F07CF80B2029
:1017000001F093F8002205210C2001F074F80C2060
:1017100001F08BF8002205210D2001F06CF80D205E
:1017200001F083F8002205210E2001F064F80E205C
:1017300001F07BF800BF0837BD4680BD0044025869
:1017400080B500AF0C4A00210C480AF07BFB034631
:101750000B4A13600B4A00210B480AF073FB034647
:101760000A4A13600A4A00210A480AF06BFB034642
:10177000094A136000BF80BD44F201089D170008AC
:101780008048002468F20108B31700088448002448
:101790008CF20108CF1700088848002480B582B079
:1017A00000AF7860FEF7E6FF4FF47A700AF0DCFBDA
:1017B000FAE780B582B000AF786064200AF0D4FB0D
:1017C000FFF7F6FD4FF47A700AF0CEFBFAE780B52A
:1017D00082B000AF7860FFF747FB4FF47A700AF0F1
:1017E000C3FBFAE780B58AB000AF07F1140300220B
:1017F0001A605A609A60DA601A612A4BD3F8E030B6
:10180000284A43F00403C2F8E030264BD3F8E03016
:1018100003F004033B613B69224BD3F8E030214ADB
:1018200043F08003C2F8E0301E4BD3F8E03003F001
:101830008003FB60FB681B4BD3F8E030194A43F090
:101840000103C2F8E030174BD3F8E03003F0010396
:10185000BB60BB68134BD3F8E030124A43F0080377
:10186000C2F8E0300F4BD3F8E03003F008037B60A0
:101870007B6800224FF4C0410B4804F059F84FF444
:10188000C0437B610123BB610023FB6100233B62FA
:1018900007F114031946044803F09AFE00BF2837E5
:1018A000BD4680BD004402580008025880B500AF14
:1018B00000F0D8F800F068FE00F012F8FFF792FF91
:1018C000FFF706FF00F0D2FB00F038FB00F082FBD0
:1018D0000AF06EFAFFF734FF0AF08EFA00BFFDE758
:1018E00080B59EB000AF07F12C034C2200211846B2
:1018F0001BF042FC07F10C032022002118461BF0CC
:101900003BFC022004F048F80023BB60484BDB6A34
:10191000474A23F00103D362454BDB6A03F001031E
:10192000BB60444B9B69434A43F440439361414B42
:101930009B6903F44043BB60BB6800BF3D4B9B69A0
:1019400003F40053B3F5005FF8D13B4BD3F8F43008
:10195000394A43F00203C2F8F430374BD3F8F4307D
:1019600003F002037B607B6800233B60314B9B6983
:10197000304A43F4404393612E4B9B6903F4404348
:101980003B602B4BDB6A2A4A43F00103D362284BAE
:10199000DB6A03F001033B603B6800BF254B9B699A
:1019A00003F40053B3F5005FF8D10123FB624FF459
:1019B00080333B6302233B6502237B650523BB65C4
:1019C000C023FB6502233B6608237B660223BB66BC
:1019D0000823FB6600233B6700237B6707F12C038A
:1019E000184604F013F80346002B01D000F078F8F5
:1019F0003F23FB6003233B6100237B610823BB6122
:101A00004023FB6140233B624FF480637B624023B1
:101A1000BB6207F10C030421184604F051FC034695
:101A2000002B01D000F05CF800BF7837BD4680BDC8
:101A300000040058004802580044025880B584B0A1
:101A400000AFF860B9607A607B689AB2FF23B9682A
:101A5000034807F04DF97B6818461037BD4680BD36
:101A60007449002480B584B000AF3B4600221A6060
:101A70005A609A60DA6000F0EBFE01233B700023AD
:101A80007B7000237B601F233B7287237B720023C4
:101A9000BB720023FB7201233B7301237B73002382
:101AA000BB730023FB733B46184600F009FF04207C
:101AB00000F0E6FE00BF1037BD4680BD80B582B0A5
:101AC00000AF78607B681B68044A934201D100F044
:101AD00097FD00BF0837BD4680BD00BF0014004021
:101AE00080B400AF72B600BF00BFFDE780B582B022
:101AF00000AF0C4BD3F8F4300A4A43F00203C2F8AB
:101B0000F430084BD3F8F43003F002037B607B68B9
:101B100000220F216FF0010000F06DFE00BF0837BA
:101B2000BD4680BD0044025880B590B000AF7860DB
:101B30007B680F2B27D800227968372000F05BFEE6
:101B4000372000F072FE294A7B681360284BD3F8D7
:101B5000E830274A43F02003C2F8E830244BD3F89A
:101B6000E83003F02003FB60FB6807F1100207F187
:101B700014031146184604F02FFFBB6ABB63BB6B0E
:101B8000002B06D101E001232BE004F0F9FEF863FD
:101B900004E004F0F5FE03465B00FB63FB6B154AB3
:101BA000A2FB03239B0C013B7B63134B134A1A607C
:101BB000114B40F2E732DA600F4A7B6B53600E4BF9
:101BC00000221A610C4B00229A600B4806F072FD4D
:101BD0000346002B04D1084806F0CEFD034600E082
:101BE000012318464037BD4680BD00BF10000024C9
:101BF0000044025883DE1B438C480024001400403C
:101C000080B400AF00BFFDE780B400AF00BFFDE7C8
:101C100080B400AF00BFFDE780B400AF00BFFDE7B8
:101C200080B400AF00BFFDE780B400AF00BFBD4689
:101C30005DF8047B7047000080B500AF024802F0F9
:101C4000A9F900BF80BD00BF8C4B002480B500AF58
:101C5000024802F09FF900BF80BD00BF044C002481
:101C600080B500AF024802F095F900BF80BD00BF0B
:101C70009C4A002480B500AF024802F08BF900BFF7
:101C800080BD00BF144B002480B500AF024807F0B0
:101C90001FFA00BF80BD00BF084A002480B500AF16
:101CA000024807F015FA00BF80BD00BFE0480024DD
:101CB00080B500AF024807F00BFA00BF80BD00BF3F
:101CC0007449002480B500AF024806F0CDFD00BF86
:101CD00080BD00BF8C48002480B400AF01231846AB
:101CE000BD465DF8047B704780B582B000AF786078
:101CF00039601BF02FFB034616221A604FF0FF33AA
:101D000018460837BD4680BD80B582B000AF786008
:101D10004FF0FF317868FFF7E7FF00BFFDE780B5C0
:101D200086B000AFF860B9607A6000237B610AE09A
:101D3000AFF300800146BB685A1CBA60CAB21A7081
:101D40007B6901337B617A697B689A42F0DB7B684F
:101D500018461837BD4680BD80B483B000AF7860A8
:101D60004FF0FF3318460C37BD465DF8047B7047D3
:101D700080B483B000AF786039603B684FF40052A4
:101D80005A60002318460C37BD465DF8047B704747
:101D900080B483B000AF7860012318460C37BD468D
:101DA0005DF8047B704780B485B000AFF860B9601F
:101DB0007A60002318461437BD465DF8047B7047EF
:101DC00080B586B000AF7860144A154BD31A7B619A
:101DD0007B693B61134B1B68002B02D1114B124AEC
:101DE0001A60104B1A687B6813443A699A4207D20A
:101DF0001BF0B0FA03460C221A604FF0FF3309E0E3
:101E0000084B1B68FB60074B1A687B681344054A44
:101E10001360FB6818461837BD4680BD00000824D3
:101E200000040000DC4800242843022480B400AFF2
:101E3000374BD3F88830364A43F47003C2F8883001
:101E4000344B1B6803F00F03062B07D8314B1B687C
:101E500023F00F032F4A43F0070313602E4B1B6838
:101E60002D4A43F0010313602B4B00221A612A4BC9
:101E70001A682949294B13400B60264B1B6803F055
:101E80000803002B07D0234B1B6823F00F03214AC4
:101E900043F007031360204B00229A611E4B00227F
:101EA000DA611D4B00221A621B4B1D4A9A621A4BC3
:101EB0001C4ADA62184B1C4A1A63174B00225A63F9
:101EC000154B194A9A63144B0022DA63124B164AD7
:101ED0001A64114B00225A640F4B1B680E4A23F4FC
:101EE000802313600C4B00221A66104B1A68104BAB
:101EF0001340B3F1005F02D20E4B01221A600E4B69
:101F000043F2D2021A6000BFBD465DF8047B704701
:101F100000ED00E000200052004402587FEDF6EA98
:101F2000000202020000FF01800201010010005CBB
:101F30000000FFFF088100510040005280B500AF53
:101F4000224B234A1A60214B4FF461325A601F4BD7
:101F500000229A601D4B0022DA601C4B00221A619D
:101F60001A4B0C225A61194B00229A61174B00221E
:101F7000DA61164B00221A62144B00225A62134B8C
:101F800000229A62114806F063FE0346002B01D03E
:101F9000FFF7A6FD00210D4808F0E6FE0346002BE2
:101FA00001D0FFF79DFD0021084808F01BFF034604
:101FB000002B01D0FFF794FD044808F09CFE034677
:101FC000002B01D0FFF78CFD00BF80BDE04800244E
:101FD000004C004080B500AF224B234A1A60214BD1
:101FE0004FF461325A601F4B00229A601D4B002251
:101FF000DA601C4B00221A611A4B0C225A61194BF1
:1020000000229A61174B0022DA61164B00221A62F5
:10201000144B00225A62134B00229A62114806F0B8
:1020200017FE0346002B01D0FFF75AFD00210D4893
:1020300008F09AFE0346002B01D0FFF751FD002166
:10204000084808F0CFFE0346002B01D0FFF748FDFB
:10205000044808F050FE0346002B01D0FFF740FD76
:1020600000BF80BD744900240050004080B500AF1F
:10207000224B234A1A60214B224A5A601F4B0022EE
:102080009A601E4B0022DA601C4B00221A611B4B27
:102090000C225A61194B00229A61184B0022DA6116
:1020A000164B00221A62154B00225A62134B002273
:1020B0009A62124806F0CCFD0346002B01D0FFF7D0
:1020C0000FFD00210D4808F04FFE0346002B01D004
:1020D000FFF706FD0021094808F084FE0346002BA7
:1020E00001D0FFF7FDFC054808F005FE0346002B74
:1020F00001D0FFF7F5FC00BF80BD00BF084A0024F7
:102100000010014080841E0080B5C0B000AF786030
:1021100007F1EC0300221A605A609A60DA601A61D3
:1021200007F12803C022002118461BF025F87B6820
:102130001B68954A93427ED14FF002024FF0000394
:10214000C7E90A230023C7F8A03007F1280318467F
:1021500004F084FC0346002B01D0FFF7C1FC8B4B3D
:10216000D3F8E830894A43F40023C2F8E830874BBB
:10217000D3F8E83003F400237B627B6A834BD3F807
:10218000E030824A43F00403C2F8E0307F4BD3F8DA
:10219000E03003F004033B623B6A4FF44063C7F84E
:1021A000EC300223C7F8F0300023C7F8F4300023E6
:1021B000C7F8F8300823C7F8FC3007F1EC031946DC
:1021C000734803F005FA734B734A1A60714B3F2250
:1021D0005A60704B00229A606E4B0022DA606D4BA1
:1021E0004FF480621A616B4B00225A61694B0022E6
:1021F0009A61684B4FF48072DA61664B00221A6272
:10220000644B00225A62634800F09AFB0346002B9D
:1022100001D0FFF765FC7B685E4AC3F880205D4A09
:102220007B68936300220521342000F0E4FA342017
:1022300000F0FBFA6BE17B681B68584A934240F060
:10224000B5804FF002024FF00003C7E90A230023D4
:10225000C7F8A03007F12803184604F0FFFB034637
:10226000002B01D0FFF73CFC484BD3F8E830474A3D
:1022700043F48013C2F8E830444BD3F8E83003F459
:102280008013FB61FB69414BD3F8E0303F4A43F0D8
:102290000403C2F8E0303D4BD3F8E03003F0040310
:1022A000BB61BB69394BD3F8E030384A43F00803CF
:1022B000C2F8E030354BD3F8E03003F008037B611F
:1022C0007B694FF48053C7F8EC300223C7F8F03035
:1022D0000023C7F8F4300023C7F8F8300823C7F804
:1022E000FC3007F1EC031946294803F071F9042387
:1022F000C7F8EC300223C7F8F0300023C7F8F430F9
:102300000023C7F8F8300823C7F8FC3007F1EC03C6
:102310001946234803F05CF9224B234A1A60214BEB
:1023200041225A601F4B00229A601E4B0022DA6045
:102330001C4B4FF480621A611A4B00225A61194BF0
:1023400000229A61174B4FF48072DA61154B00221C
:102350001A62144B00225A62124800F0F1FA034646
:10236000002B01D0FFF7BCFB7B680E4AC3F880202E
:102370000C4A7B68936300220521352000F03BFA6C
:10238000352000F052FAC2E0004C004000440258F0
:10239000000802589C4A00244000024000500040BF
:1023A000000C0258144B0024580002407B681B6844
:1023B000594A934240F0AB804FF001024FF00003C6
:1023C000C7E90A230023C7F8A43007F128031846F9
:1023D00004F044FB0346002B01D0FFF781FB4F4B79
:1023E000D3F8F0304D4A43F01003C2F8F0304B4BB5
:1023F000D3F8F03003F010033B613B69474BD3F84F
:10240000E030464A43F00103C2F8E030434BD3F8D2
:10241000E03003F00103FB60FB684FF4C063C7F8D2
:10242000EC300223C7F8F0300023C7F8F430002363
:10243000C7F8F8300723C7F8FC3007F1EC0319465A
:10244000374803F0C5F8374B374A1A60354B292215
:102450005A60344B00229A60324B0022DA60314BD2
:102460004FF480621A612F4B00225A612D4B0022DB
:102470009A612C4B4FF48072DA612A4B00221A6267
:10248000284B00225A62274800F05AFA0346002BD4
:1024900001D0FFF725FB7B68224AC3F88020214A40
:1024A0007B689363214B224A1A60204B2A225A6090
:1024B0001E4B40229A601D4B0022DA601B4B4FF4EA
:1024C00080621A61194B00225A61184B00229A61EE
:1024D000164B0022DA61154B00221A62134B0022C0
:1024E0005A62124800F02CFA0346002B01D0FFF785
:1024F000F7FA7B680D4ADA670C4A7B68936300221F
:102500000521252000F077F9252000F08EF900BF85
:1025100007F58077BD4680BD001001400044025899
:10252000000002588C4B002410000240044C002490
:1025300028000240DFF834D0FFF778FC0C480D4942
:102540000D4A002302E0D458C4500433C4188C420E
:10255000F9D30A4A0A4C002301E013600432A24274
:10256000FBD31AF0FDFEFFF7A1F970470000082425
:1025700000000024F8050024D8020208F805002411
:1025800024430224FEE7000080B582B000AF0320A0
:1025900000F026F904F04AF80246154B9B691B0A25
:1025A00003F00F031349CB5C03F01F0322FA03F37C
:1025B0007B600F4B9B6903F00F030E4AD35C03F063
:1025C0001F037A6822FA03F30B4A13600B4A7B68F5
:1025D00013600F20FFF7A8FA0346002B01D0012358
:1025E00002E0FFF783FA002318460837BD4680BD96
:1025F00000440258B0F201080C0000240800002436
:1026000080B400AF064B1B781A46064B1B68134478
:10261000044A136000BFBD465DF8047B704700BFED
:10262000140000247C4C002480B400AF034B1B68D2
:102630001846BD465DF8047B704700BF7C4C002403
:1026400080B400AF034B1B681B0C1846BD465DF8F9
:10265000047B70470010005C80B485B000AF7860E8
:102660007B6803F00703FB600B4BDB68BB60BA6859
:102670004FF6FF031340BB60FB681A02BB681A43A6
:10268000064B1343BB60044ABB68D36000BF1437DA
:10269000BD465DF8047B704700ED00E00000FA05E0
:1026A00080B400AF044BDB681B0A03F00703184635
:1026B000BD465DF8047B704700ED00E080B483B058
:1026C00000AF0346FB80B7F90630002B0BDBFB881D
:1026D00003F01F020749B7F906305B09012000FA31
:1026E00002F241F8232000BF0C37BD465DF8047BA1
:1026F000704700BF00E100E080B483B000AF034644
:102700003960FB80B7F90630002B0ADB3B68DAB290
:102710000C49B7F906301201D2B20B4483F80023FA
:102720000AE03B68DAB20849FB8803F00F03043B78
:102730001201D2B20B441A7600BF0C37BD465DF8C9
:10274000047B704700E100E000ED00E080B489B058
:1027500000AFF860B9607A60FB6803F00703FB61C3
:10276000FB69C3F10703042B28BF0423BB61FB698A
:102770000433062B02D9FB69033B00E000237B6195
:102780004FF0FF32BB6902FA03F3DA43BB681A4029
:102790007B699A404FF0FF317B6901FA03F3D9431B
:1027A0007B680B40134318462437BD465DF8047B15
:1027B0007047000080B400AFBFF34F8F00BF064BDF
:1027C000DB6803F4E0620449044B1343CB60BFF3BE
:1027D0004F8F00BF00BFFDE700ED00E00400FA05E9
:1027E00080B582B000AF78607868FFF735FF00BF32
:1027F0000837BD4680BD80B586B000AF0346B960DE
:102800007A60FB81FFF74CFF78617A68B968786974
:10281000FFF79CFF0246B7F90E3011461846FFF746
:102820006BFF00BF1837BD4680BD80B582B000AFDA
:102830000346FB80B7F906301846FFF73FFF00BF9D
:102840000837BD4680BD80B500AFFFF7B3FF00007D
:1028500080B400AFBFF35F8F00BF074B5B6A064ACF
:1028600023F480335362054B00225A6000BFBD46FB
:102870005DF8047B704700BF00ED00E090ED00E0E4
:1028800080B483B000AF78600B4A7B6843F00103EB
:1028900053600A4B5B6A094A43F480335362BFF3C7
:1028A0004F8F00BFBFF36F8F00BF00BF0C37BD4617
:1028B0005DF8047B704700BF90ED00E000ED00E0A4
:1028C00080B483B000AF78607B685A781B4B9A6005
:1028D0001A4B1B69194A23F001031361174A7B68DD
:1028E0005B68D3607B681B7B1A077B68DB7A1B06FF
:1028F0001A437B689B7ADB041A437B685B7B9B04EF
:102900001A437B689B7B5B041A437B68DB7B1B045D
:102910001A437B685B7A1B021A437B681B7A5B0055
:1029200013437A6812781146044A0B43136100BFBF
:102930000C37BD465DF8047B704700BF90ED00E0AA
:1029400080B586B000AF7860FFF76EFE38617B68B7
:10295000002B01D1012316E37B681B68664A934272
:102960004AD07B681B68654A934245D07B681B68E8
:10297000634A934240D07B681B68624A93423BD0D3
:102980007B681B68604A934236D07B681B685F4A4D
:10299000934231D07B681B685D4A93422CD07B68A0
:1029A0001B685C4A934227D07B681B685A4A934253
:1029B00022D07B681B68594A93421DD07B681B68F4
:1029C000574A934218D07B681B68564A934213D0EB
:1029D0007B681B68544A93420ED07B681B68534A3D
:1029E000934209D07B681B68514A934204D07B68AC
:1029F0001B68504A934201D1012300E00023002BC1
:102A000000F03B817B68022283F835207B6800223E
:102A100083F834207B681B68374A93424AD07B682E
:102A20001B68364A934245D07B681B68344A934200
:102A300040D07B681B68334A93423BD07B681B685D
:102A4000314A934236D07B681B68304A934231D07A
:102A50007B681B682E4A93422CD07B681B682D4AEA
:102A6000934227D07B681B682B4A934222D07B6815
:102A70001B682A4A93421DD07B681B68284A9342F0
:102A800018D07B681B68274A934213D07B681B6869
:102A9000254A93420ED07B681B68244A934209D092
:102AA0007B681B68224A934204D07B681B68214ADA
:102AB000934208D17B681B681A687B681B6822F008
:102AC00001021A6007E07B681B681A687B681B6854
:102AD00022F001021A602FE0FFF7A6FD02463B69D3
:102AE000D31A052B28D97B6820225A657B680322DC
:102AF00083F83520012346E21000024028000240FE
:102B0000400002405800024070000240880002402D
:102B1000A0000240B8000240100402402804024015
:102B200040040240580402407004024088040240FD
:102B3000A0040240B80402407B681B681B6803F0D5
:102B40000103002BC8D17B681B681B687B617A6915
:102B5000834B13407B617B689A687B68DB681A4310
:102B60007B681B691A437B685B691A437B689B69B6
:102B70001A437B68DB691A437B681B6A13437A69D3
:102B800013437B617B685B6A042B07D17B68DA6A3D
:102B90007B681B6B13437A6913437B61714B1A6823
:102BA000714B1340B3F1005F28D37B685B68282B1F
:102BB00003D97B685B682E2B17D97B685B683E2B3B
:102BC00003D97B685B68422B0FD97B685B68462B17
:102BD00003D97B685B68482B07D97B685B684E2B01
:102BE00005D97B685B68522B01D8012300E00023E4
:102BF000002B03D07B6943F480137B617B681B68E7
:102C00007A691A607B681B685B697B617B6923F06A
:102C100007037B617B685B6A7A6913437B617B682E
:102C20005B6A042B17D17B689B6A7A6913437B61CB
:102C30007B68DB6A002B0ED0786802F03FFB03460E
:102C4000002B08D07B6840225A657B68012283F8FC
:102C50003520012397E17B681B687A695A6178689F
:102C600002F07AFA0346BB607B68DB6D03F01F035A
:102C70003F229A40BB689A60CDE07B681B683B4A64
:102C8000934222D07B681B68394A93421DD07B68EF
:102C90001B68384A934218D07B681B68364A9342B7
:102CA00013D07B681B68354A93420ED07B681B6843
:102CB000334A934209D07B681B68324A934204D05E
:102CC0007B681B68304A934201D1012300E0002356
:102CD000002B00F097807B681B68244A934221D028
:102CE0007B681B68224A93421CD07B681B68214A80
:102CF000934217D07B681B681F4A934212D07B68AF
:102D00001B681E4A93420DD07B681B681C4A934285
:102D100008D07B681B681B4A934203D07B681B6802
:102D2000194A93427B68022283F835207B6800228F
:102D300083F834207B681B681B687B617A69134BBE
:102D400013407B617B689B68402B21D07B689B682C
:102D5000802B02D14FF480431BE0002319E000BF19
:102D60003F8010FE0010005C0000FFFF0854025876
:102D70001C540258305402584454025858540258B3
:102D80006C54025880540258945402580F00FEFFAD
:102D900010237A68D268D2081A437B681B69DB0863
:102DA0001A437B685B69DB081A437B689B69DB0815
:102DB0001A437B68DB69DB081A437B681B6A1B09C3
:102DC00013437A6913437B617B681B687A691A60D5
:102DD0007B681B681A466E4B13446E4AA2FB0323A2
:102DE0001B099A007B68DA65786802F0B5F903463A
:102DF000FB607B68DB6D03F01F0301229A40FB68D8
:102E00005A6008E07B6840225A657B68032283F899
:102E100035200123B7E07B681B685F4A934272D07C
:102E20007B681B685D4A93426DD07B681B685C4A77
:102E3000934268D07B681B685A4A934263D07B6890
:102E40001B68594A93425ED07B681B68574A93427D
:102E500059D07B681B68564A934254D07B681B68E4
:102E6000544A93424FD07B681B68534A93424AD0DE
:102E70007B681B68514A934245D07B681B68504A67
:102E8000934240D07B681B684E4A93423BD07B689C
:102E90001B684D4A934236D07B681B684B4A93426D
:102EA00031D07B681B684A4A93422CD07B681B68F0
:102EB000484A934227D07B681B68474A934222D0F6
:102EC0007B681B68454A93421DD07B681B68444A57
:102ED000934218D07B681B68424A934213D07B68A8
:102EE0001B68414A93420ED07B681B683F4A93425D
:102EF00009D07B681B683E4A934204D07B681B68FC
:102F00003C4A934201D1012300E00023002B32D040
:102F1000786802F04FFA7B689B68802B02D17B684F
:102F200000225A607B685A687B681B6ED2B21A60B6
:102F30007B685B6E7A68926E5A607B685B68002B78
:102F400010D07B685B68082B0CD8786802F0CCFA4C
:102F50007B68DB6E00221A607B681B6F7A68526F99
:102F60005A6008E07B680022DA667B6800221A67F4
:102F70007B6800225A677B6800225A657B680122C1
:102F800083F83520002318461837BD4680BD00BFA2
:102F9000F8ABFDA7CDCCCCCC1000024028000240FD
:102FA0004000024058000240700002408800024089
:102FB000A0000240B8000240100402402804024071
:102FC0004004024058040240700402408804024059
:102FD000A0040240B8040240085402581C5402588D
:102FE0003054025844540258585402586C540258F1
:102FF000805402589454025880B586B000AFF860EF
:10300000B9607A603B600023FB75FB68002B01D13F
:10301000012326E2FB6893F83430012B01D102230F
:103020001FE2FB68012283F83420FB6893F83530F7
:10303000DBB2012B40F00A82FB68022283F83520C4
:10304000FB6800225A65FB681B68684A93424AD0B5
:10305000FB681B68664A934245D0FB681B68654A5B
:10306000934240D0FB681B68634A93423BD0FB68A5
:103070001B68624A934236D0FB681B68604A9342E1
:1030800031D0FB681B685F4A93422CD0FB681B68F9
:103090005D4A934227D0FB681B685C4A934222D06A
:1030A000FB681B685A4A93421DD0FB681B68594A4B
:1030B000934218D0FB681B68574A934213D0FB68B1
:1030C0001B68564A93420ED0FB681B68544A9342D1
:1030D00009D0FB681B68534A934204D0FB681B6805
:1030E000514A934208D1FB681B681A68FB681B6849
:1030F00022F001021A6007E0FB681B681A68FB688F
:103100001B6822F001021A603B687A68B968F868A7
:1031100001F076FEFB681B68344A93424AD0FB6894
:103120001B68334A934245D0FB681B68314A93427F
:1031300040D0FB681B68304A93423BD0FB681B6859
:103140002E4A934236D0FB681B682D4A934231D0F9
:10315000FB681B682B4A93422CD0FB681B682A4AE9
:10316000934227D0FB681B68284A934222D0FB6811
:103170001B68274A93421DD0FB681B68254A93426F
:1031800018D0FB681B68244A934213D0FB681B6865
:10319000224A93420ED0FB681B68214A934209D011
:1031A000FB681B681F4A934204D0FB681B681E4AD9
:1031B000934201D1012300E00023002B36D0FB68AD
:1031C0001B681B6823F01E02FB681B6842F0160296
:1031D0001A60FB681B6C002B3ED0FB681B681A68EA
:1031E000FB681B6842F008021A6035E010000240DC
:1031F0002800024040000240580002407000024097
:1032000088000240A0000240B800024010040240C2
:103210002804024040040240580402407004024066
:1032200088040240A0040240B8040240FB681B6806
:103230001B6823F00E02FB681B6842F00A021A604A
:10324000FB681B6C002B07D0FB681B681A68FB68C7
:103250001B6842F004021A60FB681B68834A9342B1
:1032600072D0FB681B68824A93426DD0FB681B6872
:10327000804A934268D0FB681B687F4A934263D0C0
:10328000FB681B687D4A93425ED0FB681B687C4AE2
:10329000934259D0FB681B687A4A934254D0FB682A
:1032A0001B68794A93424FD0FB681B68774A934268
:1032B0004AD0FB681B68764A934245D0FB681B687E
:1032C000744A934240D0FB681B68734A93423BD0D8
:1032D000FB681B68714A934236D0FB681B68704AD2
:1032E000934231D0FB681B686E4A93422CD0FB6836
:1032F0001B686D4A934227D0FB681B686B4A934258
:1033000022D0FB681B686A4A93421DD0FB681B6889
:10331000684A934218D0FB681B68674A934213D0EF
:10332000FB681B68654A93420ED0FB681B68644AC1
:10333000934209D0FB681B68624A934204D0FB6841
:103340001B68614A934201D1012300E00023002B56
:103350001AD0FB681B6E1B6803F48033002B07D068
:10336000FB681B6E1A68FB681B6E42F480721A6061
:10337000FB68DB6E002B07D0FB68DB6E1A68FB680E
:10338000DB6E42F480721A60FB681B68374A934216
:103390004AD0FB681B68364A934245D0FB681B68DD
:1033A000344A934240D0FB681B68334A93423BD077
:1033B000FB681B68314A934236D0FB681B68304A71
:1033C000934231D0FB681B682E4A93422CD0FB6895
:1033D0001B682D4A934227D0FB681B682B4A9342F7
:1033E00022D0FB681B682A4A93421DD0FB681B68E9
:1033F000284A934218D0FB681B68274A934213D08F
:10340000FB681B68254A93420ED0FB681B68244A60
:10341000934209D0FB681B68224A934204D0FB68A0
:103420001B68214A934208D1FB681B681A68FB6835
:103430001B6842F001021A6012E0FB681B681A6800
:10344000FB681B6842F001021A6009E0FB684FF458
:1034500000625A65FB68002283F834200123FB7563
:10346000FB7D18461837BD4680BD00BF10000240E6
:103470002800024040000240580002407000024014
:1034800088000240A0000240B80002401004024040
:1034900028040240400402405804024070040240E4
:1034A00088040240A0040240B804024008540258B4
:1034B0001C5402583054025844540258585402586C
:1034C0006C540258805402589454025880B586B007
:1034D00000AF7860FFF7A8F838617B68002B01D156
:1034E0000123DCE27B6893F83530DBB2022B08D095
:1034F0007B6880225A657B68002283F83420012390
:10350000CDE27B681B68764A93424AD07B681B6891
:10351000744A934245D07B681B68734A934240D0FB
:103520007B681B68714A93423BD07B681B68704A7A
:10353000934236D07B681B686E4A934231D07B68D9
:103540001B686D4A93422CD07B681B686B4A934280
:1035500027D07B681B686A4A934222D07B681B682D
:10356000684A93421DD07B681B68674A934218D013
:103570007B681B68654A934213D07B681B68644A6A
:1035800093420ED07B681B68624A934209D07B68E5
:103590001B68614A934204D07B681B685F4A934270
:1035A00001D1012300E00023002B13D07B681B68AE
:1035B0001A687B681B6822F01E021A607B681B6811
:1035C0005A697B681B6822F080025A617B681B681D
:1035D0007B610AE07B681B681A687B681B6822F0C5
:1035E0000E021A607B681B687B617B681B683C4A23
:1035F000934272D07B681B683A4A93426DD07B68D5
:103600001B68394A934268D07B681B68374A9342EB
:1036100063D07B681B68364A93425ED07B681B6828
:10362000344A934259D07B681B68334A934254D042
:103630007B681B68314A93424FD07B681B68304AD5
:1036400093424AD07B681B682E4A934245D07B68E0
:103650001B682D4A934240D07B681B682B4A9342DB
:103660003BD07B681B682A4A934236D07B681B6834
:10367000284A934231D07B681B68274A93422CD05A
:103680007B681B68254A934227D07B681B68244AC5
:10369000934222D07B681B68224A93421DD07B68EC
:1036A0001B68214A934218D07B681B681F4A9342CB
:1036B00013D07B681B681E4A93420ED07B681B6840
:1036C0001C4A934209D07B681B681B4A934204D072
:1036D0007B681B68194A934232D1012331E000BF55
:1036E0001000024028000240400002405800024002
:1036F0007000024088000240A0000240B800024072
:1037000010040240280402404004024058040240D1
:103710007004024088040240A0040240B804024041
:10372000085402581C540258305402584454025849
:10373000585402586C5402588054025894540258F9
:103740000023002B07D07B681B6E1A687B681B6EFA
:1037500022F480721A607B681B686D4A93424AD0DB
:103760007B681B686B4A934245D07B681B686A4A3A
:10377000934240D07B681B68684A93423BD07B6889
:103780001B68674A934236D07B681B68654A934240
:1037900031D07B681B68644A93422CD07B681B68DD
:1037A000624A934227D07B681B68614A934222D0C9
:1037B0007B681B685F4A93421DD07B681B685E4A2A
:1037C000934218D07B681B685C4A934213D07B6895
:1037D0001B685B4A93420ED07B681B68594A934230
:1037E00009D07B681B68584A934204D07B681B68E9
:1037F000564A934208D17B681B681A687B681B682D
:1038000022F001021A6007E07B681B681A687B6877
:103810001B6822F001021A6013E0FEF705FF024662
:103820003B69D31A052B0CD97B6820225A657B682B
:10383000032283F835207B68002283F8342001239B
:103840002DE17B691B6803F00103002BE5D17B6848
:103850001B682F4A93424AD07B681B682D4A9342CB
:1038600045D07B681B682C4A934240D07B681B681C
:103870002A4A93423BD07B681B68294A934236D040
:103880007B681B68274A934231D07B681B68264AB5
:1038900093422CD07B681B68244A934227D07B68D4
:1038A0001B68234A934222D07B681B68214A9342BB
:1038B0001DD07B681B68204A934218D07B681B6828
:1038C0001E4A934213D07B681B681D4A93420ED058
:1038D0007B681B681B4A934209D07B681B681A4AA5
:1038E000934204D07B681B68184A934201D101239C
:1038F00000E00023002B2BD07B689B6DBB607B68B6
:10390000DB6D03F01F033F229A40BB689A602AE0F8
:1039100010000240280002404000024058000240CF
:103920007000024088000240A0000240B80002403F
:10393000100402402804024040040240580402409F
:103940007004024088040240A0040240B80402400F
:103950007B689B6DFB607B68DB6D03F01F030122BE
:103960009A40FB685A607B681B684F4A934272D04A
:103970007B681B684D4A93426DD07B681B684C4A3C
:10398000934268D07B681B684A4A934263D07B6845
:103990001B68494A93425ED07B681B68474A934242
:1039A00059D07B681B68464A934254D07B681B6899
:1039B000444A93424FD07B681B68434A93424AD0A3
:1039C0007B681B68414A934245D07B681B68404A2C
:1039D000934240D07B681B683E4A93423BD07B6851
:1039E0001B683D4A934236D07B681B683B4A934232
:1039F00031D07B681B683A4A93422CD07B681B68A5
:103A0000384A934227D07B681B68374A934222D0BA
:103A10007B681B68354A93421DD07B681B68344A1B
:103A2000934218D07B681B68324A934213D07B685C
:103A30001B68314A93420ED07B681B682F4A934221
:103A400009D07B681B682E4A934204D07B681B68B0
:103A50002C4A934201D1012300E00023002B15D012
:103A60007B685B6E7A68926E5A607B68DB6E002BB7
:103A70000CD07B68DB6E1A687B68DB6E22F4807288
:103A80001A607B681B6F7A68526F5A607B680122EC
:103A900083F835207B68002283F834200023184601
:103AA0001837BD4680BD00BF10000240280002400C
:103AB000400002405800024070000240880002406E
:103AC000A0000240B8000240100402402804024056
:103AD000400402405804024070040240880402403E
:103AE000A0040240B8040240085402581C54025872
:103AF0003054025844540258585402586C540258D6
:103B0000805402589454025880B584B000AF786055
:103B10007B68002B01D1012337E27B6893F83530B5
:103B2000DBB2022B04D07B6880225A6501232CE291
:103B30007B681B685C4A93424AD07B681B685B4A7F
:103B4000934245D07B681B68594A934240D07B68BA
:103B50001B68584A93423BD07B681B68564A934285
:103B600036D07B681B68554A934231D07B681B680E
:103B7000534A93422CD07B681B68524A934227D009
:103B80007B681B68504A934222D07B681B684F4A6F
:103B900093421DD07B681B684D4A934218D07B68C6
:103BA0001B684C4A934213D07B681B684A4A934275
:103BB0000ED07B681B68494A934209D07B681B681A
:103BC000474A934204D07B681B68464A934201D11E
:103BD000012300E00023002B00F086807B68042294
:103BE00083F835207B681B682F4A93424AD07B6854
:103BF0001B682E4A934245D07B681B682C4A93422F
:103C000040D07B681B682B4A93423BD07B681B6883
:103C1000294A934236D07B681B68284A934231D0A8
:103C20007B681B68264A93422CD07B681B68254A18
:103C3000934227D07B681B68234A934222D07B683B
:103C40001B68224A93421DD07B681B68204A93421E
:103C500018D07B681B681F4A934213D07B681B688F
:103C60001D4A93420ED07B681B681C4A934209D0C0
:103C70007B681B681A4A934204D07B681B68194A08
:103C8000934208D17B681B681A687B681B6822F026
:103C900001021A6078E17B681B681A687B681B6800
:103CA00022F001021A606FE1100002402800024079
:103CB000400002405800024070000240880002406C
:103CC000A0000240B8000240100402402804024054
:103CD000400402405804024070040240880402403C
:103CE000A0040240B80402407B681B681A687B6825
:103CF0001B6822F00E021A607B681B686C4A9342B4
:103D00004AD07B681B686B4A934245D07B681B682E
:103D1000694A934240D07B681B68684A93423BD013
:103D20007B681B68664A934236D07B681B68654A8D
:103D3000934231D07B681B68634A93422CD07B68E6
:103D40001B68624A934227D07B681B68604A934293
:103D500022D07B681B685F4A93421DD07B681B683A
:103D60005D4A934218D07B681B685C4A934213D02B
:103D70007B681B685A4A93420ED07B681B68594A7D
:103D8000934209D07B681B68574A934204D07B68F2
:103D90001B68564A934208D17B681B681A687B6887
:103DA0001B6822F001021A6007E07B681B681A6832
:103DB0007B681B6822F001021A607B681B683C4A22
:103DC000934272D07B681B683A4A93426DD07B68FD
:103DD0001B68394A934268D07B681B68374A934214
:103DE00063D07B681B68364A93425ED07B681B6851
:103DF000344A934259D07B681B68334A934254D06B
:103E00007B681B68314A93424FD07B681B68304AFD
:103E100093424AD07B681B682E4A934245D07B6808
:103E20001B682D4A934240D07B681B682B4A934203
:103E30003BD07B681B682A4A934236D07B681B685C
:103E4000284A934231D07B681B68274A93422CD082
:103E50007B681B68254A934227D07B681B68244AED
:103E6000934222D07B681B68224A93421DD07B6814
:103E70001B68214A934218D07B681B681F4A9342F3
:103E800013D07B681B681E4A93420ED07B681B6868
:103E90001C4A934209D07B681B681B4A934204D09A
:103EA0007B681B68194A934232D1012331E000BF7D
:103EB000100002402800024040000240580002402A
:103EC0007000024088000240A0000240B80002409A
:103ED00010040240280402404004024058040240FA
:103EE0007004024088040240A0040240B80402406A
:103EF000085402581C540258305402584454025872
:103F0000585402586C540258805402589454025821
:103F10000023002B28D07B681B6E1A687B681B6E01
:103F200022F480721A607B689B6DFB607B68DB6D9E
:103F300003F01F0301229A40FB685A607B685B6EA6
:103F40007A68926E5A607B68DB6E002B0CD07B68BF
:103F5000DB6E1A687B68DB6E22F480721A607B6805
:103F60001B6F7A68526F5A607B68012283F8352094
:103F70007B68002283F834207B681B6D002B03D004
:103F80007B681B6D78689847002318461037BD463C
:103F900080BD00BF80B58AB000AF78600023FB60B1
:103FA000674B1B68674AA2FB03239B0A7B627B6803
:103FB0009B6D3B627B689B6DFB613B6A1B68BB61D1
:103FC000FB691B687B617B681B685F4A93424AD030
:103FD0007B681B685D4A934245D07B681B685C4ADE
:103FE000934240D07B681B685A4A93423BD07B681F
:103FF0001B68594A934236D07B681B68574A9342E4
:1040000031D07B681B68564A93422CD07B681B6872
:10401000544A934227D07B681B68534A934222D06C
:104020007B681B68514A93421DD07B681B68504ACD
:10403000934218D07B681B684E4A934213D07B682A
:104040001B684D4A93420ED07B681B684B4A9342D3
:1040500009D07B681B684A4A934204D07B681B687E
:10406000484A934201D1012300E00023002B00F0D5
:104070002B847B68DB6D03F01F0308229A40BB6929
:104080001340002B00F0A2807B681B682E4A9342ED
:104090004AD07B681B682D4A934245D07B681B68D9
:1040A0002B4A934240D07B681B682A4A93423BD0FC
:1040B0007B681B68284A934236D07B681B68274A76
:1040C000934231D07B681B68254A93422CD07B6891
:1040D0001B68244A934227D07B681B68224A93427C
:1040E00022D07B681B68214A93421DD07B681B68E5
:1040F0001F4A934218D07B681B681E4A934213D014
:104100007B681B681C4A93420ED07B681B681B4A65
:10411000934209D07B681B68194A934204D07B689C
:104120001B68184A93422FD17B681B681B6803F0F9
:104130000403002B14BF01230023DBB22EE000BFD9
:1041400008000024B5814E1B1000024028000240E8
:1041500040000240580002407000024088000240C7
:10416000A0000240B80002401004024028040240AF
:104170004004024058040240700402408804024097
:10418000A0040240B80402407B681B681B6803F06F
:104190000803002B14BF01230023DBB2002B15D032
:1041A0007B681B681A687B681B6822F004021A602F
:1041B0007B68DB6D03F01F0308229A403B6A9A601C
:1041C0007B685B6D43F001027B685A657B68DB6D41
:1041D00003F01F03BA6922FA03F303F00103002B73
:1041E0006ED07B681B68694A93424AD07B681B6823
:1041F000674A934245D07B681B68664A934240D029
:104200007B681B68644A93423BD07B681B68634AA7
:10421000934236D07B681B68614A934231D07B68F9
:104220001B68604A93422CD07B681B685E4A9342AD
:1042300027D07B681B685D4A934222D07B681B684D
:104240005B4A93421DD07B681B685A4A934218D040
:104250007B681B68584A934213D07B681B68574A97
:1042600093420ED07B681B68554A934209D07B6805
:104270001B68544A934204D07B681B68524A93429D
:104280000AD17B681B685B6903F08003002B14BFB5
:1042900001230023DBB203E07B681B681B6800235B
:1042A000002B0DD07B68DB6D03F01F0301229A40C9
:1042B0003B6A9A607B685B6D43F002027B685A65DB
:1042C0007B68DB6D03F01F0304229A40BB69134037
:1042D000002B00F08F807B681B682C4A93424AD0E9
:1042E0007B681B682A4A934245D07B681B68294A31
:1042F000934240D07B681B68274A93423BD07B683F
:104300001B68264A934236D07B681B68244A934236
:1043100031D07B681B68234A93422CD07B681B6892
:10432000214A934227D07B681B68204A934222D0BF
:104330007B681B681E4A93421DD07B681B681D4A20
:10434000934218D07B681B681B4A934213D07B684A
:104350001B681A4A93420ED07B681B68184A934226
:1043600009D07B681B68174A934204D07B681B689E
:10437000154A93422AD17B681B681B6803F002032D
:10438000002B14BF01230023DBB223E01000024006
:1043900028000240400002405800024070000240E5
:1043A00088000240A0000240B80002401004024011
:1043B00028040240400402405804024070040240B5
:1043C00088040240A0040240B80402407B681B68D5
:1043D0001B680023002B0DD07B68DB6D03F01F03EF
:1043E00004229A403B6A9A607B685B6D43F004024A
:1043F0007B685A657B68DB6D03F01F0310229A40CF
:10440000BB691340002B00F0A6807B681B68854ABF
:1044100093424AD07B681B68834A934245D07B68AD
:104420001B68824A934240D07B681B68804A934253
:104430003BD07B681B687F4A934236D07B681B6801
:104440007D4A934231D07B681B687C4A93422CD0D2
:104450007B681B687A4A934227D07B681B68794A3D
:10446000934222D07B681B68774A93421DD07B68B9
:104470001B68764A934218D07B681B68744A934243
:1044800013D07B681B68734A93420ED07B681B680D
:10449000714A934209D07B681B68704A934204D0EA
:1044A0007B681B686E4A93420AD17B681B681B6855
:1044B00003F00803002B14BF01230023DBB209E043
:1044C0007B681B681B6803F00403002B14BF0123E7
:1044D0000023DBB2002B3ED07B68DB6D03F01F03B3
:1044E00010229A403B6A9A607B681B681B6803F441
:1044F0008023002B18D07B681B681B6803F4002303
:10450000002B08D17B681B6C002B24D07B681B6CB4
:10451000786898471FE07B689B6C002B1BD07B68FA
:104520009B6C7868984716E07B681B681B6803F4EF
:104530008073002B07D17B681B681A687B681B6837
:1045400022F008021A607B681B6C002B03D07B688A
:104550001B6C786898477B68DB6D03F01F03202293
:104560009A40BB691340002B00F010817B681B68E8
:104570002C4A93424AD07B681B682B4A934245D011
:104580007B681B68294A934240D07B681B68284A95
:1045900093423BD07B681B68264A934236D07B68A7
:1045A0001B68254A934231D07B681B68234A93429B
:1045B0002CD07B681B68224A934227D07B681B68FB
:1045C000204A934222D07B681B681F4A93421DD029
:1045D0007B681B681D4A934218D07B681B681C4A85
:1045E000934213D07B681B681A4A93420ED07B68B3
:1045F0001B68194A934209D07B681B68174A93428B
:1046000004D07B681B68164A93422BD17B681B68D9
:104610001B6803F01003002B14BF01230023DBB23F
:104620002AE000BF10000240280002404000024083
:10463000580002407000024088000240A000024082
:10464000B800024010040240280402404004024026
:10465000580402407004024088040240A004024052
:10466000B80402407B681B681B6803F00203002B40
:1046700014BF01230023DBB2002B00F087807B688E
:10468000DB6D03F01F0320229A403B6A9A607B682F
:1046900093F83530DBB2042B39D17B681B681A687C
:1046A0007B681B6822F016021A607B681B685A69D7
:1046B0007B681B6822F080025A617B681B6C002BB0
:1046C00003D17B689B6C002B07D07B681B681A6842
:1046D0007B681B6822F008021A607B68DB6D03F0C0
:1046E0001F033F229A403B6A9A607B68012283F84D
:1046F00035207B68002283F834207B681B6D002BFB
:1047000000F04A837B681B6D7868984744E37B68B8
:104710001B681B6803F48023002B18D07B681B6880
:104720001B6803F40023002B08D17B685B6C002B13
:104730002CD07B685B6C7868984727E07B68DB6BE4
:10474000002B23D07B68DB6B786898471EE07B6882
:104750001B681B6803F48073002B0FD17B681B68F8
:104760001A687B681B6822F010021A607B680122BD
:1047700083F835207B68002283F834207B68DB6B6C
:10478000002B03D07B68DB6B786898477B685B6D98
:10479000002B00F006837B685B6D03F00103002BA8
:1047A00000F088807B68042283F835207B681B68D2
:1047B0007A4A93424AD07B681B68794A934245D033
:1047C0007B681B68774A934240D07B681B68764AB7
:1047D00093423BD07B681B68744A934236D07B6817
:1047E0001B68734A934231D07B681B68714A9342BD
:1047F0002CD07B681B68704A934227D07B681B686B
:104800006E4A934222D07B681B686D4A93421DD04A
:104810007B681B686B4A934218D07B681B686A4AA6
:10482000934213D07B681B68684A93420ED07B6822
:104830001B68674A934209D07B681B68654A9342AC
:1048400004D07B681B68644A934208D17B681B686C
:104850001A687B681B6822F001021A6007E07B6817
:104860001B681A687B681B6822F001021A60FB68EB
:104870000133FB607A6A9A4207D37B681B681B6826
:1048800003F00103002BF2D100E000BF7B681B683E
:104890001B6803F00103002B04D07B68032283F81C
:1048A000352003E07B68012283F835207B680022F5
:1048B00083F834207B68DB6C002B00F072827B680D
:1048C000DB6C786898476CE27B681B68434A9342CC
:1048D00022D07B681B68424A93421DD07B681B68CC
:1048E000404A934218D07B681B683F4A934213D0DA
:1048F0007B681B683D4A93420ED07B681B683C4A2C
:10490000934209D07B681B683A4A934204D07B6883
:104910001B68394A934201D1012300E00023002B98
:1049200000F03F827B681B681B683B617B68DB6D26
:1049300003F01F0304229A407B691340002B00F010
:10494000CD803B6903F00403002B00F0C7807B6837
:10495000DB6D03F01F0304229A40FB695A603B6938
:1049600003F40043002B49D03B6903F48033002B50
:1049700009D17B689B6C002B00F010827B689B6CDC
:10498000786898470AE27B681B6C002B00F006826F
:104990007B681B6C7868984700E200BF10000240FB
:1049A00028000240400002405800024070000240CF
:1049B00088000240A0000240B800024010040240FB
:1049C000280402404004024058040240700402409F
:1049D00088040240A0040240B8040240085402586F
:1049E0001C54025830540258445402585854025827
:1049F0006C54025880540258945402583B6903F096
:104A00002003002B60D17B681B687F4A93424AD009
:104A10007B681B687D4A934245D07B681B687C4A53
:104A2000934240D07B681B687A4A93423BD07B68B4
:104A30001B68794A934236D07B681B68774A934259
:104A400031D07B681B68764A93422CD07B681B6808
:104A5000744A934227D07B681B68734A934222D0E2
:104A60007B681B68714A93421DD07B681B68704A43
:104A7000934218D07B681B686E4A934213D07B68C0
:104A80001B686D4A93420ED07B681B686B4A934249
:104A900009D07B681B686A4A934204D07B681B6814
:104AA000684A934208D17B681B681A687B681B6858
:104AB00022F008021A6007E07B681B681A687B68AE
:104AC0001B6822F004021A607B681B6C002B00F04C
:104AD00065817B681B6C786898475FE17B68DB6D5C
:104AE00003F01F0302229A407B691340002B00F061
:104AF000C5803B6903F00203002B00F0BF807B6898
:104B0000DB6D03F01F0302229A40FB695A603B6988
:104B100003F40043002B18D03B6903F48033002BCF
:104B200009D17B685B6C002B00F03A817B685B6C81
:104B30007868984734E17B68DB6B002B00F03081AC
:104B40007B68DB6B786898472AE13B6903F02003B8
:104B5000002B40F089807B681B682B4A93424AD027
:104B60007B681B68294A934245D07B681B68284AAA
:104B7000934240D07B681B68264A93423BD07B68B7
:104B80001B68254A934236D07B681B68234A9342B0
:104B900031D07B681B68224A93422CD07B681B680B
:104BA000204A934227D07B681B681F4A934222D039
:104BB0007B681B681D4A93421DD07B681B681C4A9A
:104BC000934218D07B681B681A4A934213D07B68C3
:104BD0001B68194A93420ED07B681B68174A9342A0
:104BE00009D07B681B68164A934204D07B681B6817
:104BF000144A934228D17B681B681A687B681B683B
:104C000022F014021A6027E010000240280002403F
:104C100040000240580002407000024088000240FC
:104C2000A0000240B80002401004024028040240E4
:104C300040040240580402407004024088040240CC
:104C4000A0040240B80402407B681B681A687B68B5
:104C50001B6822F00A021A607B68012283F8352063
:104C60007B68002283F834207B68DB6B002B00F02C
:104C700097807B68DB6B7868984791E07B68DB6D99
:104C800003F01F0308229A407B691340002B00F0B9
:104C900088803B6903F00803002B00F082807B686A
:104CA0001B68414A93424AD07B681B683F4A934243
:104CB00045D07B681B683E4A934240D07B681B68A6
:104CC0003C4A93423BD07B681B683B4A934236D0B8
:104CD0007B681B68394A934231D07B681B68384A2D
:104CE00093422CD07B681B68364A934227D07B685E
:104CF0001B68354A934222D07B681B68334A934233
:104D00001DD07B681B68324A934218D07B681B68B1
:104D1000304A934213D07B681B682F4A93420ED0CF
:104D20007B681B682D4A934209D07B681B682C4A1C
:104D3000934204D07B681B682A4A934208D17B685F
:104D40001B681A687B681B6822F01C021A6007E067
:104D50007B681B681A687B681B6822F00E021A6069
:104D60007B68DB6D03F01F0301229A40FB695A60E8
:104D70007B6801225A657B68012283F835207B68B5
:104D8000002283F834207B68DB6C002B09D07B6821
:104D9000DB6C7868984704E000BF02E000BF00E0E9
:104DA00000BF2837BD4680BD1000024028000240E9
:104DB000400002405800024070000240880002405B
:104DC000A0000240B8000240100402402804024043
:104DD000400402405804024070040240880402402B
:104DE000A0040240B804024080B483B000AF7860F1
:104DF0007B685B6D18460C37BD465DF8047B7047D9
:104E000080B487B000AFF860B9607A603B60FB683F
:104E10009B6D7B61FB689B6D3B61FB681B687F4AF8
:104E2000934272D0FB681B687D4A93426DD0FB6849
:104E30001B687C4A934268D0FB681B687A4A93429D
:104E400063D0FB681B68794A93425ED0FB681B689D
:104E5000774A934259D0FB681B68764A934254D0F4
:104E6000FB681B68744A93424FD0FB681B68734A07
:104E700093424AD0FB681B68714A934245D0FB6855
:104E80001B68704A934240D0FB681B686E4A93428D
:104E90003BD0FB681B686D4A934236D0FB681B68A9
:104EA0006B4A934231D0FB681B686A4A93422CD00C
:104EB000FB681B68684A934227D0FB681B68674AF7
:104EC000934222D0FB681B68654A93421DD0FB6861
:104ED0001B68644A934218D0FB681B68624A93427D
:104EE00013D0FB681B68614A93420ED0FB681B68B5
:104EF0005F4A934209D0FB681B685E4A934204D024
:104F0000FB681B685C4A934201D1012300E0002347
:104F1000002B0DD0FB685B6EFA68926E5A60FB68DE
:104F2000DB6E002B04D0FB681B6FFA68526F5A606F
:104F3000FB681B68394A93424AD0FB681B68384AB1
:104F4000934245D0FB681B68364A934240D0FB68C9
:104F50001B68354A93423BD0FB681B68334A934237
:104F600036D0FB681B68324A934231D0FB681B681D
:104F7000304A93422CD0FB681B682F4A934227D0BB
:104F8000FB681B682D4A934222D0FB681B682C4AA1
:104F900093421DD0FB681B682A4A934218D0FB68D5
:104FA0001B68294A934213D0FB681B68274A934227
:104FB0000ED0FB681B68264A934209D0FB681B6829
:104FC000244A934204D0FB681B68234A934201D1D0
:104FD000012300E00023002B59D0FB68DB6D03F0B8
:104FE0001F033F229A407B699A60FB681B681A681E
:104FF000FB681B6822F480221A60FB681B683A6811
:105000005A60FB689B68402B38D1FB681B687A6844
:105010009A60FB681B68BA68DA6086E0100002409C
:105020002800024040000240580002407000024048
:1050300088000240A0000240B80002401004024074
:105040002804024040040240580402407004024018
:1050500088040240A0040240B804024008540258E8
:105060001C540258305402584454025858540258A0
:105070006C5402588054025894540258FB681B68C0
:10508000BA689A60FB681B687A68DA604DE0FB6872
:105090001B68294A934222D0FB681B68274A934227
:1050A0001DD0FB681B68264A934218D0FB681B681A
:1050B000244A934213D0FB681B68234A93420ED0C4
:1050C000FB681B68214A934209D0FB681B68204A91
:1050D000934204D0FB681B681E4A934201D101230E
:1050E00000E00023002B20D0FB68DB6D03F01F03E2
:1050F00001229A403B695A60FB681B683A685A6013
:10510000FB689B68402B08D1FB681B687A689A6033
:10511000FB681B68BA68DA6007E0FB681B68BA685E
:105120009A60FB681B687A68DA6000BF1C37BD466E
:105130005DF8047B704700BF085402581C540258A5
:105140003054025844540258585402586C5402586F
:10515000805402589454025880B485B000AF7860EF
:105160007B681B68424A93424AD07B681B68414A6D
:10517000934245D07B681B683F4A934240D07B688E
:105180001B683E4A93423BD07B681B683C4A934273
:1051900036D07B681B683B4A934231D07B681B68E2
:1051A000394A93422CD07B681B68384A934227D0F7
:1051B0007B681B68364A934222D07B681B68354A5D
:1051C00093421DD07B681B68334A934218D07B689A
:1051D0001B68324A934213D07B681B68304A934263
:1051E0000ED07B681B682F4A934209D07B681B68EE
:1051F0002D4A934204D07B681B682C4A934201D10C
:10520000012300E00023002B24D07B681B68DBB265
:10521000103B274AA2FB03231B09FB60FB6803F03A
:105220000703244AD35C1A467B68DA65FB68032BC4
:1052300008D97B681B681A461F4B13401A1D7B68F0
:105240009A650DE07B681B681A461B4B13407A6811
:10525000936505E07B681B6823F0FF027B689A6515
:105260007B689B6D18461437BD465DF8047B70471C
:105270001000024028000240400002405800024056
:105280007000024088000240A0000240B8000240C6
:105290001004024028040240400402405804024026
:1052A0007004024088040240A0040240B804024096
:1052B000ABAAAAAAC0F2010800FCFFFF80B485B027
:1052C00000AF78600023FB737B689B69002B20D1C3
:1052D0007B689B6A032B58D801A252F823F000BFC9
:1052E000F152000803530008F15200088B530008E4
:1052F0007B68DB6A03F08073002B48D00123FB73CB
:1053000045E07B68DB6AB3F1C07F42D10123FB73C8
:105310003FE07B689B69B3F5005F23D17B689B6AA4
:10532000032B38D801A252F823F000BF3D530008E8
:10533000435300083D530008555300080123FB73F5
:1053400030E07B68DB6A03F08073002B25D00123FB
:10535000FB7322E07B68DB6AB3F1C07F1FD10123BE
:10536000FB731CE07B689B6A022B02D9032B03D0E2
:1053700018E00123FB7315E07B68DB6A03F08073A0
:10538000002B0ED00123FB730BE000BF0AE000BF2F
:1053900008E000BF06E000BF04E000BF02E000BF7D
:1053A00000E000BFFB7B18461437BD465DF8047B68
:1053B000704700BF80B485B000AF78607B681B6821
:1053C000BB607B681B68384A934222D07B681B68AD
:1053D000364A93421DD07B681B68354A934218D0E9
:1053E0007B681B68334A934213D07B681B68324A40
:1053F00093420ED07B681B68304A934209D07B6889
:105400001B682F4A934204D07B681B682D4A934245
:1054100001D1012300E00023002B1AD07B681B6818
:10542000DBB2083B284AA2FB03231B09FB60FA6896
:10543000264B13449B001A467B681A667B68244AF5
:105440005A66FB6803F01F0301229A407B689A6644
:1054500024E07B681B68DBB2103B1E4AA2FB0323DF
:105460001B09FB60BB681C4A934206D8BB681B4AF9
:10547000934202D9FB680833FB60FA68184B134467
:105480009B001A467B681A667B68164A5A66FB6858
:1054900003F01F0301229A407B689A6600BF14370D
:1054A000BD465DF8047B7047085402581C540258EE
:1054B0003054025844540258585402586C540258FC
:1054C0008054025894540258CDCCCCCC009600168F
:1054D00080580258ABAAAAAAB80402400F0402409E
:1054E000008200108008024080B485B000AF786070
:1054F0007B685B68DBB2FB60FB68002B4AD0FB6813
:10550000082B47D87B681B68254A934222D07B68CA
:105510001B68244A93421DD07B681B68224A934231
:1055200018D07B681B68214A934213D07B681B68A4
:105530001F4A93420ED07B681B681E4A934209D0D3
:105540007B681B681C4A934204D07B681B681B4A1B
:10555000934201D1012300E00023002B0AD0FA6816
:10556000174B13449B001A467B68DA667B68154A22
:105570001A6709E0FA68144B13449B001A467B68CB
:10558000DA667B68114A1A67FB68013B01229A4080
:105590007B685A6700BF1437BD465DF8047B7047CF
:1055A000085402581C5402583054025844540258AB
:1055B000585402586C54025880540258945402585B
:1055C0003F960016405902583F82001040090240A1
:1055D00080B489B000AF786039600023FB61894BEB
:1055E0007B6194E13B681A680121FB6901FA03F3CE
:1055F00013403B613B69002B00F086813B685B6890
:1056000003F00303012B05D03B685B6803F0030341
:10561000022B30D17B689B68BB61FB695B00032276
:1056200002FA03F3DB43BA691340BB613B68DA68F3
:10563000FB695B0002FA03F3BA691343BB617B6841
:10564000BA699A607B685B68BB610122FB6902FAF8
:1056500003F3DB43BA691340BB613B685B681B091A
:1056600003F00102FB6902FA03F3BA691343BB6159
:105670007B68BA695A603B685B6803F00303032BDD
:1056800017D07B68DB68BB61FB695B00032202FA11
:1056900003F3DB43BA691340BB613B689A68FB695B
:1056A0005B0002FA03F3BA691343BB617B68BA6912
:1056B000DA603B685B6803F00303022B23D1FB69CC
:1056C000DA087B68083253F82230BB61FB6903F0CB
:1056D00007039B000F2202FA03F3DB43BA6913406E
:1056E000BB613B681A69FB6903F007039B0002FA80
:1056F00003F3BA691343BB61FB69DA087B680832BC
:10570000B96943F822107B681B68BB61FB695B00C9
:10571000032202FA03F3DB43BA691340BB613B681F
:105720005B6803F00302FB695B0002FA03F3BA69EA
:105730001343BB617B68BA691A603B685B6803F41A
:105740004033002B00F0E0802F4BD3F8F4302E4A8A
:1057500043F00203C2F8F4302B4BD3F8F43003F0DB
:105760000203FB60FB68294AFB699B08023352F87D
:105770002330BB61FB6903F003039B000F2202FA95
:1057800003F3DB43BA691340BB617B68204A934251
:1057900052D07B681F4A934231D07B681E4A9342A5
:1057A0002BD07B681D4A934225D07B681C4A9342CC
:1057B0001FD07B681B4A934219D07B681A4A9342D8
:1057C00013D07B68194A93420DD07B68184A9342E4
:1057D00007D07B68174A934201D109232DE00A23A1
:1057E0002BE0082329E0072327E0062325E00523F3
:1057F00023E0042321E003231FE002231DE0012313
:105800001BE000BF8000005800440258000400580C
:10581000000002580004025800080258000C025808
:10582000001002580014025800180258001C0258B8
:1058300000200258002402580023FA6902F00302F3
:1058400092009340BA691343BB613849FB699B08D6
:105850000233BA6941F823204FF0B0431B68BB61A3
:105860003B69DB43BA691340BB613B685B6803F487
:105870008013002B03D0BA693B691343BB614FF01F
:10588000B042BB6913604FF0B0435B68BB613B69DA
:10589000DB43BA691340BB613B685B6803F40013E8
:1058A000002B03D0BA693B691343BB614FF0B04290
:1058B000BB6953607B695B68BB613B69DB43BA6969
:1058C0001340BB613B685B6803F40033002B03D0DB
:1058D000BA693B691343BB617B69BA695A607B69EA
:1058E0001B68BB613B69DB43BA691340BB613B6822
:1058F0005B6803F48033002B03D0BA693B69134320
:10590000BB617B69BA691A60FB690133FB613B6863
:105910001A68FB6922FA03F3002B7FF463AE00BF21
:1059200000BF2437BD465DF8047B70470004005873
:1059300080B483B000AF78600B467B8013467B70E9
:105940007B78002B03D07A887B689A6103E07B88A0
:105950001A047B689A6100BF0C37BD465DF8047B72
:10596000704780B485B000AF78600B467B807B6861
:105970005B69FB607A88FB6813401A04FB68D943B3
:105980007B880B401A437B689A6100BF1437BD4681
:105990005DF8047B7047000080B584B000AF78608C
:1059A000194BDB6803F00403042B0AD0164BDB68A9
:1059B00003F007037A689A4201D001231FE0002315
:1059C0001DE0114BDB6823F007020F497B6813438E
:1059D000CB60FCF729FEF86009E0FCF725FE0246E3
:1059E000FB68D31AB3F57A7F01D9012307E0064B90
:1059F0005B6803F40053B3F5005FEED10023184653
:105A00001037BD4680BD00BF0048025880B58CB03D
:105A100000AF78607B68002B02D1012300F048BC06
:105A20007B681B6803F00103002B00F08880994B12
:105A30001B6903F03803FB62964B9B6ABB62FB6AEF
:105A4000102B07D0FB6A182B11D1BB6A03F003039C
:105A5000022B0CD18F4B1B6803F40033002B6DD04D
:105A60007B685B68002B69D1012300F021BC7B6857
:105A70005B68B3F5803F06D1864B1B68854A43F4CB
:105A8000803313602EE07B685B68002B0CD1814B68
:105A90001B68804A23F4803313607E4B1B687D4A69
:105AA00023F4802313601DE07B685B68B3F5A02FAF
:105AB0000CD1784B1B68774A43F480231360754BF5
:105AC0001B68744A43F4803313600BE0714B1B680E
:105AD000704A23F4803313606E4B1B686D4A23F4C5
