:020000040800F2
:1000000000000824E1180008D9120008E1120008D5
:10001000E9120008F1120008F912000800000000BF
:1000200000000000000000000000000001130008B4
:100030000F130008000000001D1300082B13000818
:100040003119000831190008311900083119000868
:100050003119000831190008311900083119000858
:100060003119000831190008311900083119000848
:100070003119000839130008311900083119000836
:100080003119000831190008311900083119000828
:100090003119000831190008311900083119000818
:1000A0003119000831190008311900083119000808
:1000B00031190008311900083119000831190008F8
:1000C00031190008311900083119000831190008E8
:1000D00031190008311900083119000831190008D8
:1000E000311900083119000800000000311900081A
:1000F00031190008311900083119000831190008B8
:1001000031190008311900083119000831190008A7
:100110004D13000831190008311900083119000881
:100120003119000831190008311900083119000887
:100130003119000831190008311900083119000877
:1001400000000000000000000000000000000000AF
:100150003119000831190008311900083119000857
:100160003119000831190008311900083119000847
:100170003119000831190008311900080000000089
:100180003119000831190008311900083119000827
:100190003119000831190008311900083119000817
:1001A0003119000831190008311900083119000807
:1001B00031190008311900083119000831190008F7
:1001C00031190008311900083119000831190008E7
:1001D00031190008311900083119000831190008D7
:1001E00031190008311900083119000831190008C7
:1001F00031190008311900083119000831190008B7
:1002000031190008311900083119000831190008A6
:100210003119000831190008311900083119000896
:1002200031190008311900083119000800000000D8
:1002300031190008311900080000000031190008C8
:100240003119000831190008311900083119000866
:100250003119000831190008311900083119000856
:100260003119000831190008311900083119000846
:100270003119000831190008311900080000000088
:100280003119000831190008311900080000000078
:08029000000000003119000814
:1002A00010B5054C237833B9044B13B10448AFF3B0
:1002B00000800123237010BDD8010024000000003D
:1002C00020C3000808B5034B1BB103490348AFF333
:1002D000008008BD00000000DC01002420C30008ED
:1002E00001F0FF01102A2BDB10F0070F08D010F8E7
:1002F000013B013A8B422DD010F0070F42B3F6D1EB
:10030000F0B441EA012141EA014122F007047FF003
:1003100000070023F0E80256083C85EA010586EA5A
:10032000010685FA47F5A3FA87F586FA47F6A5FA96
:1003300087F68EB9EED1F0BC01F0FF0102F00702A2
:1003400032B110F8013B013A83EA010313B1F8D14D
:100350000020704701387047002D06BF354603382E
:10036000073815F0010F07D1013015F4807F02BF67
:10037000013015F4C03F0130F0BC0138704700BFB8
:10038000034613F8012B002AFBD1181A01387047D5
:1003900053B94AB9002908BF00281CBF4FF0FF31EC
:1003A0004FF0FF3000F06AB9ADF1080C6DE904CEF2
:1003B00000F006F8DDF804E0DDE9022304B0704740
:1003C0002DE9F047089D0C46002B4ED194468C45F4
:1003D0008646B2FA82F262D94AB1C2F12003914054
:1003E00020FA03F30CFA02FC194300FA02FE4FEA6A
:1003F0001C471FFA8CF6B1FBF7F44FEA1E4307FBCC
:10040000141143EA014304FB06F199420AD91CEB9B
:10041000030304F1FF3080F01281994240F20F8112
:10042000023C6344591A1FFA8EF3B1FBF7F007FB45
:10043000101143EA014300FB06F69E420AD91CEB69
:10044000030300F1FF3180F0FC809E4240F2F9800E
:10045000634402389B1B40EA044000211DB1D34095
:100460000022C5E90032BDE8F0878B4205D90DB105
:10047000C5E9000100210846F5E7B3FA83F1002938
:1004800046D1A34202D39042C0F0F080861A64EBBA
:1004900003030120002DE6D0C5E90063E3E7002A4D
:1004A00040F09080A1EB0C044FEA1C481FFA8CF737
:1004B0000121B4FBF8F64FEA1E4308FB164443EA59
:1004C000044307FB06F0984208D91CEB030306F12E
:1004D000FF3402D2984200F2CD8026461C1A1FFA41
:1004E0008EF3B4FBF8F008FB104443EA044300FB2E
:1004F00007F79F4208D91CEB030300F1FF3402D237
:100500009F4200F2B0802046DB1B40EA0640A5E790
:10051000C1F120068B4022FA06F71F4320FA06FCA1
:1005200004FA01F343EA0C03F44000FA01F8380C32
:100530004FEA1349B4FBF0FE1FFA87FC00FB1E4490
:1005400049EA04440EFB0CF9A14502FA01F20AD96A
:100550003C190EF1FF3A80F08480A14540F2818081
:10056000AEF1020E3C44A4EB09041FFA83F9B4FB7C
:10057000F0F300FB134449EA044403FB0CFCA445DC
:1005800007D93C1903F1FF3067D2A44565D9023B76
:100590003C4443EA0E40A0FB0293A4EB0C049C42B3
:1005A000CE469C4651D34ED055B1B8EB0E0364EB0A
:1005B0000C0404FA06F6CB401E43CC40C5E90064A7
:1005C000002150E7C2F1200320FA03F10CFA02FCEB
:1005D00024FA03F394400C434FEA1C4800FA02FE4D
:1005E0001FFA8CF7B3FBF8F008FB1031230C43EA39
:1005F000014300FB07F1994208D91CEB030300F10A
:10060000FF362CD299422AD9023863445B1AA4B22D
:10061000B3FBF8F108FB113344EA034401FB07F391
:10062000A34208D91CEB040401F1FF3613D2A34204
:1006300011D902396444E41A41EA004139E7044619
:10064000F0E6084606E7C845AED2B9EB020E63EB0A
:10065000070C0138A8E73146EDE7034699E7304635
:10066000D4E7D6467FE7634402384DE70646234683
:1006700008460FE7023E634430E700BF704700BF03
:1006800080B500AF094B1B780133DAB2074B1A7003
:10069000064B1B78142B07D9044B00221A704FF419
:1006A0000051034804F095FB00BF80BDF401002415
:1006B0000008025880B582B000AF01F0C1F978603F
:1006C0000C4809F02BFF00F073FB00F087FB01F0F2
:1006D000B7F902467B68D31AC72BF6D901F0B0F9F7
:1006E0007860FFF7CDFF044B1B681946034809F0FB
:1006F000ADFEEAE738C30008F80200244CC3000846
:1007000080B582B000AF78600B467B807A884FF668
:10071000FF737968034807F013FA00BF0837BD4636
:1007200080BD00BFB843002480B582B000AF46F260
:10073000A503BB803B1D02211846FFF7E1FF00BF68
:100740000837BD4680BD80B582B000AF46F2A553E4
:10075000BB803B1D02211846FFF7D2FF00BF0837C0
:10076000BD4680BD80B582B000AF0346FB71744BBF
:100770001B780A2B00F2E08001A252F823F000BFA0
:10078000AD070008C3070008D9070008F3070008F1
:100790003F08000859080008730800088D08000881
:1007A000A7080008C1080008DB080008FB79AA2B8D
:1007B00040F0BB80624B01221A70624BAA221A7071
:1007C000B3E0FB79552B40F0B2805D4B02221A70EA
:1007D0005C4B55225A70AAE0594B1B781946594A6E
:1007E000FB795354564B1B780133DAB2544B1A70D1
:1007F000A2E0534B1B781946524AFB795354504B95
:100800001B780133DAB24E4B1A70FB799BB21A4651
:10081000520013449AB24C4B1A804B4B1B88F52B59
:1008200040F28780484B00221A80454B00221A7004
:100830004FF480720021434809F050FF79E0404BAB
:100840001B7819463F4AFB7953543D4B1B780133C3
:10085000DAB23B4B1A706FE0394B1B781946394AB4
:10086000FB795354364B1B780133DAB2344B1A7090
:1008700062E0334B1B781946324AFB795354304BB4
:100880001B780133DAB22E4B1A7055E02C4B1B78D3
:1008900019462C4AFB795354294B1B780133DAB2A1
:1008A000274B1A7048E0264B1B781946254AFB79DE
:1008B0005354234B1B780133DAB2214B1A703BE0BF
:1008C0001F4B1B7819461F4AFB7953541C4B1B784E
:1008D0000133DAB21A4B1A702EE0194B1B781A4604
:1008E0001A4B1B7813441749FA79CA54174B1B78D3
:1008F0000133DAB2154B1A70144B1B781A46124B9F
:100900001B889A4217D300F023F8104B00221A706C
:100910000D4B00221A800A4B00221A704FF480728D
:100920000021084809F0DAFE05E000BF04E000BF3E
:1009300002E000BF00E000BF00BF0837BD4680BD39
:1009400016430024F8010024184300241A4300240D
:1009500080B584B000AF414BBB60414BDB781A4699
:1009600052001344FB800023FB733D4B5B781B025A
:100970001AB23B4B1B781BB213431BB29AB2BB6833
:100980001A80374B9A78BB689A70354BDA78BB6817
:10099000DA70334B5B791B021AB2314B1B791BB2F5
:1009A00013431BB29AB2BB689A802D4BDB791B02B2
:1009B0001AB22B4B9B791BB213431BB29AB2BB6882
:1009C000DA80274B5B7A1B021AB2254B1B7A1BB2CB
:1009D00013431BB29AB2BB681A810023BB8125E086
:1009E000BB890A331E4AD25CFB7B1146BA680233CC
:1009F0009B0013440A465A80BB890C33184AD35CC7
:100A00001B021AB2BB890B331549CB5C1BB21343D3
:100A10001AB2FB7B591CF97391B2BA6802339B007E
:100A200013440A469A80BB890333BB81BA89FB8889
:100A30009A42D5D3B86800F02DF90346002B06D0B2
:100A400040F20A420021B86809F048FE02E0054B76
:100A500001221A701037BD4680BD00BF0037002448
:100A6000F80100240A3B002490B58FB000AF7860F5
:100A700039607B689B88184600F06AF987ED080B9F
:100A80007B689B89184600F04DF9F8617FA3D3E994
:100A90000023C7E9042397ED085B97ED046B85EE0F
:100AA000067BFCEEC77B17EE903AFB81FB895A0868
:100AB0007349A1FB0212120A40F29A2101FB02F2D1
:100AC0009B1AFB817B68DB78012B2DD86D4AFB8953
:100AD00013803B68FA699A603968D7E90823C1E94D
:100AE000002300233B631AE03B6B1B013A6813446D
:100AF000FA699A603B6B1B013A68D118D7E9082361
:100B0000C1E900233B6B1B013A6813449B681946FB
:100B10005D4A3B6B42F823103B6B01333B63FB891F
:100B20003A6B9A42E0DBA7E0FA89564B1B88013307
:100B30009A4237DD534B1B88FA89D31A9BB2013B8B
:100B4000BB810023FB6229E04E4B1B885A1CFB6AC9
:100B500013441B013A681344FA699A60494B1B8895
:100B60005A1CFB6A13441B013A68D118D7E90823C1
:100B7000C1E90023434B1B885A1CFB6A13441B0129
:100B80003A68134499683F4B1B885A1CFB6A13440C
:100B90003D4A42F82310FB6A0133FB62BB89FA6AC3
:100BA0009A42D1DBFB891B013A681344FA699A60C7
:100BB000FB891B013A68D118D7E90823C1E9002352
:100BC000FB891B013A6813449A68FB8911462E4A37
:100BD00042F82310012387F82B3044E0FA8997F874
:100BE0002B301344264A82FB03121A445112DA179F
:100BF0008A1A40F29A2101FB02F29A1A1346FB86E6
:100C000097F82B307A6802339B0013449988FB8E47
:100C10001B013A68D418084600F084F80346A36024
:100C200097F82B3007EE903AB8EEE76B97ED047B20
:100C300026EE076BFB8E1B013A68134497ED087B89
:100C400036EE077B83ED007BFB8E1B013A68134475
:100C50009A68FB8E11460C4A42F8231097F82B3005
:100C6000013387F82B307B68DB7897F82B209A428A
:100C7000B4D3044AFB8E13803C37BD4690BD00BF01
:100C8000B107CEC41C430024F80200240000004039
:100C9000DF4FE13F80B485B000AF78600023FB8177
:100CA0007B68DB781B021AB27B689B781BB213430C
:100CB0001BB27B817B68DB787B737B681A887B89BE
:100CC00053409AB27B689B8853409AB27B68DB881A
:100CD0005340FB817B7B013B7A6802339B001344CA
:100CE0005A88FB895340FB817B7B013B7A68023346
:100CF0009B0013449A88FB895340FB817B7B013B1B
:100D00007B737B7B002BE5D17B681B89FA899A4238
:100D100001D0012300E0002318461437BD465DF8DA
:100D2000047B704780B483B000AF0346FB80FB8830
:100D30001B0A9BB29A01FB889B1003F03F031343ED
:100D400018460C37BD465DF8047B70470000000074
:100D500080B485B000AF0346FB80FB885B089BB284
:100D600007EE903AB8EEE76B9FED095B86EE057BE8
:100D700087ED027BD7E9022343EC172BB0EE470B3C
:100D80001437BD465DF8047B704700BFAFF30080A9
:100D9000000000000000504080B500AF0249034849
:100DA000FFF762FE00BF80BD600D00240037002405
:100DB00080B500AF4FF400620649074806F04EFFC9
:100DC000FFF7C1FCC82000F047FEFFF7ADFC00BFF5
:100DD00080BD00BF0C3B0024B843002480B500AFA9
:100DE0005B4BD3F880301B685A4A934268D0584B0B
:100DF000D3F880301B68584A934261D0544BD3F8E3
:100E000080301B68554A93425AD0514BD3F88030FA
:100E10001B68534A934253D04D4BD3F880301B6824
:100E2000504A93424CD04A4BD3F880301B684E4A0C
:100E3000934245D0464BD3F880301B684B4A9342CF
:100E40003ED0434BD3F880301B68494A934237D099
:100E50003F4BD3F880301B68464A934230D03C4B1E
:100E6000D3F880301B68444A934229D0384BD3F8DA
:100E700080301B68414A934222D0354BD3F88030F2
:100E80001B683F4A93421BD0314BD3F880301B681C
:100E90003C4A934214D02E4BD3F880301B683A4A18
:100EA00093420DD02A4BD3F880301B68374A9342C7
:100EB00006D0274BD3F880301B68354A934207D1C0
:100EC000234BD3F880301B685B68C3F5006306E0F2
:100ED0001F4BD3F880301B685B68C3F500632D4A55
:100EE00013602D4B00221A801CE02C4B1B682C4AEF
:100EF000D35C1846FFF736FC284B1B680133C3F35D
:100F00000A03264A1360274B1B78002B11D1224B72
:100F10001B8801339AB2204B1A801F4B1B88B3F5F4
:100F2000807F08D81D4B1A681A4B1B689A42DCD187
:100F300002E000BF00E000BF1A4B1B78002B04D07A
:100F4000FFF72AFF174B00221A7000BF80BD00BFB9
:100F5000B843002410000240280002404000024034
:100F6000580002407000024088000240A000024089
:100F7000B80002401004024028040240400402402D
:100F8000580402407004024088040240A004024059
:100F9000B804024010430024144300240C430024EE
:100FA0000C3B00240A3B002480B582B000AF0D4BFF
:100FB000D3F8D8300B4A43F00103C2F8D830094BBC
:100FC000D3F8D83003F001037B607B680022002156
:100FD0000D2000F04CFE0D2000F063FE00BF08372E
:100FE000BD4680BD0044025880B588B000AF07F10F
:100FF0000C0300221A605A609A60DA601A61234B6F
:10100000D3F8E030214A43F00403C2F8E0301F4B2C
:10101000D3F8E03003F00403BB60BB681B4BD3F88C
:10102000E0301A4A43F08003C2F8E030174BD3F89F
:10103000E03003F080037B607B68144BD3F8E03032
:10104000124A43F00103C2F8E030104BD3F8E0300D
:1010500003F001033B603B6800224FF4C0410C48A1
:1010600003F09EFE4FF4C043FB6001233B6100236D
:101070007B610023BB6107F10C031946044803F0B0
:10108000DFFC00BF2037BD4680BD00BF00440258D2
:101090000008025880B500AF00F0D2F800F04AFC1A
:1010A00000F00CF8FFF7A0FFFFF77EFF00F0D6FA84
:1010B00000F088FAFFF7FEFA00BFFDE780B59EB0AA
:1010C00000AF07F12C034C220021184609F006FB63
:1010D00007F10C0320220021184609F0FFFA022034
:1010E00003F092FE0023BB60484BDB6A474A23F0C3
:1010F0000103D362454BDB6A03F00103BB60444B41
:101100009B69434A43F440439361414B9B6903F419
:101110004043BB60BB6800BF3D4B9B6903F4005379
:10112000B3F5005FF8D13B4BD3F8F430394A43F0C4
:101130000203C2F8F430374BD3F8F43003F0020363
:101140007B607B6800233B60314B9B69304A43F4F2
:10115000404393612E4B9B6903F440433B602B4B10
:10116000DB6A2A4A43F00103D362284BDB6A03F0AF
:1011700001033B603B6800BF254B9B6903F40053B0
:10118000B3F5005FF8D10123FB624FF480333B637A
:1011900002233B6502237B650523BB65C023FB65FA
:1011A00002233B6608237B660223BB660823FB669B
:1011B00000233B6700237B6707F12C03184603F0ED
:1011C0005DFE0346002B01D000F066F83F23FB6074
:1011D00003233B6100237B610823BB614023FB6148
:1011E00040233B624FF480637B624023BB6207F184
:1011F0000C030421184604F09BFA0346002B01D08F
:1012000000F04AF800BF7837BD4680BD00040058A2
:10121000004802580044025880B584B000AFF8601E
:10122000B9607A607B689AB2FF23B968034806F018
:1012300087FC7B6818461037BD4680BD24430024D8
:1012400080B584B000AF3B4600221A605A609A60B5
:10125000DA6000F041FD01233B7000237B70002326
:101260007B601F233B7287237B720023BB720023AA
:10127000FB7201233B7301237B730023BB730023A9
:10128000FB733B46184600F05FFD042000F03CFD78
:1012900000BF1037BD4680BD80B400AF72B600BF3E
:1012A00000BFFDE780B483B000AF0A4BD3F8F43041
:1012B000084A43F00203C2F8F430064BD3F8F43086
:1012C00003F002037B607B6800BF0C37BD465DF80E
:1012D000047B70470044025880B400AF00BFFDE7B4
:1012E00080B400AF00BFFDE780B400AF00BFFDE7F2
:1012F00080B400AF00BFFDE780B400AF00BFFDE7E2
:1013000080B400AF00BFBD465DF8047B704780B479
:1013100000AF00BFBD465DF8047B704780B400AFEE
:1013200000BFBD465DF8047B704780B500AF00F09C
:1013300073FB00BF80BD000080B500AF024802F023
:101340006DF800BF80BD00BF4C44002480B500AFE5
:10135000024806F0CFFC00BF80BD00BFB8430024A8
:1013600080B400AF01231846BD465DF8047B70478A
:1013700080B582B000AF7860396009F001FA0346A9
:1013800016221A604FF0FF3318460837BD4680BD5D
:1013900080B582B000AF78604FF0FF317868FFF71A
:1013A000E7FF00BFFDE780B586B000AFF860B96029
:1013B0007A6000237B610AE0AFF300800146BB68DE
:1013C0005A1CBA60CAB21A707B6901337B617A69B0
:1013D0007B689A42F0DB7B6818461837BD4680BDB3
:1013E00080B483B000AF78604FF0FF3318460C37FD
:1013F000BD465DF8047B704780B483B000AF786071
:1014000039603B684FF400525A60002318460C378D
:10141000BD465DF8047B704780B483B000AF786050
:10142000012318460C37BD465DF8047B704780B435
:1014300085B000AFF860B9607A60002318461437B1
:10144000BD465DF8047B704780B586B000AF78601C
:10145000144A154BD31A7B617B693B61134B1B68A4
:10146000002B02D1114B124A1A60104B1A687B688C
:1014700013443A699A4207D209F082F903460C22D2
:101480001A604FF0FF3309E0084B1B68FB60074B05
:101490001A687B681344054A1360FB6818461837BE
:1014A000BD4680BD00000824000400002043002445
:1014B0001846002480B400AF374BD3F88830364A42
:1014C00043F47003C2F88830344B1B6803F00F03F9
:1014D000062B07D8314B1B6823F00F032F4A43F02C
:1014E000070313602E4B1B682D4A43F00103136062
:1014F0002B4B00221A612A4B1A682949294B1340A9
:101500000B60264B1B6803F00803002B07D0234B0E
:101510001B6823F00F03214A43F007031360204B9D
:1015200000229A611E4B0022DA611D4B00221A62D2
:101530001B4B1D4A9A621A4B1C4ADA62184B1C4A12
:101540001A63174B00225A63154B194A9A63144BBE
:101550000022DA63124B164A1A64114B00225A64B5
:101560000F4B1B680E4A23F4802313600C4B0022A0
:101570001A66104B1A68104B1340B3F1005F02D289
:101580000E4B01221A600E4B43F2D2021A6000BFCA
:10159000BD465DF8047B704700ED00E0002000527E
:1015A000004402587FEDF6EA000202020000FF014B
:1015B000800201010010005C0000FFFF0881005163
:1015C0000040005280B500AF224B234A1A60214BE5
:1015D0004FF4E1325A601F4B00229A601D4B0022EB
:1015E000DA601C4B00221A611A4B0C225A61194B0B
:1015F00000229A61174B00221A62164B00225A628F
:10160000144B00229A62134B00225A66114806F0CE
:1016100047FA0346002B01D0FFF73EFE00210D489C
:1016200008F051F90346002B01D0FFF735FE0021E9
:10163000084808F086F90346002B01D0FFF72CFE7E
:10164000044808F007F90346002B01D0FFF724FEF9
:1016500000BF80BD24430024000C005880B500AFBB
:10166000224B234A1A60214B4FF461325A601F4BC0
:1016700000229A601D4B0022DA601C4B00221A6186
:101680001A4B0C225A61194B00229A61174B002207
:10169000DA61164B00221A62144B00225A62134B75
:1016A00000229A62114806F0FBF90346002B01D094
:1016B000FFF7F2FD00210D4808F005F90346002B65
:1016C00001D0FFF7E9FD0021084808F03AF9034688
:1016D000002B01D0FFF7E0FD044808F0BBF80346FB
:1016E000002B01D0FFF7D8FD00BF80BDB843002418
:1016F000004C004080B5BCB000AF786007F1DC035F
:1017000000221A605A609A60DA601A6107F11803C1
:10171000C0220021184608F0E1FF7B681B68694A77
:10172000934247D14FF004024FF00003C7E906236C
:101730000023C7F8AC3007F11803184604F084FB07
:101740000346002B01D0FFF7A7FD5F4BD3F8F43021
:101750005D4A43F00803C2F8F4305B4BD3F8F43031
:1017600003F008037B617B69574BD3F8E030564A9E
:1017700043F00103C2F8E030534BD3F8E03003F0FC
:1017800001033B613B694FF4C063C7F8DC300223BF
:10179000C7F8E0300023C7F8E4300023C7F8E8308A
:1017A0000323C7F8EC3007F1DC031946474803F080
:1017B00047F982E07B681B68454A93427DD14FF030
:1017C00002024FF00003C7E906230023C7F8903058
:1017D00007F11803184604F037FB0346002B01D02D
:1017E000FFF75AFD384BD3F8E830374A43F400236B
:1017F000C2F8E830344BD3F8E83003F40023FB6040
:10180000FB68314BD3F8E0302F4A43F00403C2F8B1
:10181000E0302D4BD3F8E03003F00403BB60BB682D
:101820004FF44063C7F8DC300223C7F8E0300023F0
:10183000C7F8E4300023C7F8E8300823C7F8EC30D5
:1018400007F1DC031946234803F0FAF8224B234A38
:101850001A60214B3F225A601F4B00229A601E4B98
:101860000022DA601C4B4FF480621A611A4B00228E
:101870005A61194B00229A61174B4FF48072DA615A
:10188000154B00221A62144B00225A62124800F0D3
:101890009BFA0346002B01D0FFF7FEFC7B680E4A43
:1018A000C3F880200C4A7B68936300220021342017
:1018B00000F0DDF9342000F0F4F900BFF037BD4648
:1018C00080BD00BF000C00580044025800000258C0
:1018D000004C0040000802584C44002440000240E4
:1018E000DFF834D0FFF7E6FD0C480D490D4A002320
:1018F00002E0D458C4500433C4188C42F9D30A4AC5
:101900000A4C002301E013600432A242FBD308F02A
:101910003DFFFFF7BFFB70470000082400000024D4
:10192000D801002420C70008D80100241446002450
:10193000FEE7000080B582B000AF032000F08CF914
:1019400004F0ACF80246154B9B691B0A03F00F0329
:101950001349CB5C03F01F0322FA03F37B600F4BA8
:101960009B6903F00F030E4AD35C03F01F037A68F0
:1019700022FA03F30B4A13600B4A7B6813600F20B3
:1019800000F014F80346002B01D0012302E0FFF71A
:1019900089FC002318460837BD4680BD0044025824
:1019A00060C30008040000240000002480B582B059
:1019B00000AF7860154B1B78002B01D1012321E08B
:1019C000134B1A68114B1B7819464FF47A73B3FB0B
:1019D000F1F3B2FBF3F3184600F071F90346002B64
:1019E00001D001230EE07B680F2B0AD80022796812
:1019F0004FF0FF3000F03BF9064A7B68136000238C
:101A000000E0012318460837BD4680BD0C000024C5
:101A1000000000240800002480B400AF064B1B78AF
:101A20001A46064B1B681344044A136000BFBD46A8
:101A30005DF8047B704700BF0C000024C444002400
:101A400080B400AF034B1B681846BD465DF8047BAD
:101A5000704700BFC444002480B584B000AF7860F4
:101A6000FFF7EEFFB8607B68FB60FB68B3F1FF3FF8
:101A700005D00A4B1B781A46FB681344FB6000BF75
:101A8000FFF7DEFF0246BB68D31AFA689A42F7D81E
:101A900000BF00BF1037BD4680BD00BF0C00002452
:101AA00080B400AF034B1B681B0C1846BD465DF8A5
:101AB000047B70470010005C80B485B000AF786094
:101AC0007B6803F00703FB600B4BDB68BB60BA6805
:101AD0004FF6FF031340BB60FB681A02BB681A4352
:101AE000064B1343BB60044ABB68D36000BF143786
:101AF000BD465DF8047B704700ED00E00000FA058C
:101B000080B400AF044BDB681B0A03F007031846E0
:101B1000BD465DF8047B704700ED00E080B483B003
:101B200000AF0346FB80B7F90630002B0BDBFB88C8
:101B300003F01F020749B7F906305B09012000FADC
:101B400002F241F8232000BF0C37BD465DF8047B4C
:101B5000704700BF00E100E080B483B000AF0346EF
:101B60003960FB80B7F90630002B0ADB3B68DAB23C
:101B70000C49B7F906301201D2B20B4483F80023A6
:101B80000AE03B68DAB20849FB8803F00F03043B24
:101B90001201D2B20B441A7600BF0C37BD465DF875
:101BA000047B704700E100E000ED00E080B489B004
:101BB00000AFF860B9607A60FB6803F00703FB616F
:101BC000FB69C3F10703042B28BF0423BB61FB6936
:101BD0000433062B02D9FB69033B00E000237B6141
:101BE0004FF0FF32BB6902FA03F3DA43BB681A40D5
:101BF0007B699A404FF0FF317B6901FA03F3D943C7
:101C00007B680B40134318462437BD465DF8047BC0
:101C10007047000080B582B000AF78607B68013B00
:101C2000B3F1807F01D301230FE00A4A7B68013BB7
:101C300053600F214FF0FF30FFF78EFF054B00225E
:101C40009A60044B07221A60002318460837BD46E5
:101C500080BD00BF10E000E080B582B000AF7860CA
:101C60007868FFF729FF00BF0837BD4680BD80B503
:101C700086B000AF0346B9607A60FB81FFF740FF92
:101C800078617A68B9687869FFF790FF0246B7F91A
:101C90000E3011461846FFF75FFF00BF1837BD46EC
:101CA00080BD80B582B000AF0346FB80B7F9063037
:101CB0001846FFF733FF00BF0837BD4680BD80B52B
:101CC00082B000AF78607868FFF7A4FF034618463B
:101CD0000837BD4680BD000080B400AFBFF35F8F02
:101CE00000BF074B5B6A064A23F480335362054BFF
:101CF00000225A6000BFBD465DF8047B704700BFFC
:101D000000ED00E090ED00E080B483B000AF7860BB
:101D10000B4A7B6843F0010353600A4B5B6A094A34
:101D200043F480335362BFF34F8F00BFBFF36F8F15
:101D300000BF00BF0C37BD465DF8047B704700BF95
:101D400090ED00E000ED00E080B483B000AF78607B
:101D50007B685A781B4B9A601A4B1B69194A23F00F
:101D600001031361174A7B685B68D3607B681B7B48
:101D70001A077B68DB7A1B061A437B689B7ADB04B5
:101D80001A437B685B7B9B041A437B689B7B5B04E9
:101D90001A437B68DB7B1B041A437B685B7A1B025C
:101DA0001A437B681B7A5B0013437A6812781146EA
:101DB000044A0B43136100BF0C37BD465DF8047B3A
:101DC000704700BF90ED00E080B586B000AF78604E
:101DD000FFF736FE38617B68002B01D1012316E343
:101DE0007B681B68664A93424AD07B681B68654AD9
:101DF000934245D07B681B68634A934240D07B681E
:101E00001B68624A93423BD07B681B68604A9342DE
:101E100036D07B681B685F4A934231D07B681B6871
:101E20005D4A93422CD07B681B685C4A934227D062
:101E30007B681B685A4A934222D07B681B68594AC8
:101E400093421DD07B681B68574A934218D07B6829
:101E50001B68564A934213D07B681B68544A9342CE
:101E60000ED07B681B68534A934209D07B681B687D
:101E7000514A934204D07B681B68504A934201D177
:101E8000012300E00023002B00F03B817B6802224D
:101E900083F835207B68002283F834207B681B6838
:101EA000374A93424AD07B681B68364A934245D0F2
:101EB0007B681B68344A934240D07B681B68334A76
:101EC00093423BD07B681B68314A934236D07B6893
:101ED0001B68304A934231D07B681B682E4A93427C
:101EE0002CD07B681B682D4A934227D07B681B68E7
:101EF0002B4A934222D07B681B682A4A93421DD00A
:101F00007B681B68284A934218D07B681B68274A65
:101F1000934213D07B681B68254A93420ED07B689E
:101F20001B68244A934209D07B681B68224A93426B
:101F300004D07B681B68214A934208D17B681B68E8
:101F40001A687B681B6822F001021A6007E07B6850
:101F50001B681A687B681B6822F001021A602FE078
:101F6000FFF76EFD02463B69D31A052B28D97B6823
:101F700020225A657B68032283F83520012346E23C
:101F80001000024028000240400002405800024079
:101F90007000024088000240A0000240B8000240E9
:101FA0001004024028040240400402405804024049
:101FB0007004024088040240A0040240B8040240B9
:101FC0007B681B681B6803F00103002BC8D17B688A
:101FD0001B681B687B617A69834B13407B617B685C
:101FE0009A687B68DB681A437B681B691A437B68C5
:101FF0005B691A437B689B691A437B68DB691A43F8
:102000007B681B6A13437A6913437B617B685B6A55
:10201000042B07D17B68DA6A7B681B6B13437A69F0
:1020200013437B61714B1A68714B1340B3F1005F2E
:1020300028D37B685B68282B03D97B685B682E2BD1
:1020400017D97B685B683E2B03D97B685B68422BA2
:102050000FD97B685B68462B03D97B685B68482B8C
:1020600007D97B685B684E2B05D97B685B68522B70
:1020700001D8012300E00023002B03D07B6943F447
:1020800080137B617B681B687A691A607B681B68B8
:102090005B697B617B6923F007037B617B685B6A1B
:1020A0007A6913437B617B685B6A042B17D17B6879
:1020B0009B6A7A6913437B617B68DB6A002B0ED0D5
:1020C000786802F033FB0346002B08D07B6840227F
:1020D0005A657B68012283F83520012397E17B68EC
:1020E0001B687A695A61786802F06EFA0346BB6031
:1020F0007B68DB6D03F01F033F229A40BB689A6048
:10210000CDE07B681B683B4A934222D07B681B680A
:10211000394A93421DD07B681B68384A934218D0D5
:102120007B681B68364A934213D07B681B68354A2C
:1021300093420ED07B681B68334A934209D07B6878
:102140001B68324A934204D07B681B68304A934232
:1021500001D1012300E00023002B00F097807B6871
:102160001B68244A934221D07B681B68224A934211
:102170001CD07B681B68214A934217D07B681B6880
:102180001F4A934212D07B681B681E4A93420DD0AF
:102190007B681B681C4A934208D07B681B681B4AFB
:1021A000934203D07B681B68194A93427B680222E2
:1021B00083F835207B68002283F834207B681B6815
:1021C0001B687B617A69134B13407B617B689B685A
:1021D000402B21D07B689B68802B02D14FF4804339
:1021E0001BE0002319E000BF3F8010FE0010005CE0
:1021F0000000FFFF085402581C5402583054025883
:1022000044540258585402586C540258805402588E
:10221000945402580F00FEFF10237A68D268D20847
:102220001A437B681B69DB081A437B685B69DB0820
:102230001A437B689B69DB081A437B68DB69DB0810
:102240001A437B681B6A1B0913437A6913437B613A
:102250007B681B687A691A607B681B681A466E4B3C
:1022600013446E4AA2FB03231B099A007B68DA65BC
:10227000786802F0A9F90346FB607B68DB6D03F028
:102280001F0301229A40FB685A6008E07B684022E5
:102290005A657B68032283F835200123B7E07B6809
:1022A0001B685F4A934272D07B681B685D4A934209
:1022B0006DD07B681B685C4A934268D07B681B6862
:1022C0005A4A934263D07B681B68594A93425ED056
:1022D0007B681B68574A934259D07B681B68564AF3
:1022E000934254D07B681B68544A93424FD07B681A
:1022F0001B68534A93424AD07B681B68514A9342F9
:1023000045D07B681B68504A934240D07B681B686D
:102310004E4A93423BD07B681B684D4A934236D06D
:102320007B681B684B4A934231D07B681B684A4AE2
:1023300093422CD07B681B68484A934227D07B6825
:102340001B68474A934222D07B681B68454A9342E8
:102350001DD07B681B68444A934218D07B681B6879
:10236000424A934213D07B681B68414A93420ED085
:102370007B681B683F4A934209D07B681B683E4AD2
:10238000934204D07B681B683C4A934201D10123ED
:1023900000E00023002B32D0786802F043FA7B681B
:1023A0009B68802B02D17B6800225A607B685A6848
:1023B0007B681B6ED2B21A607B685B6E7A68926E25
:1023C0005A607B685B68002B10D07B685B68082BC9
:1023D0000CD8786802F0C0FA7B68DB6E00221A60C5
:1023E0007B681B6F7A68526F5A6008E07B68002236
:1023F000DA667B6800221A677B6800225A677B686E
:1024000000225A657B68012283F835200023184694
:102410001837BD4680BD00BFF8ABFDA7CDCCCCCCF6
:1024200010000240280002404000024058000240D4
:102430007000024088000240A0000240B800024044
:1024400010040240280402404004024058040240A4
:102450007004024088040240A0040240B804024014
:10246000085402581C54025830540258445402581C
:10247000585402586C5402588054025894540258CC
:1024800080B586B000AFF860B9607A603B60002329
:10249000FB75FB68002B01D1012326E2FB6893F852
:1024A0003430012B01D102231FE2FB68012283F8A3
:1024B0003420FB6893F83530DBB2012B40F00A8200
:1024C000FB68022283F83520FB6800225A65FB680E
:1024D0001B68684A93424AD0FB681B68664A93426D
:1024E00045D0FB681B68654A934240D0FB681B6877
:1024F000634A93423BD0FB681B68624A934236D0E2
:10250000FB681B68604A934231D0FB681B685F4AD6
:1025100093422CD0FB681B685D4A934227D0FB682E
:102520001B685C4A934222D0FB681B685A4A93425C
:102530001DD0FB681B68594A934218D0FB681B6882
:10254000574A934213D0FB681B68564A93420ED0F9
:10255000FB681B68544A934209D0FB681B68534AC6
:10256000934204D0FB681B68514A934208D1FB6830
:102570001B681A68FB681B6822F001021A6007E0FA
:10258000FB681B681A68FB681B6822F001021A606E
:102590003B687A68B968F86801F06AFEFB681B68F6
:1025A000344A93424AD0FB681B68334A934245D071
:1025B000FB681B68314A934240D0FB681B68304A75
:1025C00093423BD0FB681B682E4A934236D0FB688F
:1025D0001B682D4A934231D0FB681B682B4A9342FB
:1025E0002CD0FB681B682A4A934227D0FB681B68E3
:1025F000284A934222D0FB681B68274A93421DD089
:10260000FB681B68254A934218D0FB681B68244A64
:10261000934213D0FB681B68224A93420ED0FB689A
:102620001B68214A934209D0FB681B681F4A9342EA
:1026300004D0FB681B681E4A934201D1012300E0CD
:102640000023002B36D0FB681B681B6823F01E029A
:10265000FB681B6842F016021A60FB681B6C002BBB
:102660003ED0FB681B681A68FB681B6842F00802D2
:102670001A6035E01000024028000240400002408D
:10268000580002407000024088000240A000024052
:10269000B8000240100402402804024040040240F6
:1026A000580402407004024088040240A004024022
:1026B000B8040240FB681B681B6823F00E02FB682D
:1026C0001B6842F00A021A60FB681B6C002B07D0E3
:1026D000FB681B681A68FB681B6842F004021A60FA
:1026E000FB681B68834A934272D0FB681B68824A6E
:1026F00093426DD0FB681B68804A934268D0FB68A8
:102700001B687F4A934263D0FB681B687D4A9342F3
:102710005ED0FB681B687C4A934259D0FB681B68FB
:102720007A4A934254D0FB681B68794A93424FD04F
:10273000FB681B68774A93424AD0FB681B68764A5D
:10274000934245D0FB681B68744A934240D0FB68B3
:102750001B68734A93423BD0FB681B68714A9342E3
:1027600036D0FB681B68704A934231D0FB681B6807
:102770006E4A93422CD0FB681B686D4A934227D067
:10278000FB681B686B4A934222D0FB681B686A4A4D
:1027900093421DD0FB681B68684A934218D0FB68BF
:1027A0001B68674A934213D0FB681B68654A9342D3
:1027B0000ED0FB681B68644A934209D0FB681B6813
:1027C000624A934204D0FB681B68614A934201D17C
:1027D000012300E00023002B1AD0FB681B6E1B684E
:1027E00003F48033002B07D0FB681B6E1A68FB686C
:1027F0001B6E42F480721A60FB68DB6E002B07D000
:10280000FB68DB6E1A68FB68DB6E42F480721A604C
:10281000FB681B68374A93424AD0FB681B68364AFC
:10282000934245D0FB681B68344A934240D0FB6812
:102830001B68334A93423BD0FB681B68314A934282
:1028400036D0FB681B68304A934231D0FB681B6866
:102850002E4A93422CD0FB681B682D4A934227D006
:10286000FB681B682B4A934222D0FB681B682A4AEC
:1028700093421DD0FB681B68284A934218D0FB681E
:102880001B68274A934213D0FB681B68254A934272
:102890000ED0FB681B68244A934209D0FB681B6872
:1028A000224A934204D0FB681B68214A934208D114
:1028B000FB681B681A68FB681B6842F001021A601B
:1028C00012E0FB681B681A68FB681B6842F0010293
:1028D0001A6009E0FB684FF400625A65FB68002249
:1028E00083F834200123FB75FB7D18461837BD465D
:1028F00080BD00BF1000024028000240400002409E
:10290000580002407000024088000240A0000240CF
:10291000B800024010040240280402404004024073
:10292000580402407004024088040240A00402409F
:10293000B8040240085402581C540258305402583B
:1029400044540258585402586C5402588054025847
:102950009454025880B586B000AF7860FFF770F8E5
:1029600038617B68002B01D10123DCE27B6893F89E
:102970003530DBB2022B08D07B6880225A657B6839
:10298000002283F834200123CDE27B681B68764A5D
:1029900093424AD07B681B68744A934245D07B6857
:1029A0001B68734A934240D07B681B68714A93420C
:1029B0003BD07B681B68704A934236D07B681B68AB
:1029C0006E4A934231D07B681B686D4A93422CD08B
:1029D0007B681B686B4A934227D07B681B686A4AF6
:1029E000934222D07B681B68684A93421DD07B6863
:1029F0001B68674A934218D07B681B68654A9342FC
:102A000013D07B681B68644A93420ED07B681B68B6
:102A1000624A934209D07B681B68614A934204D0A2
:102A20007B681B685F4A934201D1012300E00023C9
:102A3000002B13D07B681B681A687B681B6822F028
:102A40001E021A607B681B685A697B681B6822F04B
:102A500080025A617B681B687B610AE07B681B68A7
:102A60001A687B681B6822F00E021A607B681B687C
:102A70007B617B681B683C4A934272D07B681B6811
:102A80003A4A93426DD07B681B68394A934268D0BA
:102A90007B681B68374A934263D07B681B68364A61
:102AA00093425ED07B681B68344A934259D07B685E
:102AB0001B68334A934254D07B681B68314A934267
:102AC0004FD07B681B68304A93424AD07B681B68B2
:102AD0002E4A934245D07B681B682D4A934240D0D2
:102AE0007B681B682B4A93423BD07B681B682A4A51
:102AF000934236D07B681B68284A934231D07B686A
:102B00001B68274A93422CD07B681B68254A934256
:102B100027D07B681B68244A934222D07B681B68BD
:102B2000224A93421DD07B681B68214A934218D0E9
:102B30007B681B681F4A934213D07B681B681E4A40
:102B400093420ED07B681B681C4A934209D07B6875
:102B50001B681B4A934204D07B681B68194A934246
:102B600032D1012331E000BF1000024028000240B2
:102B700040000240580002407000024088000240BD
:102B8000A0000240B80002401004024028040240A5
:102B9000400402405804024070040240880402408D
:102BA000A0040240B8040240085402581C540258C1
:102BB0003054025844540258585402586C54025825
:102BC00080540258945402580023002B07D07B688D
:102BD0001B6E1A687B681B6E22F480721A607B6819
:102BE0001B686D4A93424AD07B681B686B4A9342CC
:102BF00045D07B681B686A4A934240D07B681B685B
:102C0000684A93423BD07B681B68674A934236D040
:102C10007B681B68654A934231D07B681B68644AB5
:102C200093422CD07B681B68624A934227D07B6812
:102C30001B68614A934222D07B681B685F4A9342BB
:102C40001DD07B681B685E4A934218D07B681B6866
:102C50005C4A934213D07B681B685B4A93420ED058
:102C60007B681B68594A934209D07B681B68584AA5
:102C7000934204D07B681B68564A934208D17B6814
:102C80001B681A687B681B6822F001021A6007E063
:102C90007B681B681A687B681B6822F001021A6057
:102CA00013E0FEF7CDFE02463B69D31A052B0CD983
:102CB0007B6820225A657B68032283F835207B6875
:102CC000002283F8342001232DE17B691B6803F087
:102CD0000103002BE5D17B681B682F4A93424AD041
:102CE0007B681B682D4A934245D07B681B682C4A41
:102CF000934240D07B681B682A4A93423BD07B6852
:102D00001B68294A934236D07B681B68274A934246
:102D100031D07B681B68264A93422CD07B681B68A5
:102D2000244A934227D07B681B68234A934222D0CF
:102D30007B681B68214A93421DD07B681B68204A30
:102D4000934218D07B681B681E4A934213D07B685D
:102D50001B681D4A93420ED07B681B681B4A934236
:102D600009D07B681B681A4A934204D07B681B68B1
:102D7000184A934201D1012300E00023002B2BD0FD
:102D80007B689B6DBB607B68DB6D03F01F033F229C
:102D90009A40BB689A602AE0100002402800024076
:102DA000400002405800024070000240880002408B
:102DB000A0000240B8000240100402402804024073
:102DC000400402405804024070040240880402405B
:102DD000A0040240B80402407B689B6DFB607B68E6
:102DE000DB6D03F01F0301229A40FB685A607B6889
:102DF0001B684F4A934272D07B681B684D4A9342CE
:102E00006DD07B681B684C4A934268D07B681B6816
:102E10004A4A934263D07B681B68494A93425ED01A
:102E20007B681B68474A934259D07B681B68464AB7
:102E3000934254D07B681B68444A93424FD07B68CE
:102E40001B68434A93424AD07B681B68414A9342BD
:102E500045D07B681B68404A934240D07B681B6822
:102E60003E4A93423BD07B681B683D4A934236D032
:102E70007B681B683B4A934231D07B681B683A4AA7
:102E800093422CD07B681B68384A934227D07B68DA
:102E90001B68374A934222D07B681B68354A9342AD
:102EA0001DD07B681B68344A934218D07B681B682E
:102EB000324A934213D07B681B68314A93420ED04A
:102EC0007B681B682F4A934209D07B681B682E4A97
:102ED000934204D07B681B682C4A934201D10123A2
:102EE00000E00023002B15D07B685B6E7A68926E41
:102EF0005A607B68DB6E002B0CD07B68DB6E1A6837
:102F00007B68DB6E22F480721A607B681B6F7A68C4
:102F1000526F5A607B68012283F835207B6800225B
:102F200083F83420002318461837BD4680BD00BF03
:102F300010000240280002404000024058000240B9
:102F40007000024088000240A0000240B800024029
:102F50001004024028040240400402405804024089
:102F60007004024088040240A0040240B8040240F9
:102F7000085402581C540258305402584454025801
:102F8000585402586C5402588054025894540258B1
:102F900080B584B000AF78607B68002B01D101233D
:102FA00037E27B6893F83530DBB2022B04D07B68C4
:102FB00080225A6501232CE27B681B685C4A93429D
:102FC0004AD07B681B685B4A934245D07B681B688C
:102FD000594A934240D07B681B68584A93423BD081
:102FE0007B681B68564A934236D07B681B68554AFB
:102FF000934231D07B681B68534A93422CD07B6844
:103000001B68524A934227D07B681B68504A934200
:1030100022D07B681B684F4A93421DD07B681B6897
:103020004D4A934218D07B681B684C4A934213D098
:103030007B681B684A4A93420ED07B681B68494AEA
:10304000934209D07B681B68474A934204D07B684F
:103050001B68464A934201D1012300E00023002B64
:1030600000F086807B68042283F835207B681B682B
:103070002F4A93424AD07B681B682E4A934245D020
:103080007B681B682C4A934240D07B681B682B4AA4
:1030900093423BD07B681B68294A934236D07B68B9
:1030A0001B68284A934231D07B681B68264A9342AA
:1030B0002CD07B681B68254A934227D07B681B680D
:1030C000234A934222D07B681B68224A93421DD038
:1030D0007B681B68204A934218D07B681B681F4A94
:1030E000934213D07B681B681D4A93420ED07B68C5
:1030F0001B681C4A934209D07B681B681A4A93429A
:1031000004D07B681B68194A934208D17B681B680E
:103110001A687B681B6822F001021A6078E17B68FC
:103120001B681A687B681B6822F001021A606FE155
:1031300010000240280002404000024058000240B7
:103140007000024088000240A0000240B800024027
:103150001004024028040240400402405804024087
:103160007004024088040240A0040240B8040240F7
:103170007B681B681A687B681B6822F00E021A6065
:103180007B681B686C4A93424AD07B681B686B4A19
:10319000934245D07B681B68694A934240D07B6864
:1031A0001B68684A93423BD07B681B68664A93421F
:1031B00036D07B681B68654A934231D07B681B68B8
:1031C000634A93422CD07B681B68624A934227D0A3
:1031D0007B681B68604A934222D07B681B685F4A09
:1031E00093421DD07B681B685D4A934218D07B6870
:1031F0001B685C4A934213D07B681B685A4A93420F
:103200000ED07B681B68594A934209D07B681B68C3
:10321000574A934204D07B681B68564A934208D1B0
:103220007B681B681A687B681B6822F001021A60C1
:1032300007E07B681B681A687B681B6822F0010244
:103240001A607B681B683C4A934272D07B681B689B
:103250003A4A93426DD07B681B68394A934268D0E2
:103260007B681B68374A934263D07B681B68364A89
:1032700093425ED07B681B68344A934259D07B6886
:103280001B68334A934254D07B681B68314A93428F
:103290004FD07B681B68304A93424AD07B681B68DA
:1032A0002E4A934245D07B681B682D4A934240D0FA
:1032B0007B681B682B4A93423BD07B681B682A4A79
:1032C000934236D07B681B68284A934231D07B6892
:1032D0001B68274A93422CD07B681B68254A93427F
:1032E00027D07B681B68244A934222D07B681B68E6
:1032F000224A93421DD07B681B68214A934218D012
:103300007B681B681F4A934213D07B681B681E4A68
:1033100093420ED07B681B681C4A934209D07B689D
:103320001B681B4A934204D07B681B68194A93426E
:1033300032D1012331E000BF1000024028000240DA
:1033400040000240580002407000024088000240E5
:10335000A0000240B80002401004024028040240CD
:1033600040040240580402407004024088040240B5
:10337000A0040240B8040240085402581C540258E9
:103380003054025844540258585402586C5402584D
:1033900080540258945402580023002B28D07B6894
:1033A0001B6E1A687B681B6E22F480721A607B6841
:1033B0009B6DFB607B68DB6D03F01F0301229A406D
:1033C000FB685A607B685B6E7A68926E5A607B68B5
:1033D000DB6E002B0CD07B68DB6E1A687B68DB6EC3
:1033E00022F480721A607B681B6F7A68526F5A6091
:1033F0007B68012283F835207B68002283F8342023
:103400007B681B6D002B03D07B681B6D7868984729
:10341000002318461037BD4680BD00BF80B58AB076
:1034200000AF78600023FB60674B1B68674AA2FB14
:1034300003239B0A7B627B689B6D3B627B689B6D71
:10344000FB613B6A1B68BB61FB691B687B617B6836
:103450001B685F4A93424AD07B681B685D4A93426F
:1034600045D07B681B685C4A934240D07B681B68F0
:103470005A4A93423BD07B681B68594A934236D0E4
:103480007B681B68574A934231D07B681B68564A59
:1034900093422CD07B681B68544A934227D07B68A8
:1034A0001B68534A934222D07B681B68514A93425F
:1034B0001DD07B681B68504A934218D07B681B68FC
:1034C0004E4A934213D07B681B684D4A93420ED0FC
:1034D0007B681B684B4A934209D07B681B684A4A49
:1034E000934204D07B681B68484A934201D1012370
:1034F00000E00023002B00F02B847B68DB6D03F0E1
:103500001F0308229A40BB691340002B00F0A280E1
:103510007B681B682E4A93424AD07B681B682D4A01
:10352000934245D07B681B682B4A934240D07B680E
:103530001B682A4A93423BD07B681B68284A934207
:1035400036D07B681B68274A934231D07B681B6862
:10355000254A93422CD07B681B68244A934227D08B
:103560007B681B68224A934222D07B681B68214AF1
:1035700093421DD07B681B681F4A934218D07B681A
:103580001B681E4A934213D07B681B681C4A9342F7
:103590000ED07B681B681B4A934209D07B681B686E
:1035A000194A934204D07B681B68184A93422FD172
:1035B0007B681B681B6803F00403002B14BF012306
:1035C0000023DBB22EE000BF00000024B5814E1BBB
:1035D0001000024028000240400002405800024013
:1035E0007000024088000240A0000240B800024083
:1035F00010040240280402404004024058040240E3
:103600007004024088040240A0040240B804024052
:103610007B681B681B6803F00803002B14BF0123A1
:103620000023DBB2002B15D07B681B681A687B680F
:103630001B6822F004021A607B68DB6D03F01F0335
:1036400008229A403B6A9A607B685B6D43F00102F6
:103650007B685A657B68DB6D03F01F03BA6922FA49
:1036600003F303F00103002B6ED07B681B68694AEB
:1036700093424AD07B681B68674A934245D07B6877
:103680001B68664A934240D07B681B68644A934239
:103690003BD07B681B68634A934236D07B681B68CB
:1036A000614A934231D07B681B68604A93422CD0B8
:1036B0007B681B685E4A934227D07B681B685D4A23
:1036C000934222D07B681B685B4A93421DD07B6883
:1036D0001B685A4A934218D07B681B68584A934229
:1036E00013D07B681B68574A93420ED07B681B68D7
:1036F000554A934209D07B681B68544A934204D0D0
:103700007B681B68524A93420AD17B681B685B69DD
:1037100003F08003002B14BF01230023DBB203E07E
:103720007B681B681B680023002B0DD07B68DB6D5A
:1037300003F01F0301229A403B6A9A607B685B6D2D
:1037400043F002027B685A657B68DB6D03F01F0360
:1037500004229A40BB691340002B00F08F807B68E5
:103760001B682C4A93424AD07B681B682A4A9342C2
:1037700045D07B681B68294A934240D07B681B6810
:10378000274A93423BD07B681B68264A934236D037
:103790007B681B68244A934231D07B681B68234AAC
:1037A00093422CD07B681B68214A934227D07B68C8
:1037B0001B68204A934222D07B681B681E4A9342B2
:1037C0001DD07B681B681D4A934218D07B681B681C
:1037D0001B4A934213D07B681B681A4A93420ED04F
:1037E0007B681B68184A934209D07B681B68174A9C
:1037F000934204D07B681B68154A93422AD17B68A8
:103800001B681B6803F00203002B14BF0123002375
:10381000DBB223E0100002402800024040000240DA
:10382000580002407000024088000240A0000240A0
:10383000B800024010040240280402404004024044
:10384000580402407004024088040240A004024070
:10385000B80402407B681B681B680023002B0DD056
:103860007B68DB6D03F01F0304229A403B6A9A6079
:103870007B685B6D43F004027B685A657B68DB6D97
:1038800003F01F0310229A40BB691340002B00F085
:10389000A6807B681B68854A93424AD07B681B6878
:1038A000834A934245D07B681B68824A934240D04A
:1038B0007B681B68804A93423BD07B681B687F4AC9
:1038C000934236D07B681B687D4A934231D07B6837
:1038D0001B687C4A93422CD07B681B687A4A9342CF
:1038E00027D07B681B68794A934222D07B681B688B
:1038F000774A93421DD07B681B68764A934218D062
:103900007B681B68744A934213D07B681B68734AB8
:1039100093420ED07B681B68714A934209D07B6842
:103920001B68704A934204D07B681B686E4A9342BE
:103930000AD17B681B681B6803F00803002B14BFC7
:1039400001230023DBB209E07B681B681B6803F0DE
:103950000403002B14BF01230023DBB2002B3ED055
:103960007B68DB6D03F01F0310229A403B6A9A606C
:103970007B681B681B6803F48023002B18D07B68CE
:103980001B681B6803F40023002B08D17B681B6CA9
:10399000002B24D07B681B6C786898471FE07B68FD
:1039A0009B6C002B1BD07B689B6C7868984716E05B
:1039B0007B681B681B6803F48073002B07D17B684E
:1039C0001B681A687B681B6822F008021A607B6813
:1039D0001B6C002B03D07B681B6C786898477B6856
:1039E000DB6D03F01F0320229A40BB691340002BBC
:1039F00000F010817B681B682C4A93424AD07B6898
:103A00001B682B4A934245D07B681B68294A934226
:103A100040D07B681B68284A93423BD07B681B6878
:103A2000264A934236D07B681B68254A934231D0A0
:103A30007B681B68234A93422CD07B681B68224A10
:103A4000934227D07B681B68204A934222D07B6830
:103A50001B681F4A93421DD07B681B681D4A934216
:103A600018D07B681B681C4A934213D07B681B6884
:103A70001A4A93420ED07B681B68194A934209D0B8
:103A80007B681B68174A934204D07B681B68164A00
:103A900093422BD17B681B681B6803F01003002B3B
:103AA00014BF01230023DBB22AE000BF1000024054
:103AB00028000240400002405800024070000240CE
:103AC00088000240A0000240B800024010040240FA
:103AD000280402404004024058040240700402409E
:103AE00088040240A0040240B80402407B681B68BE
:103AF0001B6803F00203002B14BF01230023DBB279
:103B0000002B00F087807B68DB6D03F01F03202211
:103B10009A403B6A9A607B6893F83530DBB2042B9D
:103B200039D17B681B681A687B681B6822F0160213
:103B30001A607B681B685A697B681B6822F08002E8
:103B40005A617B681B6C002B03D17B689B6C002B3C
:103B500007D07B681B681A687B681B6822F0080224
:103B60001A607B68DB6D03F01F033F229A403B6ABB
:103B70009A607B68012283F835207B68002283F8F5
:103B800034207B681B6D002B00F04A837B681B6D23
:103B90007868984744E37B681B681B6803F48023BC
:103BA000002B18D07B681B681B6803F40023002BD4
:103BB00008D17B685B6C002B2CD07B685B6C7868D1
:103BC000984727E07B68DB6B002B23D07B68DB6B9F
:103BD000786898471EE07B681B681B6803F4807355
:103BE000002B0FD17B681B681A687B681B6822F06A
:103BF00010021A607B68012283F835207B6800225E
:103C000083F834207B68DB6B002B03D07B68DB6B95
:103C1000786898477B685B6D002B00F006837B68B3
:103C20005B6D03F00103002B00F088807B680422A9
:103C300083F835207B681B687A4A93424AD07B68B8
:103C40001B68794A934245D07B681B68774A934248
:103C500040D07B681B68764A93423BD07B681B68E8
:103C6000744A934236D07B681B68734A934231D0C2
:103C70007B681B68714A93422CD07B681B68704A32
:103C8000934227D07B681B686E4A934222D07B68A0
:103C90001B686D4A93421DD07B681B686B4A934238
:103CA00018D07B681B686A4A934213D07B681B68F4
:103CB000684A93420ED07B681B68674A934209D0DA
:103CC0007B681B68654A934204D07B681B68644A22
:103CD000934208D17B681B681A687B681B6822F0D6
:103CE00001021A6007E07B681B681A687B681B6822
:103CF00022F001021A60FB680133FB607A6A9A4283
:103D000007D37B681B681B6803F00103002BF2D10B
:103D100000E000BF7B681B681B6803F00103002BF9
:103D200004D07B68032283F8352003E07B680122FE
:103D300083F835207B68002283F834207B68DB6CB5
:103D4000002B00F072827B68DB6C786898476CE22D
:103D50007B681B68434A934222D07B681B68424AB7
:103D600093421DD07B681B68404A934218D07B6801
:103D70001B683F4A934213D07B681B683D4A9342BD
:103D80000ED07B681B683C4A934209D07B681B6855
:103D90003A4A934204D07B681B68394A934201D166
:103DA000012300E00023002B00F03F827B681B68AA
:103DB0001B683B617B68DB6D03F01F0304229A40A4
:103DC0007B691340002B00F0CD803B6903F00403B6
:103DD000002B00F0C7807B68DB6D03F01F0304221B
:103DE0009A40FB695A603B6903F40043002B49D0B9
:103DF0003B6903F48033002B09D17B689B6C002B5B
:103E000000F010827B689B6C786898470AE27B68B8
:103E10001B6C002B00F006827B681B6C786898474F
:103E200000E200BF100002402800024040000240B3
:103E3000580002407000024088000240A00002408A
:103E4000B80002401004024028040240400402402E
:103E5000580402407004024088040240A00402405A
:103E6000B8040240085402581C54025830540258F6
:103E700044540258585402586C5402588054025802
:103E8000945402583B6903F02003002B60D17B68F7
:103E90001B687F4A93424AD07B681B687D4A9342E5
:103EA00045D07B681B687C4A934240D07B681B6886
:103EB0007A4A93423BD07B681B68794A934236D05A
:103EC0007B681B68774A934231D07B681B68764ACF
:103ED00093422CD07B681B68744A934227D07B683E
:103EE0001B68734A934222D07B681B68714A9342D5
:103EF0001DD07B681B68704A934218D07B681B6892
:103F00006E4A934213D07B681B686D4A93420ED071
:103F10007B681B686B4A934209D07B681B686A4ABE
:103F2000934204D07B681B68684A934208D17B683F
:103F30001B681A687B681B6822F008021A6007E099
:103F40007B681B681A687B681B6822F004021A6091
:103F50007B681B6C002B00F065817B681B6C7868AC
:103F600098475FE17B68DB6D03F01F0302229A40F4
:103F70007B691340002B00F0C5803B6903F002030E
:103F8000002B00F0BF807B68DB6D03F01F03022273
:103F90009A40FB695A603B6903F40043002B18D038
:103FA0003B6903F48033002B09D17B685B6C002BE9
:103FB00000F03A817B685B6C7868984734E17B68F5
:103FC000DB6B002B00F030817B68DB6B78689847F7
:103FD0002AE13B6903F02003002B40F089807B68D5
:103FE0001B682B4A93424AD07B681B68294A93423C
:103FF00045D07B681B68284A934240D07B681B6889
:10400000264A93423BD07B681B68254A934236D0B0
:104010007B681B68234A934231D07B681B68224A25
:1040200093422CD07B681B68204A934227D07B6840
:104030001B681F4A934222D07B681B681D4A93422B
:104040001DD07B681B681C4A934218D07B681B6894
:104050001A4A934213D07B681B68194A93420ED0C8
:104060007B681B68174A934209D07B681B68164A15
:10407000934204D07B681B68144A934228D17B6822
:104080001B681A687B681B6822F014021A6027E01C
:104090001000024028000240400002405800024048
:1040A0007000024088000240A0000240B8000240B8
:1040B0001004024028040240400402405804024018
:1040C0007004024088040240A0040240B804024088
:1040D0007B681B681A687B681B6822F00A021A60FA
:1040E0007B68012283F835207B68002283F8342026
:1040F0007B68DB6B002B00F097807B68DB6B78685C
:10410000984791E07B68DB6D03F01F0308229A401B
:104110007B691340002B00F088803B6903F00803A3
:10412000002B00F082807B681B68414A93424AD092
:104130007B681B683F4A934245D07B681B683E4AB8
:10414000934240D07B681B683C4A93423BD07B68DB
:104150001B683B4A934236D07B681B68394A9342BE
:1041600031D07B681B68384A93422CD07B681B682F
:10417000364A934227D07B681B68354A934222D047
:104180007B681B68334A93421DD07B681B68324AA8
:10419000934218D07B681B68304A934213D07B68E7
:1041A0001B682F4A93420ED07B681B682D4A9342AE
:1041B00009D07B681B682C4A934204D07B681B683B
:1041C0002A4A934208D17B681B681A687B681B687F
:1041D00022F01C021A6007E07B681B681A687B6883
:1041E0001B6822F00E021A607B68DB6D03F01F0370
:1041F00001229A40FB695A607B6801225A657B68FC
:10420000012283F835207B68002283F834207B6804
:10421000DB6C002B09D07B68DB6C7868984704E086
:1042200000BF02E000BF00E000BF2837BD4680BDF0
:1042300010000240280002404000024058000240A6
:104240007000024088000240A0000240B800024016
:104250001004024028040240400402405804024076
:104260007004024088040240A0040240B8040240E6
:1042700080B487B000AFF860B9607A603B60FB68DB
:104280009B6D7B61FB689B6D3B61FB681B687F4A94
:10429000934272D0FB681B687D4A93426DD0FB68E5
:1042A0001B687C4A934268D0FB681B687A4A934239
:1042B00063D0FB681B68794A93425ED0FB681B6839
:1042C000774A934259D0FB681B68764A934254D090
:1042D000FB681B68744A93424FD0FB681B68734AA3
:1042E00093424AD0FB681B68714A934245D0FB68F1
:1042F0001B68704A934240D0FB681B686E4A934229
:104300003BD0FB681B686D4A934236D0FB681B6844
:104310006B4A934231D0FB681B686A4A93422CD0A7
:10432000FB681B68684A934227D0FB681B68674A92
:10433000934222D0FB681B68654A93421DD0FB68FC
:104340001B68644A934218D0FB681B68624A934218
:1043500013D0FB681B68614A93420ED0FB681B6850
:104360005F4A934209D0FB681B685E4A934204D0BF
:10437000FB681B685C4A934201D1012300E00023E3
:10438000002B0DD0FB685B6EFA68926E5A60FB687A
:10439000DB6E002B04D0FB681B6FFA68526F5A600B
:1043A000FB681B68394A93424AD0FB681B68384A4D
:1043B000934245D0FB681B68364A934240D0FB6865
:1043C0001B68354A93423BD0FB681B68334A9342D3
:1043D00036D0FB681B68324A934231D0FB681B68B9
:1043E000304A93422CD0FB681B682F4A934227D057
:1043F000FB681B682D4A934222D0FB681B682C4A3D
:1044000093421DD0FB681B682A4A934218D0FB6870
:104410001B68294A934213D0FB681B68274A9342C2
:104420000ED0FB681B68264A934209D0FB681B68C4
:10443000244A934204D0FB681B68234A934201D16B
:10444000012300E00023002B59D0FB68DB6D03F053
:104450001F033F229A407B699A60FB681B681A68B9
:10446000FB681B6822F480221A60FB681B683A68AC
:104470005A60FB689B68402B38D1FB681B687A68E0
:104480009A60FB681B68BA68DA6086E01000024038
:1044900028000240400002405800024070000240E4
:1044A00088000240A0000240B80002401004024010
:1044B00028040240400402405804024070040240B4
:1044C00088040240A0040240B80402400854025884
:1044D0001C5402583054025844540258585402583C
:1044E0006C5402588054025894540258FB681B685C
:1044F000BA689A60FB681B687A68DA604DE0FB680E
:104500001B68294A934222D0FB681B68274A9342C2
:104510001DD0FB681B68264A934218D0FB681B68B5
:10452000244A934213D0FB681B68234A93420ED05F
:10453000FB681B68214A934209D0FB681B68204A2C
:10454000934204D0FB681B681E4A934201D10123A9
:1045500000E00023002B20D0FB68DB6D03F01F037D
:1045600001229A403B695A60FB681B683A685A60AE
:10457000FB689B68402B08D1FB681B687A689A60CF
:10458000FB681B68BA68DA6007E0FB681B68BA68FA
:104590009A60FB681B687A68DA6000BF1C37BD460A
:1045A0005DF8047B704700BF085402581C54025841
:1045B0003054025844540258585402586C5402580B
:1045C000805402589454025880B485B000AF78608B
:1045D0007B681B68424A93424AD07B681B68414A09
:1045E000934245D07B681B683F4A934240D07B682A
:1045F0001B683E4A93423BD07B681B683C4A93420F
:1046000036D07B681B683B4A934231D07B681B687D
:10461000394A93422CD07B681B68384A934227D092
:104620007B681B68364A934222D07B681B68354AF8
:1046300093421DD07B681B68334A934218D07B6835
:104640001B68324A934213D07B681B68304A9342FE
:104650000ED07B681B682F4A934209D07B681B6889
:104660002D4A934204D07B681B682C4A934201D1A7
:10467000012300E00023002B24D07B681B68DBB201
:10468000103B274AA2FB03231B09FB60FB6803F0D6
:104690000703244AD35C1A467B68DA65FB68032B60
:1046A00008D97B681B681A461F4B13401A1D7B688C
:1046B0009A650DE07B681B681A461B4B13407A68AD
:1046C000936505E07B681B6823F0FF027B689A65B1
:1046D0007B689B6D18461437BD465DF8047B7047B8
:1046E00010000240280002404000024058000240F2
:1046F0007000024088000240A0000240B800024062
:1047000010040240280402404004024058040240C1
:104710007004024088040240A0040240B804024031
:10472000ABAAAAAA70C3000800FCFFFF80B485B042
:1047300000AF78600023FB737B689B69002B20D15E
:104740007B689B6A032B58D801A252F823F000BF64
:10475000614700087347000861470008FB470008ED
:104760007B68DB6A03F08073002B48D00123FB7366
:1047700045E07B68DB6AB3F1C07F42D10123FB7364
:104780003FE07B689B69B3F5005F23D17B689B6A40
:10479000032B38D801A252F823F000BFAD47000820
:1047A000B3470008AD470008C54700080123FB7365
:1047B00030E07B68DB6A03F08073002B25D0012397
:1047C000FB7322E07B68DB6AB3F1C07F1FD101235A
:1047D000FB731CE07B689B6A022B02D9032B03D07E
:1047E00018E00123FB7315E07B68DB6A03F080733C
:1047F000002B0ED00123FB730BE000BF0AE000BFCB
:1048000008E000BF06E000BF04E000BF02E000BF18
:1048100000E000BFFB7B18461437BD465DF8047B03
:10482000704700BF80B485B000AF78607B681B68BC
:10483000BB607B681B68384A934222D07B681B6848
:10484000364A93421DD07B681B68354A934218D084
:104850007B681B68334A934213D07B681B68324ADB
:1048600093420ED07B681B68304A934209D07B6824
:104870001B682F4A934204D07B681B682D4A9342E1
:1048800001D1012300E00023002B1AD07B681B68B4
:10489000DBB2083B284AA2FB03231B09FB60FA6832
:1048A000264B13449B001A467B681A667B68244A91
:1048B0005A66FB6803F01F0301229A407B689A66E0
:1048C00024E07B681B68DBB2103B1E4AA2FB03237B
:1048D0001B09FB60BB681C4A934206D8BB681B4A95
:1048E000934202D9FB680833FB60FA68184B134403
:1048F0009B001A467B681A667B68164A5A66FB68F4
:1049000003F01F0301229A407B689A6600BF1437A8
:10491000BD465DF8047B7047085402581C54025889
:104920003054025844540258585402586C54025897
:104930008054025894540258CDCCCCCC009600162A
:1049400080580258ABAAAAAAB80402400F04024039
:10495000008200108008024080B485B000AF78600B
:104960007B685B68DBB2FB60FB68002B4AD0FB68AE
:10497000082B47D87B681B68254A934222D07B6866
:104980001B68244A93421DD07B681B68224A9342CD
:1049900018D07B681B68214A934213D07B681B6840
:1049A0001F4A93420ED07B681B681E4A934209D06F
:1049B0007B681B681C4A934204D07B681B681B4AB7
:1049C000934201D1012300E00023002B0AD0FA68B2
:1049D000174B13449B001A467B68DA667B68154ABE
:1049E0001A6709E0FA68144B13449B001A467B6867
:1049F000DA667B68114A1A67FB68013B01229A401C
:104A00007B685A6700BF1437BD465DF8047B70476A
:104A1000085402581C540258305402584454025846
:104A2000585402586C5402588054025894540258F6
:104A30003F960016405902583F820010400902403C
:104A400080B489B000AF786039600023FB61894B86
:104A50007B6194E13B681A680121FB6901FA03F369
:104A600013403B613B69002B00F086813B685B682B
:104A700003F00303012B05D03B685B6803F00303DD
:104A8000022B30D17B689B68BB61FB695B00032212
:104A900002FA03F3DB43BA691340BB613B68DA688F
:104AA000FB695B0002FA03F3BA691343BB617B68DD
:104AB000BA699A607B685B68BB610122FB6902FA94
:104AC00003F3DB43BA691340BB613B685B681B09B6
:104AD00003F00102FB6902FA03F3BA691343BB61F5
:104AE0007B68BA695A603B685B6803F00303032B79
:104AF00017D07B68DB68BB61FB695B00032202FAAD
:104B000003F3DB43BA691340BB613B689A68FB69F6
:104B10005B0002FA03F3BA691343BB617B68BA69AD
:104B2000DA603B685B6803F00303022B23D1FB6967
:104B3000DA087B68083253F82230BB61FB6903F066
:104B400007039B000F2202FA03F3DB43BA69134009
:104B5000BB613B681A69FB6903F007039B0002FA1B
:104B600003F3BA691343BB61FB69DA087B68083257
:104B7000B96943F822107B681B68BB61FB695B0065
:104B8000032202FA03F3DB43BA691340BB613B68BB
:104B90005B6803F00302FB695B0002FA03F3BA6986
:104BA0001343BB617B68BA691A603B685B6803F4B6
:104BB0004033002B00F0E0802F4BD3F8F4302E4A26
:104BC00043F00203C2F8F4302B4BD3F8F43003F077
:104BD0000203FB60FB68294AFB699B08023352F819
:104BE0002330BB61FB6903F003039B000F2202FA31
:104BF00003F3DB43BA691340BB617B68204A9342ED
:104C000052D07B681F4A934231D07B681E4A934240
:104C10002BD07B681D4A934225D07B681C4A934267
:104C20001FD07B681B4A934219D07B681A4A934273
:104C300013D07B68194A93420DD07B68184A93427F
:104C400007D07B68174A934201D109232DE00A233C
:104C50002BE0082329E0072327E0062325E005238E
:104C600023E0042321E003231FE002231DE00123AE
:104C70001BE000BF800000580044025800040058A8
:104C8000000002580004025800080258000C0258A4
:104C9000001002580014025800180258001C025854
:104CA00000200258002402580023FA6902F003028F
:104CB00092009340BA691343BB613849FB699B0872
:104CC0000233BA6941F823204FF0B0431B68BB613F
:104CD0003B69DB43BA691340BB613B685B6803F423
:104CE0008013002B03D0BA693B691343BB614FF0BB
:104CF000B042BB6913604FF0B0435B68BB613B6976
:104D0000DB43BA691340BB613B685B6803F4001383
:104D1000002B03D0BA693B691343BB614FF0B0422B
:104D2000BB6953607B695B68BB613B69DB43BA6904
:104D30001340BB613B685B6803F40033002B03D076
:104D4000BA693B691343BB617B69BA695A607B6985
:104D50001B68BB613B69DB43BA691340BB613B68BD
:104D60005B6803F48033002B03D0BA693B691343BB
:104D7000BB617B69BA691A60FB690133FB613B68FF
:104D80001A68FB6922FA03F3002B7FF463AE00BFBD
:104D900000BF2437BD465DF8047B7047000400580F
:104DA00080B483B000AF78600B467B8013467B7085
:104DB0007B78002B03D07A887B689A6103E07B883C
:104DC0001A047B689A6100BF0C37BD465DF8047B0E
:104DD000704780B485B000AF78600B467B807B68FD
:104DE0005B69FB607A88FB6813401A04FB68D9434F
:104DF0007B880B401A437B689A6100BF1437BD461D
:104E00005DF8047B7047000080B584B000AF786027
:104E1000194BDB6803F00403042B0AD0164BDB6844
:104E200003F007037A689A4201D001231FE00023B0
:104E30001DE0114BDB6823F007020F497B68134329
:104E4000CB60FCF7FDFDF86009E0FCF7F9FD0246D8
:104E5000FB68D31AB3F57A7F01D9012307E0064B2B
:104E60005B6803F40053B3F5005FEED100231846EE
:104E70001037BD4680BD00BF0048025880B58CB0D9
:104E800000AF78607B68002B02D1012300F048BCA2
:104E90007B681B6803F00103002B00F08880994BAE
:104EA0001B6903F03803FB62964B9B6ABB62FB6A8B
:104EB000102B07D0FB6A182B11D1BB6A03F0030338
:104EC000022B0CD18F4B1B6803F40033002B6DD0E9
:104ED0007B685B68002B69D1012300F021BC7B68F3
:104EE0005B68B3F5803F06D1864B1B68854A43F467
:104EF000803313602EE07B685B68002B0CD1814B04
:104F00001B68804A23F4803313607E4B1B687D4A04
:104F100023F4802313601DE07B685B68B3F5A02F4A
:104F20000CD1784B1B68774A43F480231360754B90
:104F30001B68744A43F4803313600BE0714B1B68A9
:104F4000704A23F4803313606E4B1B686D4A23F460
:104F5000802313607B685B68002B13D0FCF770FD27
:104F6000786208E0FCF76CFD02467B6AD31A642B7A
:104F700001D90323D4E3634B1B6803F40033002BF4
:104F8000F0D014E0FCF75CFD786208E0FCF758FD17
:104F900002467B6AD31A642B01D90323C0E3594B21
:104FA0001B6803F40033002BF0D100E000BF7B68E6
:104FB0001B6803F00203002B00F0CA80514B1B69F1
:104FC00003F038033B624F4B9B6AFB613B6A002B4B
:104FD00007D03B6A182B56D1FB6903F00303002B63
:104FE00051D1484B1B6803F00403002B05D07B68AC
:104FF000DB68002B01D1012392E3424B1B6823F0B5
:1050000019027B68DB683F4913430B60FCF718FD0E
:10501000786208E0FCF714FD02467B6AD31A022B83
:1050200001D903237CE3374B1B6803F00403002BF7
:10503000F0D0FCF735FD034641F20302934217D846
:105040007B681B69402B08D12E4B5B6823F47C33B3
:105050002C4A43F4003353607AE02A4B5B6823F414
:105060007C327B681B691B03264913434B606FE04E
:10507000244B5B6823F0FE427B681B691B062149B9
:1050800013434B6064E07B68DB68002B47D01D4B0B
:105090001B6823F019027B68DB681A4913430B6015
:1050A000FCF7CEFC786208E0FCF7CAFC02467B6A9B
:1050B000D31A022B01D9032332E3124B1B6803F0EE
:1050C0000403002BF0D0FCF7EBFC034641F2030293
:1050D000934219D87B681B69402B08D1094B5B6848
:1050E00023F47C33074A43F40033536030E0054B2C
:1050F0005B6823F47C327B681B691B030149134303
:105100004B6025E0004402589A4B5B6823F0FE4256
:105110007B681B691B06974913434B6018E0954B4E
:105120001B68944A23F001031360FCF789FC786242
:1051300008E0FCF785FC02467B6AD31A022B01D9F2
:105140000323EDE28B4B1B6803F00403002BF0D12B
:105150007B681B6803F01003002B00F0A980854BCF
:105160001B6903F03803BB61824B9B6A7B61BB699F
:10517000082B07D0BB69182B3AD17B6903F00303D6
:10518000012B35D17B4B1B6803F48073002B05D0BA
:105190007B68DB69802B01D00123C1E2FCF780FC36
:1051A000034641F20302934217D87B681B6A202B07
:1051B00008D1704B5B6823F0F8436E4A43F080439C
:1051C000536075E06B4B5B6823F0F8427B681B6AA9
:1051D0009B06684913434B606AE0664BDB6823F02B
:1051E0007C527B681B6A1B0662491343CB605FE0FD
:1051F0007B68DB69002B42D05E4B1B685D4A43F045
:1052000080031360FCF71CFC786208E0FCF718FCD4
:1052100002467B6AD31A022B01D9032380E2554B45
:105220001B6803F48073002BF0D0FCF739FC0346B5
:1052300041F20302934217D87B681B6A202B08D1E6
:105240004C4B5B6823F0F8434A4A43F08043536079
:105250002EE0484B5B6823F0F8427B681B6A9B0694
:10526000444913434B6023E0424BDB6823F07C52FC
:105270007B681B6A1B063F491343CB6018E03D4B1C
:105280001B683C4A23F080031360FCF7D9FB78626B
:1052900008E0FCF7D5FB02467B6AD31A022B01D942
:1052A00003233DE2334B1B6803F48073002BF0D1E2
:1052B0007B681B6803F00803002B36D07B685B69B2
:1052C000002B19D02B4B5B6F2A4A43F00103536725
:1052D000FCF7B6FB786208E0FCF7B2FB02467B6A9B
:1052E000D31A022B01D903231AE2224B5B6F03F07E
:1052F0000203002BF0D018E01E4B5B6F1D4A23F019
:1053000001035367FCF79CFB786208E0FCF798FB0D
:1053100002467B6AD31A022B01D9032300E2154B04
:105320005B6F03F00203002BF0D17B681B6803F076
:105330002003002B39D07B689B69002B1CD00D4BC0
:105340001B680C4A43F480531360FCF779FB7862C6
:1053500008E0FCF775FB02467B6AD31A022B01D9E1
:105360000323DDE1034B1B6803F40053002BF0D053
:105370001BE000BF004402589B4B1B689A4A23F471
:1053800080531360FCF75CFB786208E0FCF758FB85
:1053900002467B6AD31A022B01D90323C0E1924B48
:1053A0001B6803F40053002BF0D17B681B6803F0EB
:1053B0000403002B00F081808C4B1B688B4A43F464
:1053C00080731360FCF73CFB786208E0FCF738FB65
:1053D00002467B6AD31A642B01D90323A0E1834BD5
:1053E0001B6803F48073002BF0D07B689B68012B53
:1053F00006D17D4B1B6F7C4A43F0010313672DE000
:105400007B689B68002B0CD1774B1B6F764A23F08F
:1054100001031367744B1B6F734A23F00403136774
:105420001CE07B689B68052B0CD16F4B1B6F6E4A91
:1054300043F0040313676C4B1B6F6B4A43F001038B
:1054400013670BE0684B1B6F674A23F00103136778
:10545000654B1B6F644A23F0040313677B689B68EA
:10546000002B15D0FCF7ECFA78620AE0FCF7E8FABA
:1054700002467B6AD31A41F28832934201D9032350
:105480004EE1594B1B6F03F00203002BEED014E0EA
:10549000FCF7D6FA78620AE0FCF7D2FA02467B6A99
:1054A000D31A41F28832934201D9032338E14E4B9B
:1054B0001B6F03F00203002BEED17B685B6A002BAD
:1054C00000F02D81484B1B6903F03803182B00F0C6
:1054D000BD807B685B6A022B40F09E80424B1B685C
:1054E000414A23F080731360FCF7AAFA786208E05F
:1054F000FCF7A6FA02467B6AD31A022B01D90323D2
:105500000EE1394B1B6803F00073002BF0D1364BD2
:105510009A6A374B13407A68916A7A68D26A1201A4
:105520000A43314913438B627B681B6B013BC3F316
:1055300008027B685B6B013B5B029BB21A437B6892
:105540009B6B013B1B0403F4FE031A437B68DB6B7C
:10555000013B1B0603F0FE43234913430B63224B1D
:10556000DB6A214A23F00103D3621F4B5A6B214BA4
:1055700013407A68926CD2001B4913434B631A4B59
:10558000DB6A23F00C027B681B6C17491343CB6268
:10559000154BDB6A23F002027B685B6C12491343F4
:1055A000CB62114BDB6A104A43F48033D3620E4B5B
:1055B000DB6A0D4A43F40033D3620B4BDB6A0A4AC1
:1055C00043F48023D362084BDB6A074A43F00103AC
:1055D000D362054B1B68044A43F080731360FCF7E9
:1055E0002FFA786211E000BF0044025800480258C8
:1055F0000CFCFFFF0700FFFFFCF722FA02467B6A64
:10560000D31A022B01D903238AE0474B1B6803F00E
:105610000073002BF0D082E0434B1B68424A23F01A
:1056200080731360FCF70CFA786208E0FCF708FA64
:1056300002467B6AD31A022B01D9032370E03A4B4E
:105640001B6803F00073002BF0D168E0364B9B6AB7
:105650003B61354B1B6BFB607B685B6A012B31D078
:105660003B6903F003027B689B6A9A422AD13B693B
:105670001B0903F03F027B68DB6A9A4222D1FB6878
:10568000C3F308027B681B6B013B9A421AD1FB688B
:105690005B0A03F07F027B685B6B013B9A4211D18E
:1056A000FB681B0C03F07F027B689B6B013B9A42FB
:1056B00008D1FB681B0E03F07F027B68DB6B013BAC
:1056C0009A4201D001232BE0174B5B6BDB08C3F33D
:1056D0000C033B617B689B6C3A699A421FD0124B6A
:1056E000DB6A114A23F00103D362FCF7A9F978625F
:1056F00000BFFCF7A5F902467B6A9342F9D00A4B3A
:105700005A6B0A4B13407A68926CD20006491343D5
:105710004B63054BDB6A044A43F00103D362002369
:1057200018463037BD4680BD004402580700FFFFD1
:1057300080B586B000AF786039607B68002B01D1FE
:1057400001239CE18A4B1B6803F00F033A689A42DD
:1057500010D9874B1B6823F00F0285493B68134320
:105760000B60834B1B6803F00F033A689A4201D029
:10577000012384E17B681B6803F00403002B10D035
:105780007B681A697B4B9B6903F070039A4208D9C6
:10579000784B9B6923F070027B681B697549134342
:1057A0008B617B681B6803F00803002B10D07B68BB
:1057B0005A69704BDB6903F070039A4208D96D4B4C
:1057C000DB6923F070027B685B696A491343CB6134
:1057D0007B681B6803F01003002B10D07B689A696C
:1057E000644BDB6903F4E0639A4208D9614BDB69DF
:1057F00023F4E0627B689B695E491343CB617B685D
:105800001B6803F02003002B10D07B68DA69594B2A
:105810001B6A03F070039A4208D9564B1B6A23F0A7
:1058200070027B68DB69534913430B627B681B681A
:1058300003F00203002B10D07B68DA684D4B9B69A4
:1058400003F00F039A4208D94A4B9B6923F00F02D9
:105850007B68DB68474913438B617B681B6803F0F7
:105860000103002B55D0434B9B6923F470627B6886
:105870009B68404913438B617B685B68022B07D1AF
:105880003C4B1B6803F40033002B21D10123F6E0CD
:105890007B685B68032B07D1364B1B6803F00073F2
:1058A000002B15D10123EAE07B685B68012B07D14F
:1058B000304B1B6803F48073002B09D10123DEE019
:1058C0002C4B1B6803F00403002B01D10123D6E00D
:1058D000284B1B6923F007027B685B68254913434B
:1058E0000B61FCF7ADF878610AE0FCF7A9F8024615
:1058F0007B69D31A41F28832934201D90323BEE077
:105900001C4B1B6903F038027B685B68DB009A4222
:10591000EBD17B681B6803F00203002B10D07B687F
:10592000DA68144B9B6903F00F039A4208D2114BBB
:105930009B6923F00F027B68DB680E4913438B6180
:105940000B4B1B6803F00F033A689A4214D2084BC2
:105950001B6823F00F0206493B6813430B60044B9E
:105960001B6803F00F033A689A4205D0012386E0D2
:1059700000200052004402587B681B6803F00403B7
:10598000002B10D07B681A693F4B9B6903F07003B2
:105990009A4208D23C4B9B6923F070027B681B69DA
:1059A000394913438B617B681B6803F00803002BA4
:1059B00010D07B685A69344BDB6903F070039A425C
:1059C00008D2314BDB6923F070027B685B692E499A
:1059D0001343CB617B681B6803F01003002B10D0CE
:1059E0007B689A69284BDB6903F4E0639A4208D22A
:1059F000254BDB6923F4E0627B689B6922491343F2
:105A0000CB617B681B6803F02003002B10D07B6800
:105A1000DA691D4B1B6A03F070039A4208D21A4BD5
:105A20001B6A23F070027B68DB69174913430B6222
:105A300000F034F80246144B9B691B0A03F00F0375
:105A40001249CB5C03F01F0322FA03F33B610E4BB8
:105A50009B6903F00F030D4AD35C03F01F033A69FF
:105A600022FA03F30A4A13600A4A3B6913600A4B9D
:105A70001B681846FBF79AFF0346FB73FB7B18462F
:105A80001837BD4680BD00BF0044025860C30008FF
:105A900004000024000000240800002480B489B021
:105AA00000AFB34B1B6903F03803182B00F255818C
:105AB00001A252F823F000BF1D5B00085B5D0008E7
:105AC0005B5D00085B5D00085B5D00085B5D0008D6
:105AD0005B5D00085B5D0008435B00085B5D0008E0
