:020000040800F2
:100000000000082491110008F10C0008F90C000808
:10001000010D0008090D0008110D00080000000086
:10002000000000000000000000000000190D0008A2
:10003000270D000800000000350D0008430D0008E2
:10004000E1110008E1110008E1110008E1110008C8
:10005000E1110008E1110008E1110008E1110008B8
:10006000E1110008E1110008E1110008E1110008A8
:10007000E1110008E1110008E1110008E111000898
:10008000E1110008E1110008510D0008E11100081C
:10009000E1110008E1110008E1110008E111000878
:1000A000E1110008E1110008E1110008E111000868
:1000B000E1110008E1110008E1110008E111000858
:1000C000E1110008E1110008E1110008E111000848
:1000D000E1110008E1110008E1110008E111000838
:1000E000E1110008E111000800000000E111000822
:1000F000E1110008E1110008E1110008E111000818
:10010000E1110008E1110008E1110008E111000807
:10011000E1110008E1110008E1110008E1110008F7
:10012000E1110008E1110008E1110008E1110008E7
:10013000E1110008E1110008E1110008E1110008D7
:1001400000000000000000000000000000000000AF
:10015000E1110008E1110008E1110008E1110008B7
:10016000E1110008E1110008E1110008E1110008A7
:10017000E1110008E1110008E11100080000000091
:10018000E1110008E1110008E1110008E111000887
:10019000E1110008E1110008E1110008E111000877
:1001A000E1110008E1110008E1110008E111000867
:1001B000E1110008E1110008E1110008E111000857
:1001C000E1110008E1110008E1110008E111000847
:1001D000E1110008E1110008E1110008E111000837
:1001E000E1110008E1110008E1110008E111000827
:1001F000E1110008E1110008E1110008E111000817
:10020000E1110008E1110008E1110008E111000806
:10021000E1110008E1110008E1110008E1110008F6
:10022000E1110008E1110008E111000800000000E0
:10023000E1110008E111000800000000E1110008D0
:10024000E1110008E1110008E1110008E1110008C6
:10025000E1110008E1110008E1110008E1110008B6
:10026000E1110008E1110008E1110008E1110008A6
:10027000E1110008E1110008650D00080000000010
:10028000E1110008E1110008E11100080000000080
:0802900000000000E11100086C
:1002A00010B5054C237833B9044B13B10448AFF3B0
:1002B00000800123237010BDD8010024000000003D
:1002C00058BE000808B5034B1BB103490348AFF300
:1002D000008008BD00000000DC01002458BE0008BA
:1002E00001F0FF01102A2BDB10F0070F08D010F8E7
:1002F000013B013A8B422DD010F0070F42B3F6D1EB
:10030000F0B441EA012141EA014122F007047FF003
:1003100000070023F0E80256083C85EA010586EA5A
:10032000010685FA47F5A3FA87F586FA47F6A5FA96
:1003300087F68EB9EED1F0BC01F0FF0102F00702A2
:1003400032B110F8013B013A83EA010313B1F8D14D
:100350000020704701387047002D06BF354603382E
:10036000073815F0010F07D1013015F4807F02BF67
:10037000013015F4C03F0130F0BC0138704700BFB8
:10038000034613F8012B002AFBD1181A01387047D5
:1003900053B94AB9002908BF00281CBF4FF0FF31EC
:1003A0004FF0FF3000F06AB9ADF1080C6DE904CEF2
:1003B00000F006F8DDF804E0DDE9022304B0704740
:1003C0002DE9F047089D0C46002B4ED194468C45F4
:1003D0008646B2FA82F262D94AB1C2F12003914054
:1003E00020FA03F30CFA02FC194300FA02FE4FEA6A
:1003F0001C471FFA8CF6B1FBF7F44FEA1E4307FBCC
:10040000141143EA014304FB06F199420AD91CEB9B
:10041000030304F1FF3080F01281994240F20F8112
:10042000023C6344591A1FFA8EF3B1FBF7F007FB45
:10043000101143EA014300FB06F69E420AD91CEB69
:10044000030300F1FF3180F0FC809E4240F2F9800E
:10045000634402389B1B40EA044000211DB1D34095
:100460000022C5E90032BDE8F0878B4205D90DB105
:10047000C5E9000100210846F5E7B3FA83F1002938
:1004800046D1A34202D39042C0F0F080861A64EBBA
:1004900003030120002DE6D0C5E90063E3E7002A4D
:1004A00040F09080A1EB0C044FEA1C481FFA8CF737
:1004B0000121B4FBF8F64FEA1E4308FB164443EA59
:1004C000044307FB06F0984208D91CEB030306F12E
:1004D000FF3402D2984200F2CD8026461C1A1FFA41
:1004E0008EF3B4FBF8F008FB104443EA044300FB2E
:1004F00007F79F4208D91CEB030300F1FF3402D237
:100500009F4200F2B0802046DB1B40EA0640A5E790
:10051000C1F120068B4022FA06F71F4320FA06FCA1
:1005200004FA01F343EA0C03F44000FA01F8380C32
:100530004FEA1349B4FBF0FE1FFA87FC00FB1E4490
:1005400049EA04440EFB0CF9A14502FA01F20AD96A
:100550003C190EF1FF3A80F08480A14540F2818081
:10056000AEF1020E3C44A4EB09041FFA83F9B4FB7C
:10057000F0F300FB134449EA044403FB0CFCA445DC
:1005800007D93C1903F1FF3067D2A44565D9023B76
:100590003C4443EA0E40A0FB0293A4EB0C049C42B3
:1005A000CE469C4651D34ED055B1B8EB0E0364EB0A
:1005B0000C0404FA06F6CB401E43CC40C5E90064A7
:1005C000002150E7C2F1200320FA03F10CFA02FCEB
:1005D00024FA03F394400C434FEA1C4800FA02FE4D
:1005E0001FFA8CF7B3FBF8F008FB1031230C43EA39
:1005F000014300FB07F1994208D91CEB030300F10A
:10060000FF362CD299422AD9023863445B1AA4B22D
:10061000B3FBF8F108FB113344EA034401FB07F391
:10062000A34208D91CEB040401F1FF3613D2A34204
:1006300011D902396444E41A41EA004139E7044619
:10064000F0E6084606E7C845AED2B9EB020E63EB0A
:10065000070C0138A8E73146EDE7034699E7304635
:10066000D4E7D6467FE7634402384DE70646234683
:1006700008460FE7023E634430E700BF704700BF03
:1006800080B500AF094B1B780133DAB2074B1A7003
:10069000064B1B78142B07D9044B00221A704FF419
:1006A0000051034803F0F9FC00BF80BDF4010024B1
:1006B0000008025880B586B002AF0023FB6000231B
:1006C0007B814FF000037B604FF000033B60FB68D1
:1006D0000133FB60FA68174B83FB02135911D317E0
:1006E000CB1A642101FB03F3D31A002B1CD112484F
:1006F00000F026F803467B8100F04EF887ED010AF2
:1007000000F06AF887ED000A7989D7ED017AB7EE33
:10071000E76AD7ED007AB7EEE77A8DED007B53EC10
:10072000162B064809F08EFCFFF7AAFF0A2000F0FE
:10073000EBFDCCE71F85EB510004002A70BE0008DA
:1007400080B58AB000AF78607B68FB6006233B61B0
:1007500000237B6140F2FF73BB610423FB61002334
:100760003B62002387F8253007F10C03194609483E
:1007700001F0B6FD074801F08FF90A21054801F0A4
:1007800055FA044801F046FB03469BB21846283749
:10079000BD4680BDF801002480B582B000AF0C4892
:1007A000FFF7CEFF0346FB80FB8807EE903AF8EE9A
:1007B000677A9FED087A67EE877AC7ED007A3B6823
:1007C00007EE903AB0EE670A0837BD4680BD00BF1D
:1007D0000004002A3333533A80B582B000AFFFF7EC
:1007E000DBFF87ED010AD7ED017A9FED077A67EE0F
:1007F000877AC7ED017A7B6807EE903AB0EE670A18
:100800000837BD4680BD00BFC3F5804080B58AB0C3
:1008100000AF07F11C0300221A605A609A603B4641
:1008200000221A605A609A60DA601A615A619A610D
:10083000354B364A1A60344B0022DA60324B0422C0
:100840001A61314B00221A752F4B00225A752E4B1C
:1008500001229A612C4B00221A772B4B00225A62FC
:10086000294B00229A62284B0022DA62264B002292
:100870001A63254B00225A63234B002283F8382049
:10088000214B0122DA63204800F064FF0346002B6D
:1008900001D000F00DFA1C4B4FF440225A601A4B65
:1008A00008229A60184800F055FF0346002B01D03B
:1008B00000F0FEF90023FB6107F11C031946124802
:1008C00002F058FA0346002B01D000F0F1F9104B6A
:1008D0003B6006237B600023BB6040F2FF73FB603C
:1008E00004233B6100237B6100237B763B46194652
:1008F000054801F0F5FC0346002B01D000F0D8F9C3
:1009000000BF2837BD4680BDF8010024002002400A
:100910000004002A80B5BAB000AF786007F1D403B4
:1009200000221A605A609A60DA601A6107F11003B7
:10093000C0220021184609F0DAFB7B681B682F4AA9
:10094000934257D14FF400224FF00003C7E904232C
:100950000223BB610C23FB6102233B6202237B6207
:100960000223BB62C023FB6220233B6300237B6323
:100970000023C7F8B43007F11003184604F0C8FB91
:100980000346002B01D000F093F91D4BD3F8D8306B
:100990001B4A43F02003C2F8D830194BD3F8D830A3
:1009A00003F02003FB60FB68154BD3F8E030144ADA
:1009B00043F00403C2F8E030114BD3F8E03003F009
:1009C0000403BB60BB680123C7F8D4300323C7F816
:1009D000D8300023C7F8DC3007F1D40319460948A2
:1009E00003F092F900220021122002F07CFB122079
:1009F00002F093FB00BFE837BD4680BD00200240F7
:100A0000004402580008025880B588B000AF07F1D2
:100A10000C0300221A605A609A60DA601A61234B54
:100A2000D3F8E030214A43F00403C2F8E0301F4B12
:100A3000D3F8E03003F00403BB60BB681B4BD3F872
:100A4000E0301A4A43F08003C2F8E030174BD3F885
:100A5000E03003F080037B607B68144BD3F8E03018
:100A6000124A43F00103C2F8E030104BD3F8E030F3
:100A700003F001033B603B6800224FF400510C4837
:100A800003F0F2FA4FF40053FB6001233B610023B3
:100A90007B610023BB6107F10C031946044803F096
:100AA00033F900BF2037BD4680BD00BF0044025867
:100AB0000008025880B500AF00F0CEF800F092FBBD
:100AC00000F00AF8FFF7A0FF00F0A4FAFFF79EFE7F
:100AD000FFF7F0FD00BFFDE780B59EB000AF07F166
:100AE0002C034C220021184609F001FB07F10C03EE
:100AF00020220021184609F0FAFA022003F0E8FA51
:100B00000023BB60484BDB6A474A23F00103D362F2
:100B1000454BDB6A03F00103BB60444B9B69434ACE
:100B200043F440439361414B9B6903F44043BB60F2
:100B3000BB6800BF3D4B9B6903F40053B3F5005FF6
:100B4000F8D13B4BD3F8F430394A43F00203C2F8F2
:100B5000F430374BD3F8F43003F002037B607B684A
:100B600000233B60314B9B69304A43F4404393611F
:100B70002E4B9B6903F440433B602B4BDB6A2A4AB4
:100B800043F00103D362284BDB6A03F001033B60AF
:100B90003B6800BF254B9B6903F40053B3F5005F2E
:100BA000F8D10123FB624FF480333B6302233B65A2
:100BB00002237B650523BB65C023FB6502233B66DF
:100BC00002237B660223BB660823FB6600233B6788
:100BD00000237B6707F12C03184603F0B3FA0346A2
:100BE000002B01D000F064F83F23FB6003233B613E
:100BF00000237B610823BB614023FB6140233B62F0
:100C00004FF480637B624023BB6207F10C03042135
:100C1000184603F0F1FE0346002B01D000F048F81F
:100C200000BF7837BD4680BD000400580048025818
:100C30000044025880B582B000AF7860391D4FF68D
:100C4000FF730122034806F0B1FF7B68184608379E
:100C5000BD4680BD6002002480B584B000AF3B4635
:100C600000221A605A609A60DA6002F071FA012379
:100C70003B7000237B7000237B601F233B72872324
:100C80007B720023BB720023FB7201233B730123A1
:100C90007B730023BB730023FB733B46184602F0B3
:100CA0008FFA042002F06CFA00BF1037BD4680BDF9
:100CB00080B400AF72B600BF00BFFDE780B483B060
:100CC00000AF0A4BD3F8F430084A43F00203C2F8ED
:100CD000F430064BD3F8F43003F002037B607B68FA
:100CE00000BF0C37BD465DF8047B704700440258D6
:100CF00080B400AF00BFFDE780B400AF00BFFDE7E8
:100D000080B400AF00BFFDE780B400AF00BFFDE7D7
:100D100080B400AF00BFFDE780B400AF00BFBD46A8
:100D20005DF8047B704780B400AF00BFBD465DF83E
:100D3000047B704780B400AF00BFBD465DF8047B04
:100D4000704780B500AF00F0BFFA00BF80BD000063
:100D500080B500AF024801F06BF800BF80BD00BF56
:100D6000F801002480B500AF024806F0ADFF00BFD7
:100D700080BD00BF6002002480B400AF012318468C
:100D8000BD465DF8047B704780B582B000AF7860E7
:100D9000396009F0FFF9034616221A604FF0FF335D
:100DA00018460837BD4680BD80B582B000AF786078
:100DB0004FF0FF317868FFF7E7FF00BFFDE780B530
:100DC00086B000AFF860B9607A6000237B610AE00A
:100DD000AFF300800146BB685A1CBA60CAB21A70F1
:100DE0007B6901337B617A697B689A42F0DB7B68BF
:100DF00018461837BD4680BD80B586B000AFF86094
:100E0000B9607A6000237B6109E0BB685A1CBA6054
:100E10001B781846FFF70EFF7B6901337B617A6907
:100E20007B689A42F1DB7B6818461837BD4680BD67
:100E300080B483B000AF78604FF0FF3318460C37B2
:100E4000BD465DF8047B704780B483B000AF786026
:100E500039603B684FF400525A60002318460C3743
:100E6000BD465DF8047B704780B483B000AF786006
:100E7000012318460C37BD465DF8047B704780B4EB
:100E800085B000AFF860B9607A6000231846143767
:100E9000BD465DF8047B704780B586B000AF7860D2
:100EA000144A154BD31A7B617B693B61134B1B685A
:100EB000002B02D1114B124A1A60104B1A687B6842
:100EC00013443A699A4207D209F064F903460C22A6
:100ED0001A604FF0FF3309E0084B1B68FB60074BBB
:100EE0001A687B681344054A1360FB681846183774
:100EF000BD4680BD00000824000400005C02002400
:100F00004804002480B400AF374BD3F88830364A09
:100F100043F47003C2F88830344B1B6803F00F03AE
:100F2000062B07D8314B1B6823F00F032F4A43F0E1
:100F3000070313602E4B1B682D4A43F00103136017
:100F40002B4B00221A612A4B1A682949294B13405E
:100F50000B60264B1B6803F00803002B07D0234BC4
:100F60001B6823F00F03214A43F007031360204B53
:100F700000229A611E4B0022DA611D4B00221A6288
:100F80001B4B1D4A9A621A4B1C4ADA62184B1C4AC8
:100F90001A63174B00225A63154B194A9A63144B74
:100FA0000022DA63124B164A1A64114B00225A646B
:100FB0000F4B1B680E4A23F4802313600C4B002256
:100FC0001A66104B1A68104B1340B3F1005F02D23F
:100FD0000E4B01221A600E4B43F2D2021A6000BF80
:100FE000BD465DF8047B704700ED00E00020005234
:100FF000004402587FEDF6EA000202020000FF0101
:10100000800201010010005C0000FFFF0881005118
:101010000040005280B500AF224B234A1A60214B9A
:101020004FF4E1325A601F4B00229A601D4B0022A0
:10103000DA601C4B00221A611A4B0C225A61194BC0
:1010400000229A61174B00221A62164B00225A6244
:10105000144B00229A62134B00225A66114806F084
:1010600055FD0346002B01D0FFF722FE00210D485D
:1010700008F024FA0346002B01D0FFF719FE0021E7
:10108000084808F059FA0346002B01D0FFF710FE7C
:10109000044808F0DAF90346002B01D0FFF708FEF8
:1010A00000BF80BD60020024000C005880B5BAB0BB
:1010B00000AF786007F1D40300221A605A609A608A
:1010C000DA601A6107F11003C0220021184609F006
:1010D0000EF87B681B682B4A93424ED14FF00402F6
:1010E0004FF00003C7E904230023C7F8A43007F139
:1010F0001003184604F00CF80346002B01D0FFF74C
:10110000D7FD214BD3F8F4301F4A43F00803C2F84F
:10111000F4301D4BD3F8F43003F00803FB60FB6898
:10112000194BD3F8E030184A43F00103C2F8E0301D
:10113000154BD3F8E03003F00103BB60BB684FF4FC
:10114000C063C7F8D4300223C7F8D8300023C7F8EB
:10115000DC300023C7F8E0300323C7F8E43007F1A0
:10116000D4031946094802F0CFFD002200218E2049
:1011700001F0B9FF8E2001F0D0FF00BFE837BD4677
:1011800080BD00BF000C0058004402580000025807
:10119000DFF834D0FFF7B6FE0C480D490D4A0023A6
:1011A00002E0D458C4500433C4188C42F9D30A4A1C
:1011B0000A4C002301E013600432A242FBD308F082
:1011C000EFFFFFF777FC70470000082400000024C1
:1011D000D801002440C20008D8010024440400249F
:1011E000FEE7000080B582B000AF032001F070FF81
:1011F00003F0B8FD0246154B9B691B0A03F00F0371
:101200001349CB5C03F01F0322FA03F37B600F4BFF
:101210009B6903F00F030E4AD35C03F01F037A6847
:1012200022FA03F30B4A13600B4A7B6813600F200A
:1012300000F014F80346002B01D0012302E0FFF771
:101240003DFD002318460837BD4680BD00440258C6
:1012500084BE0008040000240000002480B582B091
:1012600000AF7860154B1B78002B01D1012321E0E2
:10127000134B1A68114B1B7819464FF47A73B3FB62
:10128000F1F3B2FBF3F3184601F055FF0346002BD0
:1012900001D001230EE07B680F2B0AD80022796869
:1012A0004FF0FF3001F01FFF064A7B6813600023F8
:1012B00000E0012318460837BD4680BD0C0000241D
:1012C000000000240800002480B400AF064B1B7807
:1012D0001A46064B1B681344044A136000BFBD4600
:1012E0005DF8047B704700BF0C000024F40200246A
:1012F00080B400AF034B1B681846BD465DF8047B05
:10130000704700BFF402002480B584B000AF78605D
:10131000FFF7EEFFB8607B68FB60FB68B3F1FF3F4F
:1013200005D00A4B1B781A46FB681344FB6000BFCC
:10133000FFF7DEFF0246BB68D31AFA689A42F7D875
:1013400000BF00BF1037BD4680BD00BF0C000024A9
:1013500080B400AF034B1B681B0C1846BD465DF8FC
:10136000047B70470010005C80B483B000AF7860ED
:1013700039607B689B6823F47C123B681A437B6866
:101380009A6000BF0C37BD465DF8047B704780B49F
:1013900083B000AF786039607B689B6823F0E072AF
:1013A0003B681A437B689A6000BF0C37BD465DF806
:1013B000047B704780B483B000AF78607B689B6823
:1013C00003F0E07318460C37BD465DF8047B7047A8
:1013D00080B487B000AFF860B9607A603B60FB68AA
:1013E00060331A46BB689B0013447B617B691B68B2
:1013F00003F000427B6803F0F8413B680B431A435B
:101400007B691A6000BF1C37BD465DF8047B7047DE
:1014100080B485B000AFF860B9607A60FB681B6982
:1014200023F4F042BB6803F01F03796801FA03F369
:101430001A43FB681A6100BF1437BD465DF8047B90
:10144000704780B487B000AFF860B9607A60FB681D
:1014500060331A46BB689B0013447B617B691B6841
:1014600023F000427B681A437B691A6000BF1C3777
:10147000BD465DF8047B704780B483B000AF7860F0
:101480007B68DB6803F44063002B01D1012300E09B
:10149000002318460C37BD465DF8047B704780B4C6
:1014A00087B000AFF860B9607A60FB6830331A46E5
:1014B000BB681B0A9B0003F00C0313447B617B6930
:1014C0001A68BB6803F01F031F2101FA03F3DB4313
:1014D0001A407B689B0E03F01F01BB6803F01F03DB
:1014E00001FA03F31A437B691A6000BF1C37BD463B
:1014F0005DF8047B704780B483B000AF78607B6890
:10150000DB6C03F4C073002B01D1012300E0002346
:1015100018460C37BD465DF8047B704780B487B031
:1015200000AFF860B9607A60FB6814331A46BB6894
:101530005B0E9B0003F0040313447B617B691A6814
:10154000BB681B0D03F01F03072101FA03F3DB4304
:101550001A40BB681B0D03F01F03796801FA03F3FF
:101560001A437B691A6000BF1C37BD465DF8047BD7
:101570007047000080B485B000AFF860B9607A6051
:10158000FB68D3F8C020BB68C3F31303DB431A40E6
:101590007B6803F018030849D940BB680B40C3F3CC
:1015A00013031A43FB68C3F8C02000BF1437BD46BD
:1015B0005DF8047B704700BFFFFF0F0080B483B06D
:1015C00000AF78607B689B6803F01F0318460C37F8
:1015D000BD465DF8047B704780B483B000AF78608F
:1015E0007B689B6803F4404318460C37BD465DF8A2
:1015F000047B704780B483B000AF78607B689A68E2
:10160000044B13407A68936000BF0C37BD465DF809
:10161000047B7047C0FFFF5F80B483B000AF786089
:101620007B689B6803F00053B3F1005F01D1012395
:1016300000E0002318460C37BD465DF8047B704778
:1016400080B483B000AF78607B689A68054B134024
:1016500043F080527B689A6000BF0C37BD465DF84E
:10166000047B7047C0FFFF6F80B483B000AF786029
:101670007B689B6803F08053B3F1805F01D1012345
:1016800000E0002318460C37BD465DF8047B704728
:1016900080B483B000AF78607B689A68054B1340D4
:1016A00043F001027B689A6000BF0C37BD465DF8CD
:1016B000047B7047C0FFFF7F80B483B000AF7860C9
:1016C0007B689B6803F00103012B01D1012300E03B
:1016D000002318460C37BD465DF8047B70470000B8
:1016E00080B483B000AF78607B689A68054B134084
:1016F00043F004027B689A6000BF0C37BD465DF87A
:10170000047B7047C0FFFF7F80B483B000AF786078
:101710007B689B6803F00403042B01D1012300E0E4
:10172000002318460C37BD465DF8047B704780B433
:1017300083B000AF78607B689B6803F00803082BD8
:1017400001D1012300E0002318460C37BD465DF8A7
:10175000047B704790B589B000AF78600023FB77B9
:101760000023BB607B68002B01D101238FE17B68E4
:10177000DB68002B7B685B6D002B09D17868FFF775
:10178000C9F87B6800229A657B68002283F85020A4
:101790007B681B681846FFF73FFF0346002B04D009
:1017A0007B681B681846FFF725FF7B681B68184697
:1017B000FFF75AFF0346002B14D17B681B681846BD
:1017C000FFF73EFF874B1B689B09874AA2FB032359
:1017D0009B090133BB6002E0BB68013BBB60BB6897
:1017E000002BF9D17B681B681846FFF73DFF0346C5
:1017F000002B0DD17B685B6D43F010027B685A654E
:101800007B689B6D43F001027B689A650123FB773F
:101810007B681B681846FFF777FF78617B685B6D14
:1018200003F01003002B40F029817B69002B40F06E
:1018300025817B685B6D23F4817343F002027B6832
:101840005A657B681B681846FFF736FF0346002B76
:1018500036D17B681B68654A934204D07B681B685D
:10186000634A93420ED16148FFF726FF0446604861
:10187000FFF722FF03462343002B0CBF0123002365
:10188000DBB208E05B48FFF717FF0346002B0CBFF5
:1018900001230023DBB2002B12D07B681B68534A64
:1018A000934204D07B681B68514A934201D1524A4B
:1018B00000E0524A7B685B6819461046FFF754FD0A
:1018C000FFF746FD034641F20302934214D97B68B9
:1018D0009B68102B10D17B685B7D5A037B681B6B68
:1018E0001A437B689B681A437B681B7F1B04134366
:1018F00043F00C03BB610DE07B685B7D5A037B68A2
:101900001B6B1A437B689B681A437B681B7F1B0415
:101910001343BB617B681B7F012B06D17B681B6A6D
:10192000013B5B04BA691343BB617B685B6A002BB4
:1019300009D07B685B6A03F478727B689B6A134307
:10194000BA691343BB617B681B68DA682C4B134090
:101950007A681268B9690B43D3607B681B681846C4
:10196000FFF7D2FE38617B681B681846FFF7DFFE81
:10197000F8603B69002B5FD1FB68002B5CD17B6872
:101980001B7D9A037B68DB6A1343BB617B681B6822
:10199000DA681C4B13407A681268B9690B43D3604C
:1019A0007B6893F83830012B30D17B685B6A002B61
:1019B0007B681B681A69144B13407A68D26B013A32
:1019C00011047A68126C11437A68526C11437A6878
:1019D000926C0A431A437B681B6842F001021A6149
:1019E0001CE000BF00000024632D3E0500200240E3
:1019F00000210240006002580023024000630258A8
:101A000003C0F0FFFCBFFFFF1EF800FC7B681B68F3
:101A10001A697B681B6822F001021A617B681B68E7
:101A20001B6923F070417B685A6B7B681B680A4313
:101A30001A61786801F03AF87B68DB68012B0CD1F9
:101A40007B681B681B6B23F00F017B689B695A1E28
:101A50007B681B680A431A6307E07B681B681A6B84
:101A60007B681B6822F00F021A637B685B6D23F0B2
:101A7000030343F001027B685A6507E07B685B6DF6
:101A800043F010027B685A650123FB77FB7F184601
:101A90002437BD4690BD00BF80B586B000AF7860EA
:101AA0007B681B685C4A934204D07B681B685B4A76
:101AB000934201D15A4B00E05A4B1846FFF77EFD86
:101AC00038617B681B681846FFF71EFE0346002B33
:101AD00040F09A807B6893F85030012B01D10223AB
:101AE00095E07B68012283F85020786800F054FF6D
:101AF0000346FB75FB7D002B40F081807B685A6DAF
:101B0000494B134043F480727B685A657B681B68BD
:101B1000424A934202D07B681B6800E03E4B7A68E1
:101B20001268934202D03B69002B05D17B685B6D44
:101B300023F480127B685A657B685B6D03F48053E5
:101B4000B3F5805F06D17B689B6D23F006027B684E
:101B50009A6502E07B6800229A657B681B681C22FC
:101B60001A607B68002283F850207B681B682B4A30
:101B7000934202D07B681B6800E0274B7A681268AA
:101B8000934208D03B69002B05D03B69052B02D05E
:101B90003B69092B14D17B681B68DB6803F0007379
:101BA000002B07D07B685B6D23F4405343F48052D5
:101BB0007B685A657B681B681846FFF791FD25E036
:101BC0007B685B6D43F480127B685A657B681B6899
:101BD000124A934202D07B681B6800E00E4BFB6008
:101BE000FB68DB6803F00073002B0FD07B685B6D34
:101BF00023F4405343F480527B685A6506E07B68C7
:101C0000002283F8502001E00223FB75FB7D18467B
:101C10001837BD4680BD00BF0020024000210240B1
:101C20000023024000630258FEF0FFFF80B588B039
:101C300000AF786039607B681B68724A934204D0B9
:101C40007B681B68704A934201D1704B00E0704B77
:101C50001846FFF7B3FC78617B681B69082B02D13B
:101C60000823FB6137E07B69002B05D07B69052BDE
:101C700002D07B69092B11D17B681B68DB6803F0FC
:101C80000103002B07D07B685B6D43F020027B686B
:101C90005A650123B1E00423FB611CE07B681B68EB
:101CA000584A934204D07B681B68574A934201D13B
:101CB000564B00E0564B1846FFF78EFC0346002BB0
:101CC00007D07B685B6D43F020027B685A65012377
:101CD00093E00423FB61FFF70BFB386121E03B68D5
:101CE000B3F1FF3F1DD0FFF703FB02463B69D31A58
:101CF0003A689A4202D33B68002B12D17B681B687A
:101D00001A68FB691340002B0BD17B685B6D43F0B5
:101D100004027B685A657B68002283F85020032305
:101D20006BE07B681B681A68FB691340002BD6D0F8
:101D30007B685B6D43F400727B685A657B681B6847
:101D40001846FFF799FB0346002B1CD07B685B7D90
:101D5000002B18D17B681B681B6803F00803082B55
:101D600011D17B685B6D23F480727B685A657B6858
:101D70005B6D03F48053002B05D17B685B6D43F0F2
:101D800001027B685A657B681B681F4A934202D038
:101D90007B681B6800E01B4B7A681268934208D08E
:101DA0007B69002B05D07B69052B02D07B69092B51
:101DB00004D17B681B68DB68BB610CE07B681B6837
:101DC000114A934202D07B681B6800E00D4BFB6018
:101DD000FB68DB68BB61FB69082B04D17B681B686F
:101DE00008221A6008E0BB6903F48043002B03D18A
:101DF0007B681B680C221A60002318462037BD46FA
:101E000080BD00BF002002400021024000230240AC
:101E10000063025880B483B000AF78607B681B68B1
:101E20001B6C18460C37BD465DF8047B70470000FC
:101E300080B58AB000AF786000237B627B681B6846
:101E40001B68FB617B681B685B68BB617B681B6808
:101E5000874A934204D07B681B68864A934201D12B
:101E6000854B00E0854B1846FFF7A8FB7861FB69BE
:101E700003F00203002B17D0BB6903F00203002B11
:101E800012D07B685B6D03F01003002B05D17B68DB
:101E90005B6D43F400627B685A65786800F060FF10
:101EA0007B681B6802221A60FB6903F00403002BA5
:101EB00004D0BB6903F00403002B0AD1FB6903F0D3
:101EC0000803002B00F08380BB6903F00803002B9C
:101ED0007DD07B685B6D03F01003002B05D17B6820
:101EE0005B6D43F400727B685A657B681B6818461B
:101EF000FFF7C2FA0346002B62D07B681B685D4A7D
:101F0000934202D07B681B6800E0594B7A681268E4
:101F1000934208D07B69002B05D07B69052B02D04A
:101F20007B69092B04D17B681B68DB683B620CE092
:101F30007B681B684F4A934202D07B681B6800E0B5
:101F40004B4B3B613B69DB683B623B6A03F40053EC
:101F5000002B35D17B681B681B6803F00803082B36
:101F60002ED17B681B681846FFF7CEFB0346002B7B
:101F70001AD17B681B685A687B681B6822F00C02C8
:101F80005A607B685B6D23F480727B685A657B685E
:101F90005B6D03F48053002B12D17B685B6D43F0C3
:101FA00001027B685A650BE07B685B6D43F01002B1
:101FB0007B685A657B689B6D43F001027B689A657C
:101FC000786800F06FF97B681B680C221A60FB6967
:101FD00003F02003002B04D0BB6903F02003002B87
:101FE0000BD1FB6903F04003002B00F0A080BB691C
:101FF00003F04003002B00F09A807B685B6D03F0D8
:102000001003002B05D17B685B6D43F400527B68A5
:102010005A657B681B681846FFF76DFAF8607B68A5
:102020001B681846FFF728FAB8607B681B68114ADE
:10203000934202D07B681B6800E00D4B7A681268FF
:10204000934208D07B69002B05D07B69062B02D018
:102050007B69072B04D17B681B68DB683B6214E05B
:102060007B681B68034A93420AD07B681B6808E0C0
:102070000020024000210240002302400063025879
:10208000844B3B613B69DB683B62FB68002B47D0BC
:102090003B6A03F00073002B07D0BB68002B3FD0D6
:1020A0003B6A03F40053002B3AD17B681B681B6822
:1020B00003F04003402B33D13B6A03F40013002BA1
:1020C0002ED17B681B681846FFF731FB0346002BB7
:1020D0001AD17B681B685A687B681B6822F0600213
:1020E0005A607B685B6D23F480527B685A657B681D
:1020F0005B6D03F48073002B12D17B685B6D43F042
:1021000001027B685A650BE07B685B6D43F010024F
:102110007B685A657B689B6D43F001027B689A651A
:10212000786800F0F5FD7B681B6860221A60FB6927
:1021300003F08003002B11D0BB6903F08003002B58
:102140000CD07B685B6D43F480327B685A6578689D
:1021500000F0B2F87B681B6880221A60FB6903F408
:102160008073002B12D0BB6903F48073002B0DD059
:102170007B685B6D43F400327B685A65786800F0D9
:10218000DBFD7B681B684FF480721A60FB6903F407
:102190000073002B12D0BB6903F40073002B0DD029
:1021A0007B685B6D43F480227B685A65786800F039
:1021B000CDFD7B681B684FF400721A60FB6903F069
:1021C0001003002B43D0BB6903F01003002B3ED05B
:1021D0007B681B6B002B02D101237B6221E07B69B2
:1021E000002B15D07B681B682A4A934204D07B6879
:1021F0001B68294A934201D1284B00E0284B18461E
:10220000FFF7EAF90346002B0BD001237B6208E0BD
:102210007B681B68DB6803F00303002B01D00123FC
:102220007B627B6A012B0ED17B685B6D43F480621D
:102230007B685A657B689B6D43F002027B689A65F8
:10224000786800F043F87B681B6810221A60FB690D
:1022500003F48063002B18D0BB6903F48063002B68
:1022600013D07B685B6D43F480427B685A657B6862
:102270009B6D43F008027B689A657B681B684FF48E
:1022800080621A60786800F04DFD00BF2837BD46B7
:1022900080BD00BF00200240002102400023024018
:1022A0000063025880B483B000AF786000BF0C3781
:1022B000BD465DF8047B704780B483B000AF7860A2
:1022C00000BF0C37BD465DF8047B704780B483B017
:1022D00000AF786000BF0C37BD465DF8047B7047E7
:1022E00090B5A1B000AF78603960002387F87F30E7
:1022F0000023BB603B68DB68654A93427B6893F8C8
:102300005030012B01D102232EE37B68012283F898
:1023100050207B681B681846FFF7F6F90346002B30
:1023200040F013833B681B68002B2CDB3B681B6869
:10233000C3F31303002B08D13B681B689B0E03F00B
:102340001F03012202FA03F316E03B681B687B6659
:102350007B6E93FAA3F33B663B6EBB66BB6E002BB2
:1023600001D1202303E0BB6EB3FA83F3DBB203F0A9
:102370001F03012202FA03F37A681268D1697A68AE
:1023800012680B43D3617B6818683B6859683B68E7
:102390001B681A46FFF783F87B681B681846FFF72F
:1023A000B3F9B8677B681B681846FFF7C0F9786710
:1023B000BB6F002B40F0B8807B6F002B40F0B480E7
:1023C0007B6818683B6819683B689B681A46FFF78A
:1023D000A5F8304B1B6803F07043B3F1805F0BD15D
:1023E0003B685A697B681B68DB689B0803F007033E
:1023F0005B0002FA03F31DE07B681B68DB6803F0F7
:102400001003002B0BD13B685A697B681B68DB68A3
:102410009B0803F007035B0002FA03F30AE03B6842
:102420005A697B681B68DB689B0803F004035B0048
:1024300002FA03F33B673B681B69042B2CD07B68D3
:1024400018683B6819693B681A683B6FFEF7C0FF64
:102450007B6818683B6819693B685B7E012B02D179
:102460004FF0004300E000231A46FEF7EAFF7B68C6
:1024700018683B6819693B681B7E012B02D14FF439
:10248000006300E000231A46FEF7C2FF4CE000BFE5
:102490000000FF470010005C7B681B681B6E03F0A8
:1024A000F8423B681B689B069A4207D17B681B6811
:1024B0001A6E7B681B6822F000421A667B681B68F4
:1024C0005B6E03F0F8423B681B689B069A4207D19B
:1024D0007B681B685A6E7B681B6822F000425A6654
:1024E0007B681B689B6E03F0F8423B681B689B0689
:1024F0009A4207D17B681B689A6E7B681B6822F042
:1025000000429A667B681B68DB6E03F0F8423B680A
:102510001B689B069A4207D17B681B68DA6E7B6852
:102520001B6822F00042DA667B681B681846FFF7DA
:10253000C3F80346002B40F011827B6818683B68A3
:1025400019683B68DB681A46FFF714F83B68DB68DC
:10255000A14A934240F02E817B6818683B681B6853
:10256000C3F31303002B0BD13B681B689B0E013395
:1025700003F01F03092B94BF01230023DBB219E0F2
:102580003B681B68BB65BB6D93FAA3F37B657B6DF2
:10259000FB65FB6D002B01D1202303E0FB6DB3FA3B
:1025A00083F3DBB2013303F01F03092B94BF012334
:1025B0000023DBB2002B79D03B681B68C3F3130305
:1025C000002B07D13B681B689B0E01339B0603F071
:1025D000F84215E03B681B68FB64FB6C93FAA3F3BD
:1025E000BB64BB6C3B653B6D002B01D1202303E03A
:1025F0003B6DB3FA83F3DBB201339B0603F0F84281
:102600003B681B68C3F31303002B09D13B681B68AD
:102610009B0E013303F01F03012101FA03F317E0BE
:102620003B681B683B643B6C93FAA3F3FB63FB6B57
:102630007B647B6C002B01D1202303E07B6CB3FA1D
:1026400083F3DBB2013303F01F03012101FA03F32B
:1026500042EA03013B681B68C3F31303002B0AD152
:102660003B681B689B0E013303F01F0213465B009F
:1026700013441B0518E03B681B687B637B6B93FA74
:10268000A3F33B633B6BBB63BB6B002B01D12023EC
:1026900003E0BB6BB3FA83F3DBB2013303F01F0239
:1026A00013465B0013441B050B437EE03B681B682D
:1026B000C3F31303002B07D13B681B689B0E013348
:1026C0009B0603F0F84215E03B681B68BB62BB6ADF
:1026D00093FAA3F37B627B6AFB62FB6A002B01D156
:1026E000202303E0FB6AB3FA83F3DBB201339B06DA
:1026F00003F0F8423B681B68C3F31303002B09D1B6
:102700003B681B689B0E013303F01F03012101FA94
:1027100003F317E03B681B68FB61FB6993FAA3F3C3
:10272000BB61BB693B623B6A002B01D1202303E004
:102730003B6AB3FA83F3DBB2013303F01F030121D9
:1027400001FA03F342EA03013B681B68C3F3130376
:10275000002B0DD13B681B689B0E013303F01F0259
:1027600013465B0013441E3B1B0543F000731BE044
:102770003B681B683B613B6993FAA3F3FB60FB6812
:102780007B617B69002B01D1202303E07B69B3FAD5
:1027900083F3DBB2013303F01F0213465B001344E3
:1027A0001E3B1B0543F000730B433A6892681946C1
:1027B000FEF7B4FE3B681B68002B80F2CF807B687D
:1027C0001B68064A934204D07B681B68044A934204
:1027D0000AD1044B09E000BF0000FF47002002407F
:1027E0000021024000230240614B1846FEF7E2FD43
:1027F000F8667B681B685F4A934204D07B681B685D
:102800005D4A93420ED15B48FEF756FF04465A4894
:10281000FEF752FF03462343002B0CBF0123002386
:10282000DBB208E05548FEF747FF0346002B0CBF1C
:1028300001230023DBB2002B7DD03B681B68504A8C
:10284000934230D1FB6E03F40003002B2BD17B6845
:102850001B684A4A934240F081807B681B68454A66
:10286000934204D07B681B68434A934201D1454A96
:1028700000E03F4AFB6E43F4000319461046FEF7A2
:1028800086FD414B1B689B09404AA2FB03239B0921
:1028900001335B00BB6002E0BB68013BBB60BB680F
:1028A000002BF9D15AE03B681B68394A93421ED18C
:1028B000FB6E03F08073002B19D17B681B682F4AD5
:1028C00093424BD17B681B682A4A934204D07B68B1
:1028D0001B68294A934201D12A4A00E0244AFB6E30
:1028E00043F0807319461046FEF751FD36E03B6811
:1028F0001B68284A934231D1FB6E03F48003002BFE
:102900002CD17B681B681D4A934227D17B681B68CA
:10291000184A934204D07B681B68174A934201D13E
:10292000184A00E0124AFB6E43F480031946104631
:10293000FEF72DFD12E07B685B6D43F020027B68A3
:102940005A65012387F87F3008E07B685B6D43F0B0
:1029500020027B685A65012387F87F307B6800225C
:1029600083F8502097F87F3018468437BD4690BDD5
:10297000006302580020024000210240006002581B
:10298000000084CB0023024000000024632D3E059C
:10299000000052C70000B8CF80B584B000AF7860A7
:1029A0007B681B681846FEF787FE0346002B6ED136
:1029B0007B681B689A68384B1340002B0DD07B68EE
:1029C0005B6D43F010027B685A657B689B6D43F03A
:1029D00001027B689A6501235AE07B681B681846F0
:1029E000FEF756FEFEF784FCF8607B681B682B4AF6
:1029F000934204D07B681B68294A934201D1294B3A
:102A000000E0294B1846FEF7D9FDB8607B681B68CB
:102A1000234A934202D07B681B6800E01F4B7A6810
:102A2000126893422CD0BB68002B30D128E07B6821
:102A30001B681846FEF740FE0346002B04D17B6856
:102A40001B681846FEF724FEFEF752FC0246FB68A0
:102A5000D31A022B14D97B681B681B6803F001038F
:102A6000012B0DD07B685B6D43F010027B685A65CB
:102A70007B689B6D43F001027B689A65012307E048
:102A80007B681B681B6803F00103012BCFD1002377
:102A900018461037BD4680BD3F0000800020024030
:102AA00000210240002302400063025880B584B038
:102AB00000AF78607B681B687A4A934204D07B68D9
:102AC0001B68794A934209D1784B9B6803F44033E1
:102AD000002B14BF01230023DBB208E0744B9B687A
:102AE00003F44033002B14BF01230023DBB2002B7F
:102AF0001CD002F0B1FAF8607B685B68B3F5403F28
:102B000010D0B3F5403F73D8B3F5803F02D0B3F592
:102B1000003F6DD17B685B681B0CFA68B2FBF3F376
:102B2000FB6068E0FB689B08FB6064E04FF40020FA
:102B30004FF0000103F0F6FCF8607B685B68B3F5CA
:102B4000301F51D0B3F5301F54D8B3F5201F47D0F4
:102B5000B3F5201F4ED8B3F5101F3DD0B3F5101FAD
:102B600048D8B3F5001F33D0B3F5001F42D8B3F5F2
:102B7000E01F29D0B3F5E01F3CD8B3F5C01F1AD031
:102B8000B3F5C01F36D8B3F5A01F14D0B3F5A01FFE
:102B900030D8B3F5801F0ED0B3F5801F2AD8B3F517
:102BA000402F08D0B3F5402F24D8B3F5802F02D0A2
:102BB000B3F5002F1ED17B685B689B0C5B00FA6845
:102BC000B2FBF3F3FB6016E0FB681B09FB6012E04D
:102BD000FB685B09FB600EE0FB689B09FB600AE099
:102BE000FB68DB09FB6006E0FB681B0AFB6002E098
:102BF00000BF00E000BFFEF7ABFB034641F203025B
:102C0000934215D8FB682B4A934208D97B681B680E
:102C10009A687B681B6842F480729A603EE07B6829
:102C20001B689A687B681B6822F480729A6035E0A2
:102C3000FB685B08FB60FB681F4A934208D87B680F
:102C40001B689A687B681B6822F440729A6025E0D2
:102C5000FB681A4A93420AD87B681B689B6823F476
:102C600040727B681B6842F480729A6016E0FB68D1
:102C7000134A93420AD87B681B689B6823F440720E
:102C80007B681B6842F400729A6007E07B681B68EF
:102C90009A687B681B6842F440729A6000BF1037E4
:102CA000BD4680BD002002400021024000230240BA
:102CB00000630258002D3101105E5F0020BCBE0091
:102CC00040787D0180B483B000AF78607B689B68FA
:102CD00003F00103012B01D1012300E0002318467A
:102CE0000C37BD465DF8047B704780B483B000AFFD
:102CF00078607B689B6803F00403042B01D10123F7
:102D000000E0002318460C37BD465DF8047B704791
:102D100080B483B000AF786000BF0C37BD465DF86B
:102D2000047B704780B483B000AF786000BF0C377D
:102D3000BD465DF8047B704780B483B000AF786017
:102D400000BF0C37BD465DF8047B704780B483B08C
:102D500000AF786000BF0C37BD465DF8047B70475C
:102D600080B483B000AF786000BF0C37BD465DF81B
:102D7000047B704790B59FB000AF78603960002346
:102D800087F877307B6893F85030012B01D102230C
:102D9000BEE07B68012283F850200023FB650023FE
:102DA0003B667B681B685C4A934202D15B4BBB600D
:102DB00001E00023BB60BB68002B0BD17B685B6D1F
:102DC00043F020027B685A657B68002283F850201C
:102DD00001239DE0BB681846FFF787FF38677B68D3
:102DE0001B681846FFF781FF0346002B7FD13B6F1E
:102DF000002B7CD17B681B68474A934204D07B68D8
:102E00001B68464A934201D1454B00E0454BFB66A7
:102E10003B681B68002B39D0FB6E9B6823F4404253
:102E20003B685B681A43FB6E9A607B681B683A4A92
:102E3000934204D07B681B68384A93420ED13648CF
:102E4000FFF740FF04463548FFF73CFF03462343A6
:102E5000002B0CBF01230023DBB208E03248FFF750
:102E600031FF0346002B0CBF01230023DBB2002BF4
:102E700047D0FB6E9A682D4B13403A6811683A6848
:102E800092680A431A43FB6E9A603AE0FB6E9B68B5
:102E900023F44042FB6E9A607B681B681E4A934293
:102EA00004D07B681B681D4A93420ED11A48FFF775
:102EB00009FF04461948FFF705FF03462343002B8B
:102EC0000CBF01230023DBB208E01748FFF7FAFE2E
:102ED0000346002B0CBF01230023DBB2002B10D0D4
:102EE000FB6E9A68114B1340FA6E936009E07B68A1
:102EF0005B6D43F020027B685A65012387F87730C9
:102F000000E000BF7B68002283F8502097F87730FC
:102F100018467C37BD4690BD00200240002102408B
:102F2000002302400063025800600258E0F0FFFFF7
:102F300080B485B000AF78607B6803F00703FB6066
:102F40000B4BDB68BB60BA684FF6FF031340BB60F6
:102F5000FB681A02BB681A43064B1343BB60044A62
:102F6000BB68D36000BF1437BD465DF8047B704773
:102F700000ED00E00000FA0580B400AF044BDB6810
:102F80001B0A03F007031846BD465DF8047B704733
:102F900000ED00E080B483B000AF0346FB80B7F9DA
:102FA0000630002B0BDBFB8803F01F020749B7F943
:102FB00006305B09012000FA02F241F8232000BF2D
:102FC0000C37BD465DF8047B704700BF00E100E0B0
:102FD00080B483B000AF03463960FB80B7F9063098
:102FE000002B0ADB3B68DAB20C49B7F90630120154
:102FF000D2B20B4483F800230AE03B68DAB20849F6
:10300000FB8803F00F03043B1201D2B20B441A7683
:1030100000BF0C37BD465DF8047B704700E100E05F
:1030200000ED00E080B489B000AFF860B9607A606C
:10303000FB6803F00703FB61FB69C3F10703042B83
:1030400028BF0423BB61FB690433062B02D9FB694B
:10305000033B00E000237B614FF0FF32BB6902FAC3
:1030600003F3DA43BB681A407B699A404FF0FF31A3
:103070007B6901FA03F3D9437B680B40134318467D
:103080002437BD465DF8047B7047000080B582B0F0
:1030900000AF78607B68013BB3F1807F01D30123EF
:1030A0000FE00A4A7B68013B53600F214FF0FF306D
:1030B000FFF78EFF054B00229A60044B07221A602F
:1030C000002318460837BD4680BD00BF10E000E071
:1030D00080B582B000AF78607868FFF729FF00BF45
:1030E0000837BD4680BD80B586B000AF0346B960E5
:1030F0007A60FB81FFF740FF78617A68B968786988
:10310000FFF790FF0246B7F90E3011461846FFF759
:103110005FFF00BF1837BD4680BD80B582B000AFED
:103120000346FB80B7F906301846FFF733FF00BFB0
:103130000837BD4680BD80B582B000AF7860786842
:10314000FFF7A4FF034618460837BD4680BD0000C0
:1031500080B400AFBFF35F8F00BF074B5B6A064AC6
:1031600023F480335362054B00225A6000BFBD46F2
:103170005DF8047B704700BF00ED00E090ED00E0DB
:1031800080B483B000AF78600B4A7B6843F00103E2
:1031900053600A4B5B6A094A43F480335362BFF3BE
:1031A0004F8F00BFBFF36F8F00BF00BF0C37BD460E
:1031B0005DF8047B704700BF90ED00E000ED00E09B
:1031C00080B483B000AF78607B685A781B4B9A60FC
:1031D0001A4B1B69194A23F001031361174A7B68D4
:1031E0005B68D3607B681B7B1A077B68DB7A1B06F6
:1031F0001A437B689B7ADB041A437B685B7B9B04E6
:103200001A437B689B7B5B041A437B68DB7B1B0454
:103210001A437B685B7A1B021A437B681B7A5B004C
:1032200013437A6812781146044A0B43136100BFB6
:103230000C37BD465DF8047B704700BF90ED00E0A1
:1032400080B586B000AF7860FEF752F838617B68D1
:10325000002B01D10123DCE27B6893F83530DBB22F
:10326000022B08D07B6880225A657B68002283F895
:1032700034200123CDE27B681B68764A93424AD012
:103280007B681B68744A934245D07B681B68734A0D
:10329000934240D07B681B68714A93423BD07B6865
:1032A0001B68704A934236D07B681B686E4A934213
:1032B00031D07B681B686D4A93422CD07B681B68B9
:1032C0006B4A934227D07B681B686A4A934222D09C
:1032D0007B681B68684A93421DD07B681B68674AFD
:1032E000934218D07B681B68654A934213D07B6871
:1032F0001B68644A93420ED07B681B68624A934203
:1033000009D07B681B68614A934204D07B681B68C4
:103310005F4A934201D1012300E00023002B13D028
:103320007B681B681A687B681B6822F01E021A60A3
:103330007B681B685A697B681B6822F080025A61AF
:103340007B681B687B610AE07B681B681A687B6886
:103350001B6822F00E021A607B681B687B617B6829
:103360001B683C4A934272D07B681B683A4A93427E
:103370006DD07B681B68394A934268D07B681B68B4
:10338000374A934263D07B681B68364A93425ED0CB
:103390007B681B68344A934259D07B681B68334A68
:1033A000934254D07B681B68314A93424FD07B686C
:1033B0001B68304A93424AD07B681B682E4A93426E
:1033C00045D07B681B682D4A934240D07B681B68C0
:1033D0002B4A93423BD07B681B682A4A934236D0E3
:1033E0007B681B68284A934231D07B681B68274A58
:1033F00093422CD07B681B68254A934227D07B6878
:103400001B68244A934222D07B681B68224A93425D
:103410001DD07B681B68214A934218D07B681B68CB
:103420001F4A934213D07B681B681E4A93420ED0FA
:103430007B681B681C4A934209D07B681B681B4A47
:10344000934204D07B681B68194A934232D101230E
:1034500031E000BF1000024028000240400002405E
:10346000580002407000024088000240A000024064
:10347000B800024010040240280402404004024008
:10348000580402407004024088040240A004024034
:10349000B8040240085402581C54025830540258D0
:1034A00044540258585402586C54025880540258DC
:1034B000945402580023002B07D07B681B6E1A68B7
:1034C0007B681B6E22F480721A607B681B686D4AF1
:1034D00093424AD07B681B686B4A934245D07B6815
:1034E0001B686A4A934240D07B681B68684A9342D3
:1034F0003BD07B681B68674A934236D07B681B6869
:10350000654A934231D07B681B68644A93422CD051
:103510007B681B68624A934227D07B681B68614ABC
:10352000934222D07B681B685F4A93421DD07B6820
:103530001B685E4A934218D07B681B685C4A9342C2
:1035400013D07B681B685B4A93420ED07B681B6874
:10355000594A934209D07B681B68584A934204D069
:103560007B681B68564A934208D17B681B681A68BF
:103570007B681B6822F001021A6007E07B681B6809
:103580001A687B681B6822F001021A6013E0FDF7DD
:10359000AFFE02463B69D31A052B0CD97B6820226B
:1035A0005A657B68032283F835207B68002283F804
:1035B000342001232DE17B691B6803F00103002BFC
:1035C000E5D17B681B682F4A93424AD07B681B6811
:1035D0002D4A934245D07B681B682C4A934240D0C9
:1035E0007B681B682A4A93423BD07B681B68294A48
:1035F000934236D07B681B68274A934231D07B6860
:103600001B68264A93422CD07B681B68244A93424D
:1036100027D07B681B68234A934222D07B681B68B3
:10362000214A93421DD07B681B68204A934218D0E0
:103630007B681B681E4A934213D07B681B681D4A37
:1036400093420ED07B681B681B4A934209D07B686B
:103650001B681A4A934204D07B681B68184A93423D
:1036600001D1012300E00023002B2BD07B689B6D50
:10367000BB607B68DB6D03F01F033F229A40BB6891
:103680009A602AE0100002402800024040000240F8
:10369000580002407000024088000240A000024032
:1036A000B8000240100402402804024040040240D6
:1036B000580402407004024088040240A004024002
:1036C000B80402407B689B6DFB607B68DB6D03F098
:1036D0001F0301229A40FB685A607B681B684F4AAF
:1036E000934272D07B681B684D4A93426DD07B68D1
:1036F0001B684C4A934268D07B681B684A4A9342D5
:1037000063D07B681B68494A93425ED07B681B6824
:10371000474A934259D07B681B68464A934254D02B
:103720007B681B68444A93424FD07B681B68434ABE
:1037300093424AD07B681B68414A934245D07B68DC
:103740001B68404A934240D07B681B683E4A9342C4
:103750003BD07B681B683D4A934236D07B681B6830
:103760003B4A934231D07B681B683A4A93422CD043
:103770007B681B68384A934227D07B681B68374AAE
:10378000934222D07B681B68354A93421DD07B68E8
:103790001B68344A934218D07B681B68324A9342B4
:1037A00013D07B681B68314A93420ED07B681B683C
:1037B0002F4A934209D07B681B682E4A934204D05B
:1037C0007B681B682C4A934201D1012300E000234F
:1037D000002B15D07B685B6E7A68926E5A607B68AE
:1037E000DB6E002B0CD07B68DB6E1A687B68DB6EAF
:1037F00022F480721A607B681B6F7A68526F5A607D
:103800007B68012283F835207B68002283F834200E
:10381000002318461837BD4680BD00BF1000024087
:103820002800024040000240580002407000024060
:1038300088000240A0000240B8000240100402408C
:103840002804024040040240580402407004024030
:1038500088040240A0040240B80402400854025800
:103860001C540258305402584454025858540258B8
:103870006C540258805402589454025880B584B055
:1038800000AF78607B68002B01D1012337E27B68B1
:1038900093F83530DBB2022B04D07B6880225A6566
:1038A00001232CE27B681B685C4A93424AD07B6808
:1038B0001B685B4A934245D07B681B68594A934218
:1038C00040D07B681B68584A93423BD07B681B689A
:1038D000564A934236D07B681B68554A934231D092
:1038E0007B681B68534A93422CD07B681B68524A02
:1038F000934227D07B681B68504A934222D07B6852
:103900001B684F4A93421DD07B681B684D4A934207
:1039100018D07B681B684C4A934213D07B681B68A5
:103920004A4A93420ED07B681B68494A934209D0A9
:103930007B681B68474A934204D07B681B68464AF1
:10394000934201D1012300E00023002B00F0868088
:103950007B68042283F835207B681B682F4A9342DA
:103960004AD07B681B682E4A934245D07B681B680F
:103970002C4A934240D07B681B682B4A93423BD031
:103980007B681B68294A934236D07B681B68284AAB
:10399000934231D07B681B68264A93422CD07B68C7
:1039A0001B68254A934227D07B681B68234A9342B1
:1039B00022D07B681B68224A93421DD07B681B681B
:1039C000204A934218D07B681B681F4A934213D049
:1039D0007B681B681D4A93420ED07B681B681C4A9B
:1039E000934209D07B681B681A4A934204D07B68D3
:1039F0001B68194A934208D17B681B681A687B6868
:103A00001B6822F001021A6078E17B681B681A6863
:103A10007B681B6822F001021A606FE1100002400F
:103A2000280002404000024058000240700002405E
:103A300088000240A0000240B8000240100402408A
:103A4000280402404004024058040240700402402E
:103A500088040240A0040240B80402407B681B684E
:103A60001A687B681B6822F00E021A607B681B686C
:103A70006C4A93424AD07B681B686B4A934245D09C
:103A80007B681B68694A934240D07B681B68684A20
:103A900093423BD07B681B68664A934236D07B6872
:103AA0001B68654A934231D07B681B68634A934226
:103AB0002CD07B681B68624A934227D07B681B68C6
:103AC000604A934222D07B681B685F4A93421DD0B4
:103AD0007B681B685D4A934218D07B681B685C4A10
:103AE000934213D07B681B685A4A93420ED07B687E
:103AF0001B68594A934209D07B681B68574A934216
:103B000004D07B681B68564A934208D17B681B68C7
:103B10001A687B681B6822F001021A6007E07B6864
:103B20001B681A687B681B6822F001021A607B68B8
:103B30001B683C4A934272D07B681B683A4A9342A6
:103B40006DD07B681B68394A934268D07B681B68DC
:103B5000374A934263D07B681B68364A93425ED0F3
:103B60007B681B68344A934259D07B681B68334A90
:103B7000934254D07B681B68314A93424FD07B6894
:103B80001B68304A93424AD07B681B682E4A934296
:103B900045D07B681B682D4A934240D07B681B68E8
:103BA0002B4A93423BD07B681B682A4A934236D00B
:103BB0007B681B68284A934231D07B681B68274A80
:103BC00093422CD07B681B68254A934227D07B68A0
:103BD0001B68244A934222D07B681B68224A934286
:103BE0001DD07B681B68214A934218D07B681B68F4
:103BF0001F4A934213D07B681B681E4A93420ED023
:103C00007B681B681C4A934209D07B681B681B4A6F
:103C1000934204D07B681B68194A934232D1012336
:103C200031E000BF10000240280002404000024086
:103C3000580002407000024088000240A00002408C
:103C4000B800024010040240280402404004024030
:103C5000580402407004024088040240A00402405C
:103C6000B8040240085402581C54025830540258F8
:103C700044540258585402586C5402588054025804
:103C8000945402580023002B28D07B681B6E1A68BE
:103C90007B681B6E22F480721A607B689B6DFB60F0
:103CA0007B68DB6D03F01F0301229A40FB685A60BA
:103CB0007B685B6E7A68926E5A607B68DB6E002B65
:103CC0000CD07B68DB6E1A687B68DB6E22F4807236
:103CD0001A607B681B6F7A68526F5A607B6801229A
:103CE00083F835207B68002283F834207B681B6DC5
:103CF000002B03D07B681B6D78689847002318461B
:103D00001037BD4680BD00BF80B489B000AF786079
:103D100039600023FB61894B7B6194E13B681A6841
:103D20000121FB6901FA03F313403B613B69002B5E
:103D300000F086813B685B6803F00303012B05D02C
:103D40003B685B6803F00303022B30D17B689B6800
:103D5000BB61FB695B00032202FA03F3DB43BA6930
:103D60001340BB613B68DA68FB695B0002FA03F34E
:103D7000BA691343BB617B68BA699A607B685B6808
:103D8000BB610122FB6902FA03F3DB43BA6913400A
:103D9000BB613B685B681B0903F00102FB6902FA27
:103DA00003F3BA691343BB617B68BA695A603B6825
:103DB0005B6803F00303032B17D07B68DB68BB61F0
:103DC000FB695B00032202FA03F3DB43BA69134089
:103DD000BB613B689A68FB695B0002FA03F3BA694E
:103DE0001343BB617B68BA69DA603B685B6803F0C8
:103DF0000303022B23D1FB69DA087B68083253F8EE
:103E00002230BB61FB6903F007039B000F2202FA1B
:103E100003F3DB43BA691340BB613B681A69FB6972
:103E200003F007039B0002FA03F3BA691343BB6173
:103E3000FB69DA087B680832B96943F822107B68AD
:103E40001B68BB61FB695B00032202FA03F3DB43DF
:103E5000BA691340BB613B685B6803F00302FB690E
:103E60005B0002FA03F3BA691343BB617B68BA696A
:103E70001A603B685B6803F44033002B00F0E0807D
:103E80002F4BD3F8F4302E4A43F00203C2F8F4303B
:103E90002B4BD3F8F43003F00203FB60FB68294A94
:103EA000FB699B08023352F82330BB61FB6903F0C6
:103EB00003039B000F2202FA03F3DB43BA691340AA
:103EC000BB617B68204A934252D07B681F4A934271
:103ED00031D07B681E4A93422BD07B681D4A9342A7
:103EE00025D07B681C4A93421FD07B681B4A9342B3
:103EF00019D07B681A4A934213D07B68194A9342BF
:103F00000DD07B68184A934207D07B68174A9342CA
:103F100001D109232DE00A232BE0082329E0072300
:103F200027E0062325E0052323E0042321E00323E3
:103F30001FE002231DE001231BE000BF80000058AA
:103F400000440258000400580000025800040258BF
:103F500000080258000C02580010025800140258C1
:103F600000180258001C0258002002580024025871
:103F70000023FA6902F0030292009340BA691343E6
:103F8000BB613849FB699B080233BA6941F82320B9
:103F90004FF0B0431B68BB613B69DB43BA69134018
:103FA000BB613B685B6803F48013002B03D0BA69E4
:103FB0003B691343BB614FF0B042BB6913604FF0E4
:103FC000B0435B68BB613B69DB43BA691340BB61CB
:103FD0003B685B6803F40013002B03D0BA693B69AC
:103FE0001343BB614FF0B042BB6953607B695B68B0
:103FF000BB613B69DB43BA691340BB613B685B68EB
:1040000003F40033002B03D0BA693B691343BB614F
:104010007B69BA695A607B691B68BB613B69DB439A
:10402000BA691340BB613B685B6803F48033002BC3
:1040300003D0BA693B691343BB617B69BA691A60F3
:10404000FB690133FB613B681A68FB6922FA03F3E1
:10405000002B7FF463AE00BF00BF2437BD465DF880
:10406000047B70470004005880B483B000AF7860D0
:104070000B467B8013467B707B78002B03D07A88BD
:104080007B689A6103E07B881A047B689A6100BFB1
:104090000C37BD465DF8047B704780B485B000AF37
:1040A00078600B467B807B685B69FB607A88FB6885
:1040B00013401A04FB68D9437B880B401A437B6882
:1040C0009A6100BF1437BD465DF8047B704700005D
:1040D00080B584B000AF7860194BDB6803F004034F
:1040E000042B0AD0164BDB6803F007037A689A4268
:1040F00001D001231FE000231DE0114BDB6823F0FA
:1041000007020F497B681343CB60FDF7F1F8F860B5
:1041100009E0FDF7EDF80246FB68D31AB3F57A7FA4
:1041200001D9012307E0064B5B6803F40053B3F5A4
:10413000005FEED1002318461037BD4680BD00BF9A
:104140000048025880B58CB000AF78607B68002BC7
:1041500002D1012300F048BC7B681B6803F0010317
:10416000002B00F08880994B1B6903F03803FB6239
:10417000964B9B6ABB62FB6A102B07D0FB6A182B1D
:1041800011D1BB6A03F00303022B0CD18F4B1B68C8
:1041900003F40033002B6DD07B685B68002B69D182
:1041A000012300F021BC7B685B68B3F5803F06D13A
:1041B000864B1B68854A43F4803313602EE07B688E
:1041C0005B68002B0CD1814B1B68804A23F4803341
:1041D00013607E4B1B687D4A23F4802313601DE02F
:1041E0007B685B68B3F5A02F0CD1784B1B68774ACE
:1041F00043F480231360754B1B68744A43F4803387
:1042000013600BE0714B1B68704A23F4803313601A
:104210006E4B1B686D4A23F4802313607B685B68D8
:10422000002B13D0FDF764F8786208E0FDF760F822
:1042300002467B6AD31A642B01D90323D4E3634B70
:104240001B6803F40033002BF0D014E0FDF750F8A6
:10425000786208E0FDF74CF802467B6AD31A642BBB
:1042600001D90323C0E3594B1B6803F40033002B2F
:10427000F0D100E000BF7B681B6803F00203002B55
:1042800000F0CA80514B1B6903F038033B624F4B6F
:104290009B6AFB613B6A002B07D03B6A182B56D107
:1042A000FB6903F00303002B51D1484B1B6803F05B
:1042B0000403002B05D07B68DB68002B01D10123B0
:1042C00092E3424B1B6823F019027B68DB683F498D
:1042D00013430B60FDF70CF8786208E0FDF708F86F
:1042E00002467B6AD31A022B01D903237CE3374BA6
:1042F0001B6803F00403002BF0D0FDF729F80346F8
:1043000041F20302934217D87B681B69402B08D106
:104310002E4B5B6823F47C332C4A43F40033536008
:104320007AE02A4B5B6823F47C327B681B691B03B1
:10433000264913434B606FE0244B5B6823F0FE4239
:104340007B681B691B06214913434B6064E07B6853
:10435000DB68002B47D01D4B1B6823F019027B68DC
:10436000DB681A4913430B60FCF7C2FF786208E070
:10437000FCF7BEFF02467B6AD31A022B01D9032346
:1043800032E3124B1B6803F00403002BF0D0FCF760
:10439000DFFF034641F20302934219D87B681B6991
:1043A000402B08D1094B5B6823F47C33074A43F464
:1043B0000033536030E0054B5B6823F47C327B684C
:1043C0001B691B03014913434B6025E0004402585D
:1043D0009A4B5B6823F0FE427B681B691B0697497A
:1043E00013434B6018E0954B1B68944A23F001037C
:1043F0001360FCF77DFF786208E0FCF779FF024666
:104400007B6AD31A022B01D90323EDE28B4B1B6885
:1044100003F00403002BF0D17B681B6803F010034A
:10442000002B00F0A980854B1B6903F03803BB61AA
:10443000824B9B6A7B61BB69082B07D0BB69182B39
:104440003AD17B6903F00303012B35D17B4B1B6809
:1044500003F48073002B05D07B68DB69802B01D0CF
:104460000123C1E2FCF774FF034641F203029342C9
:1044700017D87B681B6A202B08D1704B5B6823F030
:10448000F8436E4A43F08043536075E06B4B5B68C2
:1044900023F0F8427B681B6A9B06684913434B6014
:1044A0006AE0664BDB6823F07C527B681B6A1B0664
:1044B00062491343CB605FE07B68DB69002B42D02D
:1044C0005E4B1B685D4A43F080031360FCF710FFEE
:1044D000786208E0FCF70CFF02467B6AD31A022BD5
:1044E00001D9032380E2554B1B6803F48073002B32
:1044F000F0D0FCF72DFF034641F20302934217D898
:104500007B681B6A202B08D14C4B5B6823F0F84377
:104510004A4A43F0804353602EE0484B5B6823F0E7
:10452000F8427B681B6A9B06444913434B6023E0B7
:10453000424BDB6823F07C527B681B6A1B063F49B9
:104540001343CB6018E03D4B1B683C4A23F08003CB
:104550001360FCF7CDFE786208E0FCF7C9FE024666
:104560007B6AD31A022B01D903233DE2334B1B682C
:1045700003F48073002BF0D17B681B6803F0080301
:10458000002B36D07B685B69002B19D02B4B5B6FFF
:104590002A4A43F001035367FCF7AAFE786208E059
:1045A000FCF7A6FE02467B6AD31A022B01D903232D
:1045B0001AE2224B5B6F03F00203002BF0D018E0ED
:1045C0001E4B5B6F1D4A23F001035367FCF790FEFF
:1045D000786208E0FCF78CFE02467B6AD31A022B55
:1045E00001D9032300E2154B5B6F03F00203002B9C
:1045F000F0D17B681B6803F02003002B39D07B6867
:104600009B69002B1CD00D4B1B680C4A43F4805354
:104610001360FCF76DFE786208E0FCF769FE024665
:104620007B6AD31A022B01D90323DDE1034B1B68FC
:1046300003F40053002BF0D01BE000BF00440258ED
:104640009B4B1B689A4A23F480531360FCF750FE7F
:10465000786208E0FCF74CFE02467B6AD31A022B14
:1046600001D90323C0E1924B1B6803F40053002BD4
:10467000F0D17B681B6803F00403002B00F08180FD
:104680008C4B1B688B4A43F480731360FCF730FE3D
:10469000786208E0FCF72CFE02467B6AD31A642B92
:1046A00001D90323A0E1834B1B6803F48073002B23
:1046B000F0D07B689B68012B06D17D4B1B6F7C4A39
:1046C00043F0010313672DE07B689B68002B0CD13E
:1046D000774B1B6F764A23F001031367744B1B6FF4
:1046E000734A23F0040313671CE07B689B68052B67
:1046F0000CD16F4B1B6F6E4A43F0040313676C4B76
:104700001B6F6B4A43F0010313670BE0684B1B6F91
:10471000674A23F001031367654B1B6F644A23F05C
:10472000040313677B689B68002B15D0FCF7E0FD42
:1047300078620AE0FCF7DCFD02467B6AD31A41F29C
:104740008832934201D903234EE1594B1B6F03F08A
:104750000203002BEED014E0FCF7CAFD78620AE0F9
:10476000FCF7C6FD02467B6AD31A41F288329342B7
:1047700001D9032338E14E4B1B6F03F00203002BDA
:10478000EED17B685B6A002B00F02D81484B1B69E2
:1047900003F03803182B00F0BD807B685B6A022BA6
:1047A00040F09E80424B1B68414A23F080731360A7
:1047B000FCF79EFD786208E0FCF79AFD02467B6AF2
:1047C000D31A022B01D903230EE1394B1B6803F0E6
:1047D0000073002BF0D1364B9A6A374B13407A683E
:1047E000916A7A68D26A12010A43314913438B6293
:1047F0007B681B6B013BC3F308027B685B6B013B6F
:104800005B029BB21A437B689B6B013B1B0403F466
:10481000FE031A437B68DB6B013B1B0603F0FE4380
:10482000234913430B63224BDB6A214A23F0010324
:10483000D3621F4B5A6B214B13407A68926CD200A3
:104840001B4913434B631A4BDB6A23F00C027B6852
:104850001B6C17491343CB62154BDB6A23F0020232
:104860007B685B6C12491343CB62114BDB6A104AC5
:1048700043F48033D3620E4BDB6A0D4A43F40033BA
:10488000D3620B4BDB6A0A4A43F48023D362084BA2
:10489000DB6A074A43F00103D362054B1B68044AF5
:1048A00043F080731360FCF723FD786211E000BFD2
:1048B00000440258004802580CFCFFFF0700FFFFAD
:1048C000FCF716FD02467B6AD31A022B01D903239B
:1048D0008AE0474B1B6803F00073002BF0D082E0A6
:1048E000434B1B68424A23F080731360FCF700FDC2
:1048F000786208E0FCF7FCFC02467B6AD31A022BC4
:1049000001D9032370E03A4B1B6803F00073002BBE
:10491000F0D168E0364B9B6A3B61354B1B6BFB600B
:104920007B685B6A012B31D03B6903F003027B6833
:104930009B6A9A422AD13B691B0903F03F027B68BC
:10494000DB6A9A4222D1FB68C3F308027B681B6BC7
:10495000013B9A421AD1FB685B0A03F07F027B6835
:104960005B6B013B9A4211D1FB681B0C03F07F0289
:104970007B689B6B013B9A4208D1FB681B0E03F0DE
:104980007F027B68DB6B013B9A4201D001232BE065
:10499000174B5B6BDB08C3F30C033B617B689B6CC1
:1049A0003A699A421FD0124BDB6A114A23F0010385
:1049B000D362FCF79DFC786200BFFCF799FC0246CD
:1049C0007B6A9342F9D00A4B5A6B0A4B13407A68C0
:1049D000926CD200064913434B63054BDB6A044AD1
:1049E00043F00103D362002318463037BD4680BD33
:1049F000004402580700FFFF80B586B000AF786022
:104A000039607B68002B01D101239CE18A4B1B6834
:104A100003F00F033A689A4210D9874B1B6823F0C2
:104A20000F0285493B6813430B60834B1B6803F0FF
:104A30000F033A689A4201D0012384E17B681B6826
:104A400003F00403002B10D07B681A697B4B9B6931
:104A500003F070039A4208D9784B9B6923F07002E7
:104A60007B681B69754913438B617B681B6803F086
:104A70000803002B10D07B685A69704BDB6903F088
:104A800070039A4208D96D4BDB6923F070027B6892
:104A90005B696A491343CB617B681B6803F01003B1
:104AA000002B10D07B689A69644BDB6903F4E063E8
:104AB0009A4208D9614BDB6923F4E0627B689B6909
:104AC0005E491343CB617B681B6803F02003002B16
:104AD00010D07B68DA69594B1B6A03F070039A4265
:104AE00008D9564B1B6A23F070027B68DB69534977
:104AF00013430B627B681B6803F00203002B10D08A
:104B00007B68DA684D4B9B6903F00F039A4208D922
:104B10004A4B9B6923F00F027B68DB6847491343CC
:104B20008B617B681B6803F00103002B55D0434B5E
:104B30009B6923F470627B689B68404913438B61D7
:104B40007B685B68022B07D13C4B1B6803F4003386
:104B5000002B21D10123F6E07B685B68032B07D192
:104B6000364B1B6803F00073002B15D10123EAE0DC
:104B70007B685B68012B07D1304B1B6803F48073A3
:104B8000002B09D10123DEE02C4B1B6803F004034A
:104B9000002B01D10123D6E0284B1B6923F007022B
:104BA0007B685B68254913430B61FCF7A1FB7861C7
:104BB0000AE0FCF79DFB02467B69D31A41F288327A
:104BC000934201D90323BEE01C4B1B6903F038025A
:104BD0007B685B68DB009A42EBD17B681B6803F063
:104BE0000203002B10D07B68DA68144B9B6903F03A
:104BF0000F039A4208D2114B9B6923F00F027B6886
:104C0000DB680E4913438B610B4B1B6803F00F03EA
:104C10003A689A4214D2084B1B6823F00F020649E7
:104C20003B6813430B60044B1B6803F00F033A68A7
:104C30009A4205D0012386E0002000520044025829
:104C40007B681B6803F00403002B10D07B681A6993
:104C50003F4B9B6903F070039A4208D23C4B9B691F
:104C600023F070027B681B69394913438B617B68B1
:104C70001B6803F00803002B10D07B685A69344B83
:104C8000DB6903F070039A4208D2314BDB6923F0F1
:104C900070027B685B692E491343CB617B681B689C
:104CA00003F01003002B10D07B689A69284BDB6956
:104CB00003F4E0639A4208D2254BDB6923F4E062F7
:104CC0007B689B6922491343CB617B681B6803F0B7
:104CD0002003002B10D07B68DA691D4B1B6A03F0A0
:104CE00070039A4208D21A4B1B6A23F070027B6849
:104CF000DB69174913430B6200F034F80246144B8A
:104D00009B691B0A03F00F031249CB5C03F01F03DE
:104D100022FA03F33B610E4B9B6903F00F030D4A2C
:104D2000D35C03F01F033A6922FA03F30A4A1360C3
:104D30000A4A3B6913600A4B1B681846FCF78EFA57
:104D40000346FB73FB7B18461837BD4680BD00BF8A
:104D50000044025884BE000804000024000000241F
:104D60000800002480B489B000AFB34B1B6903F086
:104D70003803182B00F2558101A252F823F000BF2E
:104D8000E54D000823500008235000082350000878
:104D90002350000823500008235000082350000827
:104DA0000B4E000823500008235000082350000831
:104DB0002350000823500008235000082350000807
:104DC000114E00082350000823500008235000080B
:104DD00023500008235000082350000823500008E7
:104DE000174E0008944B1B6803F02003002B09D0DA
:104DF000914B1B68DB0803F00303904A22FA03F38C
:104E0000BB6111E18D4BBB610EE18D4BBB610BE1D1
:104E10008C4BBB6108E1884B9B6A03F003037B6109
:104E2000854B9B6A1B0903F03F033B61824BDB6AA6
:104E300003F00103FB60804B5B6BDB08C3F30C03E7
:104E4000FA6802FB03F307EE903AF8EE677AC7EDD3
:104E5000027A3B69002B00F0E1807B69022B00F0B5
:104E600083807B69022B00F2A1807B69002B03D039
:104E70007B69012B56D099E06F4B1B6803F0200330
:104E8000002B2DD06C4B1B68DB0803F003036B4A2F
:104E900022FA03F37B607B6807EE903AF8EE676ACC
:104EA0003B6907EE903AF8EE677A86EEA77A624B96
:104EB0001B6BC3F3080307EE903AF8EE676A97EDB1
:104EC000026ADFED615AC6EE257A76EEA77AF7EE32
:104ED000006A77EEA67A67EE277AC7ED077A87E051
:104EE0003B6907EE903AF8EE677ADFED586A86EE96
:104EF000A77A514B1B6BC3F3080307EE903AF8EE09
:104F0000676A97ED026ADFED505AC6EE257A76EEB3
:104F1000A77AF7EE006A77EEA67A67EE277AC7EDF2
:104F2000077A65E03B6907EE903AF8EE677ADFEDC5
:104F3000486A86EEA77A404B1B6BC3F3080307EE63
:104F4000903AF8EE676A97ED026ADFED3F5AC6EED7
:104F5000257A76EEA77AF7EE006A77EEA67A67EE04
:104F6000277AC7ED077A43E03B6907EE903AF8EEFF
:104F7000677ADFED386A86EEA77A2F4B1B6BC3F397
:104F8000080307EE903AF8EE676A97ED026ADFEDE4
:104F90002E5AC6EE257A76EEA77AF7EE006A77EEFD
:104FA000A67A67EE277AC7ED077A21E03B6907EE1C
:104FB000903AF8EE677ADFED266A86EEA77A1E4B06
:104FC0001B6BC3F3080307EE903AF8EE676A97EDA0
:104FD000026ADFED1D5AC6EE257A76EEA77AF7EE65
:104FE000006A77EEA67A67EE277AC7ED077A00BFE8
:104FF000114B1B6B5B0A03F07F0301333B603B6883
:1050000007EE903AB8EE677AD7ED076AC6EE877A70
:10501000FCEEE77A17EE903ABB6105E00023BB6136
:1050200002E0074BBB6100BFBB6918462437BD4691
:105030005DF8047B704700BF004402580090D00325
:1050400000093D0040787D01000000460024744CBA
:105050000024744A20BCBE4B80B582B000AFFFF77D
:1050600081FE0246104B9B691B0A03F00F030F4998
:10507000CB5C03F01F0322FA03F37B600A4B9B69AE
:1050800003F00F03094AD35C03F01F037A6822FA86
:1050900003F3074A1360074A7B681360044B1B68DD
:1050A00018460837BD4680BD0044025884BE00083B
:1050B000040000240000002480B500AFFFF7CCFFFF
:1050C0000246064BDB691B0903F007030449CB5C6E
:1050D00003F01F0322FA03F3184680BD0044025870
:1050E00084BE000880B500AFFFF7B6FF0246064B4E
:1050F000DB691B0A03F007030449CB5C03F01F03C1
:1051000022FA03F3184680BD0044025884BE00080A
:105110002DE9B04FCAB000AFC7F81401002387F8DB
:105120002731002387F82631D7F81431D3E900233B
:1051300002F00064002554EA050349D0D7F8143181
:105140009B6EB3F5401F2FD0B3F5401F28D8B3F5A1
:10515000001F1AD0B3F5001F22D8002B03D0B3F5DF
:10516000801F07D01CE0B84BDB6AB74A43F400331A
:10517000D3621AE0D7F8143108330221184602F03E
:1051800061FB034687F827310FE0D7F81431283345
:105190000221184602F008FC034687F8273104E094
:1051A000012387F8273100E000BF97F82731002B53
:1051B0000AD1A54B1B6D23F44011D7F814319B6E17
:1051C000A14A0B43136503E097F8273187F826318E
:1051D000D7F81431D3E9002302F480784FF00009A6
:1051E00058EA090347D0D7F814319B6D042B2AD80D
:1051F00001A252F823F000BF0D5200081B52000814
:10520000315200084F5200084F5200088E4BDB6AA3
:105210008D4A43F40033D3621AE0D7F814310833CF
:105220000021184602F00EFB034687F827310FE0F5
:10523000D7F8143128330021184602F0B5FB034695
:1052400087F8273104E0012387F8273100E000BF09
:1052500097F82731002B0AD17B4B1B6D23F00701F8
:10526000D7F814319B6D784A0B43136503E097F828
:10527000273187F82631D7F81431D3E9002302F417
:10528000007A4FF0000B5AEA0B034CD0D7F81431D8
:10529000DB6DB3F5807F30D0B3F5807F29D8C02B8C
:1052A0002DD0C02B25D8802B18D0802B21D8002BB7
:1052B00002D0402B07D01CE0634BDB6A624A43F408
:1052C0000033D3621CE0D7F81431083300211846AC
:1052D00002F0B8FA034687F8273111E0D7F8143105
:1052E00028330021184602F05FFB034687F8273178
:1052F00006E0012387F8273102E000BF00E000BF8D
:1053000097F82731002B0AD14F4B1B6D23F4E07126
:10531000D7F81431DB6D4C4A0B43136503E097F863
:10532000273187F82631D7F81431D3E9002302F466
:105330008063C7F808310023C7F80C31D7E942125F
:105340000B46134353D0D7F81431D3F8A830B3F534
:10535000000F35D0B3F5000F2ED8B3F5C00F31D004
:10536000B3F5C00F28D8B3F5800F1AD0B3F5800F6E
:1053700022D8002B03D0B3F5001F07D01CE0324B1E
:10538000DB6A314A43F40033D3621CE0D7F81431AE
:1053900008330021184602F055FA034687F82731F2
:1053A00011E0D7F8143128330021184602F0FCFA36
:1053B000034687F8273106E0012387F8273102E00A
:1053C00000BF00E000BF97F82731002B0BD11E4B28
:1053D0009B6D23F46001D7F81431D3F8A8301A4A32
:1053E0000B43936503E097F8273187F82631D7F808
:1053F0001431D3E9002302F40063C7F8003100231D
:10540000C7F80431D7E940120B46134356D0D7F8FA
:105410001431D3F8AC30B3F1806F38D0B3F1806F72
:1054200031D8B3F1407F34D0B3F1407F2BD8B3F102
:10543000007F1DD0B3F1007F25D8002B06D0B3F13B
:10544000807F0AD01FE000BF00440258A24BDB6AF5
:10545000A14A43F40033D3621CE0D7F81431083377
:105460000021184602F0EEF9034687F8273111E0D3
:10547000D7F8143128330021184602F095FA034674
:1054800087F8273106E0012387F8273102E000BFC3
:1054900000E000BF97F82731002B0BD18E4B9B6D9E
:1054A00023F0E061D7F81431D3F8AC308A4A0B43CB
:1054B000936503E097F8273187F82631D7F8143140
:1054C000D3E9002302F00073C7F8F8300023C7F8CF
:1054D000FC30D7E93E120B4613433AD0D7F81431CB
:1054E000DB6C302B1FD0302B19D8202B0CD0202B6D
:1054F00015D8002B19D0102B11D1774BDB6A764AC7
:1055000043F40033D36211E0D7F814310833022199
:10551000184602F097F9034687F8273106E0012381
:1055200087F8273102E000BF00E000BF97F827317D
:10553000002B0AD1684BDB6C23F03001D7F8143113
:10554000DB6C654A0B43D36403E097F8273187F897
:105550002631D7F81431D3E9002302F48053C7F879
:10556000F0300023C7F8F430D7E93C120B46134360
:1055700051D0D7F814311B6EB3F5804F35D0B3F549
:10558000804F2ED8B3F5405F31D0B3F5405F28D8B7
:10559000B3F5005F1AD0B3F5005F22D8002B03D01B
:1055A000B3F5805F07D01CE04B4BDB6A4A4A43F4FB
:1055B0000033D3621CE0D7F81431083300211846B9
:1055C00002F040F9034687F8273111E0D7F814318B
:1055D00028330021184602F0E7F9034687F82731FF
:1055E00006E0012387F8273102E000BF00E000BF9A
:1055F00097F82731002B0AD1374B1B6D23F4E0417C
:10560000D7F814311B6E344A0B43136503E097F847
:10561000273187F82631D7F81431D3E9002302F473
:105620000053C7F8E8300023C7F8EC30D7E93A1246
:105630000B46134356D0D7F814315B6EB3F5A02F49
:1056400033D0B3F5A02F2CD8B3F5802F2FD0B3F5DE
:10565000802F26D8B3F5403F2BD0B3F5403F20D85C
:10566000B3F5003F12D0B3F5003F1AD8002B22D07B
:10567000B3F5803F15D1D7F814310833012118460E
:1056800002F0E0F8034687F8273115E0D7F8143127
:1056900028330121184602F087F9034687F827319D
:1056A0000AE0012387F8273106E000BF04E000BFCD
:1056B00002E000BF00E000BF97F82731002B0DD1BA
:1056C000054B1B6D23F4E021D7F814315B6E024AC1
:1056D0000B43136506E000BF0044025897F82731DA
:1056E00087F82631D7F81431D3E9002302F4804338
:1056F000C7F8E0300023C7F8E430D7E938120B468A
:10570000134355D0D7F81431D3F8B030B3F1A04FCC
:1057100033D0B3F1A04F2CD8B3F1804F2FD0B3F1D9
:10572000804F26D8B3F1405F2BD0B3F1405F20D833
:10573000B3F1005F12D0B3F1005F1AD8002B22D072
:10574000B3F1805F15D1D7F8143108330121184621
:1057500002F078F8034687F8273115E0D7F81431BE
:1057600028330121184602F01FF9034687F8273134
:105770000AE0012387F8273106E000BF04E000BFFC
:1057800002E000BF00E000BF97F82731002B0BD1EB
:10579000A34B9B6D23F0E041D7F81431D3F8B03020
:1057A0009F4A0B43936503E097F8273187F826312A
:1057B000D7F81431D3E9002302F40043C7F8D830F6
:1057C0000023C7F8DC30D7E936120B46134337D035
:1057D000D7F814311B6FB3F1005F0ED0B3F1005F47
:1057E00016D8002B18D0B3F1805F11D18C4BDB6A37
:1057F0008B4A43F40033D3620FE0D7F814310833F7
:105800000121184602F01EF8034687F8273104E00C
:10581000012387F8273100E000BF97F82731002BDC
:105820000AD17F4B1B6D23F04051D7F814311B6F09
:105830007B4A0B43136503E097F8273187F826313D
:10584000D7F81431D3E9002302F08073C7F8D030C1
:105850000023C7F8D430D7E934120B46134339D0AC
:10586000D7F814319B6C032B1CD801A252F823F0FB
:10587000AD580008815800088F580008AD5800083E
:10588000674BDB6A664A43F40033D3620FE0D7F814
:10589000143108330221184601F0D4FF034687F87B
:1058A000273104E0012387F8273100E000BF97F893
:1058B0002731002B0AD15A4BDB6C23F00301D7F8B8
:1058C00014319B6C564A0B43D36403E097F827319D
:1058D00087F82631D7F81431D3E9002302F4800386
:1058E000C7F8C8300023C7F8CC30D7E932120B46CE
:1058F000134300F09F804B4B1B684A4A43F480736C
:105900001360FBF7F5FCC7F820010BE0FBF7F0FC98
:105910000246D7F82031D31A642B03D9032387F822
:10592000273105E03F4B1B6803F48073002BEDD05B
:1059300097F82731002B79D1394B1A6FD7F81431EA
:10594000D3F8B430534003F44073002B15D0344BDC
:105950001B6F23F44073C7F81C31314B1B6F304A67
:1059600043F4803313672E4B1B6F2D4A23F480338F
:1059700013672B4AD7F81C311367D7F81431D3F8C3
:10598000B430B3F5807F18D1FBF7B2FCC7F8200123
:105990000DE0FBF7ADFC0246D7F82031D21A41F2F8
:1059A00088339A4203D9032387F8273105E01C4B3B
:1059B0001B6F03F00203002BEBD097F82731002B6D
:1059C00029D1D7F81431D3F8B43003F44073B3F5C8
:1059D000407F0ED1124B1B6923F47C51D7F8143150
:1059E000D3F8B4301A09104B13400D4A0B4313611E
:1059F00005E00B4B1B690A4A23F47C531361084BE7
:105A0000196FD7F81431D3F8B430C3F30B03044A39
:105A10000B4313670EE097F8273187F8263109E02A
:105A20000044025800480258CFFFFF0097F8273182
:105A300087F82631D7F81431D3E9002302F00103A7
:105A4000C7F8C0300023C7F8C430D7E930120B467E
:105A5000134300F08980D7F81431DB6F282B6BD803
:105A600001A252F823F000BF415B0008395B000837
:105A7000395B0008395B0008395B0008395B0008B6
:105A8000395B0008395B00080D5B0008395B0008D2
:105A9000395B0008395B0008395B0008395B000896
:105AA000395B0008395B0008235B0008395B00089C
:105AB000395B0008395B0008395B0008395B000876
:105AC000395B0008395B0008415B0008395B00085E
:105AD000395B0008395B0008395B0008395B000856
