:020000040800F2
:100000000000082411320008452200084D22000893
:10001000552200085D22000865220008000000004B
:10002000000000000000000000000000E1FE0008E9
:100030006D2200080000000031010108D5D8000839
:100040006132000861320008613200086132000844
:100050006132000861320008613200086132000834
:100060006132000861320008613200087D22000818
:1000700091220008613200086132000861320008F4
:100080006132000861320008613200086132000804
:1000900061320008613200086132000861320008F4
:1000A00061320008613200086132000861320008E4
:1000B00061320008613200086132000861320008D4
:1000C00061320008613200086132000861320008C4
:1000D00061320008A5220008613200086132000880
:1000E000613200086132000800000000613200083F
:1000F0006132000861320008613200086132000894
:100100006132000861320008613200086132000883
:10011000613200086132000861320008B92200082B
:100120006132000861320008613200086132000863
:100130006132000861320008613200086132000853
:1001400000000000000000000000000000000000AF
:100150006132000861320008613200086132000833
:100160006132000861320008613200086132000823
:1001700061320008613200086132000800000000AE
:100180006132000861320008613200086132000803
:1001900061320008613200086132000861320008F3
:1001A00061320008613200086132000861320008E3
:1001B00061320008613200086132000861320008D3
:1001C00061320008613200086132000861320008C3
:1001D00061320008613200086132000861320008B3
:1001E00061320008613200086132000861320008A3
:1001F0006132000861320008613200086132000893
:100200006132000861320008613200086132000882
:100210006132000861320008613200086132000872
:1002200061320008613200086132000800000000FD
:1002300061320008613200080000000061320008ED
:100240006132000861320008613200086132000842
:100250006132000861320008613200086132000832
:100260006132000861320008613200086132000822
:1002700061320008613200086132000800000000AD
:10028000613200086132000861320008000000009D
:080290000000000061320008CB
:1002A00010B5054C237833B9044B13B10448AFF3B0
:1002B00000800123237010BDA8030024000000006B
:1002C00008FE010808B5034B1BB103490348AFF30F
:1002D000008008BD00000000AC03002408FE0108F7
:1002E00010F8012B11F8013B012A28BF9A42F7D0E0
:1002F000D01A70470000000000000000000000005D
:1003000001F0FF01102A2BDB10F0070F08D010F8C6
:10031000013B013A8B422DD010F0070F42B3F6D1CA
:10032000F0B441EA012141EA014122F007047FF0E3
:1003300000070023F0E80256083C85EA010586EA3A
:10034000010685FA47F5A3FA87F586FA47F6A5FA76
:1003500087F68EB9EED1F0BC01F0FF0102F0070282
:1003600032B110F8013B013A83EA010313B1F8D12D
:100370000020704701387047002D06BF354603380E
:10038000073815F0010F07D1013015F4807F02BF47
:10039000013015F4C03F0130F0BC0138704700BF98
:1003A000034613F8012B002AFBD1181A01387047B5
:1003B0007BB972B90029BEBF00204FF0004106E0B2
:1003C00008BF00281CBF6FF000414FF0FF3000F065
:1003D000B5B9ADF1080C6DE904CE002909DB002B9D
:1003E0001ADB00F04DF8DDF804E0DDE9022304B08B
:1003F0007047404261EB4101002B1BDB00F040F8ED
:10040000DDF804E0DDE9022304B0404261EB410184
:10041000524263EB43037047524263EB430300F0E5
:100420002FF8DDF804E0DDE9022304B0404261EB7F
:1004300041017047524263EB430300F021F8DDF8BD
:1004400004E0DDE9022304B0524263EB430370474A
:1004500053B94AB9002908BF00281CBF4FF0FF312B
:100460004FF0FF3000F06AB9ADF1080C6DE904CE31
:1004700000F006F8DDF804E0DDE9022304B070477F
:100480002DE9F047089D0C46002B4ED194468C4533
:100490008646B2FA82F262D94AB1C2F12003914093
:1004A00020FA03F30CFA02FC194300FA02FE4FEAA9
:1004B0001C471FFA8CF6B1FBF7F44FEA1E4307FB0B
:1004C000141143EA014304FB06F199420AD91CEBDB
:1004D000030304F1FF3080F01281994240F20F8152
:1004E000023C6344591A1FFA8EF3B1FBF7F007FB85
:1004F000101143EA014300FB06F69E420AD91CEBA9
:10050000030300F1FF3180F0FC809E4240F2F9804D
:10051000634402389B1B40EA044000211DB1D340D4
:100520000022C5E90032BDE8F0878B4205D90DB144
:10053000C5E9000100210846F5E7B3FA83F1002977
:1005400046D1A34202D39042C0F0F080861A64EBF9
:1005500003030120002DE6D0C5E90063E3E7002A8C
:1005600040F09080A1EB0C044FEA1C481FFA8CF776
:100570000121B4FBF8F64FEA1E4308FB164443EA98
:10058000044307FB06F0984208D91CEB030306F16D
:10059000FF3402D2984200F2CD8026461C1A1FFA80
:1005A0008EF3B4FBF8F008FB104443EA044300FB6D
:1005B00007F79F4208D91CEB030300F1FF3402D276
:1005C0009F4200F2B0802046DB1B40EA0640A5E7D0
:1005D000C1F120068B4022FA06F71F4320FA06FCE1
:1005E00004FA01F343EA0C03F44000FA01F8380C72
:1005F0004FEA1349B4FBF0FE1FFA87FC00FB1E44D0
:1006000049EA04440EFB0CF9A14502FA01F20AD9A9
:100610003C190EF1FF3A80F08480A14540F28180C0
:10062000AEF1020E3C44A4EB09041FFA83F9B4FBBB
:10063000F0F300FB134449EA044403FB0CFCA4451B
:1006400007D93C1903F1FF3067D2A44565D9023BB5
:100650003C4443EA0E40A0FB0293A4EB0C049C42F2
:10066000CE469C4651D34ED055B1B8EB0E0364EB49
:100670000C0404FA06F6CB401E43CC40C5E90064E6
:10068000002150E7C2F1200320FA03F10CFA02FC2A
:1006900024FA03F394400C434FEA1C4800FA02FE8C
:1006A0001FFA8CF7B3FBF8F008FB1031230C43EA78
:1006B000014300FB07F1994208D91CEB030300F149
:1006C000FF362CD299422AD9023863445B1AA4B26D
:1006D000B3FBF8F108FB113344EA034401FB07F3D1
:1006E000A34208D91CEB040401F1FF3613D2A34244
:1006F00011D902396444E41A41EA004139E7044659
:10070000F0E6084606E7C845AED2B9EB020E63EB49
:10071000070C0138A8E73146EDE7034699E7304674
:10072000D4E7D6467FE7634402384DE706462346C2
:1007300008460FE7023E634430E700BF704700BF42
:1007400080B500AF094B1B780133DAB2074B1A7042
:10075000064B1B78142B07D9044B00221A704FF458
:100760000051034805F06BFF00BF80BDC4030024A7
:100770000008025880B582B000AF4FF4FA700DF057
:100780009FF900F0EBFC00F0C3F800F04FFE0EF014
:1007900099FB03467B6000F05BFC3B1D0A21184679
:1007A0000EF0BEF900BFF6E780B582B000AF0EF0E4
:1007B00089FB03467B6006481DF08AFAFFF7C0FFFD
:1007C0003B1D0A2118460EF0ABF900BFF6E700BF4B
:1007D00020FE010880B485B000AF0346FB71002302
:1007E000FB81FB79032B29D801A252F823F000BF2B
:1007F000010800080F080008210800082F08000859
:10080000134B5B6AFB81124B00225A6217E04FF0D8
:1008100080435B6AFB814FF0804300225A620EE006
:100820000C4B5B6AFB810B4B00225A6207E00A4BC0
:100830005B6AFB81084B00225A6200E000BFB7F9F7
:100840000E3018461437BD465DF8047B704700BF74
:1008500000040040000C00400008004080B483B059
:1008600000AF78600C4B1A687B681A607B680433B1
:100870000A4A12681A607B680833094A12681A60CB
:100880007B680C33074A12681A6000BF0C37BD46FC
:100890005DF8047B704700BFC8030024CC0300242C
:1008A000D0030024D403002480B500AF0020FFF75C
:1008B00091FF03461A46124B1B681344104A1360FB
:1008C0000120FFF787FF03461A460E4B1B681344AF
:1008D0000C4A13600220FFF77DFF03461A460A4BBD
:1008E0001B689B1A084A13600320FFF773FF034637
:1008F0001A46064B1B689B1A044A136000BF80BD52
:10090000C8030024CC030024D0030024D403002413
:1009100080B500AF0421084809F020F804210748F9
:1009200009F01CF80421064809F018F804210548CC
:1009300009F014F800BF80BDB806002404070024A5
:10094000500700249C07002480B483B000AF034606
:1009500087ED000AFB71FB79012B16D1D7ED007AE8
:100960009FED2A7AF4EEC77AF1EE10FA01DD284BFA
:100970003B60D7ED007A9FED277AF4EEC77AF1EE6F
:1009800010FA39D5244B3B6036E0FB79022B16D1A7
:10099000D7ED007A9FED1D7AF4EEC77AF1EE10FAEA
:1009A00001DD1B4B3B60D7ED007A9FED1A7AF4EE28
:1009B000C77AF1EE10FA1FD5174B3B601CE0FB79AC
:1009C000032B16D1D7ED007A9FED147AF4EEC77A97
:1009D000F1EE10FA01DD124B3B60D7ED007A9FED8E
:1009E000117AF4EEC77AF1EE10FA05D50E4B3B60A2
:1009F00002E04FF000033B603B6807EE903AB0EE38
:100A0000670A0C37BD465DF8047B70473333333FCC
:100A10003333333F333333BF333333BF66668640BC
:100A200066668640666686C0666686C090B585B096
:100A300000AF0446084611461A462346FB8003468B
:100A4000BB800B467B8013463B804FF47A73FB815F
:100A5000B7F90620B7F90E305B429A420BDBB7F9C3
:100A60000620B7F90E309A4205DCB7F90630194670
:100A7000002000F0E7FBB7F90420B7F90E305B4225
:100A80009A420BDBB7F90420B7F90E309A4205DC25
:100A9000B7F904301946012000F0D4FBB7F9022061
:100AA000B7F90E305B429A420BDBB7F90220B7F977
:100AB0000E309A4205DCB7F902301946022000F0E8
:100AC000C1FBB7F90020B7F90E305B429A420BDB4D
:100AD000B7F90020B7F90E309A4205DCB7F90030BB
:100AE0001946032000F0AEFB00BF1437BD4690BD91
:100AF00080B582B000AF0346FB71002300220021C5
:100B0000002000F011F8042000F0B4FDFB79184635
:100B100000F04CFB034B00221A7000BF0837BD46A3
:100B200080BD00BF0804002490B585B000AF044626
:100B3000084611461A462346FB800346BB800B46F7
:100B40007B8013463B80174B01221A70164AFB88A4
:100B50001384154ABB885384134A7B889384124AB2
:100B60003B88D3840023FB7313E0FB7B0E4A1033D6
:100B700032F9133007EE903AB8EEE77BF7EEC77B19
:100B8000FB7BB0EE670A184600F000FEFB7B0133EA
:100B9000FB73FB7B032BE8D900BF00BF1437BD46B6
:100BA00090BD00BF080400242804002480B588B04C
:100BB00000AF786000F0EEF800F0DEF887ED070A8D
:100BC000614B1B68642202FB03F307EE903AB8EE18
:100BD000E77AD7ED077A27EE277ADFED5C6AC7EE72
:100BE000267AC7ED067A584B5B68642202FB03F352
:100BF00007EE903AB8EEE77AD7ED077A27EE277A34
:100C0000DFED526AC7EE267AC7ED057A4E4B9B6838
:100C1000642202FB03F307EE903AB8EEE77AD7EDD1
:100C2000077A27EE277ADFED496AC7EE267AC7ED05
:100C3000047A454BDB68642202FB03F307EE903A2B
:100C4000B8EEE77AD7ED077A27EE277ADFED3F6A2D
:100C5000C7EE267AC7ED037A00F080F887ED020A26
:100C600097ED067AD7ED057A37EE277AD7ED047A35
:100C700037EE277AD7ED037A37EE277AF1EE006A5E
:100C8000C7EE267A7B68C3ED007A97ED057AD7ED3B
:100C9000067A37EE677AD7ED047A37EE277AD7ED02
:100CA000037A37EE677AF1EE006AC7EE267A7B6840
:100CB000C3ED017AD7ED067AB1EE677AD7ED057A02
:100CC00037EE677AD7ED047A37EE277AD7ED037AD5
:100CD00077EE277AB1EE007AC7EE876A97ED027A4F
:100CE000C6EE877A7B68C3ED027A194B1B78002B1E
:100CF00026D0D7ED067A9FED177A67EE877A164BE6
:100D0000C3ED007AD7ED057A9FED127A67EE877A08
:100D1000114BC3ED017AD7ED047A9FED0E7A67EEA1
:100D2000877A0D4BC3ED027AD7ED037A9FED097AEE
:100D300067EE877A084BC3ED037A074800F06AFC38
:100D400000BF2037BD4680BDF803002400001A45CF
:100D50000804002400007A442804002480B400AF72
:100D6000044B07EE903AB0EE670ABD465DF8047B8F
:100D7000704700BF0C022B3E80B400AF044B07EE5F
:100D8000903AB0EE670ABD465DF8047B704700BF3D
:100D900065AA803E80B582B000AFFFF785FD13489D
:100DA000FFF75CFD0023FB7117E0FB790F4A52F857
:100DB0002310FB790E4A52F82320FB798A1A0D4939
:100DC00041F82320FA79FB79084951F82220084993
:100DD00041F82320FB790133FB71FB79032BE4D924
:100DE00000BF00BF0837BD4680BD00BFD803002448
:100DF000E8030024F803002480B586B000AF034662
:100E0000FB800B46BB8013467B80FFF7A7FF87ED77
:100E1000050AB7F904305B4207EE903AF8EEE77A3C
:100E2000C7ED047AB7F9063007EE903AF8EEE77AA4
:100E3000C7ED037AB7F902305B4207EE903AF8EE5D
:100E4000E77A97ED057A67EE277AC7ED027AB7F968
:100E50000630002B0ED1B7F90430002B0AD1B7F9B8
:100E60000230002B06D1504B00221A800120FFF7E0
:100E70003FFE95E097ED037AD7ED047A37EE277AB7
:100E8000D7ED027A77EE277AFDEEE77A17EE902A11
:100E9000464B1A6097ED037AD7ED047A37EE677AFE
:100EA000D7ED027A77EE277AFDEEE77A17EE902AF1
:100EB0003F4B1A6097ED037AD7ED047A37EE677AE5
:100EC000D7ED027A77EE677AFDEEE77A17EE902A91
:100ED000384B1A6097ED037AD7ED047A37EE277A0C
:100EE000D7ED027A77EE677AFDEEE77A17EE902A71
:100EF000314B1A602D4B1B6840F2EE22934203DD0A
:100F00002A4B40F2EE221A60284B1B682B4A934270
:100F100002DA264B294A1A60254B1B6840F2EE2262
:100F2000934203DD224B40F2EE221A60204B1B68F5
:100F3000224A934202DA1E4B204A1A601D4B1B685C
:100F400040F2EE22934203DD1A4B40F2EE221A6089
:100F5000184B1B68194A934202DA164B174A1A605B
:100F6000154B1B6840F2EE22934203DD124B40F218
:100F7000EE221A60104B1B68104A934202DA0E4BA5
:100F80000E4A1A60094B1B6818B2094B1B6819B24C
:100F9000084B1B681AB2084B1B681BB2FFF7C4FD55
:100FA0001837BD4680BD00BF0A0400240C0400248D
:100FB00010040024140400241804002412FDFFFF70
:100FC00080B584B000AF87ED030AC7ED020A87ED54
:100FD000011A97ED030A0120FFF7B6FC87ED030A1B
:100FE00097ED020A0220FFF7AFFC87ED020A97EDAA
:100FF000010A0320FFF7A8FC87ED010AD7ED037A69
:101000009FED127A67EE877AFDEEE77A17EE903A57
:101010001BB2D7ED027A9FED0D7A67EE877AFDEE6F
:10102000E77A17EE902A11B2D7ED017A9FED077A91
:1010300067EE877AFDEEE77A17EE902A12B218462D
:10104000FFF7DAFE00BF1037BD4680BD00007A44CE
:1010500080B500AF1548FFF7A9FD154B1B78002B95
:1010600021D0144BD3ED047AFDEEE77A17EE903AD7
:1010700018B2104BD3ED057AFDEEE77A17EE903AF1
:1010800019B20C4BD3ED067AFDEEE77A17EE903AE3
:101090001AB2084BD3ED077AFDEEE77A17EE903AD5
:1010A0001BB2FFF7C3FC00BF80BD00BF1C040024BF
:1010B000080400242804002480B483B000AF034651
:1010C000FB80B7F90630002B05DDFB8803F57A734A
:1010D0009BB21BB20AE0B7F90630002B05DAFB8899
:1010E000A3F57A739BB21BB200E0002318460C37BD
:1010F000BD465DF8047B704780B483B000AF034603
:10110000FB80B7F90630B3F5FA6F02DB4FF4FA63F0
:1011100008E0B7F9063013F5FA6F01DC044B01E083
:10112000B7F9063018460C37BD465DF8047B7047AA
:1011300030F8FFFF80B483B000AF0346FB80B7F9FF
:101140000630002B03DAFB885B429BB200E0FB8891
:1011500018460C37BD465DF8047B704780B500AF7C
:101160000021104808F046FA04210E4808F042FA1F
:1011700008210C4808F03EFA0C210A4808F03AFA17
:101180000021094809F05EFA0421074809F05AFADB
:101190000821054808F02EFA0C21034808F02AFA25
:1011A00000BF80BD6C060024E807002480B483B033
:1011B00000AF0346FB71FB79002B01D00123FB71CB
:1011C000FB794FF4FA6203FB02F21C4BDA63FB7902
:1011D0004FF4FA6203FB02F2184B1A64FB794FF4E6
:1011E000FA6203FB02F2154B5A63FB794FF4FA6281
:1011F00003FB02F2114B9A63FB794FF4FA6203FB93
:1012000002F20F4B5A63FB794FF4FA6203FB02F2CE
:101210000B4B9A63FB794FF4FA6203FB02F2084B23
:10122000DA63FB794FF4FA6203FB02F2044B1A64AF
:1012300000BF0C37BD465DF8047B704700000140DD
:101240000004014080B584B000AF03460A46FB713C
:101250001346BB80B7F904301846FFF72DFF03464D
:10126000FB81B7F90E301846FFF746FF0346FB81B6
:10127000FB79042B00F2D08001A252F823F000BFCA
:1012800095120008C7120008F9120008231300087D
:101290004D130008FB895B429BB2FB81B7F90E300E
:1012A000002B07DB5F4AB7F90E30D3635D4B00229A
:1012B0001A64B2E05B4B0022DA63B7F90E305A428F
:1012C000584B1A64A9E0FB895B429BB2FB81B7F9DA
:1012D0000E30002B07DB534AB7F90E305363514BE6
:1012E00000229A6399E04F4B00225A63B7F90E30FF
:1012F0005A424C4B9A6390E0B7F90E30002B07DB53
:10130000494AB7F90E305363474B00229A6384E091
:10131000454B00225A63B7F90E305A42424B9A634A
:101320007BE0B7F90E30002B07DB3F4AB7F90E30F0
:10133000D3633D4B00221A646FE03B4B0022DA631B
:10134000B7F90E305A42384B1A6466E0B7F90E30DE
:10135000002B30DB334B0022DA63B7F90E3018462E
:10136000FFF7E8FE03461A462E4B1A642D4B002267
:101370005A63B7F90E301846FFF7DCFE03461A46EB
:10138000284B9A63B7F90E301846FFF7D3FE034691
:101390001A46254B5A63244B00229A63B7F90E3044
:1013A0001846FFF7C7FE03461A461F4BDA631E4B6B
:1013B00000221A6431E0B7F90E301846FFF7BAFE82
:1013C00003461A46174BDA63164B00221A64B7F924
:1013D0000E301846FFF7AEFE03461A46114B5A630D
:1013E000104B00229A63104B00225A63B7F90E305B
:1013F0001846FFF79FFE03461A460B4B9A630A4BAB
:101400000022DA63B7F90E301846FFF793FE034661
:101410001A46054B1A6400E000BF00BF1037BD46F6
:1014200080BD00BF000001400004014080B483B0D3
:1014300000AF00237B6062E036497A681346DB0028
:1014400013449B000B444FF000021A6031497A6844
:101450001346DB0013449B000B4404334FF000029F
:101460001A602C497A681346DB0013449B000B4436
:1014700014334FF000021A6026497A681346DB00E5
:1014800013449B000B4418334FF000021A602149AB
:101490007A681346DB0013449B000B441C334FF067
:1014A00000021A601B497A681346DB0013449B0054
:1014B0000B4420334FF000021A6016497A68134635
:1014C000DB0013449B000B440833134A1A60114994
:1014D0007A681346DB0013449B000B440C330F4A1D
:1014E0001A600C497A681346DB0013449B000B44D6
:1014F00010334FF07C521A607B6801337B607B684D
:10150000032B99DD00BF00BF0C37BD465DF8047B9F
:10151000704700BF50040024CDCC4C3F8FC2753DB6
:1015200080B483B000AF786087ED000A7B6893EDEC
:10153000007AD7ED007A77EE677A7B68C3ED057A9B
:101540007B6893ED017A7B68D3ED026A7B6893ED4B
:10155000056A7B68D3ED077A76EE677A66EEA76A4E
:101560007B6893ED036A7B68D3ED057A66EE277A94
:1015700076EEA76A7B6893ED046A7B68D3ED055A23
:101580007B68D3ED077A77EEA77A75EEE75A7B682A
:10159000D3ED067A75EEA77A66EE277A76EEA77A0D
:1015A00077EE277A7B68C3ED017A7B68DA697B681E
:1015B0009A617B685A697B68DA617B68D3ED017A4E
:1015C0009FED107AF4EEC77AF1EE10FA02DD7B6837
:1015D0000D4A5A607B68D3ED017A9FED0C7AF4EEE8
:1015E000C77AF1EE10FA02D57B68094A5A607B6827
:1015F0005B6807EE903AB0EE670A0C37BD465DF8BF
:10160000047B704700007A4400007A4400007AC4EA
:1016100000007AC480B584B000AF78600023FB601E
:101620001DE0FA681346DB0013449B00104A99182A
:101630007A68FB689B001344D3ED007AB0EE670A2A
:101640000846FFF76DFFF0EE407A7A68FB680433D6
:101650009B001344C3ED007AFB680133FB60FB6819
:10166000032BDEDD00BF00BF1037BD4680BD00BFCD
:101670005004002480B485B000AF0346FB71FB79B1
:10168000042B7BD8FB79042B40D10023FB6039E08D
:101690003D49FA681346DB0013449B000B440433B6
:1016A0004FF000021A603849FA681346DB00134411
:1016B0009B000B4414334FF000021A603249FA6861
:1016C0001346DB0013449B000B4418334FF0000219
:1016D0001A602D49FA681346DB0013449B000B4443
:1016E0001C334FF000021A602749FA681346DB00EA
:1016F00013449B000B4420334FF000021A60FB6838
:101700000133FB60FB68032BC2DD38E0FA791E4928
:101710001346DB0013449B000B4404334FF00002DC
:101720001A60FA7918491346DB0013449B000B44F6
:1017300014334FF000021A60FA7913491346DB00A4
:1017400013449B000B4418334FF000021A60FA79DF
:101750000D491346DB0013449B000B441C334FF030
:1017600000021A60FA7908491346DB0013449B0013
:101770000B4420334FF000021A6000E000BF143722
:10178000BD465DF8047B70475004002480B485B0EA
:1017900000AF034687ED000AFB71FB79042B1FD8CD
:1017A000FB79042B12D10023FB600BE00F49FA6890
:1017B0001346DB0013449B000B443A681A60FB6835
:1017C0000133FB60FB68032BF0DD0AE0FA7907497F
:1017D0001346DB0013449B000B443A681A6000E098
:1017E00000BF1437BD465DF8047B704750040024E9
:1017F000B0B500AF01F086FD034600221C46154639
:1018000022462B4610461946B0BD0000B0B588B040
:1018100000AFFFF7EDFFC7E904010023FB770DE000
:101820004FF47A7014F05EFFFB7F0133FB7714F006
:1018300033FF0346002B01D00523FB77FB7F042BEE
:10184000EED914F029FF034683F00103DBB2002B2D
:1018500012D04FF47A7014F045FFF860FB68002B4B
:101860000AD0FA6870210F481CF0CAF90E4B052205
:101870001A6000200DF0E0F814F018FFC7E900012D
:10188000FFF7B6FFC7E90401D7E90001D7E9042350
:10189000841A61EB0305054BC3E9004500BF2037FF
:1018A000BD46B0BD34FE0108E0040024F00500246C
:1018B00080B586B000AF3B1D184613F029F90F4BD9
:1018C0007B600F4BBB600F4BFB600F4B3B613B1DC5
:1018D000184613F02BF9034683F00103DBB2002B0B
:1018E00006D0952109481CF08BF94FF0FF3300E03A
:1018F000002318461837BD4680BD00BF39D4000804
:101900007DD40008B5D4000821D5000858FE010890
:1019100080B588B004AF78600023FB607B680293D9
:10192000074B0193074B0093074B084A08490120D6
:1019300013F04EFDF860FB6818461037BD4680BDB9
:101940005DD2000801D20008E1D10008B5D100083D
:10195000C808002480B500AF0A4B1B680133094A50
:101960001360084B1B68642B08DD064B00221A60CD
:101970000121642013F044FD034600E000231846D3
:1019800080BD00BF08060024B0B588B004AF786001
:101990007B68FB60FB68D3E90045FB68D3E9022361
:1019A000F968D1E90A01CDE90201CDE90023224617
:1019B0002B460F481CF024F9FB6893ED007BF7EEF3
:1019C000C76BFB6893ED027BB7EEC76BFB6893EDCB
:1019D0000A7BF7EEC77BB0EE671AF0EE460AB0EE70
:1019E000660AFFF7EDFA00BF1037BD46B0BD00BF75
:1019F00080FE0108B0B5B4B002AF0023C7F8C43010
:101A0000A24C07F18803184613F0AEF8254607F1FB
:101A100088040FCC0FC523682B6011F01DFA034614
:101A2000C7F8A430994B07F1A4046D4603F10C02EA
:101A300092E8030085E803000ECB204611F00EFA71
:101A4000C7F8C000D7F8C030002B0BD0D7F8C020A3
:101A5000D2218F481CF0D4F88E4B05221A6000204A
:101A60000CF0EAFF8C4B1B781A4607F1A4031146D1
:101A7000184611F0F1FAC7F8BC00D7F8BC30002BBB
:101A80000BD0D7F8BC20D32181481CF0B9F8814B8A
:101A900005221A6000200CF0CFFF07F1A4031846BE
:101AA00011F0E2FAC7F8B80032200CF009F87A4BCE
:101AB0001B78194679481CF0A3F8D7F8B800FFF74F
:101AC00027FFFFF7F5FE4FF4FA700BF0F9FF07F16F
:101AD000A4036E4A009200220021714810F004FF16
:101AE000C7F8C400D7F8C430002B03D06D481CF0F1
:101AF000EFF8E8E700BF6C481CF0EAF8FFF786FE55
:101B00006A4C07F18803184611F0D6FA224607F10D
:101B1000880393E8030082E80300614B644A654947
:101B2000624810F0A7FFC7F8B400D7F8B430002B14
:101B30000BD0D7F8B420E62155481CF061F8554B7E
:101B400005221A6000200CF077FF5B4B1B780133F5
:101B5000DAB2594B1A700EF09FFD0246574B5349AB
:101B6000574811F039F8C7F8B000D7F8B030002B5B
:101B70000BD0D7F8B020EB2145481CF041F8454B7D
:101B800005221A6000200CF057FF4B4B1B781946BA
:101B90004C481CF035F84C4C3B46184610F0B8FB4E
:101BA00020463B46882219461CF02BFB424B1B78F3
:101BB0001A46364B3A49444810F0B6FBC7F8AC0019
:101BC000D7F8AC30002B0BD0D7F8AC20F32130483D
:101BD0001CF016F82F4B05221A6000200CF02CFF89
:101BE00000230093394B3A4A3549374810F018FC26
:101BF000C7F8A800D7F8A830002B0BD0D7F8A8203A
:101C0000F62123481BF0FCFF224B05221A6000201E
:101C10000CF012FF01224FF480412E4804F0F6FC34
:101C20000DF050F90346C7F8A03010E02A4A4FF0F3
:101C30000003254810F01EFEFFF78CFE0346002B24
:101C40000AD107F1A0030A2118460CF069FF114BD5
:101C50001B68022BEADD00E000BF00224FF4804148
:101C60001C4804F0D3FC0020FEF742FF1B481CF088
:101C70002FF81B481CF02CF80A200CF0D1FF01F0C3
:101C800050FC00BFC837BD46B0BD00BF18050024DA
:101C900034FE0108E0040024000000249CFE01083A
:101CA0002C050024B0FE0108C8FE0108E805002448
:101CB000FC050024E0FE0108F8050024F0FE010800
:101CC000E4040024F8FE01086005002489190008D6
:101CD000E804002400080258809698000CFF0108D0
:101CE0001CFF010880B582B000AF114BD3F8D8308B
:101CF0000F4A43F00103C2F8D8300D4BD3F8D83067
:101D000003F001037B607B68002205210B2001F0BA
:101D1000E0FB0B2001F0F7FB002205210C2001F075
:101D2000D8FB0C2001F0EFFB00BF0837BD4680BD9B
:101D30000044025880B500AF0C4A00210C480BF05B
:101D40002DFE03460B4A13600B4A00210B480BF093
:101D500025FE03460A4A13600A4A00210A480BF08E
:101D60001DFE0346094A136000BF80BDE0FF010865
:101D7000911D00080C06002404000208A71D00089D
:101D80001006002428000208C31D000814060024C1
:101D900080B582B000AF7860FEF706FD4FF47A7030
:101DA0000BF08EFEFAE780B582B000AF7860642059
:101DB0000BF086FEFFF71EFE4FF47A700BF080FEEC
:101DC000FAE780B582B000AF7860FEF7D3FC4FF43D
:101DD0007A700BF075FEFAE780B58CB000AF07F1B2
:101DE0001C0300221A605A609A60DA601A61394B4B
:101DF000D3F8E030374A43F00403C2F8E030354B03
:101E0000D3F8E03003F00403BB61BB69314BD3F876
:101E1000E030304A43F08003C2F8E0302D4BD3F875
:101E2000E03003F080037B617B692A4BD3F8E0301C
:101E3000284A43F00103C2F8E030264BD3F8E030E3
:101E400003F001033B613B69224BD3F8E030214AA8
:101E500043F00203C2F8E0301E4BD3F8E03003F049
:101E60000203FB60FB681B4BD3F8E030194A43F0D8
:101E70001003C2F8E030174BD3F8E03003F0100342
:101E8000BB60BB68134BD3F8E030124A43F0080341
:101E9000C2F8E0300F4BD3F8E03003F008037B606A
:101EA0007B6800224FF4C0410B4804F0AFFB4FF4B5
:101EB000C043FB6101233B6200237B620023BB62C2
:101EC00007F11C031946044804F0F0F900BF30374D
:101ED000BD4680BD004402580008025880B500AFDE
:101EE00000F0E2F801F0BEF900F01CF8FFF774FF13
:101EF000FFF7F8FE00F0D0FB00F022FC00F076FCCB
:101F000000F0CAFC00F014FB00F01CFD01F00AF820
:101F100000F0BCFF0BF0F8FCFFF70CFF0BF018FD16
:101F200000BFFDE780B59EB000AF07F12C034C2247
:101F3000002118461CF042F807F10C032022002172
:101F400018461CF03BF8022004F094FB0023BB6011
:101F5000484BDB6A474A23F00103D362454BDB6AF7
:101F600003F00103BB60444B9B69434A43F4404385
:101F70009361414B9B6903F44043BB60BB6800BF66
:101F80003D4B9B6903F40053B3F5005FF8D13B4B25
:101F9000D3F8F430394A43F00203C2F8F430374B37
:101FA000D3F8F43003F002037B607B6800233B60CE
:101FB000314B9B69304A43F4404393612E4B9B69FC
:101FC00003F440433B602B4BDB6A2A4A43F0010396
:101FD000D362284BDB6A03F001033B603B6800BF20
:101FE000254B9B6903F40053B3F5005FF8D101233F
:101FF000FB624FF480333B6302233B6502237B6526
:102000000523BB65C023FB6502233B6608237B6673
:102010000223BB660823FB6600233B6700237B6724
:1020200007F12C03184604F05FFB0346002B01D098
:1020300000F078F83F23FB6003233B6100237B61C2
:102040000823BB614023FB6140233B624FF4806364
:102050007B624023BB6207F10C030421184604F0A5
:102060009DFF0346002B01D000F05CF800BF7837DD
:10207000BD4680BD00040058004802580044025884
:1020800080B584B000AFF860B9607A607B689AB2BE
:10209000FF23B968034808F036FD7B6818461037FF
:1020A000BD4680BD3408002480B584B000AF3B46F7
:1020B00000221A605A609A60DA6001F037FA012350
:1020C0003B7000237B7000237B601F233B728723C0
:1020D0007B720023BB720023FB7201233B7301233D
:1020E0007B730023BB730023FB733B46184601F050
:1020F00055FA042001F032FA00BF1037BD4680BD0A
:1021000080B582B000AF78607B681B68044A934258
:1021100001D101F0E3F800BF0837BD4680BD00BF24
:102120000014004080B400AF72B600BF00BFFDE7EE
:1021300080B582B000AF0C4BD3F8F4300A4A43F0BC
:102140000203C2F8F430084BD3F8F43003F0020372
:102150007B607B6800220F216FF0010001F0B9F96C
:1021600000BF0837BD4680BD0044025880B590B01E
:1021700000AF78607B680F2B27D800227968372062
:1021800001F0A7F9372001F0BEF9294A7B681360F6
:10219000284BD3F8E830274A43F02003C2F8E83050
:1021A000244BD3F8E83003F02003FB60FB6807F111
:1021B000100207F114031146184605F07BFABB6ABA
:1021C000BB63BB6B002B06D101E001232BE005F0C4
:1021D00045FAF86304E005F041FA03465B00FB634F
:1021E000FB6B154AA2FB03239B0C013B7B63134B48
:1021F000134A1A60114B40F2E732DA600F4A7B6BE8
:1022000053600E4B00221A610C4B00229A600B485F
:1022100007F0BEF80346002B04D1084807F01AF96E
:10222000034600E0012318464037BD4680BD00BF8D
:10223000100000240044025883DE1B4318060024CB
:102240000014004080B400AF00BFFDE780B400AFD1
:1022500000BFFDE780B400AF00BFFDE780B400AF72
:1022600000BFFDE780B400AF00BFFDE780B400AF62
:1022700000BFBD465DF8047B7047000080B500AF2D
:10228000024802F0F5FC00BF80BD00BF5C090024DD
:1022900080B500AF024802F0EBFC00BF80BD00BF7C
:1022A000D409002480B500AF024808F01DFE00BF2D
:1022B00080BD00BFC808002480B500AF024807F009
:1022C000DBFB00BF80BD00BF1806002480B400AF58
:1022D00001231846BD465DF8047B704780B582B087
:1022E00000AF786039601BF057FF034616221A6072
:1022F0004FF0FF3318460837BD4680BD80B582B029
:1023000000AF78604FF0FF317868FFF7E7FF00BF5C
:10231000FDE780B586B000AFF860B9607A60002351
:102320007B610AE0AFF300800146BB685A1CBA60CB
:10233000CAB21A707B6901337B617A697B689A4201
:10234000F0DB7B6818461837BD4680BD80B483B08B
:1023500000AF78604FF0FF3318460C37BD465DF88C
:10236000047B704780B483B000AF786039603B680D
:102370004FF400525A60002318460C37BD465DF8F2
:10238000047B704780B483B000AF786001231846A7
:102390000C37BD465DF8047B704780B485B000AF54
:1023A000F860B9607A60002318461437BD465DF8BE
:1023B000047B704780B586B000AF7860144A154B37
:1023C000D31A7B617B693B61134B1B68002B02D1E5
:1023D000114B124A1A60104B1A687B6813443A6911
:1023E0009A4207D21BF0D8FE03460C221A604FF027
:1023F000FF3309E0084B1B68FB60074B1A687B68DA
:102400001344054A1360FB6818461837BD4680BD63
:10241000000008240004000068060024F8000224DC
:1024200080B400AF374BD3F88830364A43F470039A
:10243000C2F88830344B1B6803F00F03062B07D813
:10244000314B1B6823F00F032F4A43F0070313603F
:102450002E4B1B682D4A43F0010313602B4B0022C7
:102460001A612A4B1A682949294B13400B60264BE5
:102470001B6803F00803002B07D0234B1B6823F0D5
:102480000F03214A43F007031360204B00229A6197
:102490001E4B0022DA611D4B00221A621B4B1D4AA3
:1024A0009A621A4B1C4ADA62184B1C4A1A63174B81
:1024B00000225A63154B194A9A63144B0022DA63BF
:1024C000124B164A1A64114B00225A640F4B1B68B8
:1024D0000E4A23F4802313600C4B00221A66104B23
:1024E0001A68104B1340B3F1005F02D20E4B012269
:1024F0001A600E4B43F2D2021A6000BFBD465DF86F
:10250000047B704700ED00E00020005200440258B8
:102510007FEDF6EA000202020000FF0180020101E5
:102520000010005C0000FFFF0881005100400052D5
:1025300080B596B000AF07F14C0300221A605A60D4
:102540009A6007F1300300221A605A609A60DA60DC
:102550001A615A619A613B1D2C22002118461BF01A
:102560002DFD4B4B4B4A1A60494B04225A60484B95
:1025700000229A60464B4FF4FA62DA60444B002224
:102580001A61434B00225A61414B80229A614048B4
:1025900006F0D8FF0346002B01D0FFF7C3FD002350
:1025A000FB6400233B6500237B6507F14C03194660
:1025B000374808F009F90346002B01D0FFF7B2FDB8
:1025C00060233B6300237B630023BB630023FB6327
:1025D00000233B6400237B640023BB6407F13003CA
:1025E000002219462A4807F04FFB0346002B01D072
:1025F000FFF798FD07F1300304221946244807F03D
:1026000043FB0346002B01D0FFF78CFD07F130039D
:10261000082219461E4807F037FB0346002B01D05D
:10262000FFF780FD07F130030C221946184807F028
:102630002BFB0346002B01D0FFF774FD00237B60CA
:102640000023BB600023FB6000233B6100237B6110
:102650004FF40053BB610023FB6100233B624FF04A
:1026600000737B620023BB620023FB623B1D1946A3
:10267000074808F037F90346002B01D0FFF752FD59
:10268000034800F05BFB00BF5837BD4680BD00BF6C
:102690006C0600240000014080B58CB000AF07F14B
:1026A0000C032422002118461BF088FC3B46002224
:1026B0001A605A609A60214B4FF080421A601F4B9B
:1026C00000225A601D4B00229A601C4B4FF6FF728D
:1026D000DA601A4B00221A61184B00229A61032318
:1026E000FB6000233B6101237B610023BB6100236E
:1026F000FB6100233B6201237B620023BB6200235A
:10270000FB6207F10C0319460C4807F081F80346F9
:10271000002B01D0FFF706FD00233B600023BB60C8
:102720003B461946054808F04FF80346002B01D0F8
:10273000FFF7F8FC00BF3037BD4680BDB806002467
:1027400080B58CB000AF07F10C032422002118469D
:102750001BF034FC3B4600221A605A609A60214B01
:10276000214A1A601F4B00225A601E4B00229A60B9
:102770001C4B4FF6FF72DA601A4B00221A61194B9C
:1027800000229A610323FB6000233B6101237B61EC
:102790000023BB610023FB6100233B6201237B62BA
:1027A0000023BB620023FB6207F10C0319460D48AE
:1027B00007F02EF80346002B01D0FFF7B3FC0023EF
:1027C0003B600023BB603B461946064807F0FCFF10
:1027D0000346002B01D0FFF7A5FC00BF3037BD46F4
:1027E00080BD00BF040700240004004080B58CB009
:1027F00000AF07F10C032422002118461BF0DEFB7A
:102800003B4600221A605A609A60214B214A1A60A6
:102810001F4B00225A601E4B00229A601C4B4FF641
:10282000FF72DA601A4B00221A61194B00229A617A
:102830000323FB6000233B6101237B610023BB6119
:102840000023FB6100233B6201237B620023BB6208
:102850000023FB6207F10C0319460D4806F0D8FF70
:102860000346002B01D0FFF75DFC00233B600023F3
:10287000BB603B461946064807F0A6FF0346002BFF
:1028800001D0FFF74FFC00BF3037BD4680BD00BF11
:10289000500700240008004080B58CB000AF07F15D
:1028A0000C032422002118461BF088FB3B46002223
:1028B0001A605A609A60214B214A1A601F4B00220D
:1028C0005A601E4B00229A601C4B4FF6FF72DA6072
:1028D0001A4B00221A61194B00229A610323FB60F4
:1028E00000233B6101237B610023BB610023FB616B
:1028F00000233B6201237B620023BB620023FB6257
:1029000007F10C0319460D4806F082FF0346002B21
:1029100001D0FFF707FC00233B600023BB603B4670
:102920001946064807F050FF0346002B01D0FFF779
:10293000F9FB00BF3037BD4680BD00BF9C070024B7
:10294000000C004080B596B000AF07F14C030022A8
:102950001A605A609A6007F1300300221A605A60C8
:102960009A60DA601A615A619A613B1D2C2200213B
:1029700018461BF023FB4B4B4B4A1A60494B042271
:102980005A60484B00229A60464B4FF4FA62DA6074
:10299000444B00221A61434B00225A61414B802272
:1029A0009A61404806F0CEFD0346002B01D0FFF7A8
:1029B000B9FB0023FB6400233B6500237B6507F123
:1029C0004C031946374807F0FFFE0346002B01D0A1
:1029D000FFF7A8FB60233B6300237B630023BB63FB
:1029E0000023FB6300233B6400237B640023BB6460
:1029F00007F13003002219462A4807F045F903463B
:102A0000002B01D0FFF78EFB07F13003042219469B
:102A1000244807F039F90346002B01D0FFF782FB69
:102A200007F13003082219461E4807F02DF9034626
:102A3000002B01D0FFF776FB07F130030C2219467B
:102A4000184807F021F90346002B01D0FFF76AFB75
:102A500000237B600023BB600023FB6000233B61FD
:102A600000237B614FF40053BB610023FB61002313
:102A70003B624FF000737B620023BB620023FB626A
:102A80003B1D1946074807F02DFF0346002B01D0D8
:102A9000FFF748FB034800F051F900BF5837BD4627
:102AA00080BD00BFE80700240004014080B485B069
:102AB00000AF78607B681B68164A93420FD1164BB3
:102AC000D3F8F030144A43F00103C2F8F030124B4F
:102AD000D3F8F03003F00103FB60FB6813E07B6880
:102AE0001B680E4A93420ED10B4BD3F8F0300A4AC2
:102AF00043F00203C2F8F030074BD3F8F03003F094
:102B00000203BB60BB6800BF1437BD465DF8047BA1
:102B1000704700BF0000014000440258000401401B
:102B200080B590B000AF786007F12C0300221A60E6
:102B30005A609A60DA601A617B681B68B3F1804F53
:102B40004ED1774BD3F8E830754A43F00103C2F811
:102B5000E830734BD3F8E83003F00103BB62BB6A83
:102B60006F4BD3F8E0306E4A43F00103C2F8E03017
:102B70006B4BD3F8E03003F001037B627B6A684B58
:102B8000D3F8E030664A43F00203C2F8E030644B09
:102B9000D3F8E03003F002033B623B6A4FF400439A
:102BA000FB6202233B6300237B630023BB6301239F
:102BB000FB6307F12C0319465A4803F077FB0823FF
:102BC000FB6202233B6300237B630023BB6301237F
:102BD000FB6307F12C031946534803F067FB9BE0A6
:102BE0007B681B68514A93422ED14D4BD3F8E83095
:102BF0004B4A43F00203C2F8E830494BD3F8E830BF
:102C000003F00203FB61FB69454BD3F8E030444A13
:102C100043F00203C2F8E030414BD3F8E03003F058
:102C20000203BB61BB693023FB6202233B630023C9
:102C30007B630023BB630223FB6307F12C0319466C
:102C4000394803F033FB67E07B681B68384A9342DE
:102C50002FD1334BD3F8E830314A43F00403C2F8A4
:102C6000E8302F4BD3F8E83003F004037B617B6935
:102C70002B4BD3F8E0302A4A43F00803C2F8E03087
:102C8000274BD3F8E03003F008033B613B694FF476
:102C90004053FB6202233B6300237B630023BB633F
:102CA0000223FB6307F12C031946224803F0FEFAC6
:102CB00032E07B681B68204A93422DD1184BD3F831
:102CC000E830174A43F00803C2F8E830144BD3F851
:102CD000E83003F00803FB60FB68114BD3F8E030E9
:102CE0000F4A43F00103C2F8E0300D4BD3F8E03057
:102CF00003F00103BB60BB680323FB6202233B6359
:102D000000237B630023BB630223FB6307F12C03D7
:102D10001946044803F0CAFA00BF4037BD4680BDDB
:102D20000044025800000258000402580004004009
:102D300000080040000C0258000C004080B58CB028
:102D400000AF786007F11C0300221A605A609A6095
:102D5000DA601A617B681B68454A934220D1454B73
:102D6000D3F8E030434A43F01003C2F8E030414B5F
:102D7000D3F8E03003F01003BB61BB694FF4D443D8
:102D8000FB6102233B6200237B620023BB620123C1
:102D9000FB6207F11C031946374803F087FA62E02B
:102DA0007B681B68354A93425DD1324BD3F8E030E3
:102DB000304A43F00103C2F8E0302E4BD3F8E03044
:102DC00003F001037B617B692A4BD3F8E030294A89
:102DD00043F00203C2F8E030264BD3F8E03003F0B2
:102DE00002033B613B69234BD3F8E030214A43F0B7
:102DF0000403C2F8E0301F4BD3F8E03003F00403C3
:102E0000FB60FB682023FB6102233B6200237B62A3
:102E10000023BB620323FB6207F11C031946184819
:102E200003F044FA0123FB6102233B6200237B622F
:102E30000023BB620323FB6207F11C031946114800
:102E400003F034FA4FF44073FB6102233B6200232A
:102E50007B620023BB620323FB6207F11C0319465C
:102E6000094803F023FA00BF3037BD4680BD00BFDC
:102E700000000140004402580010025800040140C4
:102E800000000258000402580008025880B500AF44
:102E9000224B234A1A60214B4FF4E1325A601F4BF8
:102EA00000229A601D4B0022DA601C4B00221A613E
:102EB0001A4B0C225A61194B00229A61174B0022BF
:102EC000DA61164B00221A62144B00225A62134B2D
:102ED00000229A62114807F0C6FD0346002B01D07C
:102EE000FFF720F900210D4809F04AFE0346002BA8
:102EF00001D0FFF717F90021084809F07FFE0346CB
:102F0000002B01D0FFF70EF9044809F000FE03463C
:102F1000002B01D0FFF706F900BF80BD3408002464
:102F20000078004080B500AF224B234A1A60214B45
:102F3000224A5A601F4B00229A601E4B0022DA6020
:102F40001C4B00221A611B4B0C225A61194B0022A8
:102F50009A61184B0022DA61164B00221A62154B57
:102F600000225A62134B00229A62124807F07BFD3E
:102F70000346002B01D0FFF7D5F800210D4809F0DA
:102F8000FFFD0346002B01D0FFF7CCF800210948D4
:102F900009F034FE0346002B01D0FFF7C3F80548C3
:102FA00009F0B5FD0346002B01D0FFF7BBF800BFC9
:102FB00080BD00BFC80800240010014080841E00AE
:102FC00080B5BCB000AF786007F1DC0300221A6066
:102FD0005A609A60DA601A6107F11803C022002172
:102FE00018461AF0EBFF7B681B68804A934247D172
:102FF0004FF002024FF00003C7E906230023C7F891
:10300000903007F11803184604F096FB0346002B96
:1030100001D0FFF787F8764BD3F8E830744A43F0D5
:103020008043C2F8E830724BD3F8E83003F08043B5
:103030007B617B696E4BD3F8E0306D4A43F010033F
:10304000C2F8E0306A4BD3F8E03003F010033B6184
:103050003B694FF4C073C7F8DC300223C7F8E03097
:103060000023C7F8E4300023C7F8E8300723C7F887
:10307000EC3007F1DC0319465E4803F017F9B0E0C5
:103080007B681B685C4A934240F0AB804FF00102C2
:103090004FF00003C7E906230023C7F8943007F177
:1030A0001803184604F048FB0346002B01D0FFF735
:1030B00039F84F4BD3F8F0304D4A43F01003C2F8C3
:1030C000F0304B4BD3F8F03003F01003FB60FB689B
:1030D000474BD3F8E030464A43F00103C2F8E030F2
:1030E000434BD3F8E03003F00103BB60BB684FF4FF
:1030F000C063C7F8DC300223C7F8E0300023C7F80C
:10310000E4300023C7F8E8300723C7F8EC3007F1B4
:10311000DC031946394803F0C9F8394B394A1A60BB
:10312000374B29225A60364B00229A60344B0022DA
:10313000DA60334B4FF480621A61314B00225A61DE
:103140002F4B00229A612E4B4FF48072DA612C4B88
:1031500000221A622A4B00225A62294800F05EFAC5
:103160000346002B01D0FEF7DDFF7B68244AC3F83D
:103170008020234A7B689363234B244A1A60224BA6
:103180002A225A60204B40229A601F4B0022DA60AC
:103190001D4B4FF480621A611B4B00225A611A4B7F
:1031A00000229A61184B0022DA61174B00221A6242
:1031B000154B00225A62144800F030FA0346002BE7
:1031C00001D0FEF7AFFF7B680F4ADA670E4A7B68D3
:1031D000936300220521252000F07BF9252000F0D3
:1031E00092F900BFF037BD4680BD00BF00780040B7
:1031F000004402580010025800100140000002581C
:103200005C09002410000240D40900242800024078
:10321000DFF834D0FFF704F90C480D490D4A0023BC
:1032200002E0D458C4500433C4188C42F9D30A4A7B
:103230000A4C002301E013600432A242FBD31AF0CF
:10324000B1FFFEF74BFE7047000008240000002489
:10325000A8030024280F0208A8030024F400022475
:10326000FEE7000080B582B000AF032000F026F931
:1032700004F04AF80246154B9B691B0A03F00F0342
:103280001349CB5C03F01F0322FA03F37B600F4B5F
:103290009B6903F00F030E4AD35C03F01F037A68A7
:1032A00022FA03F30B4A13600B4A7B6813600F206A
:1032B000FEF75CFF0346002B01D0012302E0FEF77E
:1032C00037FF002318460837BD4680BD004402582A
:1032D0004C0002080C0000240800002480B400AF59
:1032E000064B1B781A46064B1B681344044A1360AE
:1032F00000BFBD465DF8047B704700BF140000248A
:103300004C0A002480B400AF034B1B681846BD462E
:103310005DF8047B704700BF4C0A002480B400AF06
:10332000034B1B681B0C1846BD465DF8047B7047B9
:103330000010005C80B485B000AF78607B6803F05B
:103340000703FB600B4BDB68BB60BA684FF6FF03FB
:103350001340BB60FB681A02BB681A43064B134359
:10336000BB60044ABB68D36000BF1437BD465DF83C
:10337000047B704700ED00E00000FA0580B400AF68
:10338000044BDB681B0A03F007031846BD465DF8D3
:10339000047B704700ED00E080B483B000AF0346CB
:1033A000FB80B7F90630002B0BDBFB8803F01F0214
:1033B0000749B7F906305B09012000FA02F241F82B
:1033C000232000BF0C37BD465DF8047B704700BF6B
:1033D00000E100E080B483B000AF03463960FB80B9
:1033E000B7F90630002B0ADB3B68DAB20C49B7F9B3
:1033F00006301201D2B20B4483F800230AE03B6886
:10340000DAB20849FB8803F00F03043B1201D2B281
:103410000B441A7600BF0C37BD465DF8047B70473D
:1034200000E100E000ED00E080B489B000AFF8609A
:10343000B9607A60FB6803F00703FB61FB69C3F1C5
:103440000703042B28BF0423BB61FB690433062B4D
:1034500002D9FB69033B00E000237B614FF0FF32A0
:10346000BB6902FA03F3DA43BB681A407B699A40EE
:103470004FF0FF317B6901FA03F3D9437B680B40BE
:10348000134318462437BD465DF8047B704700009F
:1034900080B400AFBFF34F8F00BF064BDB6803F46F
:1034A000E0620449044B1343CB60BFF34F8F00BF6E
:1034B00000BFFDE700ED00E00400FA0580B582B032
:1034C00000AF78607868FFF735FF00BF0837BD466A
:1034D00080BD80B586B000AF0346B9607A60FB81DD
:1034E000FFF74CFF78617A68B9687869FFF79CFF4D
:1034F0000246B7F90E3011461846FFF76BFF00BFC2
:103500001837BD4680BD80B582B000AF0346FB8052
:10351000B7F906301846FFF73FFF00BF0837BD4632
:1035200080BD80B500AFFFF7B3FF000080B400AFEF
:10353000BFF35F8F00BF074B5B6A064A23F48033FB
:103540005362054B00225A6000BFBD465DF8047B04
:10355000704700BF00ED00E090ED00E080B483B064
:1035600000AF78600B4A7B6843F0010353600A4B5D
:103570005B6A094A43F480335362BFF34F8F00BF45
:10358000BFF36F8F00BF00BF0C37BD465DF8047BF3
:10359000704700BF90ED00E000ED00E080B483B024
:1035A00000AF78607B685A781B4B9A601A4B1B6996
:1035B000194A23F001031361174A7B685B68D360E3
:1035C0007B681B7B1A077B68DB7A1B061A437B68C8
:1035D0009B7ADB041A437B685B7B9B041A437B6802
:1035E0009B7B5B041A437B68DB7B1B041A437B6871
:1035F0005B7A1B021A437B681B7A5B0013437A6871
:1036000012781146044A0B43136100BF0C37BD46C4
:103610005DF8047B704700BF90ED00E080B586B098
:1036200000AF7860FFF76EFE38617B68002B01D138
:10363000012316E37B681B68664A93424AD07B6885
:103640001B68654A934245D07B681B68634A934276
:1036500040D07B681B68624A93423BD07B681B6802
:10366000604A934236D07B681B685F4A934231D0F0
:103670007B681B685D4A93422CD07B681B685C4A60
:10368000934227D07B681B685A4A934222D07B68BA
:103690001B68594A93421DD07B681B68574A934266
:1036A00018D07B681B68564A934213D07B681B680E
:1036B000544A93420ED07B681B68534A934209D008
:1036C0007B681B68514A934204D07B681B68504A50
:1036D000934201D1012300E00023002B00F03B8145
:1036E0007B68022283F835207B68002283F834202F
:1036F0007B681B68374A93424AD07B681B68364A0E
:10370000934245D07B681B68344A934240D07B6823
:103710001B68334A93423BD07B681B68314A934213
:1037200036D07B681B68304A934231D07B681B6877
:103730002E4A93422CD07B681B682D4A934227D097
:103740007B681B682B4A934222D07B681B682A4AFD
:1037500093421DD07B681B68284A934218D07B682F
:103760001B68274A934213D07B681B68254A934203
:103770000ED07B681B68244A934209D07B681B6883
:10378000224A934204D07B681B68214A934208D1A5
:103790007B681B681A687B681B6822F001021A604C
:1037A00007E07B681B681A687B681B6822F00102CF
:1037B0001A602FE0FFF7A6FD02463B69D31A052BDE
:1037C00028D97B6820225A657B68032283F835203C
:1037D000012346E21000024028000240400002405F
:1037E000580002407000024088000240A0000240E1
:1037F000B800024010040240280402404004024085
:10380000580402407004024088040240A0040240B0
:10381000B80402407B681B681B6803F00103002B9F
:10382000C8D17B681B681B687B617A69834B134036
:103830007B617B689A687B68DB681A437B681B69DD
:103840001A437B685B691A437B689B691A437B68F0
:10385000DB691A437B681B6A13437A6913437B61F4
:103860007B685B6A042B07D17B68DA6A7B681B6B19
:1038700013437A6913437B61714B1A68714B134090
:10388000B3F1005F28D37B685B68282B03D97B6882
:103890005B682E2B17D97B685B683E2B03D97B684E
:1038A0005B68422B0FD97B685B68462B03D97B682A
:1038B0005B68482B07D97B685B684E2B05D97B6812
:1038C0005B68522B01D8012300E00023002B03D0BA
:1038D0007B6943F480137B617B681B687A691A609B
:1038E0007B681B685B697B617B6923F007037B61F5
:1038F0007B685B6A7A6913437B617B685B6A042B34
:1039000017D17B689B6A7A6913437B617B68DB6AAA
:10391000002B0ED0786802F03FFB0346002B08D046
:103920007B6840225A657B68012283F83520012399
:1039300097E17B681B687A695A61786802F07AFAC5
:103940000346BB607B68DB6D03F01F033F229A4098
:10395000BB689A60CDE07B681B683B4A934222D0EB
:103960007B681B68394A93421DD07B681B68384AC4
:10397000934218D07B681B68364A934213D07B6809
:103980001B68354A93420ED07B681B68334A9342CA
:1039900009D07B681B68324A934204D07B681B685D
:1039A000304A934201D1012300E00023002B00F0B4
:1039B00097807B681B68244A934221D07B681B68F0
:1039C000224A93421CD07B681B68214A934217D03D
:1039D0007B681B681F4A934212D07B681B681E4A93
:1039E00093420DD07B681B681C4A934208D07B68C9
:1039F0001B681B4A934203D07B681B68194A934299
:103A00007B68022283F835207B68002283F834200B
:103A10007B681B681B687B617A69134B13407B6171
:103A20007B689B68402B21D07B689B68802B02D1F0
:103A30004FF480431BE0002319E000BF3F8010FEDD
:103A40000010005C0000FFFF085402581C5402588C
:103A50003054025844540258585402586C54025876
:103A600080540258945402580F00FEFF10237A68C5
:103A7000D268D2081A437B681B69DB081A437B684B
:103A80005B69DB081A437B689B69DB081A437B6828
:103A9000DB69DB081A437B681B6A1B0913437A69DD
:103AA00013437B617B681B687A691A607B681B68BB
:103AB0001A466E4B13446E4AA2FB03231B099A005D
:103AC0007B68DA65786802F0B5F90346FB607B68CD
:103AD000DB6D03F01F0301229A40FB685A6008E087
:103AE0007B6840225A657B68032283F835200123D6
:103AF000B7E07B681B685F4A934272D07B681B68A3
:103B00005D4A93426DD07B681B685C4A934268D0E3
:103B10007B681B685A4A934263D07B681B68594A8A
:103B200093425ED07B681B68574A934259D07B68AA
:103B30001B68564A934254D07B681B68544A934290
:103B40004FD07B681B68534A93424AD07B681B68FE
:103B5000514A934245D07B681B68504A934240D0FB
:103B60007B681B684E4A93423BD07B681B684D4A7A
:103B7000934236D07B681B684B4A934231D07B68B6
:103B80001B684A4A93422CD07B681B68484A934280
:103B900027D07B681B68474A934222D07B681B680A
:103BA000454A93421DD07B681B68444A934218D013
:103BB0007B681B68424A934213D07B681B68414A6A
:103BC00093420ED07B681B683F4A934209D07B68C2
:103BD0001B683E4A934204D07B681B683C4A934270
:103BE00001D1012300E00023002B32D0786802F0DD
:103BF0004FFA7B689B68802B02D17B6800225A6059
:103C00007B685A687B681B6ED2B21A607B685B6EF9
:103C10007A68926E5A607B685B68002B10D07B6874
:103C20005B68082B0CD8786802F0CCFA7B68DB6EF6
:103C300000221A607B681B6F7A68526F5A6008E036
:103C40007B680022DA667B6800221A677B680022A4
:103C50005A677B6800225A657B68012283F8352009
:103C6000002318461837BD4680BD00BFF8ABFDA73E
:103C7000CDCCCCCC100002402800024040000240D5
:103C8000580002407000024088000240A00002403C
:103C9000B8000240100402402804024040040240E0
:103CA000580402407004024088040240A00402400C
:103CB000B8040240085402581C54025830540258A8
:103CC00044540258585402586C54025880540258B4
:103CD0009454025880B586B000AFF860B9607A603D
:103CE0003B600023FB75FB68002B01D1012326E21A
:103CF000FB6893F83430012B01D102231FE2FB68EB
:103D0000012283F83420FB6893F83530DBB2012BB5
:103D100040F00A82FB68022283F83520FB6800220B
:103D20005A65FB681B68684A93424AD0FB681B6867
:103D3000664A934245D0FB681B68654A934240D06F
:103D4000FB681B68634A93423BD0FB681B68624A6E
:103D5000934236D0FB681B68604A934231D0FB68BF
:103D60001B685F4A93422CD0FB681B685D4A9342F4
:103D700027D0FB681B685C4A934222D0FB681B6813
:103D80005A4A93421DD0FB681B68594A934218D087
:103D9000FB681B68574A934213D0FB681B68564A5E
:103DA00093420ED0FB681B68544A934209D0FB68CB
:103DB0001B68534A934204D0FB681B68514A9342E4
:103DC00008D1FB681B681A68FB681B6822F00102B7
:103DD0001A6007E0FB681B681A68FB681B6822F022
:103DE00001021A603B687A68B968F86801F076FEEB
:103DF000FB681B68344A93424AD0FB681B68334A0D
:103E0000934245D0FB681B68314A934240D0FB681F
:103E10001B68304A93423BD0FB681B682E4A934292
:103E200036D0FB681B682D4A934231D0FB681B6873
:103E30002B4A93422CD0FB681B682A4A934227D016
:103E4000FB681B68284A934222D0FB681B68274AFC
:103E500093421DD0FB681B68254A934218D0FB682B
:103E60001B68244A934213D0FB681B68224A934282
:103E70000ED0FB681B68214A934209D0FB681B687F
:103E80001F4A934204D0FB681B681E4A934201D12B
:103E9000012300E00023002B36D0FB681B681B6861
:103EA00023F01E02FB681B6842F016021A60FB68D2
:103EB0001B6C002B3ED0FB681B681A68FB681B68F4
:103EC00042F008021A6035E010000240280002406B
:103ED000400002405800024070000240880002404A
:103EE000A0000240B8000240100402402804024032
:103EF000400402405804024070040240880402401A
:103F0000A0040240B8040240FB681B681B6823F051
:103F10000E02FB681B6842F00A021A60FB681B6C09
:103F2000002B07D0FB681B681A68FB681B6842F00F
:103F300004021A60FB681B68834A934272D0FB68D4
:103F40001B68824A93426DD0FB681B68804A93428B
:103F500068D0FB681B687F4A934263D0FB681B688C
:103F60007D4A93425ED0FB681B687C4A934259D0DD
:103F7000FB681B687A4A934254D0FB681B68794AF5
:103F800093424FD0FB681B68774A93424AD0FB6844
:103F90001B68764A934245D0FB681B68744A93427B
:103FA00040D0FB681B68734A93423BD0FB681B6898
:103FB000714A934236D0FB681B68704A934231D0F5
:103FC000FB681B686E4A93422CD0FB681B686D4AE5
:103FD000934227D0FB681B686B4A934222D0FB6850
:103FE0001B686A4A93421DD0FB681B68684A93426B
:103FF00018D0FB681B68674A934213D0FB681B68A4
:10400000654A93420ED0FB681B68644A934209D00C
:10401000FB681B68624A934204D0FB681B68614AD4
:10402000934201D1012300E00023002B1AD0FB684A
:104030001B6E1B6803F48033002B07D0FB681B6EDC
:104040001A68FB681B6E42F480721A60FB68DB6EB4
:10405000002B07D0FB68DB6E1A68FB68DB6E42F44E
:1040600080721A60FB681B68374A93424AD0FB682B
:104070001B68364A934245D0FB681B68344A93421A
:1040800040D0FB681B68334A93423BD0FB681B68F7
:10409000314A934236D0FB681B68304A934231D094
:1040A000FB681B682E4A93422CD0FB681B682D4A84
:1040B000934227D0FB681B682B4A934222D0FB68AF
:1040C0001B682A4A93421DD0FB681B68284A93420A
:1040D00018D0FB681B68274A934213D0FB681B6803
:1040E000254A93420ED0FB681B68244A934209D0AC
:1040F000FB681B68224A934204D0FB681B68214A74
:10410000934208D1FB681B681A68FB681B6842F081
:1041100001021A6012E0FB681B681A68FB681B68E2
:1041200042F001021A6009E0FB684FF400625A6530
:10413000FB68002283F834200123FB75FB7D1846C1
:104140001837BD4680BD00BF100002402800024065
:1041500040000240580002407000024088000240C7
:10416000A0000240B80002401004024028040240AF
:104170004004024058040240700402408804024097
:10418000A0040240B8040240085402581C540258CB
:104190003054025844540258585402586C5402582F
:1041A000805402589454025880B586B000AF7860AD
:1041B000FFF7A8F838617B68002B01D10123DCE20E
:1041C0007B6893F83530DBB2022B08D07B68802205
:1041D0005A657B68002283F834200123CDE27B6896
:1041E0001B68764A93424AD07B681B68744A9342A4
:1041F00045D07B681B68734A934240D07B681B683C
:10420000714A93423BD07B681B68704A934236D018
:104210007B681B686E4A934231D07B681B686D4A8D
:1042200093422CD07B681B686B4A934227D07B68F3
:104230001B686A4A934222D07B681B68684A934293
:104240001DD07B681B68674A934218D07B681B6847
:10425000654A934213D07B681B68644A93420ED030
:104260007B681B68624A934209D07B681B68614A7D
:10427000934204D07B681B685F4A934201D10123BB
:1042800000E00023002B13D07B681B681A687B6852
:104290001B6822F01E021A607B681B685A697B68E3
:1042A0001B6822F080025A617B681B687B610AE010
:1042B0007B681B681A687B681B6822F00E021A6014
:1042C0007B681B687B617B681B683C4A934272D0A9
:1042D0007B681B683A4A93426DD07B681B68394AF9
:1042E000934268D07B681B68374A934263D07B68EF
:1042F0001B68364A93425ED07B681B68344A9342FF
:1043000059D07B681B68334A934254D07B681B6842
:10431000314A93424FD07B681B68304A93424AD05F
:104320007B681B682E4A934245D07B681B682D4AE8
:10433000934240D07B681B682B4A93423BD07B68FA
:104340001B682A4A934236D07B681B68284A9342EE
:1043500031D07B681B68274A93422CD07B681B684E
:10436000254A934227D07B681B68244A934222D077
:104370007B681B68224A93421DD07B681B68214AD8
:10438000934218D07B681B681F4A934213D07B6806
:104390001B681E4A93420ED07B681B681C4A9342DE
:1043A00009D07B681B681B4A934204D07B681B685A
:1043B000194A934232D1012331E000BF100002407C
:1043C00028000240400002405800024070000240B5
:1043D00088000240A0000240B800024010040240E1
:1043E0002804024040040240580402407004024085
:1043F00088040240A0040240B80402400854025855
:104400001C5402583054025844540258585402580C
:104410006C54025880540258945402580023002BC4
:1044200007D07B681B6E1A687B681B6E22F4807253
:104430001A607B681B686D4A93424AD07B681B6890
:104440006B4A934245D07B681B686A4A934240D0CE
:104450007B681B68684A93423BD07B681B68674A4D
:10446000934236D07B681B68654A934231D07B68A3
:104470001B68644A93422CD07B681B68624A934253
:1044800027D07B681B68614A934222D07B681B68F7
:104490005F4A93421DD07B681B685E4A934218D0E6
:1044A0007B681B685C4A934213D07B681B685B4A3D
:1044B00093420ED07B681B68594A934209D07B68AF
:1044C0001B68584A934204D07B681B68564A934243
:1044D00008D17B681B681A687B681B6822F00102A0
:1044E0001A6007E07B681B681A687B681B6822F00B
:1044F00001021A6013E0FEF705FF02463B69D31A7A
:10450000052B0CD97B6820225A657B68032283F82F
:1045100035207B68002283F8342001232DE17B695C
:104520001B6803F00103002BE5D17B681B682F4A51
:1045300093424AD07B681B682D4A934245D07B68E2
:104540001B682C4A934240D07B681B682A4A9342DE
:104550003BD07B681B68294A934236D07B681B6836
:10456000274A934231D07B681B68264A93422CD05D
:104570007B681B68244A934227D07B681B68234AC8
:10458000934222D07B681B68214A93421DD07B68EE
:104590001B68204A934218D07B681B681E4A9342CE
:1045A00013D07B681B681D4A93420ED07B681B6842
:1045B0001B4A934209D07B681B681A4A934204D075
:1045C0007B681B68184A934201D1012300E0002355
:1045D000002B2BD07B689B6DBB607B68DB6D03F091
:1045E0001F033F229A40BB689A602AE010000240F5
:1045F0002800024040000240580002407000024083
:1046000088000240A0000240B800024010040240AE
:104610002804024040040240580402407004024052
:1046200088040240A0040240B80402407B689B6DED
:10463000FB607B68DB6D03F01F0301229A40FB687F
:104640005A607B681B684F4A934272D07B681B6834
:104650004D4A93426DD07B681B684C4A934268D0A8
:104660007B681B684A4A934263D07B681B68494A4F
:1046700093425ED07B681B68474A934259D07B685F
:104680001B68464A934254D07B681B68444A934255
:104690004FD07B681B68434A93424AD07B681B68B3
:1046A000414A934245D07B681B68404A934240D0C0
:1046B0007B681B683E4A93423BD07B681B683D4A3F
:1046C000934236D07B681B683B4A934231D07B686B
:1046D0001B683A4A93422CD07B681B68384A934245
:1046E00027D07B681B68374A934222D07B681B68BF
:1046F000354A93421DD07B681B68344A934218D0D8
:104700007B681B68324A934213D07B681B68314A2E
:1047100093420ED07B681B682F4A934209D07B6876
:104720001B682E4A934204D07B681B682C4A934234
:1047300001D1012300E00023002B15D07B685B6EC4
:104740007A68926E5A607B68DB6E002B0CD07B68B7
:10475000DB6E1A687B68DB6E22F480721A607B68FD
:104760001B6F7A68526F5A607B68012283F835208C
:104770007B68002283F83420002318461837BD4692
:1047800080BD00BF100002402800024040000240EF
:10479000580002407000024088000240A000024021
:1047A000B8000240100402402804024040040240C5
:1047B000580402407004024088040240A0040240F1
:1047C000B8040240085402581C540258305402588D
:1047D00044540258585402586C5402588054025899
:1047E0009454025880B584B000AF78607B68002B89
:1047F00001D1012337E27B6893F83530DBB2022B1D
:1048000004D07B6880225A6501232CE27B681B68F8
:104810005C4A93424AD07B681B685B4A934245D00E
:104820007B681B68594A934240D07B681B68584A92
:1048300093423BD07B681B68564A934236D07B68D4
:104840001B68554A934231D07B681B68534A934298
:104850002CD07B681B68524A934227D07B681B6828
:10486000504A934222D07B681B684F4A93421DD026
:104870007B681B684D4A934218D07B681B684C4A82
:10488000934213D07B681B684A4A93420ED07B68E0
:104890001B68494A934209D07B681B68474A934288
:1048A00004D07B681B68464A934201D1012300E093
:1048B0000023002B00F086807B68042283F83520DB
:1048C0007B681B682F4A93424AD07B681B682E4A3C
:1048D000934245D07B681B682C4A934240D07B684A
:1048E0001B682B4A93423BD07B681B68294A934242
:1048F00036D07B681B68284A934231D07B681B689E
:10490000264A93422CD07B681B68254A934227D0C5
:104910007B681B68234A934222D07B681B68224A2B
:1049200093421DD07B681B68204A934218D07B6855
:104930001B681F4A934213D07B681B681D4A934231
:104940000ED07B681B681C4A934209D07B681B68A9
:104950001A4A934204D07B681B68194A934208D1D3
:104960007B681B681A687B681B6822F001021A606A
:1049700078E17B681B681A687B681B6822F001027B
:104980001A606FE11000024028000240400002401F
:10499000580002407000024088000240A00002401F
:1049A000B8000240100402402804024040040240C3
:1049B000580402407004024088040240A0040240EF
:1049C000B80402407B681B681A687B681B6822F089
:1049D0000E021A607B681B686C4A93424AD07B685F
:1049E0001B686B4A934245D07B681B68694A9342B7
:1049F00040D07B681B68684A93423BD07B681B6849
:104A0000664A934236D07B681B68654A934231D030
:104A10007B681B68634A93422CD07B681B68624AA0
:104A2000934227D07B681B68604A934222D07B6800
:104A30001B685F4A93421DD07B681B685D4A9342A6
:104A400018D07B681B685C4A934213D07B681B6854
:104A50005A4A93420ED07B681B68594A934209D048
:104A60007B681B68574A934204D07B681B68564A90
:104A7000934208D17B681B681A687B681B6822F028
:104A800001021A6007E07B681B681A687B681B6874
:104A900022F001021A607B681B683C4A934272D084
:104AA0007B681B683A4A93426DD07B681B68394A21
:104AB000934268D07B681B68374A934263D07B6817
:104AC0001B68364A93425ED07B681B68344A934227
:104AD00059D07B681B68334A934254D07B681B686B
:104AE000314A93424FD07B681B68304A93424AD088
:104AF0007B681B682E4A934245D07B681B682D4A11
:104B0000934240D07B681B682B4A93423BD07B6822
:104B10001B682A4A934236D07B681B68284A934216
:104B200031D07B681B68274A93422CD07B681B6876
:104B3000254A934227D07B681B68244A934222D09F
:104B40007B681B68224A93421DD07B681B68214A00
:104B5000934218D07B681B681F4A934213D07B682E
:104B60001B681E4A93420ED07B681B681C4A934206
:104B700009D07B681B681B4A934204D07B681B6882
:104B8000194A934232D1012331E000BF10000240A4
:104B900028000240400002405800024070000240DD
:104BA00088000240A0000240B80002401004024009
:104BB00028040240400402405804024070040240AD
:104BC00088040240A0040240B8040240085402587D
:104BD0001C54025830540258445402585854025835
:104BE0006C54025880540258945402580023002BED
:104BF00028D07B681B6E1A687B681B6E22F480725B
:104C00001A607B689B6DFB607B68DB6D03F01F03A4
:104C100001229A40FB685A607B685B6E7A68926EEC
:104C20005A607B68DB6E002B0CD07B68DB6E1A68E9
:104C30007B68DB6E22F480721A607B681B6F7A6877
:104C4000526F5A607B68012283F835207B6800220E
:104C500083F834207B681B6D002B03D07B681B6DB1
:104C600078689847002318461037BD4680BD00BFBE
:104C700080B58AB000AF78600023FB60674B1B688B
:104C8000674AA2FB03239B0A7B627B689B6D3B62A6
:104C90007B689B6DFB613B6A1B68BB61FB691B68A2
:104CA0007B617B681B685F4A93424AD07B681B68C4
:104CB0005D4A934245D07B681B685C4A934240D072
:104CC0007B681B685A4A93423BD07B681B68594AF1
:104CD000934236D07B681B68574A934231D07B6839
:104CE0001B68564A93422CD07B681B68544A9342F7
:104CF00027D07B681B68534A934222D07B681B688D
:104D0000514A93421DD07B681B68504A934218D089
:104D10007B681B684E4A934213D07B681B684D4AE0
:104D200093420ED07B681B684B4A934209D07B6844
:104D30001B684A4A934204D07B681B68484A9342E6
:104D400001D1012300E00023002B00F02B847B68BD
:104D5000DB6D03F01F0308229A40BB691340002B50
:104D600000F0A2807B681B682E4A93424AD07B6881
:104D70001B682D4A934245D07B681B682B4A93429F
:104D800040D07B681B682A4A93423BD07B681B68F3
:104D9000284A934236D07B681B68274A934231D019
:104DA0007B681B68254A93422CD07B681B68244A89
:104DB000934227D07B681B68224A934222D07B68AB
:104DC0001B68214A93421DD07B681B681F4A93428F
:104DD00018D07B681B681E4A934213D07B681B68FF
:104DE0001C4A93420ED07B681B681B4A934209D031
:104DF0007B681B68194A934204D07B681B68184A79
:104E000093422FD17B681B681B6803F00403002BBF
:104E100014BF01230023DBB22EE000BF08000024F2
:104E2000B5814E1B100002402800024040000240A5
:104E3000580002407000024088000240A00002407A
:104E4000B80002401004024028040240400402401E
:104E5000580402407004024088040240A00402404A
:104E6000B80402407B681B681B6803F00803002B32
:104E700014BF01230023DBB2002B15D07B681B6815
:104E80001A687B681B6822F004021A607B68DB6D7D
:104E900003F01F0308229A403B6A9A607B685B6DAF
:104EA00043F001027B685A657B68DB6D03F01F03EA
:104EB000BA6922FA03F303F00103002B6ED07B687A
:104EC0001B68694A93424AD07B681B68674A9342D1
:104ED00045D07B681B68664A934240D07B681B685C
:104EE000644A93423BD07B681B68634A934236D046
:104EF0007B681B68614A934231D07B681B68604ABB
:104F000093422CD07B681B685E4A934227D07B6813
:104F10001B685D4A934222D07B681B685B4A9342C0
:104F20001DD07B681B685A4A934218D07B681B6867
:104F3000584A934213D07B681B68574A93420ED05D
:104F40007B681B68554A934209D07B681B68544AAA
:104F5000934204D07B681B68524A93420AD17B6813
:104F60001B685B6903F08003002B14BF012300233F
:104F7000DBB203E07B681B681B680023002B0DD0AD
:104F80007B68DB6D03F01F0301229A403B6A9A6045
:104F90007B685B6D43F002027B685A657B68DB6D62
:104FA00003F01F0304229A40BB691340002B00F05A
:104FB0008F807B681B682C4A93424AD07B681B68B1
:104FC0002A4A934245D07B681B68294A934240D0C5
:104FD0007B681B68274A93423BD07B681B68264A44
:104FE000934236D07B681B68244A934231D07B6859
:104FF0001B68234A93422CD07B681B68214A93424A
:1050000027D07B681B68204A934222D07B681B68AC
:105010001E4A93421DD07B681B681D4A934218D0DC
:105020007B681B681B4A934213D07B681B681A4A33
:1050300093420ED07B681B68184A934209D07B6864
:105040001B68174A934204D07B681B68154A934239
:105050002AD17B681B681B6803F00203002B14BF76
:1050600001230023DBB223E01000024028000240AD
:105070004000024058000240700002408800024098
:10508000A0000240B8000240100402402804024080
:105090004004024058040240700402408804024068
:1050A000A0040240B80402407B681B681B68002310
:1050B000002B0DD07B68DB6D03F01F0304229A40A8
:1050C0003B6A9A607B685B6D43F004027B685A65BB
:1050D0007B68DB6D03F01F0310229A40BB6913400D
:1050E000002B00F0A6807B681B68854A93424AD05B
:1050F0007B681B68834A934245D07B681B68824A61
:10510000934240D07B681B68804A93423BD07B68C7
:105110001B687F4A934236D07B681B687D4A934266
:1051200031D07B681B687C4A93422CD07B681B681B
:105130007A4A934227D07B681B68794A934222D0EF
:105140007B681B68774A93421DD07B681B68764A50
:10515000934218D07B681B68744A934213D07B68D3
:105160001B68734A93420ED07B681B68714A934256
:1051700009D07B681B68704A934204D07B681B6827
:105180006E4A93420AD17B681B681B6803F00803D0
:10519000002B14BF01230023DBB209E07B681B68EE
:1051A0001B6803F00403002B14BF01230023DBB2B0
:1051B000002B3ED07B68DB6D03F01F0310229A406A
:1051C0003B6A9A607B681B681B6803F48023002B92
:1051D00018D07B681B681B6803F40023002B08D1E0
:1051E0007B681B6C002B24D07B681B6C786898470D
:1051F0001FE07B689B6C002B1BD07B689B6C7868E6
:10520000984716E07B681B681B6803F48073002BCB
:1052100007D17B681B681A687B681B6822F008024C
:105220001A607B681B6C002B03D07B681B6C786852
:1052300098477B68DB6D03F01F0320229A40BB690F
:105240001340002B00F010817B681B682C4A9342AE
:105250004AD07B681B682B4A934245D07B681B6809
:10526000294A934240D07B681B68284A93423BD02E
:105270007B681B68264A934236D07B681B68254AA8
:10528000934231D07B681B68234A93422CD07B68C1
:105290001B68224A934227D07B681B68204A9342AE
:1052A00022D07B681B681F4A93421DD07B681B6815
:1052B0001D4A934218D07B681B681C4A934213D046
:1052C0007B681B681A4A93420ED07B681B68194A98
:1052D000934209D07B681B68174A934204D07B68CD
:1052E0001B68164A93422BD17B681B681B6803F02E
:1052F0001003002B14BF01230023DBB22AE000BF00
:1053000010000240280002404000024058000240C5
:105310007000024088000240A0000240B800024035
:105320001004024028040240400402405804024095
:105330007004024088040240A0040240B804024005
:105340007B681B681B6803F00203002B14BF01235A
:105350000023DBB2002B00F087807B68DB6D03F05D
:105360001F0320229A403B6A9A607B6893F835308D
:10537000DBB2042B39D17B681B681A687B681B6819
:1053800022F016021A607B681B685A697B681B68EA
:1053900022F080025A617B681B6C002B03D17B6872
:1053A0009B6C002B07D07B681B681A687B681B68A6
:1053B00022F008021A607B68DB6D03F01F033F22B6
:1053C0009A403B6A9A607B68012283F835207B68AB
:1053D000002283F834207B681B6D002B00F04A8389
:1053E0007B681B6D7868984744E37B681B681B6883
:1053F00003F48023002B18D07B681B681B6803F420
:105400000023002B08D17B685B6C002B2CD07B68C1
:105410005B6C7868984727E07B68DB6B002B23D0B8
:105420007B68DB6B786898471EE07B681B681B68AD
:1054300003F48073002B0FD17B681B681A687B68AC
:105440001B6822F010021A607B68012283F8352065
:105450007B68002283F834207B68DB6B002B03D051
:105460007B68DB6B786898477B685B6D002B00F08E
:1054700006837B685B6D03F00103002B00F08880DE
:105480007B68042283F835207B681B687A4A934244
:105490004AD07B681B68794A934245D07B681B6879
:1054A000774A934240D07B681B68764A93423BD050
:1054B0007B681B68744A934236D07B681B68734ACA
:1054C000934231D07B681B68714A93422CD07B6831
:1054D0001B68704A934227D07B681B686E4A9342D0
:1054E00022D07B681B686D4A93421DD07B681B6885
:1054F0006B4A934218D07B681B686A4A934213D068
:105500007B681B68684A93420ED07B681B68674AB9
:10551000934209D07B681B68654A934204D07B683C
:105520001B68644A934208D17B681B681A687B68D1
:105530001B6822F001021A6007E07B681B681A688A
:105540007B681B6822F001021A60FB680133FB6074
:105550007A6A9A4207D37B681B681B6803F00103D1
:10556000002BF2D100E000BF7B681B681B6803F0D2
:105570000103002B04D07B68032283F8352003E06D
:105580007B68012283F835207B68002283F8342071
:105590007B68DB6C002B00F072827B68DB6C7868C8
:1055A00098476CE27B681B68434A934222D07B6831
:1055B0001B68424A93421DD07B681B68404A934255
:1055C00018D07B681B683F4A934213D07B681B68E6
:1055D0003D4A93420ED07B681B683C4A934209D0F7
:1055E0007B681B683A4A934204D07B681B68394A3F
:1055F000934201D1012300E00023002B00F03F8201
:105600007B681B681B683B617B68DB6D03F01F03D5
:1056100004229A407B691340002B00F0CD803B6947
:1056200003F00403002B00F0C7807B68DB6D03F000
:105630001F0304229A40FB695A603B6903F400434C
:10564000002B49D03B6903F48033002B09D17B68E0
:105650009B6C002B00F010827B689B6C78689847ED
:105660000AE27B681B6C002B00F006827B681B6CD7
:105670007868984700E200BF10000240280002400E
:105680004000024058000240700002408800024082
:10569000A0000240B800024010040240280402406A
:1056A0004004024058040240700402408804024052
:1056B000A0040240B8040240085402581C54025886
:1056C0003054025844540258585402586C540258EA
:1056D00080540258945402583B6903F02003002B75
:1056E00060D17B681B687F4A93424AD07B681B6805
:1056F0007D4A934245D07B681B687C4A934240D0E8
:105700007B681B687A4A93423BD07B681B68794A66
:10571000934236D07B681B68774A934231D07B68CE
:105720001B68764A93422CD07B681B68744A93426C
:1057300027D07B681B68734A934222D07B681B6822
:10574000714A93421DD07B681B68704A934218D0FF
:105750007B681B686E4A934213D07B681B686D4A56
:1057600093420ED07B681B686B4A934209D07B68DA
:105770001B686A4A934204D07B681B68684A93425C
:1057800008D17B681B681A687B681B6822F00802D6
:105790001A6007E07B681B681A687B681B6822F048
:1057A00004021A607B681B6C002B00F065817B682B
:1057B0001B6C786898475FE17B68DB6D03F01F0323
:1057C00002229A407B691340002B00F0C5803B69A0
:1057D00003F00203002B00F0BF807B68DB6D03F059
:1057E0001F0302229A40FB695A603B6903F400439D
:1057F000002B18D03B6903F48033002B09D17B6860
:105800005B6C002B00F03A817B685B6C7868984792
:1058100034E17B68DB6B002B00F030817B68DB6B55
:10582000786898472AE13B6903F02003002B40F099
:1058300089807B681B682B4A93424AD07B681B682F
:10584000294A934245D07B681B68284A934240D03E
:105850007B681B68264A93423BD07B681B68254ABD
:10586000934236D07B681B68234A934231D07B68D1
:105870001B68224A93422CD07B681B68204A9342C3
:1058800027D07B681B681F4A934222D07B681B6825
:105890001D4A93421DD07B681B681C4A934218D056
:1058A0007B681B681A4A934213D07B681B68194AAD
:1058B00093420ED07B681B68174A934209D07B68DD
:1058C0001B68164A934204D07B681B68144A9342B3
:1058D00028D17B681B681A687B681B6822F0140259
:1058E0001A6027E0100002402800024040000240F9
:1058F000580002407000024088000240A0000240B0
:10590000B800024010040240280402404004024053
:10591000580402407004024088040240A00402407F
:10592000B80402407B681B681A687B681B6822F019
:105930000A021A607B68012283F835207B68002206
:1059400083F834207B68DB6B002B00F097807B684A
:10595000DB6B7868984791E07B68DB6D03F01F0391
:1059600008229A407B691340002B00F088803B6935
:1059700003F00803002B00F082807B681B68414A1B
:1059800093424AD07B681B683F4A934245D07B686C
:105990001B683E4A934240D07B681B683C4A934256
:1059A0003BD07B681B683B4A934236D07B681B68C0
:1059B000394A934231D07B681B68384A93422CD0D5
:1059C0007B681B68364A934227D07B681B68354A40
:1059D000934222D07B681B68334A93421DD07B6878
:1059E0001B68324A934218D07B681B68304A934246
:1059F00013D07B681B682F4A93420ED07B681B68CC
:105A00002D4A934209D07B681B682C4A934204D0EC
:105A10007B681B682A4A934208D17B681B681A6816
:105A20007B681B6822F01C021A6007E07B681B6819
:105A30001A687B681B6822F00E021A607B68DB6DB7
:105A400003F01F0301229A40FB695A607B68012220
:105A50005A657B68012283F835207B68002283F831
:105A600034207B68DB6C002B09D07B68DB6C7868AA
:105A7000984704E000BF02E000BF00E000BF283705
:105A8000BD4680BD10000240280002404000024098
:105A9000580002407000024088000240A00002400E
:105AA000B8000240100402402804024040040240B2
:105AB000580402407004024088040240A0040240DE
:105AC000B804024080B483B000AF78607B685B6D3F
:105AD00018460C37BD465DF8047B704780B487B02C
