:020000040800F2
:1000000000000824E1110008410D0008490D000816
:10001000510D0008590D0008610D00080000000096
:10002000000000000000000000000000690D000852
:10003000770D000800000000850D0008930D0008F2
:100040003112000831120008311200083112000884
:100050003112000831120008311200083112000874
:100060003112000831120008311200083112000864
:100070003112000831120008311200083112000854
:10008000311200083112000831120008A10D0008D9
:100090003112000831120008311200083112000834
:1000A0003112000831120008311200083112000824
:1000B0003112000831120008311200083112000814
:1000C0003112000831120008311200083112000804
:1000D00031120008311200083112000831120008F4
:1000E000311200083112000800000000311200082F
:1000F00031120008311200083112000831120008D4
:1001000031120008311200083112000831120008C3
:1001100031120008311200083112000831120008B3
:1001200031120008311200083112000831120008A3
:100130003112000831120008311200083112000893
:1001400000000000000000000000000000000000AF
:100150003112000831120008311200083112000873
:100160003112000831120008311200083112000863
:10017000311200083112000831120008000000009E
:100180003112000831120008311200083112000843
:100190003112000831120008311200083112000833
:1001A0003112000831120008311200083112000823
:1001B0003112000831120008311200083112000813
:1001C0003112000831120008311200083112000803
:1001D00031120008311200083112000831120008F3
:1001E00031120008311200083112000831120008E3
:1001F00031120008311200083112000831120008D3
:1002000031120008311200083112000831120008C2
:1002100031120008311200083112000831120008B2
:1002200031120008311200083112000800000000ED
:1002300031120008311200080000000031120008DD
:100240003112000831120008311200083112000882
:100250003112000831120008311200083112000872
:100260003112000831120008311200083112000862
:100270003112000831120008B50D0008000000001E
:10028000311200083112000831120008000000008D
:0802900000000000311200081B
:1002A00010B5054C237833B9044B13B10448AFF3B0
:1002B00000800123237010BD08020024000000000C
:1002C00044AA000808B5034B1BB103490348AFF328
:1002D000008008BD000000000C02002444AA0008B1
:1002E00001F0FF01102A2BDB10F0070F08D010F8E7
:1002F000013B013A8B422DD010F0070F42B3F6D1EB
:10030000F0B441EA012141EA014122F007047FF003
:1003100000070023F0E80256083C85EA010586EA5A
:10032000010685FA47F5A3FA87F586FA47F6A5FA96
:1003300087F68EB9EED1F0BC01F0FF0102F00702A2
:1003400032B110F8013B013A83EA010313B1F8D14D
:100350000020704701387047002D06BF354603382E
:10036000073815F0010F07D1013015F4807F02BF67
:10037000013015F4C03F0130F0BC0138704700BFB8
:10038000034613F8012B002AFBD1181A01387047D5
:1003900053B94AB9002908BF00281CBF4FF0FF31EC
:1003A0004FF0FF3000F06AB9ADF1080C6DE904CEF2
:1003B00000F006F8DDF804E0DDE9022304B0704740
:1003C0002DE9F047089D0C46002B4ED194468C45F4
:1003D0008646B2FA82F262D94AB1C2F12003914054
:1003E00020FA03F30CFA02FC194300FA02FE4FEA6A
:1003F0001C471FFA8CF6B1FBF7F44FEA1E4307FBCC
:10040000141143EA014304FB06F199420AD91CEB9B
:10041000030304F1FF3080F01281994240F20F8112
:10042000023C6344591A1FFA8EF3B1FBF7F007FB45
:10043000101143EA014300FB06F69E420AD91CEB69
:10044000030300F1FF3180F0FC809E4240F2F9800E
:10045000634402389B1B40EA044000211DB1D34095
:100460000022C5E90032BDE8F0878B4205D90DB105
:10047000C5E9000100210846F5E7B3FA83F1002938
:1004800046D1A34202D39042C0F0F080861A64EBBA
:1004900003030120002DE6D0C5E90063E3E7002A4D
:1004A00040F09080A1EB0C044FEA1C481FFA8CF737
:1004B0000121B4FBF8F64FEA1E4308FB164443EA59
:1004C000044307FB06F0984208D91CEB030306F12E
:1004D000FF3402D2984200F2CD8026461C1A1FFA41
:1004E0008EF3B4FBF8F008FB104443EA044300FB2E
:1004F00007F79F4208D91CEB030300F1FF3402D237
:100500009F4200F2B0802046DB1B40EA0640A5E790
:10051000C1F120068B4022FA06F71F4320FA06FCA1
:1005200004FA01F343EA0C03F44000FA01F8380C32
:100530004FEA1349B4FBF0FE1FFA87FC00FB1E4490
:1005400049EA04440EFB0CF9A14502FA01F20AD96A
:100550003C190EF1FF3A80F08480A14540F2818081
:10056000AEF1020E3C44A4EB09041FFA83F9B4FB7C
:10057000F0F300FB134449EA044403FB0CFCA445DC
:1005800007D93C1903F1FF3067D2A44565D9023B76
:100590003C4443EA0E40A0FB0293A4EB0C049C42B3
:1005A000CE469C4651D34ED055B1B8EB0E0364EB0A
:1005B0000C0404FA06F6CB401E43CC40C5E90064A7
:1005C000002150E7C2F1200320FA03F10CFA02FCEB
:1005D00024FA03F394400C434FEA1C4800FA02FE4D
:1005E0001FFA8CF7B3FBF8F008FB1031230C43EA39
:1005F000014300FB07F1994208D91CEB030300F10A
:10060000FF362CD299422AD9023863445B1AA4B22D
:10061000B3FBF8F108FB113344EA034401FB07F391
:10062000A34208D91CEB040401F1FF3613D2A34204
:1006300011D902396444E41A41EA004139E7044619
:10064000F0E6084606E7C845AED2B9EB020E63EB0A
:10065000070C0138A8E73146EDE7034699E7304635
:10066000D4E7D6467FE7634402384DE70646234683
:1006700008460FE7023E634430E700BF704700BF03
:1006800080B500AF094B1B780133DAB2074B1A7003
:10069000064B1B78142B07D9044B00221A704FF419
:1006A0000051034803F027F900BF80BD2402002455
:1006B0000008025880B582B000AF00237B6000F0D4
:1006C00015F8094808F08AFA7B6801337B607B687B
:1006D000632B03DD00237B6000F082F8FFF7D0FF7F
:1006E0000A2000F039FEEFE760AA000880B58AB062
:1006F00002AF00233B6000237B600223BB60012329
:10070000FB6000233B6100237B613B461946154893
:1007100001F01CFF0346002B01D000F0F1FA00238A
:1007200000930023022202210E4801F085FF0346B8
:10073000002B01D000F0E4FA00220121094802F068
:100740009BF90346002B01D000F0DAFA054801F0CE
:10075000A0FF0346002B01D000F0D2FA00BF2037E3
:10076000BD4680BD6002002480B584B000AF7860D3
:1007700039600D4808F0C2F90023FB600AE0FB680D
:100780003A6813441B781946084808F0B7F9FB6823
:100790000133FB60FB68072BF1DD0A2008F0C0F98C
:1007A00000BF1037BD4680BD70AA000878AA0008B7
:1007B00080B582B000AF78603960074B074A4021AE
:1007C000786801F0EDFF04490448FFF7CDFF00BF52
:1007D0000837BD4680BD00BF540200242C0200240F
:1007E00080B584B000AF234A3B4692E8030083E81B
:1007F0000300214B1B780133DAB21F4B1A701E4BDA
:100800001B783B701D4B0B225A600023FB600CE0F1
:100810003A46FB6813441978184AFB681344283396
:100820000A461A70FB680133FB60FB68072BEFDD9B
:10083000134808F063F90023BB600AE03A46BB683E
:1008400013441B7819460F4808F058F9BB68013368
:10085000BB60BB68072BF1DD0A2008F061F9074B8C
:100860001B68094A0949184601F03EFF00BF1037CE
:10087000BD4680BD88AA00085C0200240000002458
:1008800080AA000878AA0008280000240400002498
:1008900080B500AF2E4B2F4A1A602D4B00229A6074
:1008A0002B4B0322DA602A4B00221A74284B0022B9
:1008B0005A74274B01229A74254B03225A61244B08
:1008C0000A229A61224B1D22DA61214B0A221A6206
:1008D0001F4B03225A621E4B0A229A621C4B1D2296
:1008E000DA621B4B0A221A63194B00225A63184B17
:1008F00001229A63164B0022DA63154B02221A6416
:10090000134B04225A64124B00229A64104B0422A7
:10091000DA640F4B00221A650D4B04225A650C4B0A
:1009200000229A650A4B0022DA65094B02221A66F8
:10093000074B00225A66064B04229A66044801F0CF
:1009400027FC0346002B01D000F0DAF900BF80BD80
:100950006002002400A0004080B5BAB000AF78600B
:1009600007F1D40300221A605A609A60DA601A61B3
:1009700007F11003C0220021184608F00FFA7B6827
:100980001B682B4A93424ED14FF400424FF00003B4
:10099000C7E904234FF08053C7F8803007F11003F4
:1009A000184603F0E3FF0346002B01D000F0A8F93E
:1009B000204BD3F8EC301F4A43F48073C2F8EC307C
:1009C0001C4BD3F8EC3003F48073FB60FB68194BCD
:1009D000D3F8E030174A43F00803C2F8E030154B73
:1009E000D3F8E03003F00803BB60BB680323C7F80B
:1009F000D4300223C7F8D8300023C7F8DC300023F6
:100A0000C7F8E0300923C7F8E43007F1D4031946EA
:100A1000094802F0A7FD00220021132000F0A7FDE5
:100A2000132000F0BEFD00BFE837BD4680BD00BF0B
:100A300000A0004000440258000C025880B58AB063
:100A400000AF07F1140300221A605A609A60DA605E
:100A50001A612A4BD3F8E030284A43F00403C2F865
:100A6000E030264BD3F8E03003F004033B613B69F0
:100A7000224BD3F8E030214A43F08003C2F8E03043
:100A80001E4BD3F8E03003F08003FB60FB681B4B88
:100A9000D3F8E030194A43F00103C2F8E030174BB5
:100AA000D3F8E03003F00103BB60BB68134BD3F80D
:100AB000E030124A43F00803C2F8E0300F4BD3F89D
:100AC000E03003F008037B607B6800224FF40051A4
:100AD0000B4802F0F7FE4FF400537B610123BB612A
:100AE0000023FB6100233B6207F11403194604480D
:100AF00002F038FD00BF2837BD4680BD00440258D3
:100B00000008025880B500AF00F0CEF800F092FB6C
:100B100000F00AF8FFF792FF00F0A4FAFFF7B8FE22
:100B2000FFF7C8FD00BFFDE780B59EB000AF07F13D
:100B30002C034C220021184608F030F907F10C0371
:100B400020220021184608F029F9022002F0EEFECA
:100B50000023BB60484BDB6A474A23F00103D362A2
:100B6000454BDB6A03F00103BB60444B9B69434A7E
:100B700043F440439361414B9B6903F44043BB60A2
:100B8000BB6800BF3D4B9B6903F40053B3F5005FA6
:100B9000F8D13B4BD3F8F430394A43F00203C2F8A2
:100BA000F430374BD3F8F43003F002037B607B68FA
:100BB00000233B60314B9B69304A43F440439361CF
:100BC0002E4B9B6903F440433B602B4BDB6A2A4A64
:100BD00043F00103D362284BDB6A03F001033B605F
:100BE0003B6800BF254B9B6903F40053B3F5005FDE
:100BF000F8D10123FB624FF480333B6302233B6552
:100C000002237B650523BB65C023FB6502233B668E
:100C100008237B660223BB660823FB6600233B6731
:100C200000237B6707F12C03184602F0B9FE034648
:100C3000002B01D000F064F83F23FB6003233B61ED
:100C400000237B610823BB614023FB6140233B629F
:100C50004FF480637B624023BB6207F10C030421E5
:100C6000184603F0F7FA0346002B01D000F048F8CD
:100C700000BF7837BD4680BD0004005800480258C8
:100C80000044025880B582B000AF7860391D4FF63D
:100C9000FF730122034805F0E5FC7B68184608371E
:100CA000BD4680BD0403002480B584B000AF3B4640
:100CB00000221A605A609A60DA6000F08DFC01230D
:100CC0003B7000237B7000237B601F233B728723D4
:100CD0007B720023BB720023FB7201233B73012351
:100CE0007B730023BB730023FB733B46184600F065
:100CF000ABFC042000F088FC00BF1037BD4680BD6F
:100D000080B400AF72B600BF00BFFDE780B483B00F
:100D100000AF0A4BD3F8F430084A43F00203C2F89C
:100D2000F430064BD3F8F43003F002037B607B68A9
:100D300000BF0C37BD465DF8047B70470044025885
:100D400080B400AF00BFFDE780B400AF00BFFDE797
:100D500080B400AF00BFFDE780B400AF00BFFDE787
:100D600080B400AF00BFFDE780B400AF00BFBD4658
:100D70005DF8047B704780B400AF00BFBD465DF8EE
:100D8000047B704780B400AF00BFBD465DF8047BB4
:100D9000704780B500AF00F0BFFA00BF80BD000013
:100DA00080B500AF024801F0E1FE00BF80BD00BF8A
:100DB0006002002480B500AF024805F0E1FC00BFEE
:100DC00080BD00BF0403002480B400AF0123184697
:100DD000BD465DF8047B704780B582B000AF786097
:100DE000396008F02DF8034616221A604FF0FF33E1
:100DF00018460837BD4680BD80B582B000AF786028
:100E00004FF0FF317868FFF7E7FF00BFFDE780B5DF
:100E100086B000AFF860B9607A6000237B610AE0B9
:100E2000AFF300800146BB685A1CBA60CAB21A70A0
:100E30007B6901337B617A697B689A42F0DB7B686E
:100E400018461837BD4680BD80B586B000AFF86043
:100E5000B9607A6000237B6109E0BB685A1CBA6004
:100E60001B781846FFF70EFF7B6901337B617A69B7
:100E70007B689A42F1DB7B6818461837BD4680BD17
:100E800080B483B000AF78604FF0FF3318460C3762
:100E9000BD465DF8047B704780B483B000AF7860D6
:100EA00039603B684FF400525A60002318460C37F3
:100EB000BD465DF8047B704780B483B000AF7860B6
:100EC000012318460C37BD465DF8047B704780B49B
:100ED00085B000AFF860B9607A6000231846143717
:100EE000BD465DF8047B704780B586B000AF786082
:100EF000144A154BD31A7B617B693B61134B1B680A
:100F0000002B02D1114B124A1A60104B1A687B68F1
:100F100013443A699A4207D207F092FF03460C2223
:100F20001A604FF0FF3309E0084B1B68FB60074B6A
:100F30001A687B681344054A1360FB681846183723
:100F4000BD4680BD0000082400040000000300240A
:100F5000E804002480B400AF374BD3F88830364A19
:100F600043F47003C2F88830344B1B6803F00F035E
:100F7000062B07D8314B1B6823F00F032F4A43F091
:100F8000070313602E4B1B682D4A43F001031360C7
:100F90002B4B00221A612A4B1A682949294B13400E
:100FA0000B60264B1B6803F00803002B07D0234B74
:100FB0001B6823F00F03214A43F007031360204B03
:100FC00000229A611E4B0022DA611D4B00221A6238
:100FD0001B4B1D4A9A621A4B1C4ADA62184B1C4A78
:100FE0001A63174B00225A63154B194A9A63144B24
:100FF0000022DA63124B164A1A64114B00225A641B
:101000000F4B1B680E4A23F4802313600C4B002205
:101010001A66104B1A68104B1340B3F1005F02D2EE
:101020000E4B01221A600E4B43F2D2021A6000BF2F
:10103000BD465DF8047B704700ED00E000200052E3
:10104000004402587FEDF6EA000202020000FF01B0
:10105000800201010010005C0000FFFF08810051C8
:101060000040005280B500AF224B234A1A60214B4A
:101070004FF4E1325A601F4B00229A601D4B002250
:10108000DA601C4B00221A611A4B0C225A61194B70
:1010900000229A61174B00221A62164B00225A62F4
:1010A000144B00229A62134B00225A66114805F035
:1010B00089FA0346002B01D0FFF722FE00210D48DC
:1010C00006F058FF0346002B01D0FFF719FE002160
:1010D000084806F08DFF0346002B01D0FFF710FEF5
:1010E000044806F00EFF0346002B01D0FFF708FE70
:1010F00000BF80BD04030024000C005880B5BAB0C6
:1011000000AF786007F1D40300221A605A609A6039
:10111000DA601A6107F11003C0220021184607F0B7
:101120003DFE7B681B682B4A93424ED14FF0040270
:101130004FF00003C7E904230023C7F8A43007F1E8
:101140001003184603F012FC0346002B01D0FFF7F2
:10115000D7FD214BD3F8F4301F4A43F00803C2F8FF
:10116000F4301D4BD3F8F43003F00803FB60FB6848
:10117000194BD3F8E030184A43F00103C2F8E030CD
:10118000154BD3F8E03003F00103BB60BB684FF4AC
:10119000C063C7F8D4300223C7F8D8300023C7F89B
:1011A000DC300023C7F8E0300323C7F8E43007F150
:1011B000D4031946094802F0D5F9002200218E20F7
:1011C00000F0D5F98E2000F0ECF900BFE837BD46FD
:1011D00080BD00BF000C00580044025800000258B7
:1011E000DFF834D0FFF7B6FE0C480D490D4A002356
:1011F00002E0D458C4500433C4188C42F9D30A4ACC
:101200000A4C002301E013600432A242FBD307F032
:101210001DFEFFF777FC7047000008240000002443
:1012200008020024A8AE000808020024E8040024F4
:10123000FEE7000080B582B000AF032000F08CF91B
:1012400003F0BEF90246154B9B691B0A03F00F031E
:101250001349CB5C03F01F0322FA03F37B600F4BAF
:101260009B6903F00F030E4AD35C03F01F037A68F7
:1012700022FA03F30B4A13600B4A7B6813600F20BA
:1012800000F014F80346002B01D0012302E0FFF721
:101290003DFD002318460837BD4680BD0044025876
:1012A000DCAA0008340000243000002480B582B09D
:1012B00000AF7860154B1B78002B01D1012321E092
:1012C000134B1A68114B1B7819464FF47A73B3FB12
:1012D000F1F3B2FBF3F3184600F071F90346002B6B
:1012E00001D001230EE07B680F2B0AD80022796819
:1012F0004FF0FF3000F03BF9064A7B681360002393
:1013000000E0012318460837BD4680BD3C0000249C
:10131000300000243800002480B400AF064B1B7856
:101320001A46064B1B681344044A136000BFBD46AF
:101330005DF8047B704700BF3C0000249803002444
:1013400080B400AF034B1B681846BD465DF8047BB4
:10135000704700BF9803002480B584B000AF786068
:10136000FFF7EEFFB8607B68FB60FB68B3F1FF3FFF
:1013700005D00A4B1B781A46FB681344FB6000BF7C
:10138000FFF7DEFF0246BB68D31AFA689A42F7D825
:1013900000BF00BF1037BD4680BD00BF3C00002429
:1013A00080B400AF034B1B681B0C1846BD465DF8AC
:1013B000047B70470010005C80B485B000AF78609B
:1013C0007B6803F00703FB600B4BDB68BB60BA680C
:1013D0004FF6FF031340BB60FB681A02BB681A4359
:1013E000064B1343BB60044ABB68D36000BF14378D
:1013F000BD465DF8047B704700ED00E00000FA0593
:1014000080B400AF044BDB681B0A03F007031846E7
:10141000BD465DF8047B704700ED00E080B483B00A
:1014200000AF0346FB80B7F90630002B0BDBFB88CF
:1014300003F01F020749B7F906305B09012000FAE3
:1014400002F241F8232000BF0C37BD465DF8047B53
:10145000704700BF00E100E080B483B000AF0346F6
:101460003960FB80B7F90630002B0ADB3B68DAB243
:101470000C49B7F906301201D2B20B4483F80023AD
:101480000AE03B68DAB20849FB8803F00F03043B2B
:101490001201D2B20B441A7600BF0C37BD465DF87C
:1014A000047B704700E100E000ED00E080B489B00B
:1014B00000AFF860B9607A60FB6803F00703FB6176
:1014C000FB69C3F10703042B28BF0423BB61FB693D
:1014D0000433062B02D9FB69033B00E000237B6148
:1014E0004FF0FF32BB6902FA03F3DA43BB681A40DC
:1014F0007B699A404FF0FF317B6901FA03F3D943CE
:101500007B680B40134318462437BD465DF8047BC7
:101510007047000080B582B000AF78607B68013B07
:10152000B3F1807F01D301230FE00A4A7B68013BBE
:1015300053600F214FF0FF30FFF78EFF054B002265
:101540009A60044B07221A60002318460837BD46EC
:1015500080BD00BF10E000E080B582B000AF7860D1
:101560007868FFF729FF00BF0837BD4680BD80B50A
:1015700086B000AF0346B9607A60FB81FFF740FF99
:1015800078617A68B9687869FFF790FF0246B7F921
:101590000E3011461846FFF75FFF00BF1837BD46F3
:1015A00080BD80B582B000AF0346FB80B7F906303E
:1015B0001846FFF733FF00BF0837BD4680BD80B532
:1015C00082B000AF78607868FFF7A4FF0346184642
:1015D0000837BD4680BD000080B400AFBFF35F8F09
:1015E00000BF074B5B6A064A23F480335362054B06
:1015F00000225A6000BFBD465DF8047B704700BF03
:1016000000ED00E090ED00E080B483B000AF7860C2
:101610000B4A7B6843F0010353600A4B5B6A094A3B
:1016200043F480335362BFF34F8F00BFBFF36F8F1C
:1016300000BF00BF0C37BD465DF8047B704700BF9C
:1016400090ED00E000ED00E080B483B000AF786082
:101650007B685A781B4B9A601A4B1B69194A23F016
:1016600001031361174A7B685B68D3607B681B7B4F
:101670001A077B68DB7A1B061A437B689B7ADB04BC
:101680001A437B685B7B9B041A437B689B7B5B04F0
:101690001A437B68DB7B1B041A437B685B7A1B0263
:1016A0001A437B681B7A5B0013437A6812781146F1
:1016B000044A0B43136100BF0C37BD465DF8047B41
:1016C000704700BF90ED00E080B586B000AF786055
:1016D000FFF736FE38617B68002B01D10123DCE285
:1016E0007B6893F83530DBB2022B08D07B68802210
:1016F0005A657B68002283F834200123CDE27B68A1
:101700001B68764A93424AD07B681B68744A9342AE
:1017100045D07B681B68734A934240D07B681B6846
:10172000714A93423BD07B681B68704A934236D023
:101730007B681B686E4A934231D07B681B686D4A98
:1017400093422CD07B681B686B4A934227D07B68FE
:101750001B686A4A934222D07B681B68684A93429E
:101760001DD07B681B68674A934218D07B681B6852
:10177000654A934213D07B681B68644A93420ED03B
:101780007B681B68624A934209D07B681B68614A88
:10179000934204D07B681B685F4A934201D10123C6
:1017A00000E00023002B13D07B681B681A687B685D
:1017B0001B6822F01E021A607B681B685A697B68EE
:1017C0001B6822F080025A617B681B687B610AE01B
:1017D0007B681B681A687B681B6822F00E021A601F
:1017E0007B681B687B617B681B683C4A934272D0B4
:1017F0007B681B683A4A93426DD07B681B68394A04
:10180000934268D07B681B68374A934263D07B68F9
:101810001B68364A93425ED07B681B68344A934209
:1018200059D07B681B68334A934254D07B681B684D
:10183000314A93424FD07B681B68304A93424AD06A
:101840007B681B682E4A934245D07B681B682D4AF3
:10185000934240D07B681B682B4A93423BD07B6805
:101860001B682A4A934236D07B681B68284A9342F9
:1018700031D07B681B68274A93422CD07B681B6859
:10188000254A934227D07B681B68244A934222D082
:101890007B681B68224A93421DD07B681B68214AE3
:1018A000934218D07B681B681F4A934213D07B6811
:1018B0001B681E4A93420ED07B681B681C4A9342E9
:1018C00009D07B681B681B4A934204D07B681B6865
:1018D000194A934232D1012331E000BF1000024087
:1018E00028000240400002405800024070000240C0
:1018F00088000240A0000240B800024010040240EC
:10190000280402404004024058040240700402408F
:1019100088040240A0040240B8040240085402585F
:101920001C54025830540258445402585854025817
:101930006C54025880540258945402580023002BCF
:1019400007D07B681B6E1A687B681B6E22F480725E
:101950001A607B681B686D4A93424AD07B681B689B
:101960006B4A934245D07B681B686A4A934240D0D9
:101970007B681B68684A93423BD07B681B68674A58
:10198000934236D07B681B68654A934231D07B68AE
:101990001B68644A93422CD07B681B68624A93425E
:1019A00027D07B681B68614A934222D07B681B6802
:1019B0005F4A93421DD07B681B685E4A934218D0F1
:1019C0007B681B685C4A934213D07B681B685B4A48
:1019D00093420ED07B681B68594A934209D07B68BA
:1019E0001B68584A934204D07B681B68564A93424E
:1019F00008D17B681B681A687B681B6822F00102AB
:101A00001A6007E07B681B681A687B681B6822F015
:101A100001021A6013E0FFF793FC02463B69D31AF8
:101A2000052B0CD97B6820225A657B68032283F83A
:101A300035207B68002283F8342001232DE17B6967
:101A40001B6803F00103002BE5D17B681B682F4A5C
:101A500093424AD07B681B682D4A934245D07B68ED
:101A60001B682C4A934240D07B681B682A4A9342E9
:101A70003BD07B681B68294A934236D07B681B6841
:101A8000274A934231D07B681B68264A93422CD068
:101A90007B681B68244A934227D07B681B68234AD3
:101AA000934222D07B681B68214A93421DD07B68F9
:101AB0001B68204A934218D07B681B681E4A9342D9
:101AC00013D07B681B681D4A93420ED07B681B684D
:101AD0001B4A934209D07B681B681A4A934204D080
:101AE0007B681B68184A934201D1012300E0002360
:101AF000002B2BD07B689B6DBB607B68DB6D03F09C
:101B00001F033F229A40BB689A602AE010000240FF
:101B1000280002404000024058000240700002408D
:101B200088000240A0000240B800024010040240B9
:101B3000280402404004024058040240700402405D
:101B400088040240A0040240B80402407B689B6DF8
:101B5000FB607B68DB6D03F01F0301229A40FB688A
:101B60005A607B681B684F4A934272D07B681B683F
:101B70004D4A93426DD07B681B684C4A934268D0B3
:101B80007B681B684A4A934263D07B681B68494A5A
:101B900093425ED07B681B68474A934259D07B686A
:101BA0001B68464A934254D07B681B68444A934260
:101BB0004FD07B681B68434A93424AD07B681B68BE
:101BC000414A934245D07B681B68404A934240D0CB
:101BD0007B681B683E4A93423BD07B681B683D4A4A
:101BE000934236D07B681B683B4A934231D07B6876
:101BF0001B683A4A93422CD07B681B68384A934250
:101C000027D07B681B68374A934222D07B681B68C9
:101C1000354A93421DD07B681B68344A934218D0E2
:101C20007B681B68324A934213D07B681B68314A39
:101C300093420ED07B681B682F4A934209D07B6881
:101C40001B682E4A934204D07B681B682C4A93423F
:101C500001D1012300E00023002B15D07B685B6ECF
:101C60007A68926E5A607B68DB6E002B0CD07B68C2
:101C7000DB6E1A687B68DB6E22F480721A607B6808
:101C80001B6F7A68526F5A607B68012283F8352097
:101C90007B68002283F83420002318461837BD469D
:101CA00080BD00BF100002402800024040000240FA
:101CB000580002407000024088000240A00002402C
:101CC000B8000240100402402804024040040240D0
:101CD000580402407004024088040240A0040240FC
:101CE000B8040240085402581C5402583054025898
:101CF00044540258585402586C54025880540258A4
:101D00009454025880B584B000AF78607B68002B93
:101D100001D1012337E27B6893F83530DBB2022B27
:101D200004D07B6880225A6501232CE27B681B6803
:101D30005C4A93424AD07B681B685B4A934245D019
:101D40007B681B68594A934240D07B681B68584A9D
:101D500093423BD07B681B68564A934236D07B68DF
:101D60001B68554A934231D07B681B68534A9342A3
:101D70002CD07B681B68524A934227D07B681B6833
:101D8000504A934222D07B681B684F4A93421DD031
:101D90007B681B684D4A934218D07B681B684C4A8D
:101DA000934213D07B681B684A4A93420ED07B68EB
:101DB0001B68494A934209D07B681B68474A934293
:101DC00004D07B681B68464A934201D1012300E09E
:101DD0000023002B00F086807B68042283F83520E6
:101DE0007B681B682F4A93424AD07B681B682E4A47
:101DF000934245D07B681B682C4A934240D07B6855
:101E00001B682B4A93423BD07B681B68294A93424C
:101E100036D07B681B68284A934231D07B681B68A8
:101E2000264A93422CD07B681B68254A934227D0D0
:101E30007B681B68234A934222D07B681B68224A36
:101E400093421DD07B681B68204A934218D07B6860
:101E50001B681F4A934213D07B681B681D4A93423C
:101E60000ED07B681B681C4A934209D07B681B68B4
:101E70001A4A934204D07B681B68194A934208D1DE
:101E80007B681B681A687B681B6822F001021A6075
:101E900078E17B681B681A687B681B6822F0010286
:101EA0001A606FE11000024028000240400002402A
:101EB000580002407000024088000240A00002402A
:101EC000B8000240100402402804024040040240CE
:101ED000580402407004024088040240A0040240FA
:101EE000B80402407B681B681A687B681B6822F094
:101EF0000E021A607B681B686C4A93424AD07B686A
:101F00001B686B4A934245D07B681B68694A9342C1
:101F100040D07B681B68684A93423BD07B681B6853
:101F2000664A934236D07B681B68654A934231D03B
:101F30007B681B68634A93422CD07B681B68624AAB
:101F4000934227D07B681B68604A934222D07B680B
:101F50001B685F4A93421DD07B681B685D4A9342B1
:101F600018D07B681B685C4A934213D07B681B685F
:101F70005A4A93420ED07B681B68594A934209D053
:101F80007B681B68574A934204D07B681B68564A9B
:101F9000934208D17B681B681A687B681B6822F033
:101FA00001021A6007E07B681B681A687B681B687F
:101FB00022F001021A607B681B683C4A934272D08F
:101FC0007B681B683A4A93426DD07B681B68394A2C
:101FD000934268D07B681B68374A934263D07B6822
:101FE0001B68364A93425ED07B681B68344A934232
:101FF00059D07B681B68334A934254D07B681B6876
:10200000314A93424FD07B681B68304A93424AD092
:102010007B681B682E4A934245D07B681B682D4A1B
:10202000934240D07B681B682B4A93423BD07B682D
:102030001B682A4A934236D07B681B68284A934221
:1020400031D07B681B68274A93422CD07B681B6881
:10205000254A934227D07B681B68244A934222D0AA
:102060007B681B68224A93421DD07B681B68214A0B
:10207000934218D07B681B681F4A934213D07B6839
:102080001B681E4A93420ED07B681B681C4A934211
:1020900009D07B681B681B4A934204D07B681B688D
:1020A000194A934232D1012331E000BF10000240AF
:1020B00028000240400002405800024070000240E8
:1020C00088000240A0000240B80002401004024014
:1020D00028040240400402405804024070040240B8
:1020E00088040240A0040240B80402400854025888
:1020F0001C54025830540258445402585854025840
:102100006C54025880540258945402580023002BF7
:1021100028D07B681B6E1A687B681B6E22F4807265
:102120001A607B689B6DFB607B68DB6D03F01F03AF
:1021300001229A40FB685A607B685B6E7A68926EF7
:102140005A607B68DB6E002B0CD07B68DB6E1A68F4
:102150007B68DB6E22F480721A607B681B6F7A6882
:10216000526F5A607B68012283F835207B68002219
:1021700083F834207B681B6D002B03D07B681B6DBC
:1021800078689847002318461037BD4680BD00BFC9
:1021900080B598B000AF7860844A07F10C0311460F
:1021A0004C22184606F079FE7B68002B01D10123F2
:1021B000C6E17B681B687E4A934206D17B681B6838
:1021C00003F580731A467B685A607B6893F89830F1
:1021D000DBB2002B06D17B68002283F89920786857
:1021E000FEF7BAFB7B681B689A697B681B6822F064
:1021F00010029A61FFF7A4F8F86514E0FFF7A0F861
:102200000246FB6DD31A0A2B0DD97B68D3F89C309C
:1022100043F001027B68C3F89C207B68032283F8AB
:10222000982001238CE17B681B689B6903F00803FD
:10223000082BE3D07B681B689A697B681B6842F0B7
:1022400001029A61FFF77CF8F86514E0FFF778F86F
:102250000246FB6DD31A0A2B0DD97B68D3F89C304C
:1022600043F001027B68C3F89C207B68032283F85B
:102270009820012364E17B681B689B6903F00103DC
:10228000002BE3D07B681B689A697B681B6842F06F
:1022900002029A617B681B7C012B08D17B681B685A
:1022A0009A697B681B6822F040029A6107E07B68AC
:1022B0001B689A697B681B6842F040029A617B68E0
:1022C0005B7C012B08D17B681B689A697B681B6863
:1022D00042F480429A6107E07B681B689A697B68D8
:1022E0001B6822F480429A617B689B7C012B08D199
:1022F0007B681B689A697B681B6822F480529A612C
:1023000007E07B681B689A697B681B6842F480520F
:102310009A617B681B689B6923F440717B689A68AB
:102320007B681B680A439A617B681B689A697B68B3
:102330001B6822F0A4029A617B681B681A697B689B
:102340001B6822F010021A617B68DB68012B08D140
:102350007B681B689A697B681B6842F004029A617B
:1023600030E07B68DB68002B2CD07B68DB68022BBD
:1023700020D07B681B689A697B681B6842F08002EA
:102380009A617B681B681A697B681B6842F01002BF
:102390001A617B68DB68032B14D17B681B689A6920
:1023A0007B681B6842F020029A610BE090AA00084B
:1023B00000A000407B681B689A697B681B6842F03C
:1023C00020029A617B689B69013B5A067B68DB6946
:1023D000013B1B021A437B681B6A013B42EA030173
:1023E0007B685B69013B1A047B681B680A43DA61FE
:1023F0007B689B68B3F5407F15D17B689B6A5A1E4A
:102400007B68DB6A013B1B021A437B681B6B013B49
:102410001B0142EA03017B685B6A013B1A047B688B
:102420001B680A43DA607B681B6E002B0AD07B684E
:102430001B68D3F8C0107B685A6E7B681B680A4320
:10244000C3F8C0207B68DA6D7B681B6E1344002BD9
:1024500011D07B681B68D3F8C83023F007017B6874
:102460009B6E9B0060333B4453F8542C7B681B6885
:102470000A43C3F8C8207B681B6C002B11D07B6813
:102480001B68D3F8BC3023F007017B685B6C9B00B2
:1024900060333B4453F8542C7B681B680A43C3F8F1
:1024A000BC207B689B6C002B12D07B681B68D3F828
:1024B000BC3023F070017B68DB6C9B0060333B44D5
:1024C00053F8543C1A017B681B680A43C3F8BC20CC
:1024D0007B681B6D002B12D07B681B68D3F8BC3067
:1024E00023F4E0617B685B6D9B0060333B4453F8F1
:1024F000543C1A027B681B680A43C3F8BC207B6803
:102500001B68114A934207D17B685B689A687B68B5
:102510005B6822F003029A607B680022C3F8942073
:102520007B680022C3F89C207B68012283F89820F6
:10253000786800F013FE034687F85B3097F85B304D
:1025400018466037BD4680BD00A0004080B487B00B
:1025500000AF786039607B6893F89830FB73FB7B41
:10256000012B02D0FB7B022B57D13B681B68002B51
:102570002BD13B68DB68072B0DD13B681B691A0424
:102580003B68DB691B021A433B689B69134343F0BA
:1025900060537B610EE03B689B689A073B68DB6891
:1025A000DB061A433B681B691B041A433B685B69E3
:1025B00013437B617B68DA6E3B685B689B00134466
:1025C000BB60BB687A691A6025E03B68DB685A0724
:1025D0003B681B6913437B613B68DB68072B03D1B6
:1025E0003B689B693B6106E03B689B689A073B68D8
:1025F0005B6913433B617B681A6F3B685B68DB0078
:102600001344BB60BB687A691A60BB680433BB6063
:10261000BB683A691A60002308E07B68D3F89C30F5
:1026200043F002027B68C3F89C20012318461C3744
:10263000BD465DF8047B704780B485B000AFF8609C
:10264000B9607A603B60FB6893F89830DBB2012B8D
:1026500010D1BB681A017B689B001A433B685B0082
:1026600042EA0301FB681B68BA690A43C3F8802089
:10267000002308E0FB68D3F89C3043F00402FB68B9
:10268000C3F89C20012318461437BD465DF8047B2F
:10269000704780B483B000AF78607B6893F898305F
:1026A000DBB2012B11D17B68022283F898207B6872
:1026B0001B689A697B681B6822F001029A617B683B
:1026C0000022C3F89C20002308E07B68D3F89C30EC
:1026D00043F004027B68C3F89C20012318460C37A2
:1026E000BD465DF8047B704780B586B000AFF860EA
:1026F000B9607A60FB6893F89830DBB2022B41D165
:10270000FB681B68D3F8C03003F07C53002B09D161
:10271000FB68D3F89C3043F02002FB68C3F89C2090
:10272000012338E0FB681B68D3F8C43003F40013BE
:10273000002B09D0FB68D3F89C3043F40072FB688F
:10274000C3F89C20012326E0FB681B68D3F8C43043
:102750001B0C03F01F037B617B697A68B968F8681A
:1027600000F082FEFB681B6801217A6901FA02F21F
:10277000C3F8D02001227B699A40FB68C3F89420FB
:10278000002308E0FB68D3F89C3043F00802FB68A4
:10279000C3F89C20012318461837BD4680BD0000B1
:1027A00080B48BB000AFF860B9607A603B60002302
:1027B000FB61FB6893F89830FB76FB7E022B40F0C0
:1027C0004981BB68402B4CD1FB681B68D3F8A03013
:1027D00003F4FE03002B09D1FB68D3F89C3043F0CF
:1027E0002002FB68C3F89C2001233CE1FB681B68C6
:1027F000D3F8A43003F07F03002B09D1FB68D3F892
:102800009C3043F48072FB68C3F89C2001232AE1CA
:10281000FB681B68D3F8A4301B0E03F00103012BE7
:102820000AD1FB681B68D3F8A030DB0F03F001036B
:10283000012B01D10123FB61FB681B68D3F8A43095
:102840001B0A03F03F03FA691344FB61FB685A6FEC
:10285000FB685B6CF96901FB03F39B0013447B622B
:1028600068E0BB68412B4CD1FB681B68D3F8B030E3
:1028700003F4FE03002B09D1FB68D3F89C3043F02E
:102880002002FB68C3F89C200123ECE0FB681B6876
:10289000D3F8B43003F07F03002B09D1FB68D3F8E1
:1028A0009C3043F48072FB68C3F89C200123DAE07B
:1028B000FB681B68D3F8B4301B0E03F00103012B37
:1028C0000AD1FB681B68D3F8B030DB0F03F00103BB
:1028D000012B01D10123FB61FB681B68D3F8B430E5
:1028E0001B0A03F03F03FA691344FB61FB689A6F0C
:1028F000FB68DB6CF96901FB03F39B0013447B620B
:1029000018E0FB681B6DBA689A4209D3FB68D3F8DC
:102910009C3043F02002FB68C3F89C200123A2E016
:10292000FB68DA6FFB685B6DB96801FB03F39B0022
:1029300013447B627B6A1B6803F080427B685A60A9
:102940007B685B68002B07D17B6A1B689B0CC3F319
:102950000A027B681A6005E07B6A1B6823F060420C
:102960007B681A607B6A1B6803F000527B689A6080
:102970007B6A1B6803F000427B681A617B6A043340
:102980007B627B6A1B689AB27B68DA617B6A1B6830
:102990001B0C03F00F027B68DA607B6A1B6803F490
:1029A00080127B685A617B6A1B6803F400127B68A3
:1029B0009A617B6A1B681B0E03F07F027B681A62B8
:1029C0007B6A1B68DA0F7B685A627B6A04337B621E
:1029D0007B6A7B6100233B620AE07A693B6A1A44A6
:1029E00039683B6A0B4412781A703B6A01333B62C8
:1029F0007B68DB681F4AD35C1A463B6A9342ECD380
:102A0000BB68402B05D1FB681B68FA69C3F8A82096
:102A10001EE0BB68412B05D1FB681B68FA69C3F84F
:102A2000B82015E0BB681F2B08D8FB681B68012184
:102A3000BA6801FA02F2C3F8982009E0BB6803F013
:102A40001F02FB681B68012101FA02F2C3F89C20F7
:102A5000002308E0FB68D3F89C3043F00802FB68D1
:102A6000C3F89C20012318462C37BD465DF8047B33
:102A7000704700BFECAA000880B487B000AFF860D0
:102A8000B9607A60FB6893F89830FB75FB7D012B89
:102A900002D0FB7D022B55D1FB681B689A6DBB6889
:102AA0001340002B08D1FB681B68DA6DFB681B68BC
:102AB00042F00102DA6514E0FB681B689A6DBB689E
:102AC0001340BA689A4208D1FB681B68DA6DFB684C
:102AD0001B6842F00202DA6503E0FB681B68032210
:102AE000DA65BB6803F40073002B09D0FB681B6830
:102AF000D3F8E010FB681B687A680A43C3F8E0204B
:102B0000BB6803F48063002B09D0FB681B68D3F813
:102B1000E410FB681B687A680A43C3F8E420FB688A
:102B20001B68596DBA680F4B1340FA6812680B4363
:102B300053650D4B5A69BB689B0F0B4913434B619F
:102B4000002308E0FB68D3F89C3043F00202FB68E6
:102B5000C3F89C20012318461C37BD465DF8047B52
:102B6000704700BFFFFFCF3F00A8004080B596B080
:102B700000AF7860954B1B699B077B65934B5B6946
:102B80009B077A6D13407B657B681B681B6D03F4A4
:102B900070433B657B681B685B6D3A6D13403B651A
:102BA0007B681B681B6D03F00F03FB647B681B686D
:102BB0005B6DFA6C1340FB647B681B681B6D03F054
:102BC000F003BB647B681B685B6DBA6C1340BB642D
:102BD0007B681B681B6D03F071537B647B681B680B
:102BE0005B6D7A6C13407B647B681B681B6D03F024
:102BF00060733B647B681B685B6D3A6C13403B649D
:102C00007B681B685B6DFB637B681B681B6DBB632C
:102C1000FB6B03F48073002B0FD0BB6B03F480734A
:102C2000002B0AD07B681B684FF480721A65674BD3
:102C300000221A61786800F044FAFB6B03F48063A9
:102C4000002B1CD0BB6B03F48063002B17D07B6878
:102C50001B68D3F8DC307B637B681B68D3F8E430F7
:102C60007A6B13407B637B681B684FF480621A6544
:102C7000564B00221A61796B786800F0F9F97B6D88
:102C8000002B0DD07B681A68796D514B0B40136592
:102C90004E4A7B6D9B0F1361796D786800F0B2F935
:102CA0003B6D002B0DD07B681A68396D484B0B408B
:102CB0001365464A3B6D9B0F1361396D786800F0D0
:102CC000ACF9FB6C002B0DD07B681A68F96C404B9B
:102CD0000B4013653D4AFB6C9B0F1361F96C7868E0
:102CE000FDF766FDBB6C002B0DD07B681A68B96CD4
:102CF000374B0B401365354ABB6C9B0F1361B96CA6
:102D0000786800F095F9FB6B03F40063002B0FD09B
:102D1000BB6B03F40063002B0AD07B681B684FF485
:102D200000621A65294B00221A61786800F08BF95D
:102D3000FB6B03F40073002B1CD0BB6B03F400731C
:102D4000002B17D07B681B68D3F8D8303B637B68B7
:102D50001B68D3F8E0303A6B13403B637B681B6819
:102D60004FF400721A65194B00221A61396B7868AA
:102D700000F073F9FB6B03F40023002B0FD0BB6B47
:102D800003F40023002B0AD07B681B684FF4002259
:102D90001A650E4B00221A61786800F074F9FB6B1B
:102DA00003F48033002B15D0BB6B03F48033002B6E
:102DB00010D07B681B684FF480321A65034B0022E9
:102DC0001A61786800F069F904E000BF00A80040CB
:102DD000FFFFCF3FFB6B03F48023002B0FD0BB6BB7
:102DE00003F48023002B0AD07B681B684FF48022F9
:102DF0001A65814B00221A61786800F058F9FB6B64
:102E000003F40033002B14D0BB6B03F40033002B0E
:102E10000FD07B681B684FF400321A65764B002296
:102E20001A617B68D3F89C3043F080027B68C3F85A
:102E30009C203B6C002B0DD07B681A68396C6F4B63
:102E40000B4013656C4A3B6C9B0F1361396C7868BF
:102E500000F04BF97B6C002B11D07B681A68796C01
:102E6000664B0B401365644A7B6C9B0F13617B6858
:102E7000D3F89C207B6C1A437B68C3F89C207B684A
:102E80001B685F4A934240F0AA807B685B689B683E
:102E900003F00303002B00F0A2807B685B681B6AD1
:102EA00003F00F03FB627B685B685B6AFA6A13409E
:102EB000FB627B685B681B6A03F03003BB627B6864
:102EC0005B685B6ABA6A1340BB627B685B681B6ABB
:102ED00003F4C0737B627B685B685B6A7A6A134049
:102EE0007B627B685B681B6A03F4FC433B627B6824
:102EF0005B685B6A3A6A13403B627B685B681B6A8B
:102F000003F4F023FB617B685B685B6AFA6913403A
:102F1000FB617B685B685B6ABB617B685B681B6AA3
:102F20007B61FB6A002B07D07B685B68FA6A1A62D8
:102F3000F96A786800F0E4F8BB6A002B07D07B6878
:102F40005B68BA6A1A62B96A786800F0E4F8BB692B
:102F500003F04003002B19D07B6903F04003002BE2
:102F600014D07B685B68DB6B1B0C9BB23B617B689E
:102F70005B68DB6B03F03F03FB607B685B684022B0
:102F80001A62FA683969786800F0D0F87B6A002B19
:102F900007D07B685B687A6A1A62796A786800F0A1
:102FA000D1F83B6A002B0BD07B685B683A6A1A62E7
:102FB0007B68D3F89C203B6A1A437B68C3F89C204B
:102FC000FB69002B0BD07B685B68FA691A627B682F
:102FD000D3F89C20FB691A437B68C3F89C207B686C
:102FE000D3F89C30002B02D0786800F074F800BF52
:102FF0005837BD4680BD00BF00A80040FFFFCF3F4F
:1030000000A0004080B483B000AF7860396000BF9A
:103010000C37BD465DF8047B704780B483B000AFC9
:103020007860396000BF0C37BD465DF8047B70479F
:1030300080B483B000AF7860396000BF0C37BD4604
:103040005DF8047B704780B483B000AF786000BF48
:103050000C37BD465DF8047B704780B483B000AF89
:103060007860396000BF0C37BD465DF8047B70475F
:1030700080B483B000AF7860396000BF0C37BD46C4
:103080005DF8047B704780B483B000AF786000BF08
:103090000C37BD465DF8047B704780B483B000AF49
:1030A000786000BF0C37BD465DF8047B704780B484
:1030B00083B000AF786000BF0C37BD465DF8047B7D
:1030C000704780B483B000AF786000BF0C37BD4656
:1030D0005DF8047B704780B483B000AF786000BFB8
:1030E0000C37BD465DF8047B704780B483B000AFF9
:1030F0007860396000BF0C37BD465DF8047B7047CF
:1031000080B483B000AF7860396000BF0C37BD4633
:103110005DF8047B704780B483B000AF786039609D
:1031200000BF0C37BD465DF8047B704780B485B0A6
:1031300000AFF860B9607A6000BF1437BD465DF833
:10314000047B704780B483B000AF7860396000BF03
:103150000C37BD465DF8047B7047000080B485B035
:1031600000AF78607B685B6BBB607B681B68D3F8E3
:103170008420A74B1340BA6891007A6812680B4309
:10318000C2F884307B681B68D3F8843023F47F0155
:103190007B689B6B1A047B681B680A43C3F8842016
:1031A0007B689B6BBA681344BB607B681B68D3F871
:1031B0008820974B1340BA6891007A6812680B43D5
:1031C000C2F888307B681B68D3F8883023F4FE018E
:1031D0007B68DB6B1A047B681B680A43C3F8882092
:1031E0007B68DB6B5B00BA681344BB607B681B6861
:1031F000D3F8A020864B1340BA6891007A68126811
:103200000B43C2F8A0307B681B68D3F8A03023F4CE
:10321000FE017B681B6C1A047B681B680A43C3F8B9
:10322000A0207B681B6C7A68526C02FB03F3BA68BF
:103230001344BB607B681B68D3F8B020744B134009
:10324000BA6891007A6812680B43C2F8B0307B68A4
:103250001B68D3F8B03023F4FE017B689B6C1A0422
:103260007B681B680A43C3F8B0207B689B6C7A6854
:10327000D26C02FB03F3BA681344BB607B681B6823
:10328000D3F8AC20624B1340BA6891007A68126898
:103290000B43C2F8AC307B681B6D7A68526D02FB41
:1032A00003F3BA681344BB607B681B68D3F8F02053
:1032B000574B1340BA6891007A6812680B43C2F802
:1032C000F0307B681B68D3F8F03023F47C117B6806
:1032D0009B6D1A047B681B680A43C3F8F0207B6867
:1032E0009B6D5B00BA681344BB607B681B68D3F8B6
:1032F000C020474B1340BA6891007A6812680B43AC
:10330000C2F8C0307B681B68D3F8C03023F47C114E
:103310007B68DB6D1A047B681B680A43C3F8C02016
:103320007B681B68D3F8C03023F07C517B681B6E30
:103330001A067B681B680A43C3F8C0207B685A6B77
:10334000344B13449A007B68DA667B68DA6E7B68DC
:103350009B6B9B001A447B681A677B681A6F7B68BB
:10336000DB6BDB001A447B685A677B685A6F7B68AB
:103370001B6C7968496C01FB03F39B001A447B6862
:103380009A677B689A6F7B689B6C7968C96C01FB54
:1033900003F39B001A447B68DA677B68DA6F7B680B
:1033A0001B6D7968496D01FB03F39B001A447B6830
:1033B000C3F880207B68D3F880207B689B6DDB009E
:1033C0001A447B68C3F884207B68D3F884207B6828
:1033D000DB6D7968896E01FB03F39B001A447B68FF
:1033E000C3F888207B68D3F888207B681B6E7968D7
:1033F000896E01FB03F39B001A447B68C3F890209D
:103400007B68D3F89030044A934215D906E000BF98
:103410000300FFFF002B0010FCD300407B68D3F8B3
:103420009C3043F020027B68C3F89C207B68032219
:1034300083F89820012310E07B68DB6EFB6005E0D9
:10344000FB6800221A60FB680433FB607B68D3F8DA
:103450009030FA689A42F3D3002318461437BD46D9
:103460005DF8047B704700BF80B489B000AFF8609E
:10347000B9607A603B60BB685B68002B0AD1BB68AF
:103480001A69BB689B681A43BB681B689B0413439B
:10349000FB610AE0BB681A69BB689B681A43BB689A
:1034A0001B68134343F08043FB61BB681B6A1A0629
:1034B000BB68DB691A43BB689B691A43BB685B69DD
:1034C0001A43BB68DB681B0413433B61FB68D3F8FA
:1034D0008420FB689B6E396801FB03F39B00134457
:1034E000BB61BB69FA691A60BB690433BB61BB6924
:1034F0003A691A60BB690433BB6100237B6120E039
:103500007B6903337A6813441B781A067B6902339C
:1035100079680B441B781B041A437B690133796873
:103520000B441B781B02134379687A690A441278AA
:103530001A43BB691A60BB690433BB617B690433FE
:103540007B61BB68DB68064AD35C1A467B699342A1
:10355000D6D300BF00BF2437BD465DF8047B70475B
:10356000ECAA000880B489B000AF7860396000230D
:10357000FB61894B7B6194E13B681A680121FB691F
:1035800001FA03F313403B613B69002B00F0868195
:103590003B685B6803F00303012B05D03B685B6865
:1035A00003F00303022B30D17B689B68BB61FB698E
:1035B0005B00032202FA03F3DB43BA691340BB61E9
:1035C0003B68DA68FB695B0002FA03F3BA691343EC
:1035D000BB617B68BA699A607B685B68BB610122EA
:1035E000FB6902FA03F3DB43BA691340BB613B6832
:1035F0005B681B0903F00102FB6902FA03F3BA6975
:103600001343BB617B68BA695A603B685B6803F02F
:103610000303032B17D07B68DB68BB61FB695B008E
:10362000032202FA03F3DB43BA691340BB613B6830
:103630009A68FB695B0002FA03F3BA691343BB6142
:103640007B68BA69DA603B685B6803F00303022BAE
:1036500023D1FB69DA087B68083253F82230BB615A
:10366000FB6903F007039B000F2202FA03F3DB431D
:10367000BA691340BB613B681A69FB6903F0070331
:103680009B0002FA03F3BA691343BB61FB69DA08D2
:103690007B680832B96943F822107B681B68BB61FC
:1036A000FB695B00032202FA03F3DB43BA691340B0
:1036B000BB613B685B6803F00302FB695B0002FAD5
:1036C00003F3BA691343BB617B68BA691A603B684C
:1036D0005B6803F44033002B00F0E0802F4BD3F8FD
:1036E000F4302E4A43F00203C2F8F4302B4BD3F8E7
:1036F000F43003F00203FB60FB68294AFB699B0876
:10370000023352F82330BB61FB6903F003039B00D3
:103710000F2202FA03F3DB43BA691340BB617B68F3
:10372000204A934252D07B681F4A934231D07B6833
:103730001E4A93422BD07B681D4A934225D07B685A
:103740001C4A93421FD07B681B4A934219D07B6866
:103750001A4A934213D07B68194A93420DD07B6872
:10376000184A934207D07B68174A934201D1092334
:103770002DE00A232BE0082329E0072327E0062376
:1037800025E0052323E0042321E003231FE0022397
:103790001DE001231BE000BF8000005800440258D8
:1037A00000040058000002580004025800080258A3
:1037B000000C025800100258001402580018025859
:1037C000001C025800200258002402580023FA6905
:1037D00002F0030292009340BA691343BB61384977
:1037E000FB699B080233BA6941F823204FF0B043CC
:1037F0001B68BB613B69DB43BA691340BB613B6833
:103800005B6803F48013002B03D0BA693B69134350
:10381000BB614FF0B042BB6913604FF0B0435B68CF
:10382000BB613B69DB43BA691340BB613B685B68C2
:1038300003F40013002B03D0BA693B691343BB6147
:103840004FF0B042BB6953607B695B68BB613B6909
:10385000DB43BA691340BB613B685B6803F4003328
:10386000002B03D0BA693B691343BB617B69BA691A
:103870005A607B691B68BB613B69DB43BA691340D3
:10388000BB613B685B6803F48033002B03D0BA69EB
:103890003B691343BB617B69BA691A60FB690133F9
:1038A000FB613B681A68FB6922FA03F3002B7FF483
:1038B00063AE00BF00BF2437BD465DF8047B704790
:1038C0000004005880B483B000AF78600B467B8062
:1038D00013467B707B78002B03D07A887B689A61D3
:1038E00003E07B881A047B689A6100BF0C37BD46F1
:1038F0005DF8047B704780B485B000AF78600B46FC
:103900007B807B685B69FB607A88FB6813401A04E4
:10391000FB68D9437B880B401A437B689A6100BFE0
:103920001437BD465DF8047B7047000080B584B055
:1039300000AF7860194BDB6803F00403042B0AD056
:10394000164BDB6803F007037A689A4201D0012323
:103950001FE000231DE0114BDB6823F007020F4935
:103960007B681343CB60FDF7EBFCF86009E0FDF7E3
:10397000E7FC0246FB68D31AB3F57A7F01D901232D
:1039800007E0064B5B6803F40053B3F5005FEED12C
:10399000002318461037BD4680BD00BF00480258BE
:1039A00080B58CB000AF78607B68002B02D101231A
:1039B00000F048BC7B681B6803F00103002B00F09B
:1039C0008880994B1B6903F03803FB62964B9B6A16
:1039D000BB62FB6A102B07D0FB6A182B11D1BB6AA4
:1039E00003F00303022B0CD18F4B1B6803F400334D
:1039F000002B6DD07B685B68002B69D1012300F040
:103A000021BC7B685B68B3F5803F06D1864B1B68A1
:103A1000854A43F4803313602EE07B685B68002B9B
:103A20000CD1814B1B68804A23F4803313607E4B9A
:103A30001B687D4A23F4802313601DE07B685B686C
:103A4000B3F5A02F0CD1784B1B68774A43F4802341
:103A50001360754B1B68744A43F4803313600BE0AA
:103A6000714B1B68704A23F4803313606E4B1B68E4
:103A70006D4A23F4802313607B685B68002B13D0AE
:103A8000FDF75EFC786208E0FDF75AFC02467B6AAF
:103A9000D31A642B01D90323D4E3634B1B6803F4CB
:103AA0000033002BF0D014E0FDF74AFC786208E008
:103AB000FDF746FC02467B6AD31A642B01D9032327
:103AC000C0E3594B1B6803F40033002BF0D100E036
:103AD00000BF7B681B6803F00203002B00F0CA8064
:103AE000514B1B6903F038033B624F4B9B6AFB61F0
:103AF0003B6A002B07D03B6A182B56D1FB6903F0B9
:103B00000303002B51D1484B1B6803F00403002B27
:103B100005D07B68DB68002B01D1012392E3424B87
:103B20001B6823F019027B68DB683F4913430B6075
:103B3000FDF706FC786208E0FDF702FC02467B6AAE
:103B4000D31A022B01D903237CE3374B1B6803F004
:103B50000403002BF0D0FDF723FC034641F20302DF
:103B6000934217D87B681B69402B08D12E4B5B68AA
:103B700023F47C332C4A43F4003353607AE02A4B1D
:103B80005B6823F47C327B681B691B032649134363
:103B90004B606FE0244B5B6823F0FE427B681B693F
:103BA0001B06214913434B6064E07B68DB68002BF4
:103BB00047D01D4B1B6823F019027B68DB681A494C
:103BC00013430B60FDF7BCFB786208E0FDF7B8FB20
:103BD00002467B6AD31A022B01D9032332E3124B2C
:103BE0001B6803F00403002BF0D0FDF7D9FB03465C
:103BF00041F20302934219D87B681B69402B08D11C
:103C0000094B5B6823F47C33074A43F40033536069
:103C100030E0054B5B6823F47C327B681B691B0337
:103C2000014913434B6025E0004402589A4B5B68FE
:103C300023F0FE427B681B691B06974913434B60C8
:103C400018E0954B1B68944A23F001031360FDF7BD
:103C500077FB786208E0FDF773FB02467B6AD31AB4
:103C6000022B01D90323EDE28B4B1B6803F0040305
:103C7000002BF0D17B681B6803F01003002B00F0D1
:103C8000A980854B1B6903F03803BB61824B9B6A9B
:103C90007B61BB69082B07D0BB69182B3AD17B69C4
:103CA00003F00303012B35D17B4B1B6803F48073B6
:103CB000002B05D07B68DB69802B01D00123C1E29A
:103CC000FDF76EFB034641F20302934217D87B686F
:103CD0001B6A202B08D1704B5B6823F0F8436E4AB7
:103CE00043F08043536075E06B4B5B6823F0F84210
:103CF0007B681B6A9B06684913434B606AE0664B0E
:103D0000DB6823F07C527B681B6A1B066249134305
:103D1000CB605FE07B68DB69002B42D05E4B1B68A9
:103D20005D4A43F080031360FDF70AFB786208E008
:103D3000FDF706FB02467B6AD31A022B01D9032347
:103D400080E2554B1B6803F48073002BF0D0FDF725
:103D500027FB034641F20302934217D87B681B6A94
:103D6000202B08D14C4B5B6823F0F8434A4A43F0C0
:103D7000804353602EE0484B5B6823F0F8427B6839
:103D80001B6A9B06444913434B6023E0424BDB68AC
:103D900023F07C527B681B6A1B063F491343CB60B0
:103DA00018E03D4B1B683C4A23F080031360FDF78D
:103DB000C7FA786208E0FDF7C3FA02467B6AD31AB5
:103DC000022B01D903233DE2334B1B6803F48073BC
:103DD000002BF0D17B681B6803F00803002B36D062
:103DE0007B685B69002B19D02B4B5B6F2A4A43F031
:103DF00001035367FDF7A4FA786208E0FDF7A0FA23
:103E000002467B6AD31A022B01D903231AE2224B02
:103E10005B6F03F00203002BF0D018E01E4B5B6FCA
:103E20001D4A23F001035367FDF78AFA786208E020
:103E3000FDF786FA02467B6AD31A022B01D90323C7
:103E400000E2154B5B6F03F00203002BF0D17B689F
:103E50001B6803F02003002B39D07B689B69002B83
:103E60001CD00D4B1B680C4A43F480531360FDF7C4
:103E700067FA786208E0FDF763FA02467B6AD31AB4
:103E8000022B01D90323DDE1034B1B6803F400532C
:103E9000002BF0D01BE000BF004402589B4B1B6876
:103EA0009A4A23F480531360FDF74AFA786208E0D7
:103EB000FDF746FA02467B6AD31A022B01D9032387
:103EC000C0E1924B1B6803F40053002BF0D17B68D8
:103ED0001B6803F00403002B00F081808C4B1B68EF
:103EE0008B4A43F480731360FDF72AFA786208E086
:103EF000FDF726FA02467B6AD31A642B01D9032305
:103F0000A0E1834B1B6803F48073002BF0D07B6827
:103F10009B68012B06D17D4B1B6F7C4A43F001034C
:103F200013672DE07B689B68002B0CD1774B1B6FD0
:103F3000764A23F001031367744B1B6F734A23F017
:103F4000040313671CE07B689B68052B0CD16F4B47
:103F50001B6F6E4A43F0040313676C4B1B6F6B4A75
:103F600043F0010313670BE0684B1B6F674A23F0B4
:103F700001031367654B1B6F644A23F00403136747
:103F80007B689B68002B15D0FDF7DAF978620AE0B0
:103F9000FDF7D6F902467B6AD31A41F28832934282
:103FA00001D903234EE1594B1B6F03F00203002B91
:103FB000EED014E0FDF7C4F978620AE0FDF7C0F92D
:103FC00002467B6AD31A41F28832934201D9032315
:103FD00038E14E4B1B6F03F00203002BEED17B68E0
:103FE0005B6A002B00F02D81484B1B6903F03803FE
:103FF000182B00F0BD807B685B6A022B40F09E802E
:10400000424B1B68414A23F080731360FDF798F917
:10401000786208E0FDF794F902467B6AD31A022B16
:1040200001D903230EE1394B1B6803F00073002B09
:10403000F0D1364B9A6A374B13407A68916A7A68A6
:10404000D26A12010A43314913438B627B681B6BAE
:10405000013BC3F308027B685B6B013B5B029BB2D5
:104060001A437B689B6B013B1B0403F4FE031A435A
:104070007B68DB6B013B1B0603F0FE4323491343C4
:104080000B63224BDB6A214A23F00103D3621F4BEF
:104090005A6B214B13407A68926CD2001B49134330
:1040A0004B631A4BDB6A23F00C027B681B6C1749CD
:1040B0001343CB62154BDB6A23F002027B685B6C17
:1040C00012491343CB62114BDB6A104A43F480332D
:1040D000D3620E4BDB6A0D4A43F40033D3620B4BC1
:1040E000DB6A0A4A43F48023D362084BDB6A074A3F
:1040F00043F00103D362054B1B68044A43F080730D
:104100001360FDF71DF9786211E000BF004402580A
:10411000004802580CFCFFFF0700FFFFFDF710F9F5
:1041200002467B6AD31A022B01D903238AE0474B4C
:104130001B6803F00073002BF0D082E0434B1B6838
:10414000424A23F080731360FDF7FAF8786208E0C2
:10415000FDF7F6F802467B6AD31A022B01D9032336
:1041600070E03A4B1B6803F00073002BF0D168E05D
:10417000364B9B6A3B61354B1B6BFB607B685B6A14
:10418000012B31D03B6903F003027B689B6A9A42A2
:104190002AD13B691B0903F03F027B68DB6A9A4224
:1041A00022D1FB68C3F308027B681B6B013B9A4278
:1041B0001AD1FB685B0A03F07F027B685B6B013BF3
:1041C0009A4211D1FB681B0C03F07F027B689B6B4A
:1041D000013B9A4208D1FB681B0E03F07F027B680B
:1041E000DB6B013B9A4201D001232BE0174B5B6B49
:1041F000DB08C3F30C033B617B689B6C3A699A4212
:104200001FD0124BDB6A114A23F00103D362FDF782
:1042100097F8786200BFFDF793F802467B6A9342F5
:10422000F9D00A4B5A6B0A4B13407A68926CD20051
:10423000064913434B63054BDB6A044A43F0010311
:10424000D362002318463037BD4680BD0044025873
:104250000700FFFF80B586B000AF786039607B68EB
:10426000002B01D101239CE18A4B1B6803F00F0353
:104270003A689A4210D9874B1B6823F00F02854990
:104280003B6813430B60834B1B6803F00F033A68D2
:104290009A4201D0012384E17B681B6803F0040388
:1042A000002B10D07B681A697B4B9B6903F070036D
:1042B0009A4208D9784B9B6923F070027B681B698E
:1042C000754913438B617B681B6803F00803002B5F
:1042D00010D07B685A69704BDB6903F070039A4217
:1042E00008D96D4BDB6923F070027B685B696A4912
:1042F0001343CB617B681B6803F01003002B10D0C5
:104300007B689A69644BDB6903F4E0639A4208D9DD
:10431000614BDB6923F4E0627B689B695E49134370
:10432000CB617B681B6803F02003002B10D07B68F7
:10433000DA69594B1B6A03F070039A4208D9564B4D
:104340001B6A23F070027B68DB69534913430B62DD
:104350007B681B6803F00203002B10D07B68DA68CF
:104360004D4B9B6903F00F039A4208D94A4B9B6956
:1043700023F00F027B68DB68474913438B617B683E
:104380001B6803F00103002B55D0434B9B6923F4BA
:1043900070627B689B68404913438B617B685B68F4
:1043A000022B07D13C4B1B6803F40033002B21D1B7
:1043B0000123F6E07B685B68032B07D1364B1B6853
:1043C00003F00073002B15D10123EAE07B685B68E2
:1043D000012B07D1304B1B6803F48073002B09D1EC
:1043E0000123DEE02C4B1B6803F00403002B01D1FA
:1043F0000123D6E0284B1B6923F007027B685B682A
:10440000254913430B61FCF79BFF78610AE0FCF739
:1044100097FF02467B69D31A41F28832934201D951
:104420000323BEE01C4B1B6903F038027B685B680A
:10443000DB009A42EBD17B681B6803F00203002B80
:1044400010D07B68DA68144B9B6903F00F039A4223
:1044500008D2114B9B6923F00F027B68DB680E4981
:1044600013438B610B4B1B6803F00F033A689A42AE
:1044700014D2084B1B6823F00F0206493B68134314
:104480000B60044B1B6803F00F033A689A4205D097
:10449000012386E000200052004402587B681B681C
:1044A00003F00403002B10D07B681A693F4B9B6913
:1044B00003F070039A4208D23C4B9B6923F07002D0
:1044C0007B681B69394913438B617B681B6803F068
:1044D0000803002B10D07B685A69344BDB6903F06A
:1044E00070039A4208D2314BDB6923F070027B687B
:1044F0005B692E491343CB617B681B6803F0100393
:10450000002B10D07B689A69284BDB6903F4E063C9
:104510009A4208D2254BDB6923F4E0627B689B69F1
:1045200022491343CB617B681B6803F02003002BF7
:1045300010D07B68DA691D4B1B6A03F070039A4246
:1045400008D21A4B1B6A23F070027B68DB6917499B
:1045500013430B6200F034F80246144B9B691B0AAC
:1045600003F00F031249CB5C03F01F0322FA03F39D
:104570003B610E4B9B6903F00F030D4AD35C03F0C4
:104580001F033A6922FA03F30A4A13600A4A3B6995
:1045900013600A4B1B681846FCF788FE0346FB7342
:1045A000FB7B18461837BD4680BD00BF004402584B
:1045B000DCAA000834000024300000243800002465
:1045C00080B489B000AFB34B1B6903F03803182BDC
:1045D00000F2558101A252F823F000BF41460008C5
:1045E0007F4800087F4800087F4800087F4800088F
:1045F0007F4800087F4800087F4800086746000899
:104600007F4800087F4800087F4800087F4800086E
:104610007F4800087F4800087F4800086D46000872
:104620007F4800087F4800087F4800087F4800084E
:104630007F4800087F4800087F480008734600084C
:10464000944B1B6803F02003002B09D0914B1B688F
:10465000DB0803F00303904A22FA03F3BB6111E184
:104660008D4BBB610EE18D4BBB610BE18C4BBB6194
:1046700008E1884B9B6A03F003037B61854B9B6ACF
:104680001B0903F03F033B61824BDB6A03F001032C
:10469000FB60804B5B6BDB08C3F30C03FA6802FB27
:1046A00003F307EE903AF8EE677AC7ED027A3B69BA
:1046B000002B00F0E1807B69022B00F083807B6996
:1046C000022B00F2A1807B69002B03D07B69012BB8
:1046D00056D099E06F4B1B6803F02003002B2DD0C0
:1046E0006C4B1B68DB0803F003036B4A22FA03F3ED
:1046F0007B607B6807EE903AF8EE676A3B6907EEED
:10470000903AF8EE677A86EEA77A624B1B6BC3F39A
:10471000080307EE903AF8EE676A97ED026ADFED5C
:10472000615AC6EE257A76EEA77AF7EE006A77EE42
:10473000A67A67EE277AC7ED077A87E03B6907EE2E
:10474000903AF8EE677ADFED586A86EEA77A514B19
:104750001B6BC3F3080307EE903AF8EE676A97ED18
:10476000026ADFED505AC6EE257A76EEA77AF7EEAA
:10477000006A77EEA67A67EE277AC7ED077A65E0DA
:104780003B6907EE903AF8EE677ADFED486A86EE0D
:10479000A77A404B1B6BC3F3080307EE903AF8EE81
:1047A000676A97ED026ADFED3F5AC6EE257A76EE2C
:1047B000A77AF7EE006A77EEA67A67EE277AC7ED5A
:1047C000077A43E03B6907EE903AF8EE677ADFED4F
:1047D000386A86EEA77A2F4B1B6BC3F3080307EEEC
:1047E000903AF8EE676A97ED026ADFED2E5AC6EE50
:1047F000257A76EEA77AF7EE006A77EEA67A67EE6C
:10480000277AC7ED077A21E03B6907EE903AF8EE88
:10481000677ADFED266A86EEA77A1E4B1B6BC3F321
:10482000080307EE903AF8EE676A97ED026ADFED4B
:104830001D5AC6EE257A76EEA77AF7EE006A77EE75
:10484000A67A67EE277AC7ED077A00BF114B1B6B7C
:104850005B0A03F07F0301333B603B6807EE903A4D
:10486000B8EE677AD7ED076AC6EE877AFCEEE77A8C
:1048700017EE903ABB6105E00023BB6102E0074BF5
:10488000BB6100BFBB6918462437BD465DF8047B99
:10489000704700BF004402580090D00300093D005B
:1048A00040787D01000000460024744C0024744AC6
:1048B00020BCBE4B80B582B000AFFFF781FE024640
:1048C000104B9B691B0A03F00F030F49CB5C03F0ED
:1048D0001F0322FA03F37B600A4B9B6903F00F036B
:1048E000094AD35C03F01F037A6822FA03F3074AEC
:1048F0001360074A7B681360044B1B68184608372F
:10490000BD4680BD00440258DCAA000834000024E3
:104910003000002480B500AFFFF7CCFF0246064B05
:10492000DB691B0903F007030449CB5C03F01F0399
:1049300022FA03F3184680BD00440258DCAA00089E
:1049400080B500AFFFF7B6FF0246064BDB691B0AD6
:1049500003F007030449CB5C03F01F0322FA03F3BF
:10496000184680BD00440258DCAA00082DE9B04F6B
:10497000CAB000AFC7F81401002387F8273100231D
:1049800087F82631D7F81431D3E9002302F0006408
:10499000002554EA050349D0D7F814319B6EB3F5CE
:1049A000401F2FD0B3F5401F28D8B3F5001F1AD0F1
:1049B000B3F5001F22D8002B03D0B3F5801F07D01A
:1049C0001CE0B84BDB6AB74A43F40033D3621AE009
:1049D000D7F8143108330221184601F08FFC034642
:1049E00087F827310FE0D7F8143128330221184611
:1049F00001F036FD034687F8273104E0012387F8EC
:104A0000273100E000BF97F82731002B0AD1A54BD2
:104A10001B6D23F44011D7F814319B6EA14A0B4350
:104A2000136503E097F8273187F82631D7F814315A
:104A3000D3E9002302F480784FF0000958EA090313
:104A400047D0D7F814319B6D042B2AD801A252F815
:104A500023F000BF694A0008774A00088D4A000821
:104A6000AB4A0008AB4A00088E4BDB6A8D4A43F420
:104A70000033D3621AE0D7F8143108330021184606
:104A800001F03CFC034687F827310FE0D7F81431DA
:104A900028330021184601F0E3FC034687F827314C
:104AA00004E0012387F8273100E000BF97F82731A1
:104AB000002B0AD17B4B1B6D23F00701D7F8143173
:104AC0009B6D784A0B43136503E097F8273187F80D
:104AD0002631D7F81431D3E9002302F4007A4FF0DD
:104AE000000B5AEA0B034CD0D7F81431DB6DB3F549
:104AF000807F30D0B3F5807F29D8C02B2DD0C02B3C
:104B000025D8802B18D0802B21D8002B02D0402B09
:104B100007D01CE0634BDB6A624A43F40033D36284
:104B20001CE0D7F8143108330021184601F0E6FBE9
:104B3000034687F8273111E0D7F8143128330021D4
:104B4000184601F08DFC034687F8273106E0012363
:104B500087F8273102E000BF00E000BF97F8273157
:104B6000002B0AD14F4B1B6D23F4E071D7F81431A1
:104B7000DB6D4C4A0B43136503E097F8273187F848
:104B80002631D7F81431D3E9002302F48063C7F843
:104B900008310023C7F80C31D7E942120B46134302
:104BA00053D0D7F81431D3F8A830B3F5000F35D06F
:104BB000B3F5000F2ED8B3F5C00F31D0B3F5C00F49
:104BC00028D8B3F5800F1AD0B3F5800F22D8002B68
:104BD00003D0B3F5001F07D01CE0324BDB6A314A2B
:104BE00043F40033D3621CE0D7F8143108330021BA
:104BF000184601F083FB034687F8273111E0D7F808
:104C0000143128330021184601F02AFC034687F8A6
:104C1000273106E0012387F8273102E000BF00E0DA
:104C200000BF97F82731002B0BD11E4B9B6D23F44F
:104C30006001D7F81431D3F8A8301A4A0B439365B2
:104C400003E097F8273187F82631D7F81431D3E9F4
:104C5000002302F40063C7F800310023C7F80431D1
:104C6000D7E940120B46134356D0D7F81431D3F886
:104C7000AC30B3F1806F38D0B3F1806F31D8B3F17D
:104C8000407F34D0B3F1407F2BD8B3F1007F1DD0EB
:104C9000B3F1007F25D8002B06D0B3F1807F0AD076
:104CA0001FE000BF00440258A24BDB6AA14A43F454
:104CB0000033D3621CE0D7F81431083300211846C2
:104CC00001F01CFB034687F8273111E0D7F81431B7
:104CD00028330021184601F0C3FB034687F827312B
:104CE00006E0012387F8273102E000BF00E000BFA3
:104CF00097F82731002B0BD18E4B9B6D23F0E06191
:104D0000D7F81431D3F8AC308A4A0B43936503E0EB
:104D100097F8273187F82631D7F81431D3E90023E3
:104D200002F00073C7F8F8300023C7F8FC30D7E969
:104D30003E120B4613433AD0D7F81431DB6C302BBC
:104D40001FD0302B19D8202B0CD0202B15D8002B9E
:104D500019D0102B11D1774BDB6A764A43F400331C
:104D6000D36211E0D7F8143108330221184601F05C
:104D7000C5FA034687F8273106E0012387F8273173
:104D800002E000BF00E000BF97F82731002B0AD1F6
:104D9000684BDB6C23F03001D7F81431DB6C654ACB
:104DA0000B43D36403E097F8273187F82631D7F80F
:104DB0001431D3E9002302F48053C7F8F030002304
:104DC000C7F8F430D7E93C120B46134351D0D7F85B
:104DD00014311B6EB3F5804F35D0B3F5804F2ED80C
:104DE000B3F5405F31D0B3F5405F28D8B3F5005F2D
:104DF0001AD0B3F5005F22D8002B03D0B3F5805F43
:104E000007D01CE04B4BDB6A4A4A43F40033D362C1
:104E10001CE0D7F8143108330021184601F06EFA6F
:104E2000034687F8273111E0D7F8143128330021E1
:104E3000184601F015FB034687F8273106E00123E9
:104E400087F8273102E000BF00E000BF97F8273164
:104E5000002B0AD1374B1B6D23F4E041D7F81431F6
:104E60001B6E344A0B43136503E097F8273187F82C
:104E70002631D7F81431D3E9002302F40053C7F8E0
:104E8000E8300023C7F8EC30D7E93A120B46134359
:104E900056D0D7F814315B6EB3F5A02F33D0B3F5ED
:104EA000A02F2CD8B3F5802F2FD0B3F5802F26D884
:104EB000B3F5403F2BD0B3F5403F20D8B3F5003FCA
:104EC00012D0B3F5003F1AD8002B22D0B3F5803FA3
:104ED00015D1D7F8143108330121184601F00EFA24
:104EE000034687F8273115E0D7F81431283301211C
:104EF000184601F0B5FA034687F827310AE0012386
:104F000087F8273106E000BF04E000BF02E000BFE1
:104F100000E000BF97F82731002B0DD1054B1B6D2A
:104F200023F4E021D7F814315B6E024A0B4313657A
:104F300006E000BF0044025897F8273187F8263171
:104F4000D7F81431D3E9002302F48043C7F8E030E6
:104F50000023C7F8E430D7E938120B46134355D085
:104F6000D7F81431D3F8B030B3F1A04F33D0B3F148
:104F7000A04F2CD8B3F1804F2FD0B3F1804F26D85B
:104F8000B3F1405F2BD0B3F1405F20D8B3F1005FA5
:104F900012D0B3F1005F1AD8002B22D0B3F1805F9A
:104FA00015D1D7F8143108330121184601F0A6F9BC
:104FB000034687F8273115E0D7F81431283301214B
:104FC000184601F04DFA034687F827310AE001231D
:104FD00087F8273106E000BF04E000BF02E000BF11
:104FE00000E000BF97F82731002B0BD1A34B9B6D3E
:104FF00023F0E041D7F81431D3F8B0309F4A0B4387
:10500000936503E097F8273187F82631D7F81431F4
:10501000D3E9002302F40043C7F8D8300023C7F8CF
:10502000DC30D7E936120B46134337D0D7F81431AA
:105030001B6FB3F1005F0ED0B3F1005F16D8002BE9
:1050400018D0B3F1805F11D18C4BDB6A8B4A43F4EB
:105050000033D3620FE0D7F814310833012118462A
:1050600001F04CF9034687F8273104E0012387F863
:10507000273100E000BF97F82731002B0AD17F4B82
:105080001B6D23F04051D7F814311B6F7B4A0B4343
:10509000136503E097F8273187F82631D7F81431E4
:1050A000D3E9002302F08073C7F8D0300023C7F89B
:1050B000D430D7E934120B46134339D0D7F8143122
:1050C0009B6C032B1CD801A252F823F00951000855
:1050D000DD500008EB50000809510008674BDB6AFF
:1050E000664A43F40033D3620FE0D7F81431083333
:1050F0000221184601F002F9034687F8273104E03F
:10510000012387F8273100E000BF97F82731002BF3
:105110000AD15A4BDB6C23F00301D7F814319B6C96
:10512000564A0B43D36403E097F8273187F82631BA
:10513000D7F81431D3E9002302F48003C7F8C8304C
:105140000023C7F8CC30D7E932120B46134300F0E6
:105150009F804B4B1B684A4A43F480731360FCF7F3
:10516000EFF8C7F820010BE0FCF7EAF80246D7F8A1
:105170002031D31A642B03D9032387F8273105E0A4
:105180003F4B1B6803F48073002BEDD097F8273159
:10519000002B79D1394B1A6FD7F81431D3F8B430CA
:1051A000534003F44073002B15D0344B1B6F23F492
:1051B0004073C7F81C31314B1B6F304A43F48033C6
:1051C00013672E4B1B6F2D4A23F4803313672B4A32
:1051D000D7F81C311367D7F81431D3F8B430B3F5CE
:1051E000807F18D1FCF7ACF8C7F820010DE0FCF780
:1051F000A7F80246D7F82031D21A41F288339A42F2
:1052000003D9032387F8273105E01C4B1B6F03F0FC
:105210000203002BEBD097F82731002B29D1D7F8C8
:105220001431D3F8B43003F44073B3F5407F0ED19A
:10523000124B1B6923F47C51D7F81431D3F8B430E6
:105240001A09104B13400D4A0B43136105E00B4B39
:105250001B690A4A23F47C531361084B196FD7F872
:105260001431D3F8B430C3F30B03044A0B43136770
:105270000EE097F8273187F8263109E000440258FC
:1052800000480258CFFFFF0097F8273187F82631F2
:10529000D7F81431D3E9002302F00103C7F8C03076
:1052A0000023C7F8C430D7E930120B46134300F08F
:1052B0008980D7F81431DB6F282B6BD801A252F804
:1052C00023F000BF9D530008955300089553000834
:1052D000955300089553000895530008955300080E
:1052E000955300086953000895530008955300082A
:1052F00095530008955300089553000895530008EE
:10530000955300087F5300089553000895530008F3
:1053100095530008955300089553000895530008CD
:10532000955300089D5300089553000895530008B5
:1053300095530008955300089553000895530008AD
:10534000955300089D530008955300089553000895
:10535000955300089553000895530008955300088D
:10536000955300089D530008D7F8143108330121E4
:10537000184600F0C3FF034687F827310FE0D7F83F
:10538000143128330121184601F06AF8034687F8E2
:10539000273104E0012387F8273100E000BF97F8A8
:1053A0002731002B0AD1BF4B5B6D23F03801D7F8B2
:1053B0001431DB6FBB4A0B43536503E097F8273189
:1053C00087F82631D7F81431D3E9002302F002031D
:1053D000C7F8B8300023C7F8BC30D7E92E120B4607
:1053E000134341D0D7F814319B6F052B24D801A269
:1053F00052F823F0415400080D54000823540008CB
:10540000415400084154000841540008D7F81431B1
:1054100008330121184600F071FF034687F8273151
:105420000FE0D7F8143128330121184601F018F89D
:10543000034687F8273104E0012387F8273100E08D
:1054400000BF97F82731002B0AD1964B5B6D23F0F4
:105450000701D7F814319B6F924A0B43536503E061
:1054600097F8273187F82631D7F81431D3E900238C
:1054700002F00403C7F8B0300023C7F8B430D7E90E
:105480002C120B46134344D0D7F81431D3F8943080
:10549000052B25D801A252F823F000BFE9540008DB
:1054A000B5540008CB540008E9540008E95400083A
:1054B000E9540008D7F8143108330121184600F0E8
:1054C0001DFF034687F827310FE0D7F81431283342
:1054D0000121184600F0C4FF034687F8273104E095
:1054E000012387F8273100E000BF97F82731002B10
:1054F0000BD16C4B9B6D23F00701D7F81431D3F817
:105500009430684A0B43936503E097F8273187F896
:105510002631D7F81431D3E9002302F02003C7F86D
:10552000A8300023C7F8AC30D7E92A120B46134342
:1055300055D0D7F81431D3F89030B3F1A04F33D011
:10554000B3F1A04F2CD8B3F1804F2FD0B3F1804FDF
:1055500026D8B3F1405F2BD0B3F1405F20D8B3F130
:10556000005F12D0B3F1005F1AD8002B22D0B3F144
:10557000805F15D1D7F8143108330021184600F0A8
:10558000BDFE034687F8273115E0D7F814312833DC
:105590000221184600F064FF034687F827310AE02D
:1055A000012387F8273106E000BF04E000BF02E0D6
:1055B00000BF00E000BF97F82731002B0BD1394B1B
:1055C0005B6D23F0E041D7F81431D3F89030354AC1
:1055D0000B43536503E097F8273187F82631D7F856
:1055E0001431D3E9002302F04003C7F8A0300023B0
:1055F000C7F8A430D7E928120B46134358D0D7F880
:105600001431D3F89C30B3F5A05F33D0B3F5A05F6D
:105610002CD8B3F5805F2FD0B3F5805F26D8B3F5D3
:10562000406F2BD0B3F5406F20D8B3F5006F12D088
:10563000B3F5006F1AD8002B22D0B3F5806F15D1C7
:10564000D7F8143108330021184600F057FE0346FE
:1056500087F8273115E0D7F814312833022118468E
:1056600000F0FEFE034687F827310AE0012387F8A1
:10567000273106E000BF04E000BF02E000BF00E009
:1056800000BF97F82731002B0ED1064B9B6D23F4FA
:10569000E051D7F81431D3F89C30024A0B4393659C
:1056A00006E000BF0044025897F8273187F82631FA
:1056B000D7F81431D3E9002302F08003C7F89830FB
:1056C0000023C7F89C30D7E926120B46134355D068
:1056D000D7F81431D3F8A030B3F5204F33D0B3F559
:1056E000204F2CD8B3F5004F2FD0B3F5004F26D85C
:1056F000B3F5C04F2BD0B3F5C04F20D8B3F5804FD2
:1057000012D0B3F5804F1AD8002B22D0B3F5005F2A
:1057100015D1D7F8143108330021184600F0EEFDFA
:10572000034687F8273115E0D7F8143128330221D2
:10573000184600F095FE034687F827310AE001235A
:1057400087F8273106E000BF04E000BF02E000BF99
:1057500000E000BF97F82731002B0BD1A14B9B6DC8
:1057600023F46041D7F81431D3F8A0309D4A0B439D
:10577000936503E097F8273187F82631D7F814317D
:10578000D3E9002302F00803C7F890300023C7F8DC
:105790009430D7E924120B4613431ED0D7F81431A6
:1057A000D3F88430B3F5805F0CD1D7F814312833A7
:1057B0000221184600F054FE0346002B02D00123BC
:1057C00087F82631874B5B6D23F44051D7F81431AD
:1057D000D3F88430834A0B435365D7F81431D3E9A7
:1057E000002302F01003C7F888300023C7F88C307C
:1057F000D7E922120B4613431ED0D7F81431D3F841
:105800009830B3F5807F0CD1D7F8143128330221BA
:10581000184600F025FE0346002B02D0012387F82E
:105820002631704B9B6D23F44071D7F81431D3F8B7
:1058300098306C4A0B439365D7F81431D3E90023B1
:1058400002F40023C7F880300023C7F88430D7E97A
:1058500020120B4613433ED0D7F81431D3F8A430AE
:10586000B3F5003F22D0B3F5003F1BD8002B03D087
:10587000B3F5803F0BD015E0D7F814310833002181
:10588000184600F03BFD034687F827310FE0D7F8B4
:10589000143128330221184600F0E2FD034687F850
:1058A000273104E0012387F8273100E000BF97F893
:1058B0002731002B0BD14B4B9B6D23F44031D7F894
:1058C0001431D3F8A430474A0B43936503E097F8AB
:1058D000273187F82631D7F81431D3E9002302F4B1
:1058E0008023BB670023FB67D7E91E120B461343D7
:1058F0003BD0D7F81431D3F88830B3F5401F1FD010
:10590000B3F5401F18D8B3F5801F03D0B3F5001FBF
:1059100007D011E0334BDB6A324A43F40033D362E1
:105920000FE0D7F8143128330121184600F098FD14
:10593000034687F8273104E0012387F8273100E088
:1059400000BF97F82731002B0BD1264B5B6D23F45A
:105950004011D7F81431D3F88830224A0B435365ED
:1059600003E097F8273187F82631D7F81431D3E9C7
:10597000002302F480333B6700237B67D7E91C12C6
:105980000B46134334D0D7F814311B6D002B03D0D2
:10599000B3F5803F07D011E0124BDB6A114A43F4A4
:1059A0000033D3620EE0D7F81431083302211846D1
:1059B00000F0A4FC034687F8273103E0012387F8B1
:1059C000273100BF97F82731002B0DD1054BDB6C39
:1059D00023F48031D7F814311B6D024A0B43D36492
:1059E00006E000BF0044025897F8273187F82631B7
:1059F000D7F81431D3E9002302F00053BB6600232B
:105A0000FB66D7E91A120B4613430CD0D7F81431B2
:105A100028330221184600F023FD0346002B02D054
:105A2000012387F82631D7F81431D3E9002302F493
:105A300000333B6600237B66D7E918120B461343FD
:105A400038D0D7F81431D3F88030B3F5407F18D070
:105A5000B3F5407F11D8B3F5007F14D0B3F5007FC4
:105A60000BD8002B11D0B3F5807F06D1C34BDB6A76
:105A7000C24A43F40033D36208E0012387F8273198
:105A800004E000BF02E000BF00E000BF97F827314C
:105A9000002B0BD1B94B5B6D23F44071D7F8143157
:105AA000D3F88030B54A0B43536503E097F82731AC
:105AB00087F82631D7F81431D3E9002302F4801394
:105AC000BB650023FB65D7E916120B46134309D0CB
:105AD000AA4B1B6D23F00041D7F814315B6FA74A26
