:020000040800F2
:1000000000000824112300084D15000855150008AC
:100010005D150008651500086D150008000000005A
:10002000000000000000000000000000751500083E
:100030008315000800000000911500089F150008B6
:100040006123000861230008612300086123000880
:100050006123000861230008612300086123000870
:100060006123000861230008612300086123000860
:100070006123000861230008612300086123000850
:100080006123000861230008612300086123000840
:100090006123000861230008612300086123000830
:1000A0006123000861230008612300086123000820
:1000B0006123000861230008612300086123000810
:1000C0006123000861230008612300086123000800
:1000D00061230008612300086123000861230008F0
:1000E000612300086123000800000000612300086C
:1000F00061230008612300086123000861230008D0
:1001000061230008612300086123000861230008BF
:1001100061230008612300086123000861230008AF
:10012000612300086123000861230008612300089F
:10013000612300086123000861230008612300088F
:1001400000000000000000000000000000000000AF
:10015000612300086123000861230008612300086F
:10016000612300086123000861230008612300085F
:1001700061230008612300086123000800000000DB
:10018000612300086123000861230008612300083F
:10019000612300086123000861230008612300082F
:1001A000612300086123000861230008612300081F
:1001B000612300086123000861230008612300080F
:1001C00061230008612300086123000861230008FF
:1001D00061230008612300086123000861230008EF
:1001E00061230008612300086123000861230008DF
:1001F00061230008612300086123000861230008CF
:1002000061230008612300086123000861230008BE
:1002100061230008612300086123000861230008AE
:10022000612300086123000861230008000000002A
:10023000612300086123000800000000612300081A
:10024000612300086123000861230008612300087E
:10025000612300086123000861230008612300086E
:10026000612300086123000861230008612300085E
:1002700061230008612300086123000800000000DA
:1002800061230008612300086123000800000000CA
:080290000000000061230008DA
:1002A00010B5054C237833B9044B13B10448AFF3B0
:1002B00000800123237010BDD8010024000000003D
:1002C00060A5000808B5034B1BB103490348AFF311
:1002D000008008BD00000000DC01002460A50008CB
:1002E00001F0FF01102A2BDB10F0070F08D010F8E7
:1002F000013B013A8B422DD010F0070F42B3F6D1EB
:10030000F0B441EA012141EA014122F007047FF003
:1003100000070023F0E80256083C85EA010586EA5A
:10032000010685FA47F5A3FA87F586FA47F6A5FA96
:1003300087F68EB9EED1F0BC01F0FF0102F00702A2
:1003400032B110F8013B013A83EA010313B1F8D14D
:100350000020704701387047002D06BF354603382E
:10036000073815F0010F07D1013015F4807F02BF67
:10037000013015F4C03F0130F0BC0138704700BFB8
:10038000034613F8012B002AFBD1181A01387047D5
:1003900053B94AB9002908BF00281CBF4FF0FF31EC
:1003A0004FF0FF3000F06AB9ADF1080C6DE904CEF2
:1003B00000F006F8DDF804E0DDE9022304B0704740
:1003C0002DE9F047089D0C46002B4ED194468C45F4
:1003D0008646B2FA82F262D94AB1C2F12003914054
:1003E00020FA03F30CFA02FC194300FA02FE4FEA6A
:1003F0001C471FFA8CF6B1FBF7F44FEA1E4307FBCC
:10040000141143EA014304FB06F199420AD91CEB9B
:10041000030304F1FF3080F01281994240F20F8112
:10042000023C6344591A1FFA8EF3B1FBF7F007FB45
:10043000101143EA014300FB06F69E420AD91CEB69
:10044000030300F1FF3180F0FC809E4240F2F9800E
:10045000634402389B1B40EA044000211DB1D34095
:100460000022C5E90032BDE8F0878B4205D90DB105
:10047000C5E9000100210846F5E7B3FA83F1002938
:1004800046D1A34202D39042C0F0F080861A64EBBA
:1004900003030120002DE6D0C5E90063E3E7002A4D
:1004A00040F09080A1EB0C044FEA1C481FFA8CF737
:1004B0000121B4FBF8F64FEA1E4308FB164443EA59
:1004C000044307FB06F0984208D91CEB030306F12E
:1004D000FF3402D2984200F2CD8026461C1A1FFA41
:1004E0008EF3B4FBF8F008FB104443EA044300FB2E
:1004F00007F79F4208D91CEB030300F1FF3402D237
:100500009F4200F2B0802046DB1B40EA0640A5E790
:10051000C1F120068B4022FA06F71F4320FA06FCA1
:1005200004FA01F343EA0C03F44000FA01F8380C32
:100530004FEA1349B4FBF0FE1FFA87FC00FB1E4490
:1005400049EA04440EFB0CF9A14502FA01F20AD96A
:100550003C190EF1FF3A80F08480A14540F2818081
:10056000AEF1020E3C44A4EB09041FFA83F9B4FB7C
:10057000F0F300FB134449EA044403FB0CFCA445DC
:1005800007D93C1903F1FF3067D2A44565D9023B76
:100590003C4443EA0E40A0FB0293A4EB0C049C42B3
:1005A000CE469C4651D34ED055B1B8EB0E0364EB0A
:1005B0000C0404FA06F6CB401E43CC40C5E90064A7
:1005C000002150E7C2F1200320FA03F10CFA02FCEB
:1005D00024FA03F394400C434FEA1C4800FA02FE4D
:1005E0001FFA8CF7B3FBF8F008FB1031230C43EA39
:1005F000014300FB07F1994208D91CEB030300F10A
:10060000FF362CD299422AD9023863445B1AA4B22D
:10061000B3FBF8F108FB113344EA034401FB07F391
:10062000A34208D91CEB040401F1FF3613D2A34204
:1006300011D902396444E41A41EA004139E7044619
:10064000F0E6084606E7C845AED2B9EB020E63EB0A
:10065000070C0138A8E73146EDE7034699E7304635
:10066000D4E7D6467FE7634402384DE70646234683
:1006700008460FE7023E634430E700BF704700BF03
:1006800080B500AF094B1B780133DAB2074B1A7003
:10069000064B1B78142B07D9044B00221A704FF419
:1006A0000051034802F045FA00BF80BDF401002468
:1006B0000008025880B500AF00F02CFB00F0B8F83D
:1006C00000F044FC4FF47A7001F0DEFE4FF49673B4
:1006D0004FF496724FF496714FF4967000F026F92D
:1006E000FFF7CEFF00F06AFA0A2001F0CDFE00BF4E
:1006F000F6E7000080B485B000AF0346FB7100232D
:10070000FB81FB79032B29D801A252F823F000BF0B
:10071000210700082F070008410700084F070008BD
:10072000134B5B6AFB81124B00225A6217E04FF0B9
:1007300080435B6AFB814FF0804300225A620EE0E7
:100740000C4B5B6AFB810B4B00225A6207E00A4BA1
:100750005B6AFB81084B00225A6200E000BFB7F9D8
:100760000E3018461437BD465DF8047B704700BF55
:1007700000040040000C00400008004080B483B03A
:1007800000AF78600C4B1A687B681A607B68043392
:100790000A4A12681A607B680833094A12681A60AC
:1007A0007B680C33074A12681A6000BF0C37BD46DD
:1007B0005DF8047B704700BFF8010024FC010024B1
:1007C000000200240402002480B500AF0020FFF7DF
:1007D00091FF03461A46124B1B681344104A1360DC
:1007E0000120FFF787FF03461A460E4B1B68134490
:1007F0000C4A13600220FFF77DFF03461A460A4B9E
:100800001B689B1A084A13600320FFF773FF034617
:100810001A46064B1B689B1A044A136000BF80BD32
:10082000F8010024FC01002400020024040200243A
:1008300080B500AF0421084805F0EEF9042107480F
:1008400005F0EAF90421064805F0E6F90421054817
:1008500005F0E2F900BF80BD500300249C03002492
:10086000E80300243404002490B585B000AF0446AA
:10087000084611461A462346FB800346BB800B46BA
:100880007B8013463B804FF47A73FB81B7F90620D7
:10089000B7F90E305B429A420BDBB7F90620B7F985
:1008A0000E309A4205DCB7F906301946002000F0F8
:1008B00059FAB7F90420B7F90E305B429A420BDBC4
:1008C000B7F90420B7F90E309A4205DCB7F90430C5
:1008D0001946012000F046FAB7F90220B7F90E30A8
:1008E0005B429A420BDBB7F90220B7F90E309A420D
:1008F00005DCB7F902301946022000F033FAB7F9E7
:100900000020B7F90E305B429A420BDBB7F90020AA
:10091000B7F90E309A4205DCB7F9003019460320CA
:1009200000F020FA00BF1437BD4690BD90B585B0E9
:1009300000AF0446084611461A462346FB8003468C
:10094000BB800B467B8013463B80174B01221A70FD
:10095000164AFB881384154ABB885384134A7B8844
:100960009384124A3B88D3840023FB7313E0FB7B00
:100970000E4A103332F9133007EE903AB8EEE77BA7
:10098000F7EEC77BFB7BB0EE670A184600F002FC6F
:10099000FB7B0133FB73FB7B032BE8D900BF00BF5C
:1009A0001437BD4690BD00BF380200244402002425
:1009B00080B588B000AF786000F0CEF800F0BEF8E7
:1009C00087ED070A584B1B68642202FB03F307EE0E
:1009D000903AB8EEE77AD7ED077A27EE277ADFED7F
:1009E000536AC7EE267AC7ED067A4F4B5B686422DE
:1009F00002FB03F307EE903AB8EEE77AD7ED077AF9
:100A000027EE277ADFED496AC7EE267AC7ED057A29
:100A1000454B9B68642202FB03F307EE903AB8EE65
:100A2000E77AD7ED077A27EE277ADFED406AC7EE3F
:100A3000267AC7ED047A3C4BDB68642202FB03F3A1
:100A400007EE903AB8EEE77AD7ED077A27EE277AE5
:100A5000DFED366AC7EE267AC7ED037AD7ED067A60
:100A60009FED337A67EE877AFDEEE77A17EE903ADC
:100A70001AB27B681A80D7ED057A9FED2D7A67EE62
:100A8000877A7B680233FDEEE77A17EE902A12B27E
:100A90001A80D7ED047A9FED267A67EE877A7B6815
:100AA0000433FDEEE77A17EE902A12B21A80D7EDE2
:100AB000037A9FED1F7A67EE877A7B680633FDEE37
:100AC000E77A17EE902A12B21A801A4B1B78002B85
:100AD00026D0D7ED067A9FED167A67EE877A164B09
:100AE000C3ED007AD7ED057A9FED117A67EE877A2C
:100AF000114BC3ED017AD7ED047A9FED0D7A67EEC5
:100B0000877A0D4BC3ED027AD7ED037A9FED087A11
:100B100067EE877A084BC3ED037A074800F00AFBBB
:100B200000BF2037BD4680BD2802002400001A45C2
:100B300000007A44380200244402002480B400AF4C
:100B4000044B07EE903AB0EE670ABD465DF8047BB1
:100B5000704700BF65AA803E80B582B000AFFFF746
:100B600033FE1348FFF70AFE0023FB7117E0FB7901
:100B70000F4A52F82310FB790E4A52F82320FB79D2
:100B80008A1A0D4941F82320FA79FB79084951F86E
:100B90002220084941F82320FB790133FB71FB79BE
:100BA000032BE4D900BF00BF0837BD4680BD00BF9E
:100BB00008020024180200242802002480B582B014
:100BC00002AF2648FFF7F4FE254B1B680133244A89
:100BD0001360234B1B681D2B16DD214B00221A606E
:100BE0001E4BB3F9003019461C4BB3F902301A46BC
:100BF0001A4BB3F904301846184BB3F9063000937A
:100C00000346184807F0A2FD174B1B78002B21D094
:100C1000164BD3ED047AFDEEE77A17EE903A18B250
:100C2000124BD3ED057AFDEEE77A17EE903A19B242
:100C30000E4BD3ED067AFDEEE77A17EE903A1AB234
:100C40000A4BD3ED077AFDEEE77A17EE903A1BB226
:100C5000FFF70AFE00BFBD4680BD00BF3C02002476
:100C60006C02002478A50008380200244402002405
:100C700080B483B000AF0346FB80B7F90630002B89
:100C800005DDFB8803F57A739BB21BB20AE0B7F966
:100C90000630002B05DAFB88A3F57A739BB21BB2F2
:100CA00000E0002318460C37BD465DF8047B704712
:100CB00080B483B000AF0346FB80B7F90630B3F5CC
:100CC000FA6F02DB4FF4FA6308E0B7F9063013F568
:100CD000FA6F01DC044B01E0B7F9063018460C3717
:100CE000BD465DF8047B704730F8FFFF80B483B0E9
:100CF00000AF0346FB80B7F90630002B03DAFB8810
:100D00005B429BB200E0FB8818460C37BD465DF89D
:100D1000047B704780B500AF0021104804F0C8FD87
:100D200004210E4804F0C4FD08210C4804F0C0FD65
:100D30000C210A4804F0BCFD0021094805F0B0FC74
:100D40000421074805F0ACFC0821054804F0B0FD7B
:100D50000C21034804F0ACFD00BF80BD0403002457
:100D60008004002480B584B000AF03460A46FB71BE
:100D70001346BB80B7F904301846FFF779FF0346E6
:100D8000FB81B7F90E301846FFF792FF0346FB814F
:100D9000FB79042B00F2D08001A252F823F000BFAF
:100DA000B50D0008E70D0008190E0008430E0008F5
:100DB0006D0E0008FB895B429BB2FB81B7F90E30D8
:100DC000002B07DB5F4AB7F90E30D3635D4B00227F
:100DD0001A64B2E05B4B0022DA63B7F90E305A4274
:100DE000584B1A64A9E0FB895B429BB2FB81B7F9BF
:100DF0000E30002B07DB534AB7F90E305363514BCB
:100E000000229A6399E04F4B00225A63B7F90E30E3
:100E10005A424C4B9A6390E0B7F90E30002B07DB37
:100E2000494AB7F90E305363474B00229A6384E076
:100E3000454B00225A63B7F90E305A42424B9A632F
:100E40007BE0B7F90E30002B07DB3F4AB7F90E30D5
:100E5000D3633D4B00221A646FE03B4B0022DA6300
:100E6000B7F90E305A42384B1A6466E0B7F90E30C3
:100E7000002B30DB334B0022DA63B7F90E30184613
:100E8000FFF734FF03461A462E4B1A642D4B0022FF
:100E90005A63B7F90E301846FFF728FF03461A4683
:100EA000284B9A63B7F90E301846FFF71FFF034629
:100EB0001A46254B5A63244B00229A63B7F90E3029
:100EC0001846FFF713FF03461A461F4BDA631E4B03
:100ED00000221A6431E0B7F90E301846FFF706FF1A
:100EE00003461A46174BDA63164B00221A64B7F909
:100EF0000E301846FFF7FAFE03461A46114B5A63A6
:100F0000104B00229A63104B00225A63B7F90E303F
:100F10001846FFF7EBFE03461A460B4B9A630A4B43
:100F20000022DA63B7F90E301846FFF7DFFE0346FA
:100F30001A46054B1A6400E000BF00BF1037BD46DB
:100F400080BD00BF000001400004014080B483B0B8
:100F500000AF00237B6062E036497A681346DB000D
:100F600013449B000B444FF000021A6031497A6829
:100F70001346DB0013449B000B4404334FF0000284
:100F80001A602C497A681346DB0013449B000B441B
:100F900014334FF000021A6026497A681346DB00CA
:100FA00013449B000B4418334FF000021A60214990
:100FB0007A681346DB0013449B000B441C334FF04C
:100FC00000021A601B497A681346DB0013449B0039
:100FD0000B4420334FF000021A6016497A6813461A
:100FE000DB0013449B000B440833134A1A60114979
:100FF0007A681346DB0013449B000B440C330F4A02
:101000001A600C497A681346DB0013449B000B44BA
:1010100010334FF07C521A607B6801337B607B6831
:10102000032B99DD00BF00BF0C37BD465DF8047B84
:10103000704700BF70020024CDCC4C3F8FC2753D7D
:1010400080B483B000AF786087ED000A7B6893EDD1
:10105000007AD7ED007A77EE677A7B68C3ED057A80
:101060007B6893ED017A7B68D3ED026A7B6893ED30
:10107000056A7B68D3ED077A76EE677A66EEA76A33
:101080007B6893ED036A7B68D3ED057A66EE277A79
:1010900076EEA76A7B6893ED046A7B68D3ED055A08
:1010A0007B68D3ED077A77EEA77A75EEE75A7B680F
:1010B000D3ED067A75EEA77A66EE277A76EEA77AF2
:1010C00077EE277A7B68C3ED017A7B68DA697B6803
:1010D0009A617B685A697B68DA617B68D3ED017A33
:1010E0009FED107AF4EEC77AF1EE10FA02DD7B681C
:1010F0000D4A5A607B68D3ED017A9FED0C7AF4EECD
:10110000C77AF1EE10FA02D57B68094A5A607B680B
:101110005B6807EE903AB0EE670A0C37BD465DF8A3
:10112000047B704700007A4400007A4400007AC4CF
:1011300000007AC480B584B000AF78600023FB6003
:101140001DE0FA681346DB0013449B00104A99180F
:101150007A68FB689B001344D3ED007AB0EE670A0F
:101160000846FFF76DFFF0EE407A7A68FB680433BB
:101170009B001344C3ED007AFB680133FB60FB68FE
:10118000032BDEDD00BF00BF1037BD4680BD00BFB2
:101190007002002480B485B000AF034687ED000ADA
:1011A000FB71FB79042B1FD8FB79042B12D1002390
:1011B000FB600BE00F49FA681346DB0013449B0009
:1011C0000B443A681A60FB680133FB60FB68032B31
:1011D000F0DD0AE0FA7907491346DB0013449B006F
:1011E0000B443A681A6000E000BF1437BD465DF852
:1011F000047B70477002002480B58CB000AF07F10B
:101200001C0300221A605A609A60DA601A61394B36
:10121000D3F8E030374A43F00403C2F8E030354BEE
:10122000D3F8E03003F00403BB61BB69314BD3F862
:10123000E030304A43F08003C2F8E0302D4BD3F861
:10124000E03003F080037B617B692A4BD3F8E03008
:10125000284A43F00103C2F8E030264BD3F8E030CF
:1012600003F001033B613B69224BD3F8E030214A94
:1012700043F00203C2F8E0301E4BD3F8E03003F035
:101280000203FB60FB681B4BD3F8E030194A43F0C4
:101290001003C2F8E030174BD3F8E03003F010032E
:1012A000BB60BB68134BD3F8E030124A43F008032D
:1012B000C2F8E0300F4BD3F8E03003F008037B6056
:1012C0007B6800224FF400510B4801F019FC4FF4E9
:1012D0000053FB6101233B6200237B620023BB625E
:1012E00007F11C031946044801F05AFA00BF3037D1
:1012F000BD4680BD004402580008025880B500AFCA
:1013000000F0D8F801F02EF800F014F8FFF774FFA1
:1013100000F04EFB00F0A0FB00F0F4FB00F048FCF6
:1013200000F092FA00F09AFC00F03CFFFFF7C2F9DF
:1013300000BFFDE780B59EB000AF07F12C034C2243
:101340000021184607F057FA07F10C03202200216C
:10135000184607F050FA022001F006FC0023BB609B
:10136000484BDB6A474A23F00103D362454BDB6AF3
:1013700003F00103BB60444B9B69434A43F4404381
:101380009361414B9B6903F44043BB60BB6800BF62
:101390003D4B9B6903F40053B3F5005FF8D13B4B21
:1013A000D3F8F430394A43F00203C2F8F430374B33
:1013B000D3F8F43003F002037B607B6800233B60CA
:1013C000314B9B69304A43F4404393612E4B9B69F8
:1013D00003F440433B602B4BDB6A2A4A43F0010392
:1013E000D362284BDB6A03F001033B603B6800BF1C
:1013F000254B9B6903F40053B3F5005FF8D101233B
:10140000FB624FF480333B6302233B6502237B6521
:101410000523BB65C023FB6502233B6605237B6672
:101420000223BB660823FB6600233B6700237B6720
:1014300007F12C03184601F0D1FB0346002B01D025
:1014400000F064F83F23FB6003233B6100237B61D2
:101450000823BB614023FB6140233B624FF4806360
:101460007B624023BB6207F10C030421184602F0A3
:101470000FF80346002B01D000F048F800BF783782
:10148000BD4680BD00040058004802580044025880
:1014900080B582B000AF7860391D4FF6FF7301222E
:1014A000034805F040FB7B6818460837BD4680BD01
:1014B000CC04002480B584B000AF3B4600221A6003
:1014C0005A609A60DA6001F0F3F801233B70002360
:1014D0007B7000237B601F233B7287237B7200237A
:1014E000BB720023FB7201233B7301237B73002338
:1014F000BB730023FB733B46184601F011F904202F
:1015000001F0EEF800BF1037BD4680BD80B400AFDB
:1015100072B600BF00BFFDE780B483B000AF0A4BD6
:10152000D3F8F430084A43F00203C2F8F430064B13
:10153000D3F8F43003F002037B607B6800BF0C3704
:10154000BD465DF8047B70470044025880B400AF8C
:1015500000BFFDE780B400AF00BFFDE780B400AF7F
:1015600000BFFDE780B400AF00BFFDE780B400AF6F
:1015700000BFFDE780B400AF00BFBD465DF8047B4F
:10158000704780B400AF00BFBD465DF8047B704774
:1015900080B400AF00BFBD465DF8047B704780B5E6
:1015A00000AF00F051FF00BF80BD80B400AF012349
:1015B0001846BD465DF8047B704780B582B000AF29
:1015C0007860396007F06AF9034616221A604FF016
:1015D000FF3318460837BD4680BD80B582B000AFE6
:1015E00078604FF0FF317868FFF7E7FF00BFFDE755
:1015F00080B586B000AFF860B9607A6000237B6187
:101600000AE0AFF300800146BB685A1CBA60CAB258
:101610001A707B6901337B617A697B689A42F0DBDF
:101620007B6818461837BD4680BD80B586B000AFD0
:10163000F860B9607A6000237B6109E0BB685A1CDE
:10164000BA601B781846FFF723FF7B6901337B6183
:101650007A697B689A42F1DB7B6818461837BD4689
:1016600080BD80B483B000AF78604FF0FF33184680
:101670000C37BD465DF8047B704780B483B000AF83
:10168000786039603B684FF400525A600023184676
:101690000C37BD465DF8047B704780B483B000AF63
:1016A0007860012318460C37BD465DF8047B70470F
:1016B00080B485B000AFF860B9607A600023184646
:1016C0001437BD465DF8047B7047000080B586B0D6
:1016D00000AF7860144A154BD31A7B617B693B617C
:1016E000134B1B68002B02D1114B124A1A60104B8E
:1016F0001A687B6813443A699A4207D207F0CEF819
:1017000003460C221A604FF0FF3309E0084B1B68B8
:10171000FB60074B1A687B681344054A1360FB683B
:1017200018461837BD4680BD00000824000400009C
:1017300000030024B006002480B400AF374BD3F878
:101740008830364A43F47003C2F88830344B1B6843
:1017500003F00F03062B07D8314B1B6823F00F0350
:101760002F4A43F0070313602E4B1B682D4A43F0AA
:10177000010313602B4B00221A612A4B1A68294976
:10178000294B13400B60264B1B6803F00803002B0A
:1017900007D0234B1B6823F00F03214A43F00703B4
:1017A0001360204B00229A611E4B0022DA611D4B10
:1017B00000221A621B4B1D4A9A621A4B1C4ADA62BB
:1017C000184B1C4A1A63174B00225A63154B194ACF
:1017D0009A63144B0022DA63124B164A1A64114BB7
:1017E00000225A640F4B1B680E4A23F480231360B7
:1017F0000C4B00221A66104B1A68104B1340B3F1C1
:10180000005F02D20E4B01221A600E4B43F2D2024D
:101810001A6000BFBD465DF8047B704700ED00E034
:1018200000200052004402587FEDF6EA0002020256
:101830000000FF01800201010010005C0000FFFFBA
:10184000088100510040005280B596B000AF07F10A
:101850004C0300221A605A609A6007F1300300229C
:101860001A605A609A60DA601A615A619A613B1D87
:101870002C220021184606F0BEFF4B4B4B4A1A6043
:10188000494B04225A60484B00229A60464B4FF461
:10189000FA62DA60444B00221A61434B00225A611B
:1018A000414B80229A61404803F0AAFF0346002B77
:1018B00001D0FFF72BFE0023FB6400233B650023D0
:1018C0007B6507F14C031946374804F0ABFF03462C
:1018D000002B01D0FFF71AFE60233B6300237B63DC
:1018E0000023BB630023FB6300233B6400237B6472
:1018F0000023BB6407F13003002219462A4804F094
:1019000019FA0346002B01D0FFF700FE07F1300360
:1019100004221946244804F00DFA0346002B01D096
:10192000FFF7F4FD07F13003082219461E4804F0C2
:1019300001FA0346002B01D0FFF7E8FD07F1300361
:101940000C221946184804F0F5F90346002B01D083
:10195000FFF7DCFD00237B600023BB600023FB60FE
:1019600000233B6100237B614FF40053BB610023E4
:10197000FB6100233B624FF000737B620023BB627C
:101980000023FB623B1D1946074804F0D9FF0346BC
:10199000002B01D0FFF7BAFD034800F05BFB00BF4E
:1019A0005837BD4680BD00BF04030024000001403D
:1019B00080B58CB000AF07F10C032422002118463B
:1019C00006F019FF3B4600221A605A609A60214BCC
:1019D0004FF080421A601F4B00225A601D4B0022BC
:1019E0009A601C4B4FF6FF72DA601A4B00221A61A4
:1019F000184B00229A610323FB6000233B61012303
:101A00007B610023BB610023FB6100233B62012358
:101A10007B620023BB620023FB6207F10C031946C3
:101A20000C4804F053F80346002B01D0FFF76EFD7D
:101A300000233B600023BB603B461946054804F089
:101A4000F1FE0346002B01D0FFF760FD00BF3037E9
:101A5000BD4680BD5003002480B58CB000AF07F1B7
:101A60000C0324220021184606F0C5FE3B46002246
:101A70001A605A609A60214B214A1A601F4B00225B
:101A80005A601E4B00229A601C4B4FF6FF72DA60C0
:101A90001A4B00221A61194B00229A610323FB6042
:101AA00000233B6101237B610023BB610023FB61B9
:101AB00000233B6201237B620023BB620023FB62A5
:101AC00007F10C0319460D4804F000F80346002BFB
:101AD00001D0FFF71BFD00233B600023BB603B46AA
:101AE0001946064804F09EFE0346002B01D0FFF77E
:101AF0000DFD00BF3037BD4680BD00BF9C030024F4
:101B00000004004080B58CB000AF07F10C03242224
:101B10000021184606F06FFE3B4600221A605A600C
:101B20009A60214B214A1A601F4B00225A601E4BBB
:101B300000229A601C4B4FF6FF72DA601A4B0022AB
:101B40001A61194B00229A610323FB6000233B6159
:101B500001237B610023BB610023FB6100233B6207
:101B600001237B620023BB620023FB6207F10C03AD
:101B700019460D4803F0AAFF0346002B01D0FFF7DA
:101B8000C5FC00233B600023BB603B46194606486A
:101B900004F048FE0346002B01D0FFF7B7FC00BF5E
:101BA0003037BD4680BD00BFE80300240008004078
:101BB00080B58CB000AF07F10C0324220021184639
:101BC00006F019FE3B4600221A605A609A60214BCB
:101BD000214A1A601F4B00225A601E4B00229A6055
:101BE0001C4B4FF6FF72DA601A4B00221A61194B38
:101BF00000229A610323FB6000233B6101237B6188
:101C00000023BB610023FB6100233B6201237B6255
:101C10000023BB620023FB6207F10C0319460D4849
:101C200003F054FF0346002B01D0FFF76FFC0023A5
:101C30003B600023BB603B461946064804F0F2FDBA
:101C40000346002B01D0FFF761FC00BF3037BD46D3
:101C500080BD00BF34040024000C004080B596B065
:101C600000AF07F14C0300221A605A609A6007F136
:101C7000300300221A605A609A60DA601A615A6171
:101C80009A613B1D2C220021184606F0B4FD4B4BF7
:101C90004B4A1A60494B04225A60484B00229A6012
:101CA000464B4FF4FA62DA60444B00221A61434B10
:101CB00000225A61414B80229A61404803F0A0FD06
:101CC0000346002B01D0FFF721FC0023FB64002317
:101CD0003B6500237B6507F14C031946374804F048
:101CE000A1FD0346002B01D0FFF710FC60233B63EE
:101CF00000237B630023BB630023FB6300233B645F
:101D000000237B640023BB6407F1300300221946E3
:101D10002A4804F00FF80346002B01D0FFF7F6FB2A
:101D200007F1300304221946244804F003F803465F
:101D3000002B01D0FFF7EAFB07F130030822194618
:101D40001E4803F0F7FF0346002B01D0FFF7DEFB30
:101D500007F130030C221946184803F0EBFF034645
:101D6000002B01D0FFF7D2FB00237B600023BB6078
:101D70000023FB6000233B6100237B614FF4005391
:101D8000BB610023FB6100233B624FF000737B6269
:101D90000023BB620023FB623B1D1946074804F089
:101DA000CFFD0346002B01D0FFF7B0FB034800F046
:101DB00051F900BF5837BD4680BD00BF80040024E4
:101DC0000004014080B485B000AF78607B681B6878
:101DD000164A93420FD1164BD3F8F030144A43F011
:101DE0000103C2F8F030124BD3F8F03003F00103D6
:101DF000FB60FB6813E07B681B680E4A93420ED1C0
:101E00000B4BD3F8F0300A4A43F00203C2F8F0302B
:101E1000074BD3F8F03003F00203BB60BB6800BF90
:101E20001437BD465DF8047B704700BF00000140D9
:101E3000004402580004014080B590B000AF7860C3
:101E400007F12C0300221A605A609A60DA601A6166
:101E50007B681B68B3F1804F4ED1774BD3F8E830E5
:101E6000754A43F00103C2F8E830734BD3F8E83009
:101E700003F00103BB62BB6A6F4BD3F8E0306E4ADC
:101E800043F00103C2F8E0306B4BD3F8E03003F0CD
:101E900001037B627B6A684BD3F8E030664A43F00B
:101EA0000203C2F8E030644BD3F8E03003F00203E1
:101EB0003B623B6A4FF40043FB6202233B63002317
:101EC0007B630023BB630123FB6307F12C031946EB
:101ED0005A4800F065FC0823FB6202233B630023A1
:101EE0007B630023BB630123FB6307F12C031946CB
:101EF000534800F055FC9BE07B681B68514A9342B5
:101F00002ED14D4BD3F8E8304B4A43F00203C2F8D0
:101F1000E830494BD3F8E83003F00203FB61FB697A
:101F2000454BD3F8E030444A43F00203C2F8E030B6
:101F3000414BD3F8E03003F00203BB61BB693023AF
:101F4000FB6202233B6300237B630023BB6302230A
:101F5000FB6307F12C031946394800F021FC67E0C8
:101F60007B681B68384A93422FD1334BD3F8E83053
:101F7000314A43F00403C2F8E8302F4BD3F8E8307D
:101F800003F004037B617B692B4BD3F8E0302A4AD2
:101F900043F00803C2F8E030274BD3F8E03003F0F9
:101FA00008033B613B694FF44053FB6202233B63F0
:101FB00000237B630023BB630223FB6307F12C0335
:101FC0001946224800F0ECFB32E07B681B68204A8F
:101FD00093422DD1184BD3F8E830174A43F0080349
:101FE000C2F8E830144BD3F8E83003F00803FB6084
:101FF000FB68114BD3F8E0300F4A43F00103C2F8FD
:10200000E0300D4BD3F8E03003F00103BB60BB6858
:102010000323FB6202233B6300237B630023BB6338
:102020000223FB6307F12C031946044800F0B8FBB8
:1020300000BF4037BD4680BD004402580000025832
:10204000000402580004004000080040000C025840
:10205000000C004080B58CB000AF786007F11C0325
:1020600000221A605A609A60DA601A617B681B6805
:10207000454A934220D1454BD3F8E030434A43F0E0
:102080001003C2F8E030414BD3F8E03003F0100306
:10209000BB61BB694FF4D443FB6102233B62002365
:1020A0007B620023BB620123FB6207F11C0319461C
:1020B000374800F075FB62E07B681B68354A934245
:1020C0005DD1324BD3F8E030304A43F00103C2F81F
:1020D000E0302E4BD3F8E03003F001037B617B69E5
:1020E0002A4BD3F8E030294A43F00203C2F8E0302B
:1020F000264BD3F8E03003F002033B613B69234BEE
:10210000D3F8E030214A43F00403C2F8E0301F4B1B
:10211000D3F8E03003F00403FB60FB682023FB618D
:1021200002233B6200237B620023BB620323FB622A
:1021300007F11C031946184800F032FB0123FB612C
:1021400002233B6200237B620023BB620323FB620A
:1021500007F11C031946114800F022FB4FF44073AD
:10216000FB6102233B6200237B620023BB620323EB
:10217000FB6207F11C031946094800F011FB00BF80
:102180003037BD4680BD00BF00000140004402580A
:1021900000100258000401400000025800040258D8
:1021A0000008025880B500AF224B234A1A60214B29
:1021B0004FF4E1325A601F4B00229A601D4B0022FF
:1021C000DA601C4B00221A611A4B0C225A61194B1F
:1021D00000229A61174B00221A62164B00225A62A3
:1021E000144B00229A62134B00225A66114804F0E5
:1021F0004AFC0346002B01D0FFF788F900210D4867
:1022000005F0E1FC0346002B01D0FFF77FF9002128
:10221000084805F016FD0346002B01D0FFF776F9BC
:10222000044805F097FC0346002B01D0FFF76EF938
:1022300000BF80BDCC040024000C005880B5BAB0AB
:1022400000AF786007F1D40300221A605A609A60E8
:10225000DA601A6107F11003C0220021184606F067
:10226000CAFA7B681B68274A934246D14FF00402A2
:102270004FF00003C7E904230023C7F8A43007F197
:102280001003184601F090FC0346002B01D0FFF725
:102290003DF91D4BD3F8F4301B4A43F00803C2F854
:1022A000F430194BD3F8F43003F00803FB60FB68FB
:1022B000154BD3F8E030144A43F00103C2F8E03084
:1022C000114BD3F8E03003F00103BB60BB684FF45F
:1022D000C063C7F8D4300223C7F8D8300023C7F84A
:1022E000DC300023C7F8E0300323C7F8E43007F1FF
:1022F000D4031946054800F053FA00BFE837BD463D
:1023000080BD00BF000C0058004402580000025875
:10231000DFF834D0FFF710FA0C480D490D4A0023BE
:1023200002E0D458C4500433C4188C42F9D30A4A8A
:102330000A4C002301E013600432A242FBD306F0F2
:10234000B3FAFEF7DBFF704700000824000000240A
:10235000D801002450A90008D8010024B0060024A8
:10236000FEE7000080B582B000AF032000F06EF9F8
:1023700001F044FA0246154B9B691B0A03F00F0358
:102380001349CB5C03F01F0322FA03F37B600F4B6E
:102390009B6903F00F030E4AD35C03F01F037A68B6
:1023A00022FA03F30B4A13600B4A7B6813600F2079
:1023B00000F014F80346002B01D0012302E0FFF7E0
:1023C000ABF8002318460837BD4680BD00440258CC
:1023D00094A50008040000240000002480B582B009
:1023E00000AF7860154B1B78002B01D1012321E051
:1023F000134B1A68114B1B7819464FF47A73B3FBD1
:10240000F1F3B2FBF3F3184600F045F90346002B55
:1024100001D001230EE07B680F2B0AD800227968D7
:102420004FF0FF3000F01DF9064A7B68136000236F
:1024300000E0012318460837BD4680BD0C0000248B
:10244000000000240800002480B400AF064B1B7875
:102450001A46064B1B681344044A136000BFBD466E
:102460005DF8047B704700BF0C0000246005002469
:1024700080B400AF034B1B681846BD465DF8047B73
:10248000704700BF6005002480B584B000AF78605D
:10249000FFF7EEFFB8607B68FB60FB68B3F1FF3FBE
:1024A00005D00A4B1B781A46FB681344FB6000BF3B
:1024B000FFF7DEFF0246BB68D31AFA689A42F7D8E4
:1024C00000BF00BF1037BD4680BD00BF0C00002418
:1024D00080B400AF034B1B681B0C1846BD465DF86B
:1024E000047B70470010005C80B485B000AF78605A
:1024F0007B6803F00703FB600B4BDB68BB60BA68CB
:102500004FF6FF031340BB60FB681A02BB681A4317
:10251000064B1343BB60044ABB68D36000BF14374B
:10252000BD465DF8047B704700ED00E00000FA0551
:1025300080B400AF044BDB681B0A03F007031846A6
:10254000BD465DF8047B704700ED00E080B483B0C9
:1025500000AF03463960FB80B7F90630002B0ADB79
:102560003B68DAB20C49B7F906301201D2B20B441B
:1025700083F800230AE03B68DAB20849FB8803F0DD
:102580000F03043B1201D2B20B441A7600BF0C3782
:10259000BD465DF8047B704700E100E000ED00E01F
:1025A00080B489B000AFF860B9607A60FB6803F06E
:1025B0000703FB61FB69C3F10703042B28BF042356
:1025C000BB61FB690433062B02D9FB69033B00E0C6
:1025D00000237B614FF0FF32BB6902FA03F3DA4359
:1025E000BB681A407B699A404FF0FF317B6901FA62
:1025F00003F3D9437B680B40134318462437BD4689
:102600005DF8047B7047000080B582B000AF786051
:102610007B68013BB3F1807F01D301230FE00A4ABD
:102620007B68013B53600F214FF0FF30FFF78EFFB7
:10263000054B00229A60044B07221A6000231846BB
:102640000837BD4680BD00BF10E000E080B582B015
:1026500000AF78607868FFF747FF00BF0837BD46D6
:1026600080BD80B586B000AF0346B9607A60FB815B
:10267000FFF75EFF78617A68B9687869FFF790FFC5
:102680000246B7F90E3011461846FFF75FFF00BF4C
:102690001837BD4680BD80B582B000AF78607868DD
:1026A000FFF7B2FF034618460837BD4680BD00005D
:1026B00080B400AFBFF35F8F00BF074B5B6A064A71
:1026C00023F480335362054B00225A6000BFBD469D
:1026D0005DF8047B704700BF00ED00E090ED00E086
:1026E00080B483B000AF78600B4A7B6843F001038D
:1026F00053600A4B5B6A094A43F480335362BFF369
:102700004F8F00BFBFF36F8F00BF00BF0C37BD46B8
:102710005DF8047B704700BF90ED00E000ED00E045
:1027200080B483B000AF78607B685A781B4B9A60A6
:102730001A4B1B69194A23F001031361174A7B687E
:102740005B68D3607B681B7B1A077B68DB7A1B06A0
:102750001A437B689B7ADB041A437B685B7B9B0490
:102760001A437B689B7B5B041A437B68DB7B1B04FF
:102770001A437B685B7A1B021A437B681B7A5B00F7
:1027800013437A6812781146044A0B43136100BF61
:102790000C37BD465DF8047B704700BF90ED00E04C
:1027A00080B489B000AF786039600023FB61894B49
:1027B0007B6194E13B681A680121FB6901FA03F32C
:1027C00013403B613B69002B00F086813B685B68EE
:1027D00003F00303012B05D03B685B6803F00303A0
:1027E000022B30D17B689B68BB61FB695B000322D5
:1027F00002FA03F3DB43BA691340BB613B68DA6852
:10280000FB695B0002FA03F3BA691343BB617B689F
:10281000BA699A607B685B68BB610122FB6902FA56
:1028200003F3DB43BA691340BB613B685B681B0978
:1028300003F00102FB6902FA03F3BA691343BB61B7
:102840007B68BA695A603B685B6803F00303032B3B
:1028500017D07B68DB68BB61FB695B00032202FA6F
:1028600003F3DB43BA691340BB613B689A68FB69B9
:102870005B0002FA03F3BA691343BB617B68BA6970
:10288000DA603B685B6803F00303022B23D1FB692A
:10289000DA087B68083253F82230BB61FB6903F029
:1028A00007039B000F2202FA03F3DB43BA691340CC
:1028B000BB613B681A69FB6903F007039B0002FADE
:1028C00003F3BA691343BB61FB69DA087B6808321A
:1028D000B96943F822107B681B68BB61FB695B0028
:1028E000032202FA03F3DB43BA691340BB613B687E
:1028F0005B6803F00302FB695B0002FA03F3BA6949
:102900001343BB617B68BA691A603B685B6803F478
:102910004033002B00F0E0802F4BD3F8F4302E4AE8
:1029200043F00203C2F8F4302B4BD3F8F43003F039
:102930000203FB60FB68294AFB699B08023352F8DB
:102940002330BB61FB6903F003039B000F2202FAF3
:1029500003F3DB43BA691340BB617B68204A9342AF
:1029600052D07B681F4A934231D07B681E4A934203
:102970002BD07B681D4A934225D07B681C4A93422A
:102980001FD07B681B4A934219D07B681A4A934236
:1029900013D07B68194A93420DD07B68184A934242
:1029A00007D07B68174A934201D109232DE00A23FF
:1029B0002BE0082329E0072327E0062325E0052351
:1029C00023E0042321E003231FE002231DE0012371
:1029D0001BE000BF8000005800440258000400586B
:1029E000000002580004025800080258000C025867
:1029F000001002580014025800180258001C025817
:102A000000200258002402580023FA6902F0030251
:102A100092009340BA691343BB613849FB699B0834
:102A20000233BA6941F823204FF0B0431B68BB6101
:102A30003B69DB43BA691340BB613B685B6803F4E5
:102A40008013002B03D0BA693B691343BB614FF07D
:102A5000B042BB6913604FF0B0435B68BB613B6938
:102A6000DB43BA691340BB613B685B6803F4001346
:102A7000002B03D0BA693B691343BB614FF0B042EE
:102A8000BB6953607B695B68BB613B69DB43BA69C7
:102A90001340BB613B685B6803F40033002B03D039
:102AA000BA693B691343BB617B69BA695A607B6948
:102AB0001B68BB613B69DB43BA691340BB613B6880
:102AC0005B6803F48033002B03D0BA693B6913437E
:102AD000BB617B69BA691A60FB690133FB613B68C2
:102AE0001A68FB6922FA03F3002B7FF463AE00BF80
:102AF00000BF2437BD465DF8047B704700040058D2
:102B000080B483B000AF78600B467B8013467B7047
:102B10007B78002B03D07A887B689A6103E07B88FE
:102B20001A047B689A6100BF0C37BD465DF8047BD0
:102B3000704780B485B000AF78600B467B807B68BF
:102B40005B69FB607A88FB6813401A04FB68D94311
:102B50007B880B401A437B689A6100BF1437BD46DF
:102B60005DF8047B7047000080B584B000AF7860EA
:102B7000194BDB6803F00403042B0AD0164BDB6807
:102B800003F007037A689A4201D001231FE0002373
:102B90001DE0114BDB6823F007020F497B681343EC
:102BA000CB60FFF765FCF86009E0FFF761FC0246C7
:102BB000FB68D31AB3F57A7F01D9012307E0064BEE
:102BC0005B6803F40053B3F5005FEED100231846B1
:102BD0001037BD4680BD00BF0048025880B58CB09C
:102BE00000AF78607B68002B02D1012300F048BC65
:102BF0007B681B6803F00103002B00F08880994B71
:102C00001B6903F03803FB62964B9B6ABB62FB6A4D
:102C1000102B07D0FB6A182B11D1BB6A03F00303FA
:102C2000022B0CD18F4B1B6803F40033002B6DD0AB
:102C30007B685B68002B69D1012300F021BC7B68B5
:102C40005B68B3F5803F06D1864B1B68854A43F429
:102C5000803313602EE07B685B68002B0CD1814BC6
:102C60001B68804A23F4803313607E4B1B687D4AC7
:102C700023F4802313601DE07B685B68B3F5A02F0D
:102C80000CD1784B1B68774A43F480231360754B53
:102C90001B68744A43F4803313600BE0714B1B686C
:102CA000704A23F4803313606E4B1B686D4A23F423
:102CB000802313607B685B68002B13D0FFF7D8FB81
:102CC000786208E0FFF7D4FB02467B6AD31A642BD4
:102CD00001D90323D4E3634B1B6803F40033002BB7
:102CE000F0D014E0FFF7C4FB786208E0FFF7C0FB08
:102CF00002467B6AD31A642B01D90323C0E3594BE4
:102D00001B6803F40033002BF0D100E000BF7B68A8
:102D10001B6803F00203002B00F0CA80514B1B69B3
:102D200003F038033B624F4B9B6AFB613B6A002B0D
:102D300007D03B6A182B56D1FB6903F00303002B25
:102D400051D1484B1B6803F00403002B05D07B686E
:102D5000DB68002B01D1012392E3424B1B6823F077
:102D600019027B68DB683F4913430B60FFF780FB68
:102D7000786208E0FFF77CFB02467B6AD31A022BDD
:102D800001D903237CE3374B1B6803F00403002BBA
:102D9000F0D0FFF79DFB034641F20302934217D8A0
:102DA0007B681B69402B08D12E4B5B6823F47C3376
:102DB0002C4A43F4003353607AE02A4B5B6823F4D7
:102DC0007C327B681B691B03264913434B606FE011
:102DD000244B5B6823F0FE427B681B691B0621497C
:102DE00013434B6064E07B68DB68002B47D01D4BCE
:102DF0001B6823F019027B68DB681A4913430B60D8
:102E0000FFF736FB786208E0FFF732FB02467B6A89
:102E1000D31A022B01D9032332E3124B1B6803F0B0
:102E20000403002BF0D0FFF753FB034641F20302EB
:102E3000934219D87B681B69402B08D1094B5B680A
:102E400023F47C33074A43F40033536030E0054BEE
:102E50005B6823F47C327B681B691B0301491343C5
:102E60004B6025E0004402589A4B5B6823F0FE4219
:102E70007B681B691B06974913434B6018E0954B11
:102E80001B68944A23F001031360FFF7F1FA78629C
:102E900008E0FFF7EDFA02467B6AD31A022B01D94C
:102EA0000323EDE28B4B1B6803F00403002BF0D1EE
:102EB0007B681B6803F01003002B00F0A980854B92
:102EC0001B6903F03803BB61824B9B6A7B61BB6962
:102ED000082B07D0BB69182B3AD17B6903F0030399
:102EE000012B35D17B4B1B6803F48073002B05D07D
:102EF0007B68DB69802B01D00123C1E2FFF7E8FA90
:102F0000034641F20302934217D87B681B6A202BC9
:102F100008D1704B5B6823F0F8436E4A43F080435E
:102F2000536075E06B4B5B6823F0F8427B681B6A6B
:102F30009B06684913434B606AE0664BDB6823F0ED
:102F40007C527B681B6A1B0662491343CB605FE0BF
:102F50007B68DB69002B42D05E4B1B685D4A43F007
:102F600080031360FFF784FA786208E0FFF780FAC5
:102F700002467B6AD31A022B01D9032380E2554B08
:102F80001B6803F48073002BF0D0FFF7A1FA03460F
:102F900041F20302934217D87B681B6A202B08D1A9
:102FA0004C4B5B6823F0F8434A4A43F0804353603C
:102FB0002EE0484B5B6823F0F8427B681B6A9B0657
:102FC000444913434B6023E0424BDB6823F07C52BF
:102FD0007B681B6A1B063F491343CB6018E03D4BDF
:102FE0001B683C4A23F080031360FFF741FA7862C4
:102FF00008E0FFF73DFA02467B6AD31A022B01D99B
:1030000003233DE2334B1B6803F48073002BF0D1A4
:103010007B681B6803F00803002B36D07B685B6974
:10302000002B19D02B4B5B6F2A4A43F001035367E7
:10303000FFF71EFA786208E0FFF71AFA02467B6A89
:10304000D31A022B01D903231AE2224B5B6F03F040
:103050000203002BF0D018E01E4B5B6F1D4A23F0DB
:1030600001035367FFF704FA786208E0FFF700FAFC
:1030700002467B6AD31A022B01D9032300E2154BC7
:103080005B6F03F00203002BF0D17B681B6803F039
:103090002003002B39D07B689B69002B1CD00D4B83
:1030A0001B680C4A43F480531360FFF7E1F9786220
:1030B00008E0FFF7DDF902467B6AD31A022B01D93B
:1030C0000323DDE1034B1B6803F40053002BF0D016
:1030D0001BE000BF004402589B4B1B689A4A23F434
:1030E00080531360FFF7C4F9786208E0FFF7C0F976
:1030F00002467B6AD31A022B01D90323C0E1924B0B
:103100001B6803F40053002BF0D17B681B6803F0AD
:103110000403002B00F081808C4B1B688B4A43F426
:1031200080731360FFF7A4F9786208E0FFF7A0F955
:1031300002467B6AD31A642B01D90323A0E1834B97
:103140001B6803F48073002BF0D07B689B68012B15
:1031500006D17D4B1B6F7C4A43F0010313672DE0C2
:103160007B689B68002B0CD1774B1B6F764A23F052
:1031700001031367744B1B6F734A23F00403136737
:103180001CE07B689B68052B0CD16F4B1B6F6E4A54
:1031900043F0040313676C4B1B6F6B4A43F001034E
:1031A00013670BE0684B1B6F674A23F0010313673B
:1031B000654B1B6F644A23F0040313677B689B68AD
:1031C000002B15D0FFF754F978620AE0FFF750F9A9
:1031D00002467B6AD31A41F28832934201D9032313
:1031E0004EE1594B1B6F03F00203002BEED014E0AD
:1031F000FFF73EF978620AE0FFF73AF902467B6A88
:10320000D31A41F28832934201D9032338E14E4B5D
:103210001B6F03F00203002BEED17B685B6A002B6F
:1032200000F02D81484B1B6903F03803182B00F088
:10323000BD807B685B6A022B40F09E80424B1B681E
:10324000414A23F080731360FFF712F9786208E0B7
:10325000FFF70EF902467B6AD31A022B01D903232A
:103260000EE1394B1B6803F00073002BF0D1364B95
:103270009A6A374B13407A68916A7A68D26A120167
:103280000A43314913438B627B681B6B013BC3F3D9
:1032900008027B685B6B013B5B029BB21A437B6855
:1032A0009B6B013B1B0403F4FE031A437B68DB6B3F
:1032B000013B1B0603F0FE43234913430B63224BE0
:1032C000DB6A214A23F00103D3621F4B5A6B214B67
:1032D00013407A68926CD2001B4913434B631A4B1C
:1032E000DB6A23F00C027B681B6C17491343CB622B
:1032F000154BDB6A23F002027B685B6C12491343B7
:10330000CB62114BDB6A104A43F48033D3620E4B1D
:10331000DB6A0D4A43F40033D3620B4BDB6A0A4A83
:1033200043F48023D362084BDB6A074A43F001036E
:10333000D362054B1B68044A43F080731360FFF7A8
:1033400097F8786211E000BF004402580048025824
:103350000CFCFFFF0700FFFFFFF78AF802467B6ABD
:10336000D31A022B01D903238AE0474B1B6803F0D1
:103370000073002BF0D082E0434B1B68424A23F0DD
:1033800080731360FFF774F8786208E0FFF770F855
:1033900002467B6AD31A022B01D9032370E03A4B11
:1033A0001B6803F00073002BF0D168E0364B9B6A7A
:1033B0003B61354B1B6BFB607B685B6A012B31D03B
:1033C0003B6903F003027B689B6A9A422AD13B69FE
:1033D0001B0903F03F027B68DB6A9A4222D1FB683B
:1033E000C3F308027B681B6B013B9A421AD1FB684E
:1033F0005B0A03F07F027B685B6B013B9A4211D151
:10340000FB681B0C03F07F027B689B6B013B9A42BD
:1034100008D1FB681B0E03F07F027B68DB6B013B6E
:103420009A4201D001232BE0174B5B6BDB08C3F3FF
:103430000C033B617B689B6C3A699A421FD0124B2C
:10344000DB6A114A23F00103D362FFF711F87862B7
:1034500000BFFFF70DF802467B6A9342F9D00A4B92
:103460005A6B0A4B13407A68926CD2000649134398
:103470004B63054BDB6A044A43F00103D36200232C
:1034800018463037BD4680BD004402580700FFFF94
:1034900080B586B000AF786039607B68002B01D1C1
:1034A00001239CE18A4B1B6803F00F033A689A42A0
:1034B00010D9874B1B6823F00F0285493B681343E3
:1034C0000B60834B1B6803F00F033A689A4201D0EC
:1034D000012384E17B681B6803F00403002B10D0F8
:1034E0007B681A697B4B9B6903F070039A4208D989
:1034F000784B9B6923F070027B681B697549134305
:103500008B617B681B6803F00803002B10D07B687D
:103510005A69704BDB6903F070039A4208D96D4B0E
:10352000DB6923F070027B685B696A491343CB61F6
:103530007B681B6803F01003002B10D07B689A692E
:10354000644BDB6903F4E0639A4208D9614BDB69A1
:1035500023F4E0627B689B695E491343CB617B681F
:103560001B6803F02003002B10D07B68DA69594BED
:103570001B6A03F070039A4208D9564B1B6A23F06A
:1035800070027B68DB69534913430B627B681B68DD
:1035900003F00203002B10D07B68DA684D4B9B6967
:1035A00003F00F039A4208D94A4B9B6923F00F029C
:1035B0007B68DB68474913438B617B681B6803F0BA
:1035C0000103002B55D0434B9B6923F470627B6849
:1035D0009B68404913438B617B685B68022B07D172
:1035E0003C4B1B6803F40033002B21D10123F6E090
:1035F0007B685B68032B07D1364B1B6803F00073B5
:10360000002B15D10123EAE07B685B68012B07D111
:10361000304B1B6803F48073002B09D10123DEE0DB
:103620002C4B1B6803F00403002B01D10123D6E0CF
:10363000284B1B6923F007027B685B68254913430D
:103640000B61FEF715FF78610AE0FEF711FF0246F5
:103650007B69D31A41F28832934201D90323BEE039
:103660001C4B1B6903F038027B685B68DB009A42E5
:10367000EBD17B681B6803F00203002B10D07B6842
:10368000DA68144B9B6903F00F039A4208D2114B7E
:103690009B6923F00F027B68DB680E4913438B6143
:1036A0000B4B1B6803F00F033A689A4214D2084B85
:1036B0001B6823F00F0206493B6813430B60044B61
:1036C0001B6803F00F033A689A4205D0012386E095
:1036D00000200052004402587B681B6803F004037A
:1036E000002B10D07B681A693F4B9B6903F0700375
:1036F0009A4208D23C4B9B6923F070027B681B699D
:10370000394913438B617B681B6803F00803002B66
:1037100010D07B685A69344BDB6903F070039A421E
:1037200008D2314BDB6923F070027B685B692E495C
:103730001343CB617B681B6803F01003002B10D090
:103740007B689A69284BDB6903F4E0639A4208D2EC
:10375000254BDB6923F4E0627B689B6922491343B4
:10376000CB617B681B6803F02003002B10D07B68C3
:10377000DA691D4B1B6A03F070039A4208D21A4B98
:103780001B6A23F070027B68DB69174913430B62E5
:1037900000F034F80246144B9B691B0A03F00F0338
:1037A0001249CB5C03F01F0322FA03F33B610E4B7B
:1037B0009B6903F00F030D4AD35C03F01F033A69C2
:1037C00022FA03F30A4A13600A4A3B6913600A4B60
:1037D0001B681846FEF702FE0346FB73FB7B184688
:1037E0001837BD4680BD00BF0044025894A50008AC
:1037F00004000024000000240800002480B489B0E4
:1038000000AFB34B1B6903F03803182B00F255814E
:1038100001A252F823F000BF7D380008BB3A00082F
:10382000BB3A0008BB3A0008BB3A0008BB3A0008A4
:10383000BB3A0008BB3A0008A3380008BB3A0008AE
:10384000BB3A0008BB3A0008BB3A0008BB3A000884
:10385000BB3A0008BB3A0008A9380008BB3A000888
:10386000BB3A0008BB3A0008BB3A0008BB3A000864
:10387000BB3A0008BB3A0008AF380008944B1B68FD
:1038800003F02003002B09D0914B1B68DB0803F0E9
:103890000303904A22FA03F3BB6111E18D4BBB6134
:1038A0000EE18D4BBB610BE18C4BBB6108E1884B9A
:1038B0009B6A03F003037B61854B9B6A1B0903F042
:1038C0003F033B61824BDB6A03F00103FB60804BEB
:1038D0005B6BDB08C3F30C03FA6802FB03F307EE30
:1038E000903AF8EE677AC7ED027A3B69002B00F058
:1038F000E1807B69022B00F083807B69022B00F260
:10390000A1807B69002B03D07B69012B56D099E005
:103910006F4B1B6803F02003002B2DD06C4B1B68F2
:10392000DB0803F003036B4A22FA03F37B607B6836
:1039300007EE903AF8EE676A3B6907EE903AF8EEC8
:10394000677A86EEA77A624B1B6BC3F3080307EE18
:10395000903AF8EE676A97ED026ADFED615AC6EEBB
:10396000257A76EEA77AF7EE006A77EEA67A67EE0A
:10397000277AC7ED077A87E03B6907EE903AF8EEC1
:10398000677ADFED586A86EEA77A514B1B6BC3F35B
:10399000080307EE903AF8EE676A97ED026ADFEDEA
:1039A000505AC6EE257A76EEA77AF7EE006A77EEE1
:1039B000A67A67EE277AC7ED077A65E03B6907EEDE
:1039C000903AF8EE677ADFED486A86EEA77A404BC8
:1039D0001B6BC3F3080307EE903AF8EE676A97EDA6
:1039E000026ADFED3F5AC6EE257A76EEA77AF7EE49
:1039F000006A77EEA67A67EE277AC7ED077A43E08A
:103A00003B6907EE903AF8EE677ADFED386A86EEAA
:103A1000A77A2F4B1B6BC3F3080307EE903AF8EE1F
:103A2000676A97ED026ADFED2E5AC6EE257A76EECA
:103A3000A77AF7EE006A77EEA67A67EE277AC7EDE7
:103A4000077A21E03B6907EE903AF8EE677ADFEDFE
:103A5000266A86EEA77A1E4B1B6BC3F3080307EE9C
:103A6000903AF8EE676A97ED026ADFED1D5AC6EEEE
:103A7000257A76EEA77AF7EE006A77EEA67A67EEF9
:103A8000277AC7ED077A00BF114B1B6B5B0A03F067
:103A90007F0301333B603B6807EE903AB8EE677AEC
:103AA000D7ED076AC6EE877AFCEEE77A17EE903A12
:103AB000BB6105E00023BB6102E0074BBB6100BFB7
:103AC000BB6918462437BD465DF8047B704700BFCC
:103AD000004402580090D00300093D0040787D0169
:103AE000000000460024744C0024744A20BCBE4BE5
:103AF00080B582B000AFFFF781FE0246104B9B6994
:103B00001B0A03F00F030F49CB5C03F01F0322FADB
:103B100003F37B600A4B9B6903F00F03094AD35CF4
:103B200003F01F037A6822FA03F3074A1360074A77
:103B30007B681360044B1B6818460837BD4680BD80
:103B40000044025894A5000804000024000000244A
:103B500080B500AFFFF7CCFF0246064BDB691B09BF
:103B600003F007030449CB5C03F01F0322FA03F3BD
:103B7000184680BD0044025894A5000880B500AFE7
:103B8000FFF7B6FF0246064BDB691B0A03F007038B
:103B90000449CB5C03F01F0322FA03F3184680BDEF
:103BA0000044025894A500082DE9B04FCAB000AFF8
:103BB000C7F81401002387F82731002387F826313E
:103BC000D7F81431D3E9002302F00064002554EA49
:103BD000050349D0D7F814319B6EB3F5401F2FD0A1
:103BE000B3F5401F28D8B3F5001F1AD0B3F5001F56
:103BF00022D8002B03D0B3F5801F07D01CE0B84BB0
:103C0000DB6AB74A43F40033D3621AE0D7F81431C1
:103C100008330221184601F08FFC034687F827314C
:103C20000FE0D7F8143128330221184601F036FD91
:103C3000034687F8273104E0012387F8273100E0A5
:103C400000BF97F82731002B0AD1A54B1B6D23F439
:103C50004011D7F814319B6EA14A0B43136503E062
:103C600097F8273187F82631D7F81431D3E90023A4
:103C700002F480784FF0000958EA090347D0D7F8DA
:103C800014319B6D042B2AD801A252F823F000BFF7
:103C9000A53C0008B33C0008C93C0008E73C00080C
:103CA000E73C00088E4BDB6A8D4A43F40033D36255
:103CB0001AE0D7F8143108330021184601F03CFC13
:103CC000034687F827310FE0D7F814312833002155
:103CD000184601F0E3FC034687F8273104E001238E
:103CE00087F8273100E000BF97F82731002B0AD171
:103CF0007B4B1B6D23F00701D7F814319B6D784A7D
:103D00000B43136503E097F8273187F82631D7F87E
:103D10001431D3E9002302F4007A4FF0000B5AEA81
:103D20000B034CD0D7F81431DB6DB3F5807F30D066
:103D3000B3F5807F29D8C02B2DD0C02B25D8802B60
:103D400018D0802B21D8002B02D0402B07D01CE0AC
:103D5000634BDB6A624A43F40033D3621CE0D7F85A
:103D6000143108330021184601F0E6FB034687F8BA
:103D7000273111E0D7F8143128330021184601F01B
:103D80008DFC034687F8273106E0012387F82731A9
:103D900002E000BF00E000BF97F82731002B0AD1F6
:103DA0004F4B1B6D23F4E071D7F81431DB6D4C4A97
:103DB0000B43136503E097F8273187F82631D7F8CE
:103DC0001431D3E9002302F48063C7F808310023DB
:103DD000C7F80C31D7E942120B46134353D0D7F83A
:103DE0001431D3F8A830B3F5000F35D0B3F5000F78
:103DF0002ED8B3F5C00F31D0B3F5C00F28D8B3F526
:103E0000800F1AD0B3F5800F22D8002B03D0B3F562
:103E1000001F07D01CE0324BDB6A314A43F4003309
:103E2000D3621CE0D7F8143108330021184601F0A2
:103E300083FB034687F8273111E0D7F81431283384
:103E40000021184601F02AFC034687F8273106E0D6
:103E5000012387F8273102E000BF00E000BF97F898
:103E60002731002B0BD11E4B9B6D23F46001D7F83B
:103E70001431D3F8A8301A4A0B43936503E097F83E
:103E8000273187F82631D7F81431D3E9002302F41B
:103E90000063C7F800310023C7F80431D7E94012A6
:103EA0000B46134356D0D7F81431D3F8AC30B3F1E6
:103EB000806F38D0B3F1806F31D8B3F1407F34D008
:103EC000B3F1407F2BD8B3F1007F1DD0B3F1007F59
:103ED00025D8002B06D0B3F1807F0AD01FE000BFA9
:103EE00000440258A24BDB6AA14A43F40033D36278
:103EF0001CE0D7F8143108330021184601F01CFBF0
:103F0000034687F8273111E0D7F814312833002110
:103F1000184601F0C3FB034687F8273106E001236A
:103F200087F8273102E000BF00E000BF97F8273193
:103F3000002B0BD18E4B9B6D23F0E061D7F8143131
:103F4000D3F8AC308A4A0B43936503E097F82731E6
:103F500087F82631D7F81431D3E9002302F0007333
:103F6000C7F8F8300023C7F8FC30D7E93E120B46FB
:103F700013433AD0D7F81431DB6C302B1FD0302BE1
:103F800019D8202B0CD0202B15D8002B19D0102B92
:103F900011D1774BDB6A764A43F40033D36211E0E8
:103FA000D7F8143108330221184601F0C5FA034648
:103FB00087F8273106E0012387F8273102E000BFA8
:103FC00000E000BF97F82731002B0AD1684BDB6C6B
:103FD00023F03001D7F81431DB6C654A0B43D3640E
:103FE00003E097F8273187F82631D7F81431D3E961
:103FF000002302F48053C7F8F0300023C7F8F430F0
:10400000D7E93C120B46134351D0D7F814311B6E3D
:10401000B3F5804F35D0B3F5804F2ED8B3F5405F60
:1040200031D0B3F5405F28D8B3F5005F1AD0B3F5AF
:10403000005F22D8002B03D0B3F5805F07D01CE0CF
:104040004B4BDB6A4A4A43F40033D3621CE0D7F897
:10405000143108330021184601F06EFA034687F840
:10406000273111E0D7F8143128330021184601F028
:1040700015FB034687F8273106E0012387F827312F
:1040800002E000BF00E000BF97F82731002B0AD103
:10409000374B1B6D23F4E041D7F814311B6E344AC3
:1040A0000B43136503E097F8273187F82631D7F8DB
:1040B0001431D3E9002302F40053C7F8E830002399
:1040C000C7F8EC30D7E93A120B46134356D0D7F86D
:1040D00014315B6EB3F5A02F33D0B3F5A02F2CD8DD
:1040E000B3F5802F2FD0B3F5802F26D8B3F5403FFE
:1040F0002BD0B3F5403F20D8B3F5003F12D0B3F535
:10410000003F1AD8002B22D0B3F5803F15D1D7F845
:10411000143108330121184601F00EFA034687F8DE
:10412000273115E0D7F8143128330121184601F062
:10413000B5FA034687F827310AE0012387F82731CB
:1041400006E000BF04E000BF02E000BF00E000BFE7
:1041500097F82731002B0DD1054B1B6D23F4E0217F
:10416000D7F814315B6E024A0B43136506E000BFBB
:104170000044025897F8273187F82631D7F81431D0
:10418000D3E9002302F48043C7F8E0300023C7F8E6
:10419000E430D7E938120B46134355D0D7F8143121
:1041A000D3F8B030B3F1A04F33D0B3F1A04F2CD837
:1041B000B3F1804F2FD0B3F1804F26D8B3F1405FD9
:1041C0002BD0B3F1405F20D8B3F1005F12D0B3F130
:1041D000005F1AD8002B22D0B3F1805F15D1D7F839
:1041E000143108330121184601F0A6F9034687F877
:1041F000273115E0D7F8143128330121184601F092
:104200004DFA034687F827310AE0012387F8273162
:1042100006E000BF04E000BF02E000BF00E000BF16
:1042200097F82731002B0BD1A34B9B6D23F0E04176
:10423000D7F81431D3F8B0309F4A0B43936503E0AD
:1042400097F8273187F82631D7F81431D3E90023BE
:1042500002F40043C7F8D8300023C7F8DC30D7E9B0
:1042600036120B46134337D0D7F814311B6FB3F116
:10427000005F0ED0B3F1005F16D8002B18D0B3F159
:10428000805F11D18C4BDB6A8B4A43F40033D362DD
:104290000FE0D7F8143108330121184601F04CF92A
:1042A000034687F8273104E0012387F8273100E02F
:1042B00000BF97F82731002B0AD17F4B1B6D23F0ED
:1042C0004051D7F814311B6F7B4A0B43136503E051
:1042D00097F8273187F82631D7F81431D3E900232E
:1042E00002F08073C7F8D0300023C7F8D430D7E984
:1042F00034120B46134339D0D7F814319B6C032B7F
:104300001CD801A252F823F04543000819430008C5
:104310002743000845430008674BDB6A664A43F4BD
:104320000033D3620FE0D7F8143108330221184666
:1043300001F002F9034687F8273104E0012387F8EA
:10434000273100E000BF97F82731002B0AD15A4BE4
:10435000DB6C23F00301D7F814319B6C564A0B43F6
:10436000D36403E097F8273187F82631D7F8143162
:10437000D3E9002302F48003C7F8C8300023C7F84C
:10438000CC30D7E932120B46134300F09F804B4BE1
:104390001B684A4A43F480731360FEF769F8C7F854
:1043A00020010BE0FEF764F80246D7F82031D31A5B
:1043B000642B03D9032387F8273105E03F4B1B68A3
:1043C00003F48073002BEDD097F82731002B79D1BF
:1043D000394B1A6FD7F81431D3F8B430534003F483
:1043E0004073002B15D0344B1B6F23F44073C7F878
:1043F0001C31314B1B6F304A43F4803313672E4B13
:104400001B6F2D4A23F4803313672B4AD7F81C31D6
:104410001367D7F81431D3F8B430B3F5807F18D1CF
:10442000FEF726F8C7F820010DE0FEF721F8024656
:10443000D7F82031D21A41F288339A4203D90323A4
:1044400087F8273105E01C4B1B6F03F00203002B9C
:10445000EBD097F82731002B29D1D7F81431D3F8B6
:10446000B43003F44073B3F5407F0ED1124B1B6997
:1044700023F47C51D7F81431D3F8B4301A09104B17
:1044800013400D4A0B43136105E00B4B1B690A4AAD
:1044900023F47C531361084B196FD7F81431D3F808
:1044A000B430C3F30B03044A0B4313670EE097F8D1
:1044B000273187F8263109E00044025800480258A5
:1044C000CFFFFF0097F8273187F82631D7F814314E
:1044D000D3E9002302F00103C7F8C0300023C7F876
:1044E000C430D7E930120B46134300F08980D7F867
:1044F0001431DB6F282B6BD801A252F823F000BFD8
:10450000D9450008D1450008D1450008D14500082B
:10451000D1450008D1450008D1450008D145000823
:10452000A5450008D1450008D1450008D14500083F
:10453000D1450008D1450008D1450008D145000803
:10454000BB450008D1450008D1450008D145000809
:10455000D1450008D1450008D1450008D1450008E3
:10456000D9450008D1450008D1450008D1450008CB
:10457000D1450008D1450008D1450008D1450008C3
:10458000D9450008D1450008D1450008D1450008AB
:10459000D1450008D1450008D1450008D1450008A3
:1045A000D9450008D7F8143108330121184600F026
:1045B000C3FF034687F827310FE0D7F814312833BB
:1045C0000121184601F06AF8034687F8273104E014
:1045D000012387F8273100E000BF97F82731002B2F
:1045E0000AD1BF4B5B6D23F03801D7F81431DB6F74
:1045F000BB4A0B43536503E097F8273187F8263110
:10460000D7F81431D3E9002302F00203C7F8B83019
:104610000023C7F8BC30D7E92E120B46134341D014
:10462000D7F814319B6F052B24D801A252F823F040
:104630007D460008494600085F4600087D460008A0
:104640007D4600087D460008D7F814310833012163
:10465000184600F071FF034687F827310FE0D7F8BE
:10466000143128330121184601F018F8034687F861
:10467000273104E0012387F8273100E000BF97F8D5
:104680002731002B0AD1964B5B6D23F00701D7F839
:1046900014319B6F924A0B43536503E097F827311F
:1046A00087F82631D7F81431D3E9002302F0040348
:1046B000C7F8B0300023C7F8B430D7E92C120B4646
:1046C000134344D0D7F81431D3F89430052B25D8B0
:1046D00001A252F823F000BF25470008F146000868
:1046E0000747000825470008254700082547000818
:1046F000D7F8143108330121184600F01DFF034696
:1047000087F827310FE0D7F81431283301211846F4
:1047100000F0C4FF034687F8273104E0012387F83F
:10472000273100E000BF97F82731002B0BD16C4BED
:104730009B6D23F00701D7F81431D3F89430684A01
:104740000B43936503E097F8273187F82631D7F8B4
:104750001431D3E9002302F02003C7F8A830002366
:10476000C7F8AC30D7E92A120B46134355D0D7F817
:104770001431D3F89030B3F1A04F33D0B3F1A04F40
:104780002CD8B3F1804F2FD0B3F1804F26D8B3F19E
:10479000405F2BD0B3F1405F20D8B3F1005F12D05F
:1047A000B3F1005F1AD8002B22D0B3F1805F15D18E
:1047B000D7F8143108330021184600F0BDFE034637
:1047C00087F8273115E0D7F814312833022118462D
:1047D00000F064FF034687F827310AE0012387F8D9
:1047E000273106E000BF04E000BF02E000BF00E0A8
:1047F00000BF97F82731002B0BD1394B5B6D23F0AD
:10480000E041D7F81431D3F89030354A0B43536563
:1048100003E097F8273187F82631D7F81431D3E928
:10482000002302F04003C7F8A0300023C7F8A430EB
:10483000D7E928120B46134358D0D7F81431D3F8D0
:104840009C30B3F5A05F33D0B3F5A05F2CD8B3F59F
:10485000805F2FD0B3F5805F26D8B3F5406F2BD0A3
:10486000B3F5406F20D8B3F5006F12D0B3F5006FE9
:104870001AD8002B22D0B3F5806F15D1D7F8143198
:1048800008330021184600F057FE034687F8273109
:1048900015E0D7F8143128330221184600F0FEFE47
:1048A000034687F827310AE0012387F8273106E01D
:1048B00000BF04E000BF02E000BF00E000BF97F8C7
:1048C0002731002B0ED1064B9B6D23F4E051D7F816
:1048D0001431D3F89C30024A0B43936506E000BFC5
:1048E0000044025897F8273187F82631D7F8143159
:1048F000D3E9002302F08003C7F898300023C7F8FB
:104900009C30D7E926120B46134355D0D7F8143103
:10491000D3F8A030B3F5204F33D0B3F5204F2CD8C7
:10492000B3F5004F2FD0B3F5004F26D8B3F5C04FE5
:104930002BD0B3F5C04F20D8B3F5804F12D0B3F5CC
:10494000804F1AD8002B22D0B3F5005F15D1D7F8CD
:10495000143108330021184600F0EEFD034687F8B5
:10496000273115E0D7F8143128330221184600F01A
:1049700095FE034687F827310AE0012387F827319F
:1049800006E000BF04E000BF02E000BF00E000BF9F
:1049900097F82731002B0BD1A14B9B6D23F460417D
:1049A000D7F81431D3F8A0309D4A0B43936503E048
:1049B00097F8273187F82631D7F81431D3E9002347
:1049C00002F00803C7F890300023C7F89430D7E905
:1049D00024120B4613431ED0D7F81431D3F8843079
:1049E000B3F5805F0CD1D7F8143128330221184673
:1049F00000F054FE0346002B02D0012387F8263135
:104A0000874B5B6D23F44051D7F81431D3F88430D1
:104A1000834A0B435365D7F81431D3E9002302F0DE
:104A20001003C7F888300023C7F88C30D7E922126A
:104A30000B4613431ED0D7F81431D3F89830B3F592
:104A4000807F0CD1D7F8143128330221184600F0AA
:104A500025FE0346002B02D0012387F82631704B38
:104A60009B6D23F44071D7F81431D3F898306C4A19
:104A70000B439365D7F81431D3E9002302F40023E4
:104A8000C7F880300023C7F88430D7E920120B46DE
:104A900013433ED0D7F81431D3F8A430B3F5003F18
:104AA00022D0B3F5003F1BD8002B03D0B3F5803FD5
:104AB0000BD015E0D7F8143108330021184600F068
:104AC0003BFD034687F827310FE0D7F81431283330
:104AD0000221184600F0E2FD034687F8273104E082
:104AE000012387F8273100E000BF97F82731002B1A
:104AF0000BD14B4B9B6D23F44031D7F81431D3F8D5
:104B0000A430474A0B43936503E097F8273187F8B1
:104B10002631D7F81431D3E9002302F48023BB6790
:104B20000023FB67D7E91E120B4613433BD0D7F88F
:104B30001431D3F88830B3F5401F1FD0B3F5401FB0
:104B400018D8B3F5801F03D0B3F5001F07D011E0CC
:104B5000334BDB6A324A43F40033D3620FE0D7F8B9
:104B6000143128330121184600F098FD034687F8D8
:104B7000273104E0012387F8273100E000BF97F8D0
:104B80002731002B0BD1264B5B6D23F44011D7F856
:104B90001431D3F88830224A0B43536503E097F869
:104BA000273187F82631D7F81431D3E9002302F4EE
:104BB00080333B6700237B67D7E91C120B46134306
:104BC00034D0D7F814311B6D002B03D0B3F5803FE0
:104BD00007D011E0124BDB6A114A43F40033D36271
:104BE0000EE0D7F8143108330221184600F0A4FC77
:104BF000034687F8273103E0012387F8273100BFF8
:104C000097F82731002B0DD1054BDB6C23F4803155
:104C1000D7F814311B6D024A0B43D36406E000BF82
:104C20000044025897F8273187F82631D7F8143115
:104C3000D3E9002302F00053BB660023FB66D7E9EB
:104C40001A120B4613430CD0D7F814312833022123
:104C5000184600F023FD0346002B02D0012387F8FD
:104C60002631D7F81431D3E9002302F400333B6630
:104C700000237B66D7E918120B46134338D0D7F8C8
:104C80001431D3F88030B3F5407F18D0B3F5407FAE
:104C900011D8B3F5007F14D0B3F5007F0BD8002BEB
:104CA00011D0B3F5807F06D1C34BDB6AC24A43F40F
:104CB0000033D36208E0012387F8273104E000BF06
:104CC00002E000BF00E000BF97F82731002B0BD1B6
:104CD000B94B5B6D23F44071D7F81431D3F88030B1
:104CE000B54A0B43536503E097F8273187F826311F
:104CF000D7F81431D3E9002302F48013BB650023F5
:104D0000FB65D7E916120B46134309D0AA4B1B6D5E
:104D100023F00041D7F814315B6FA74A0B431365AA
:104D2000D7F81431D3E9002302F080533B65002308
:104D30007B65D7E914120B4613430AD09E4B1B69BF
:104D400023F48041D7F81431D3F8B8309A4A0B4392
:104D50001361D7F81431D3E9002302F40013BB64C4
:104D60000023FB64D7E912120B46134309D0924B80
:104D70001B6D23F08071D7F81431DB6E8E4A0B4324
:104D80001365D7F81431D3E9002302F080433B6464
:104D900000237B64D7E910120B4613430ED0864BD9
:104DA0001B69854A23F400431361834B1969D7F8C3
:104DB0001431D3F8BC30804A0B431361D7F8143157
:104DC000D3E9002302F00043BB630023FB63D7E970
:104DD0000E120B46134309D0774BDB6C23F0405186
:104DE000D7F814315B6D744A0B43D364D7F8143190
:104DF000D3E9002302F400033B6300237B63D7E97C
:104E00000C120B4613430AD06B4B5B6D23F440012D
:104E1000D7F81431D3F88C30674A0B435365D7F871
:104E20001431D3E900230021B96203F00103FB62CE
:104E3000D7E90A120B46134311D0D7F814310833BF
:104E40000021184600F078FB034687F8273197F8D1
:104E50002731002B03D097F8273187F82631D7F870
:104E60001431D3E900230021396203F002037B628D
:104E7000D7E908120B46134311D0D7F81431083381
:104E80000121184600F058FB034687F8273197F8B0
:104E90002731002B03D097F8273187F82631D7F830
:104EA0001431D3E900230021B96103F00403FB614D
:104EB000D7E906120B46134311D0D7F81431083343
:104EC0000221184600F038FB034687F8273197F88F
:104ED0002731002B03D097F8273187F82631D7F8F0
:104EE0001431D3E900230021396103F008037B6109
:104EF000D7E904120B46134311D0D7F814312833E5
:104F00000021184600F0CAFB034687F8273197F8BE
:104F10002731002B03D097F8273187F82631D7F8AF
:104F20001431D3E900230021B96003F01003FB60C2
:104F3000D7E902120B46134311D0D7F814312833A6
:104F40000121184600F0AAFB034687F8273197F89D
:104F50002731002B03D097F8273187F82631D7F86F
:104F60001431D3E900230021396003F020037B6072
:104F7000D7E900120B46134311D0D7F81431283368
:104F80000221184600F08AFB034687F8273197F87C
:104F90002731002B03D097F8273187F8263197F86F
:104FA0002631002B01D1002300E00123184607F52C
:104FB0009477BD46BDE8B08F0044025880B500AF7D
:104FC000FEF796FD0246064B1B6A1B0903F007031A
:104FD0000449CB5C03F01F0322FA03F3184680BD9B
:104FE0000044025894A5000880B489B000AF7860EE
:104FF000A14B9B6A03F00303BB619F4B9B6A1B0B96
:1050000003F03F037B619C4BDB6A1B0903F0010348
:105010003B61994BDB6BDB08C3F30C033A6902FB82
:1050200003F307EE903AF8EE677AC7ED037A7B69EF
:10503000002B00F01181BB69022B00F08380BB695B
:10504000022B00F2A180BB69002B03D0BB69012BAE
:1050500056D099E0884B1B6803F02003002B2DD01D
:10506000854B1B68DB0803F00303844A22FA03F331
:10507000BB60BB6807EE903AF8EE676A7B6907EEA3
:10508000903AF8EE677A86EEA77A7B4B9B6BC3F378
:10509000080307EE903AF8EE676A97ED036ADFEDD2
:1050A000785AC6EE257A76EEA77AF7EE006A77EEA2
:1050B000A67A67EE277AC7ED077A87E07B6907EE65
:1050C000903AF8EE677ADFED6F6A86EEA77A6A4B60
:1050D0009B6BC3F3080307EE903AF8EE676A97ED0F
:1050E000036ADFED675AC6EE257A76EEA77AF7EE09
:1050F000006A77EEA67A67EE277AC7ED077A65E051
:105100007B6907EE903AF8EE677ADFED5F6A86EE2C
:10511000A77A594B9B6BC3F3080307EE903AF8EE5E
:10512000676A97ED036ADFED565AC6EE257A76EE8A
:10513000A77AF7EE006A77EEA67A67EE277AC7EDD0
:10514000077A43E07B6907EE903AF8EE677ADFED85
:105150004F6A86EEA77A484B9B6BC3F3080307EEB2
:10516000903AF8EE676A97ED036ADFED455AC6EEAE
:10517000257A76EEA77AF7EE006A77EEA67A67EEE2
:10518000277AC7ED077A21E07B6907EE903AF8EEBF
:10519000677ADFED3D6A86EEA77A374B9B6BC3F3E8
:1051A000080307EE903AF8EE676A97ED036ADFEDC1
:1051B000345AC6EE257A76EEA77AF7EE006A77EED5
:1051C000A67A67EE277AC7ED077A00BF2A4B9B6B5A
:1051D0005B0A03F07F0307EE903AF8EE677AB7EECA
:1051E000007A37EE877AD7ED076AC6EE877AFCEE4B
:1051F000E77A17EE902A7B681A601F4B9B6B1B0C9B
:1052000003F07F0307EE903AF8EE677AB7EE007A84
:1052100037EE877AD7ED076AC6EE877AFCEEE77A33
:1052200017EE902A7B685A60134B9B6B1B0E03F0A2
:105230007F0307EE903AF8EE677AB7EE007A37EE22
:10524000877AD7ED076AC6EE877AFCEEE77A17EE23
:10525000902A7B689A6008E07B6800221A607B686D
:1052600000225A607B6800229A6000BF2437BD4646
:105270005DF8047B704700BF004402580090D003E3
:10528000000000460024744C0024744A20BCBE4B2D
:1052900080B489B000AF7860A14B9B6A03F0030330
:1052A000BB619F4B9B6A1B0D03F03F037B619C4BD3
:1052B000DB6A1B0A03F001033B61994B5B6CDB0863
:1052C000C3F30C033A6902FB03F307EE903AF8EEDE
:1052D000677AC7ED037A7B69002B00F01181BB6907
:1052E000022B00F08380BB69022B00F2A180BB6916
:1052F000002B03D0BB69012B56D099E0884B1B686B
:1053000003F02003002B2DD0854B1B68DB0803F036
:105310000303844A22FA03F3BB60BB6807EE903AAA
:10532000F8EE676A7B6907EE903AF8EE677A86EEE8
:10533000A77A7B4B1B6CC3F3080307EE903AF8EE99
:10534000676A97ED036ADFED785AC6EE257A76EE46
:10535000A77AF7EE006A77EEA67A67EE277AC7EDAE
:10536000077A87E07B6907EE903AF8EE677ADFED1F
:105370006F6A86EEA77A6A4B1B6CC3F3080307EECD
:10538000903AF8EE676A97ED036ADFED675AC6EE6A
:10539000257A76EEA77AF7EE006A77EEA67A67EEC0
:1053A000277AC7ED077A65E07B6907EE903AF8EE59
:1053B000677ADFED5F6A86EEA77A594B1B6CC3F301
:1053C000080307EE903AF8EE676A97ED036ADFED9F
:1053D000565AC6EE257A76EEA77AF7EE006A77EE91
:1053E000A67A67EE277AC7ED077A43E07B6907EE76
:1053F000903AF8EE677ADFED4F6A86EEA77A484B6F
:105400001B6CC3F3080307EE903AF8EE676A97ED5A
:10541000036ADFED455AC6EE257A76EEA77AF7EEF7
:10542000006A77EEA67A67EE277AC7ED077A21E061
:105430007B6907EE903AF8EE677ADFED3D6A86EE1B
:10544000A77A374B1B6CC3F3080307EE903AF8EECC
:10545000676A97ED036ADFED345AC6EE257A76EE79
:10546000A77AF7EE006A77EEA67A67EE277AC7ED9D
:10547000077A00BF2A4B1B6C5B0A03F07F0307EE21
:10548000903AF8EE677AB7EE007A37EE877AD7ED82
:10549000076AC6EE877AFCEEE77A17EE902A7B68F9
:1054A0001A601F4B1B6C1B0C03F07F0307EE903A36
:1054B000F8EE677AB7EE007A37EE877AD7ED076AAB
:1054C000C6EE877AFCEEE77A17EE902A7B685A6080
:1054D000134B1B6C1B0E03F07F0307EE903AF8EEA4
:1054E000677AB7EE007A37EE877AD7ED076AC6EEAD
:1054F000877AFCEEE77A17EE902A7B689A6008E0DC
:105500007B6800221A607B6800225A607B68002258
:105510009A6000BF2437BD465DF8047B704700BF2A
:10552000004402580090D003000000460024744C50
:105530000024744A20BCBE4B80B584B000AF7860B4
:1055400039600023FB73534B9B6A03F00303032B67
:1055500001D1012399E04F4B1B684E4A23F0806331
:105560001360FCF785FFB86008E0FCF781FF024696
:10557000BB68D31A022B01D9032386E0454B1B6875
:1055800003F00063002BF0D1424B9B6A23F47C3282
:105590007B681B681B033F4913438B627B685B6816
:1055A000013BC3F308027B689B68013B5B029BB233
:1055B0001A437B68DB68013B1B0403F4FE031A43B8
:1055C0007B681B69013B1B0603F0FE433149134313
:1055D0008B63304BDB6A23F0C0027B685B692D492B
:1055E0001343CB622B4BDB6A23F020027B689B6961
:1055F00028491343CB62274BDB6A264A23F010036A
:10560000D362244BDA6B244B13407A68D269D20000
:1056100020491343CB631F4BDB6A1E4A43F0100340
:10562000D3623B68002B06D11A4BDB6A194A43F45C
:105630000023D3620FE03B68012B06D1154BDB6AD8
:10564000144A43F48013D36205E0124BDB6A114A1B
:1056500043F40013D3620F4B1B680E4A43F0806380
:105660001360FCF705FFB86008E0FCF701FF024695
:10567000BB68D31A022B01D9032306E0054B1B6834
:1056800003F00063002BF0D0FB7B18461037BD46BB
:1056900080BD00BF004402580700FFFF80B584B002
:1056A00000AF786039600023FB73534B9B6A03F0B3
:1056B0000303032B01D1012399E04F4B1B684E4A92
:1056C00023F080531360FCF7D3FEB86008E0FCF7CA
:1056D000CFFE0246BB68D31A022B01D9032386E012
:1056E000454B1B6803F00053002BF0D1424B9B6AE3
:1056F00023F07C727B681B681B053F4913438B6258
:105700007B685B68013BC3F308027B689B68013BD5
:105710005B029BB21A437B68DB68013B1B0403F40A
:10572000FE031A437B681B69013B1B0603F0FE4323
:10573000314913430B64304BDB6A23F440627B68CE
:105740005B692D491343CB622B4BDB6A23F4007258
:105750007B689B6928491343CB62274BDB6A264A47
:1057600023F48073D362244B5A6C244B13407A6821
:10577000D269D200204913434B641F4BDB6A1E4A97
:1057800043F48073D3623B68002B06D11A4BDB6A6B
:10579000194A43F48003D3620FE03B68012B06D122
:1057A000154BDB6A144A43F40003D36205E0124B45
:1057B000DB6A114A43F08073D3620F4B1B680E4AB9
:1057C00043F080531360FCF753FEB86008E0FCF729
:1057D0004FFE0246BB68D31A022B01D9032306E011
:1057E000054B1B6803F00053002BF0D0FB7B1846E1
:1057F0001037BD4680BD00BF004402580700FFFFC0
:1058000080B582B000AF78607B68002B01D10123A6
:1058100049E07B6893F83D30DBB2002B06D17B6812
:10582000002283F83C207868FCF7CCFA7B680222DF
:1058300083F83D207B681A687B680433194610465C
:1058400000F08CFB7B68012283F848207B680122F2
:1058500083F83E207B68012283F83F207B68012289
:1058600083F840207B68012283F841207B68012275
:1058700083F842207B68012283F843207B68012261
:1058800083F844207B68012283F845207B6801224D
:1058900083F846207B68012283F847207B68012239
:1058A00083F83D20002318460837BD4680BD000020
:1058B00080B584B000AF786039603B68002B09D1B7
:1058C0007B6893F83E30DBB2012B14BF0123002329
:1058D000DBB23CE03B68042B09D17B6893F83F3096
:1058E000DBB2012B14BF01230023DBB22FE03B68A6
:1058F000082B09D17B6893F84030DBB2012B14BF31
:1059000001230023DBB222E03B680C2B09D17B682A
:1059100093F84130DBB2012B14BF01230023DBB22B
:1059200015E03B68102B09D17B6893F84230DBB25D
:10593000012B14BF01230023DBB208E07B6893F83E
:105940004330DBB2012B14BF01230023DBB2002B59
:1059500001D00123A1E03B68002B04D17B68022227
:1059600083F83E2023E03B68042B04D17B680222AD
:1059700083F83F201BE03B68082B04D17B680222A0
:1059800083F8402013E03B680C2B04D17B68022293
:1059900083F841200BE03B68102B04D17B68022286
:1059A00083F8422003E07B68022283F843207B686F
:1059B0001B6801223968184600F04CFE7B681B68A2
:1059C000384A934213D07B681B68374A93420ED003
:1059D0007B681B68354A934209D07B681B68344A50
:1059E000934204D07B681B68324A934201D1012361
:1059F00000E00023002B07D07B681B685A6C7B6893
:105A00001B6842F400425A647B681B68254A934233
:105A100022D07B681B68B3F1804F1DD07B681B6868
:105A2000254A934218D07B681B68244A934213D0BE
:105A30007B681B68224A93420ED07B681B681A4A17
:105A4000934209D07B681B681E4A934204D07B684E
:105A50001B68164A934215D17B681B689A681A4BDB
:105A60001340FB60FB68062B15D0FB68B3F5803F45
:105A700011D07B681B681A687B681B6842F00102C2
:105A80001A6008E07B681B681A687B681B6842F034
:105A900001021A6000E000BF002318461037BD461F
:105AA00080BD00BF000001400004014000400140F3
:105AB000004401400048014000040040000800404C
:105AC000000C0040001800400700010080B586B0BF
:105AD00000AF786039607B68002B01D101238FE033
