:020000040800F2
:100000000000082409130008C50E0008CD0E0008E2
:10001000D50E0008DD0E0008E50E00080000000007
:10002000000000000000000000000000ED0E0008CD
:10003000FB0E000800000000090F0008170F000861
:1000400059130008591300085913000859130008E0
:1000500059130008591300085913000859130008D0
:1000600059130008591300085913000859130008C0
:1000700059130008591300085913000859130008B0
:1000800059130008591300085913000859130008A0
:100090005913000859130008591300085913000890
:1000A0005913000859130008591300085913000880
:1000B0005913000859130008591300085913000870
:1000C0005913000859130008591300085913000860
:1000D0005913000859130008591300085913000850
:1000E00059130008591300080000000059130008B4
:1000F0005913000859130008591300085913000830
:10010000591300085913000859130008591300081F
:10011000591300085913000859130008591300080F
:1001200059130008591300085913000859130008FF
:1001300059130008591300085913000859130008EF
:1001400000000000000000000000000000000000AF
:1001500059130008591300085913000859130008CF
:1001600059130008591300085913000859130008BF
:100170005913000859130008591300080000000023
:10018000591300085913000859130008591300089F
:10019000591300085913000859130008591300088F
:1001A000591300085913000859130008591300087F
:1001B000591300085913000859130008591300086F
:1001C000591300085913000859130008591300085F
:1001D00059130008250F0008591300085913000887
:1001E000591300085913000859130008591300083F
:1001F000591300085913000859130008591300082F
:10020000591300085913000859130008591300081E
:10021000591300085913000859130008591300080E
:100220005913000859130008591300080000000072
:100230005913000859130008000000005913000862
:1002400059130008591300085913000859130008DE
:1002500059130008591300085913000859130008CE
:1002600059130008591300085913000859130008BE
:100270005913000859130008591300080000000022
:100280005913000859130008591300080000000012
:080290000000000059130008F2
:1002A00010B5054C237833B9044B13B10448AFF3B0
:1002B00000800123237010BDF8010024000000001D
:1002C000A0EC000808B5034B1BB103490348AFF38A
:1002D000008008BD00000000FC010024A0EC000824
:1002E00001F0FF01102A2BDB10F0070F08D010F8E7
:1002F000013B013A8B422DD010F0070F42B3F6D1EB
:10030000F0B441EA012141EA014122F007047FF003
:1003100000070023F0E80256083C85EA010586EA5A
:10032000010685FA47F5A3FA87F586FA47F6A5FA96
:1003300087F68EB9EED1F0BC01F0FF0102F00702A2
:1003400032B110F8013B013A83EA010313B1F8D14D
:100350000020704701387047002D06BF354603382E
:10036000073815F0010F07D1013015F4807F02BF67
:10037000013015F4C03F0130F0BC0138704700BFB8
:10038000034613F8012B002AFBD1181A01387047D5
:1003900053B94AB9002908BF00281CBF4FF0FF31EC
:1003A0004FF0FF3000F06AB9ADF1080C6DE904CEF2
:1003B00000F006F8DDF804E0DDE9022304B0704740
:1003C0002DE9F047089D0C46002B4ED194468C45F4
:1003D0008646B2FA82F262D94AB1C2F12003914054
:1003E00020FA03F30CFA02FC194300FA02FE4FEA6A
:1003F0001C471FFA8CF6B1FBF7F44FEA1E4307FBCC
:10040000141143EA014304FB06F199420AD91CEB9B
:10041000030304F1FF3080F01281994240F20F8112
:10042000023C6344591A1FFA8EF3B1FBF7F007FB45
:10043000101143EA014300FB06F69E420AD91CEB69
:10044000030300F1FF3180F0FC809E4240F2F9800E
:10045000634402389B1B40EA044000211DB1D34095
:100460000022C5E90032BDE8F0878B4205D90DB105
:10047000C5E9000100210846F5E7B3FA83F1002938
:1004800046D1A34202D39042C0F0F080861A64EBBA
:1004900003030120002DE6D0C5E90063E3E7002A4D
:1004A00040F09080A1EB0C044FEA1C481FFA8CF737
:1004B0000121B4FBF8F64FEA1E4308FB164443EA59
:1004C000044307FB06F0984208D91CEB030306F12E
:1004D000FF3402D2984200F2CD8026461C1A1FFA41
:1004E0008EF3B4FBF8F008FB104443EA044300FB2E
:1004F00007F79F4208D91CEB030300F1FF3402D237
:100500009F4200F2B0802046DB1B40EA0640A5E790
:10051000C1F120068B4022FA06F71F4320FA06FCA1
:1005200004FA01F343EA0C03F44000FA01F8380C32
:100530004FEA1349B4FBF0FE1FFA87FC00FB1E4490
:1005400049EA04440EFB0CF9A14502FA01F20AD96A
:100550003C190EF1FF3A80F08480A14540F2818081
:10056000AEF1020E3C44A4EB09041FFA83F9B4FB7C
:10057000F0F300FB134449EA044403FB0CFCA445DC
:1005800007D93C1903F1FF3067D2A44565D9023B76
:100590003C4443EA0E40A0FB0293A4EB0C049C42B3
:1005A000CE469C4651D34ED055B1B8EB0E0364EB0A
:1005B0000C0404FA06F6CB401E43CC40C5E90064A7
:1005C000002150E7C2F1200320FA03F10CFA02FCEB
:1005D00024FA03F394400C434FEA1C4800FA02FE4D
:1005E0001FFA8CF7B3FBF8F008FB1031230C43EA39
:1005F000014300FB07F1994208D91CEB030300F10A
:10060000FF362CD299422AD9023863445B1AA4B22D
:10061000B3FBF8F108FB113344EA034401FB07F391
:10062000A34208D91CEB040401F1FF3613D2A34204
:1006300011D902396444E41A41EA004139E7044619
:10064000F0E6084606E7C845AED2B9EB020E63EB0A
:10065000070C0138A8E73146EDE7034699E7304635
:10066000D4E7D6467FE7634402384DE70646234683
:1006700008460FE7023E634430E700BF704700BF03
:1006800080B500AF094B1B780133DAB2074B1A7003
:10069000064B1B781E2B07D9044B00221A704FF40F
:1006A0000051034801F06DFA00BF80BD180200241C
:1006B0000008025880B500AF044B1B680133034AA1
:1006C0001360FFF7DDFF00BF80BD00BF14020024F0
:1006D00080B582B000AF00F0C7FE78600BF044FB3D
:1006E00000F0C2FE02467B68D31A092BF6D900F04F
:1006F000BBFE7860FFF7DEFFF0E7000080B584B056
:1007000000AF78607B68D3F86039DB69BB60072293
:10071000002115480CF026FD0023FB6007E0134A7A
:10072000FB68002142F82310FB680133FB60FB6883
:10073000072BF4D9BB681B8B202B02D9BB68202266
:100740001A83BB680A4A5A61BB6803F108007B68D8
:1007500003F58E734FF4A072194609F0FAF80023DE
:1007600018461037BD4680BD1C02002444020024F8
:100770006402002480B582B000AF7860786800F031
:10078000A9F80346002B01D1034B00E000231846D3
:100790000837BD4680BD00BF1C02002480B582B072
:1007A00000AF0346FB71FB79002B01D04F2300E023
:1007B0005823194603480CF085FB00BF0837BD4697
:1007C00080BD00BFB8EC000880B582B000AF3B46EA
:1007D00083E803003C480CF075FB3B7819463B4826
:1007E0000CF070FB7B78194638480CF06BFBBB783B
:1007F000194636480CF066FBFB78194633480CF076
:1008000061FB3B79C3F30303DBB2194630480CF0BC
:1008100059FB3B79C3F30013DBB21846FFF7BEFF69
:100820003B79C3F34013DBB21846FFF7B7FF3B79C0
:10083000C3F38013DBB21846FFF7B0FF3B79C3F375
:10084000C013DBB21846FFF7A9FF7B79C3F300039F
:10085000DBB21846FFF7A2FF7B79C3F34003DBB29C
:100860001846FFF79BFF7B79C3F38003DBB2184682
:10087000FFF794FF7B79C3F3C003DBB21846FFF7A1
:100880008DFFBB79C3F30003DBB21846FFF786FF89
:10089000BB79C3F38003DBB21846FFF77FFFBB7958
:1008A000C3F34003DBB21846FFF778FFBB79C3F30D
:1008B000C003DBB21846FFF771FF0A200CF014FBEF
:1008C00000BF0837BD4680BDBCEC0008C4EC000882
:1008D000CCEC000880B586B000AF78607B68D3F8B8
:1008E0006039DB693B613B691B8B002B01D1022323
:1008F0003BE13B6903F108003B691B8B1A469D49AC
:1009000009F043F803461A463B691B8B9A4240F0B4
:100910002B81984BFB600023FB750023BB750EE019
:10092000BB7D954A52F82320BB7D924951F8233074
:100930009A4201D00123FB75BB7D0133BB75BB7DA2
:100940009AB23B691B8B9B089BB29A42E8D3FB7D12
:10095000002B09D100F088FD0246884B1B68D31A92
:10096000C72B01D8002300E100F07EFD0346834A37
:1009700013603B691B8B1A46F9687F480CF081FCB9
:1009800000217F4809F058FA034603F00F03D9B25B
:100990007C4A137961F30303137100217A4809F04B
:1009A0004BFA0346DBB2002B14BF01230023D9B25C
:1009B000744A137961F3041313710021734809F029
:1009C0003BFA0346DBB2002B14BF01230023D9B24C
:1009D0006C4A137961F34513137100216C4809F0D7
:1009E0002BFA0346DAB2674B1A700021694809F006
:1009F00023FA0346DAB2634B5A700021664809F0C5
:100A00001BFA0346DAB25F4B9A700021634809F083
:100A100013FA0346DAB25B4BDA700021604809F042
:100A20000BFA0346DBB2002B14BF01230023D9B21B
:100A3000544A537961F3000353710021594809F076
:100A4000FBF90346DBB2002B14BF01230023D9B20C
:100A50004C4A537961F3410353710021524809F024
:100A6000EBF90346DBB2002B14BF01230023D9B2FC
:100A7000444A537961F38203537100214B4809F0D2
:100A8000DBF90346DBB2002B14BF01230023D9B2EC
:100A90003C4A537961F3C30353710021444809F080
:100AA000CBF90346DBB2002B14BF01230023D9B2DC
:100AB000344A937961F30003937100213D4809F0B2
:100AC000BBF90346DBB2002B14BF01230023D9B2CC
:100AD0002C4A937961F3820393710021364809F01F
:100AE000ABF90346DBB2002B14BF01230023D9B2BC
:100AF000244A937961F34103937100212F4809F04F
:100B00009BF90346DBB2002B14BF01230023D9B2AB
:100B10001C4A937961F3C30393710021284809F0BB
:100B20008BF90346DBB2002B14BF01230023D9B29B
:100B3000144A137961F3861313710021214809F0D7
:100B40007BF90346DBB2002B14BF01230023D9B28B
:100B50000C4A137961F3C71313710A4B93E803002E
:100B6000FFF732FE002300E0022318461837BD4687
:100B700080BD00BF4402002424020024840200241B
:100B800040F500081C02002420F6000840F600088A
:100B9000C0F40008E0F4000800F5000820F50008A3
:100BA00060F5000880F50008A0F50008C0F5000811
:100BB000E0F5000800F6000860F6000880F600087E
:100BC000A0F60008C0F6000880B582B000AF7860DB
:100BD0007B6893F84939012B09D112480CF072F95E
:100BE0000A200CF081F9786808F0C0FF16E07B68F5
:100BF00093F84939022B09D10B480CF063F90A200C
:100C00000CF072F9786809F0A3F807E07B6893F8B4
:100C10004939002B02D17868FFF7ACFD00BF0837D7
:100C2000BD4680BDD4EC0008F0EC000880B588B06B
:100C300000AF07F10C0300221A605A609A60DA6074
:100C40001A61234BD3F8E030214A43F00403C2F881
:100C5000E0301F4BD3F8E03003F00403BB60BB6807
:100C60001B4BD3F8E0301A4A43F08003C2F8E0305F
:100C7000174BD3F8E03003F080037B607B68144BA4
:100C8000D3F8E030124A43F00103C2F8E030104BD1
:100C9000D3F8E03003F001033B603B68002246F2EA
:100CA00002010C4800F054FF46F20203FB600123EE
:100CB0003B6100237B610023BB6107F10C031946F4
:100CC000044800F095FD00BF2037BD4680BD00BF41
:100CD000004402580008025880B500AF00F0A6F8A2
:100CE00000F03CFB00F010F8FFF7A0FF00F056FA10
:100CF0000BF014F803480CF055F9FFF7E9FC0BF082
:100D000033F8FCE708ED000880B59CB000AF07F1B0
:100D100024034C22002118460CF024FA3B1D20220B
:100D2000002118460CF01EFA022003F055F80023AB
:100D30003B60314BDB6A304A23F00103D3622E4B18
:100D4000DB6A03F001033B602C4B9B6923F44043B7
:100D50002A4A43F480439361284B9B6903F4404340
:100D60003B603B6800BF254B9B6903F40053B3F520
:100D7000005FF8D101237B624FF48033BB62022312
:100D8000BB640223FB6405233B6530237B650223A0
:100D9000BB650523FB6502233B6608237B660023B6
:100DA000BB660023FB6607F12403184603F05EF8D8
:100DB0000346002B01D000F065F83F237B6003233E
:100DC000BB600023FB6000233B6150237B61002359
:100DD000BB610023FB6100233B623B1D02211846DF
:100DE00003F09EFC0346002B01D000F04BF800BF3F
:100DF0007037BD4680BD00BF00040058004802584F
:100E000080B584B000AFF860B9607A607B689AB250
:100E10004FF6FF73B968044805F08AFE7B681846F0
:100E20001037BD4680BD00BF8C02002480B584B061
:100E300000AF3B4600221A605A609A60DA6000F008
:100E40005FFC01233B7000237B7000237B601F232A
:100E50003B7287237B720023BB720023FB7201234A
:100E60003B7301237B730023BB730023FB733B465F
:100E7000184600F07DFC042000F05AFC00BF10373B
:100E8000BD4680BD80B400AF72B600BF00BFFDE7B5
:100E900080B483B000AF0A4BD3F8F430084A43F073
:100EA0000203C2F8F430064BD3F8F43003F0020327
:100EB0007B607B6800BF0C37BD465DF8047B7047E4
:100EC0000044025880B400AF00BFFDE780B400AF1B
:100ED00000BFFDE780B400AF00BFFDE780B400AF06
:100EE00000BFFDE780B400AF00BFFDE780B400AFF6
:100EF00000BFBD465DF8047B704780B400AF00BF03
:100F0000BD465DF8047B704780B400AF00BFBD46AE
:100F10005DF8047B704780B500AF00F091FA00BF28
:100F200080BD000080B500AF024801F01BF900BF92
:100F300080BD00BF1C0D002480B400AF0123184603
:100F4000BD465DF8047B704780B582B000AF786025
:100F500039600CF069F9034616221A604FF0FF332E
:100F600018460837BD4680BD80B582B000AF7860B6
:100F70004FF0FF317868FFF7E7FF00BFFDE780B56E
:100F800086B000AFF860B9607A6000237B610AE048
:100F9000AFF300800146BB685A1CBA60CAB21A702F
:100FA0007B6901337B617A697B689A42F0DB7B68FD
:100FB00018461837BD4680BD80B483B000AF786056
:100FC0004FF0FF3318460C37BD465DF8047B704781
:100FD00080B483B000AF786039603B684FF4005252
:100FE0005A60002318460C37BD465DF8047B7047F5
:100FF00080B483B000AF7860012318460C37BD463B
:101000005DF8047B704780B485B000AFF860B960CC
:101010007A60002318461437BD465DF8047B70479C
:1010200080B586B000AF7860144A154BD31A7B6147
:101030007B693B61134B1B68002B02D1114B124A99
:101040001A60104B1A687B6813443A699A4207D2B7
:101050000CF0EAF803460C221A604FF0FF3309E067
:10106000084B1B68FB60074B1A687B681344054AF2
:101070001360FB6818461837BD4680BD0000082481
:1010800000040000880200244812002480B400AF4D
:10109000374BD3F88830364A43F47003C2F88830AF
:1010A000344B1B6803F00F03062B07D8314B1B682A
:1010B00023F00F032F4A43F0070313602E4B1B68E6
:1010C0002D4A43F0010313602B4B00221A612A4B77
:1010D0001A682949294B13400B60264B1B6803F003
:1010E0000803002B07D0234B1B6823F00F03214A72
:1010F00043F007031360204B00229A611E4B00222D
:10110000DA611D4B00221A621B4B1D4A9A621A4B70
:101110001C4ADA62184B1C4A1A63174B00225A63A6
:10112000154B194A9A63144B0022DA63124B164A84
:101130001A64114B00225A640F4B1B680E4A23F4A9
:10114000802313600C4B00221A66104B1A68104B58
:101150001340B3F1005F02D20E4B01221A600E4B16
:1011600043F2D2021A6000BFBD465DF8047B7047AF
:1011700000ED00E000200052004402587FEDF6EA46
:10118000000202020000FF01800201010010005C69
:101190000000FFFF088100510040005280B500AF01
:1011A000224B234A1A60214B4FF4E1325A601F4B05
:1011B00000229A601D4B0022DA601C4B00221A614B
:1011C0001A4B0C225A61194B00229A61174B0022CC
:1011D0001A62164B00225A62144B00229A62134B79
:1011E00000225A66114805F053FC0346002B01D03B
:1011F000FFF748FE00210D4806F0E9FC0346002BEE
:1012000001D0FFF73FFE0021084806F01EFD03460F
:10121000002B01D0FFF736FE044806F09FFC034682
:10122000002B01D0FFF72EFE00BF80BD8C020024F2
:10123000000C005880B5BAB000AF786007F1D40355
:1012400000221A605A609A60DA601A6107F110038E
:10125000C022002118460BF085FF7B681B68274AD7
:10126000934246D14FF004024FF00003C7E9042334
:101270000023C7F8A43007F11003184603F0DCFD83
:101280000346002B01D0FFF7FDFD1D4BD3F8F430D2
:101290001B4A43F00803C2F8F430194BD3F8F4307A
:1012A00003F00803FB60FB68154BD3F8E030144AE9
:1012B00043F00103C2F8E030114BD3F8E03003F003
:1012C0000103BB60BB684FF4C063C7F8D43002238E
:1012D000C7F8D8300023C7F8DC300023C7F8E03067
:1012E0000323C7F8E43007F1D4031946054800F09A
:1012F0007FFA00BFE837BD4680BD00BF000C005834
:101300000044025800000258DFF834D0FFF7BEFE58
:101310000C480D490D4A002302E0D458C450043350
:10132000C4188C42F9D30A4A0A4C002301E0136026
:101330000432A242FBD30BF07DFFFFF7CDFC7047D8
:101340000000082400000024F801002458FC0008D4
:10135000F801002448120024FEE7000080B582B0A6
:1013600000AF032000F08CF903F090FB0246154B10
:101370009B691B0A03F00F031349CB5C03F01F03A7
:1013800022FA03F37B600F4B9B6903F00F030E4AB5
:10139000D35C03F01F037A6822FA03F30B4A13604D
:1013A0000B4A7B6813600F2000F014F80346002BF3
:1013B00001D0012302E0FFF76BFD00231846083738
:1013C000BD4680BD00440258E0F600080400002439
:1013D0000000002480B582B000AF7860154B1B7808
:1013E000002B01D1012321E0134B1A68114B1B780C
:1013F00019464FF47A73B3FBF1F3B2FBF3F31846DB
:1014000000F071F90346002B01D001230EE07B6848
:101410000F2B0AD8002279684FF0FF3000F03BF91B
:10142000064A7B681360002300E001231846083752
:10143000BD4680BD0C0000240000002408000024EC
:1014400080B400AF064B1B781A46064B1B6813444A
:10145000044A136000BFBD465DF8047B704700BFBF
:101460000C0000242003002480B400AF034B1B6851
:101470001846BD465DF8047B704700BF200300247A
:1014800080B584B000AF7860FFF7EEFFB8607B688E
:10149000FB60FB68B3F1FF3F05D00A4B1B781A468F
:1014A000FB681344FB6000BFFFF7DEFF0246BB682A
:1014B000D31AFA689A42F7D800BF00BF1037BD466A
:1014C00080BD00BF0C00002480B400AF034B1B683C
:1014D0001B0C1846BD465DF8047B70470010005C8D
:1014E00080B485B000AF78607B6803F00703FB60D1
:1014F0000B4BDB68BB60BA684FF6FF031340BB6061
:10150000FB681A02BB681A43064B1343BB60044ACC
:10151000BB68D36000BF1437BD465DF8047B7047DD
:1015200000ED00E00000FA0580B400AF044BDB687A
:101530001B0A03F007031846BD465DF8047B70479D
:1015400000ED00E080B483B000AF0346FB80B7F944
:101550000630002B0BDBFB8803F01F020749B7F9AD
:1015600006305B09012000FA02F241F8232000BF97
:101570000C37BD465DF8047B704700BF00E100E01A
:1015800080B483B000AF03463960FB80B7F9063002
:10159000002B0ADB3B68DAB20C49B7F906301201BE
:1015A000D2B20B4483F800230AE03B68DAB2084960
:1015B000FB8803F00F03043B1201D2B20B441A76EE
:1015C00000BF0C37BD465DF8047B704700E100E0CA
:1015D00000ED00E080B489B000AFF860B9607A60D7
:1015E000FB6803F00703FB61FB69C3F10703042BEE
:1015F00028BF0423BB61FB690433062B02D9FB69B6
:10160000033B00E000237B614FF0FF32BB6902FA2D
:1016100003F3DA43BB681A407B699A404FF0FF310D
:101620007B6901FA03F3D9437B680B4013431846E7
:101630002437BD465DF8047B7047000080B582B05A
:1016400000AF78607B68013BB3F1807F01D3012359
:101650000FE00A4A7B68013B53600F214FF0FF30D7
:10166000FFF78EFF054B00229A60044B07221A6099
:10167000002318460837BD4680BD00BF10E000E0DB
:1016800080B582B000AF78607868FFF729FF00BFAF
:101690000837BD4680BD80B586B000AF0346B9604F
:1016A0007A60FB81FFF740FF78617A68B9687869F2
:1016B000FFF790FF0246B7F90E3011461846FFF7C4
:1016C0005FFF00BF1837BD4680BD80B582B000AF58
:1016D0000346FB80B7F906301846FFF733FF00BF1B
:1016E0000837BD4680BD80B582B000AF78607868AD
:1016F000FFF7A4FF034618460837BD4680BD00002B
:1017000080B400AFBFF35F8F00BF074B5B6A064A30
:1017100023F480335362054B00225A6000BFBD465C
:101720005DF8047B704700BF00ED00E090ED00E045
:1017300080B483B000AF78600B4A7B6843F001034C
:1017400053600A4B5B6A094A43F480335362BFF328
:101750004F8F00BFBFF36F8F00BF00BF0C37BD4678
:101760005DF8047B704700BF90ED00E000ED00E005
:1017700080B483B000AF78607B685A781B4B9A6066
:101780001A4B1B69194A23F001031361174A7B683E
:101790005B68D3607B681B7B1A077B68DB7A1B0660
:1017A0001A437B689B7ADB041A437B685B7B9B0450
:1017B0001A437B689B7B5B041A437B68DB7B1B04BF
:1017C0001A437B685B7A1B021A437B681B7A5B00B7
:1017D00013437A6812781146044A0B43136100BF21
:1017E0000C37BD465DF8047B704700BF90ED00E00C
:1017F00080B489B000AF786039600023FB61894B09
:101800007B6194E13B681A680121FB6901FA03F3EB
:1018100013403B613B69002B00F086813B685B68AD
:1018200003F00303012B05D03B685B6803F003035F
:10183000022B30D17B689B68BB61FB695B00032294
:1018400002FA03F3DB43BA691340BB613B68DA6811
:10185000FB695B0002FA03F3BA691343BB617B685F
:10186000BA699A607B685B68BB610122FB6902FA16
:1018700003F3DB43BA691340BB613B685B681B0938
:1018800003F00102FB6902FA03F3BA691343BB6177
:101890007B68BA695A603B685B6803F00303032BFB
:1018A00017D07B68DB68BB61FB695B00032202FA2F
:1018B00003F3DB43BA691340BB613B689A68FB6979
:1018C0005B0002FA03F3BA691343BB617B68BA6930
:1018D000DA603B685B6803F00303022B23D1FB69EA
:1018E000DA087B68083253F82230BB61FB6903F0E9
:1018F00007039B000F2202FA03F3DB43BA6913408C
:10190000BB613B681A69FB6903F007039B0002FA9D
:1019100003F3BA691343BB61FB69DA087B680832D9
:10192000B96943F822107B681B68BB61FB695B00E7
:10193000032202FA03F3DB43BA691340BB613B683D
:101940005B6803F00302FB695B0002FA03F3BA6908
:101950001343BB617B68BA691A603B685B6803F438
:101960004033002B00F0E0802F4BD3F8F4302E4AA8
:1019700043F00203C2F8F4302B4BD3F8F43003F0F9
:101980000203FB60FB68294AFB699B08023352F89B
:101990002330BB61FB6903F003039B000F2202FAB3
:1019A00003F3DB43BA691340BB617B68204A93426F
:1019B00052D07B681F4A934231D07B681E4A9342C3
:1019C0002BD07B681D4A934225D07B681C4A9342EA
:1019D0001FD07B681B4A934219D07B681A4A9342F6
:1019E00013D07B68194A93420DD07B68184A934202
:1019F00007D07B68174A934201D109232DE00A23BF
:101A00002BE0082329E0072327E0062325E0052310
:101A100023E0042321E003231FE002231DE0012330
:101A20001BE000BF8000005800440258000400582A
:101A3000000002580004025800080258000C025826
:101A4000001002580014025800180258001C0258D6
:101A500000200258002402580023FA6902F0030211
:101A600092009340BA691343BB613849FB699B08F4
:101A70000233BA6941F823204FF0B0431B68BB61C1
:101A80003B69DB43BA691340BB613B685B6803F4A5
:101A90008013002B03D0BA693B691343BB614FF03D
:101AA000B042BB6913604FF0B0435B68BB613B69F8
:101AB000DB43BA691340BB613B685B6803F4001306
:101AC000002B03D0BA693B691343BB614FF0B042AE
:101AD000BB6953607B695B68BB613B69DB43BA6987
:101AE0001340BB613B685B6803F40033002B03D0F9
:101AF000BA693B691343BB617B69BA695A607B6908
:101B00001B68BB613B69DB43BA691340BB613B683F
:101B10005B6803F48033002B03D0BA693B6913433D
:101B2000BB617B69BA691A60FB690133FB613B6881
:101B30001A68FB6922FA03F3002B7FF463AE00BF3F
:101B400000BF2437BD465DF8047B70470004005891
:101B500080B483B000AF78600B467B8013467B7007
:101B60007B78002B03D07A887B689A6103E07B88BE
:101B70001A047B689A6100BF0C37BD465DF8047B90
:101B8000704780B485B000AF78600B467B807B687F
:101B90005B69FB607A88FB6813401A04FB68D943D1
:101BA0007B880B401A437B689A6100BF1437BD469F
:101BB0005DF8047B704780B584B002AF78607B68C5
:101BC000002B01D101234FE07B6893F8D533DBB2C2
:101BD000002B06D17B68002283F8D42378680AF0B2
:101BE000FBF87B68032283F8D5237B681B681846C3
:101BF00006F03BF97B6818687B681A7C8DF800203A
:101C000004330ECB06F0AEF80346002B05D07B68FC
:101C1000022283F8D523012326E07B681B6801217B
:101C2000184606F033F90346002B05D07B680222E4
:101C300083F8D523012317E07B6818687B681A7C3A
:101C40008DF8002004330ECB06F0D6FA0346002BA5
:101C500005D07B68022283F8D523012304E07B684A
:101C6000012283F8D523002318460837BD4680BDDE
:101C700090B58BB004AF7860084611461A4603460B
:101C8000FB700B46BB7013467B703B8E7B617B68A1
:101C900093F8D433012B01D102239DE07B6801220C
:101CA00083F8D423FA78796813461B019B1A9B00AA
:101CB0000B44193300221A70FA78796813461B0115
:101CC0009B1A9B000B4414337A781A70FA7879685F
:101CD00013461B019B1A9B000B441533FA781A70AC
:101CE000FA78796813461B019B1A9B000B44263334
:101CF00097F82C201A70FA78BB7803F07F03D8B2DB
:101D0000796813461B019B1A9B000B44163302464D
:101D10001A70FB781946786800F0C8FB97F9023012
:101D2000002B0ADAFA78796813461B019B1A9B008C
:101D30000B44173301221A7009E0FA7879681346C8
:101D40001B019B1A9B000B44173300221A707B68FF
:101D50001B68184606F09AFB386197F82C30012B67
:101D60000BD197F82830012B07D13B69002B04D108
:101D70007B69BC2B01D9BC237B61FA787968134657
:101D80001B019B1A9B000B44183397F828201A70EC
:101D9000FA787B6998B2796813461B019B1A9B00FD
:101DA0000B44283302461A807B6818687B699BB213
:101DB0007C78BA78F978029397F82C30019397F8E9
:101DC00028300093234606F089FB0346FB737B68AB
:101DD000002283F8D423FB7B18461C37BD4690BDF8
:101DE00080B584B000AF78600B46FB700023FB73B6
:101DF0007B6893F8D433012B01D102230FE07B6879
:101E0000012283F8D4237B681B68FA7811461846B0
:101E100006F009FF7B68002283F8D423FB7B184679
:101E20001037BD4680BD000080B582B000AF78603D
:101E3000084611461A460346FB700B46BB70134614
:101E40007B70FA78796813461B019B1A9B000B4440
:101E50001733BA781A70FA78796813461B019B1AFF
:101E60009B000B4426337A781A703B7C002B14D1EC
:101E7000FA78796813461B019B1A9B000B442A339E
:101E800003221A70FA78796813461B019B1A9B008B
:101E90000B4419333A7F1A7009E0FA7879681346CF
:101EA0001B019B1A9B000B442A3302221A707B7879
:101EB000032B00F2028101A252F823F0CD1E00088C
:101EC000A5200008911F00081B2000083B7C012B67
:101ED00040F0F580BB78002B2DD13B8B002B09D136
:101EE000FA78796813461B019B1A9B000B443D331B
:101EF00001221A70FA78796813461B019B1A9B001D
:101F00000B443D331B78002B0AD1FA7879681346CD
:101F10001B019B1A9B000B442A3300221A70CEE04F
:101F2000FA78796813461B019B1A9B000B442A33ED
:101F300002221A70C3E0FA78796813461B019B1AD3
:101F40009B000B441A331B78012B40F0B880FA78C1
:101F5000796813461B019B1A9B000B443C331B788A
:101F6000002B0AD1FA78796813461B019B1A9B0053
:101F70000B442A3300221A70A1E0FA7879681346DC
:101F80001B019B1A9B000B442A3302221A7096E015
:101F9000BB78002B20D1FA78796813461B019B1A75
:101FA0009B000B443D331B78002B0AD1FA787968EB
:101FB00013461B019B1A9B000B442A3300221A7004
:101FC0007EE0FA78796813461B019B1A9B000B444C
:101FD0002A3302221A7073E0FA78796813461B01DB
:101FE0009B1A9B000B443C331B78002B0AD1FA78D8
:101FF000796813461B019B1A9B000B442A3300226D
:102000001A705DE0FA78796813461B019B1A9B00F1
:102010000B442A3302221A7052E0BB78002B20D1E5
:10202000FA78796813461B019B1A9B000B443D33D9
:102030001B78002B0AD1FA78796813461B019B1A8A
:102040009B000B442A3300221A7039E0FA78796831
:1020500013461B019B1A9B000B442A3302221A7061
:102060002EE0FA78796813461B019B1A9B000B44FB
:102070003C331B78002B0AD1FA78796813461B0190
:102080009B1A9B000B442A3300221A7018E0FA783E
:10209000796813461B019B1A9B000B442A330222CA
:1020A0001A700DE0FA78796813461B019B1A9B00A1
:1020B0000B442A3300221A7002E000BF00E000BF88
:1020C000FA78796813461B019B1A9B000B442C334A
:1020D0007A691A60FA78398B786813461B019B1A63
:1020E0009B00034434331960FA78796813461B0166
:1020F0009B1A9B000B444C3300221A70FA787968C3
:1021000013461B019B1A9B000B44383300221A60B4
:10211000FA78796813461B019B1A9B000B44153310
:10212000FA781A70FA78796813461B019B1A9B009B
:102130000B444D3300221A707B681868FA781346F6
:102140001B019B1A9B0010337A681344191D7B688E
:102150009B791A4606F0E6FA034618460837BD464C
:1021600080BD00BF80B586B000AF78607B681B681B
:102170003B613B69FB607B681B68184605F0FCFF10
:102180000346012B40F0FB807B681B68184605F076
:10219000BFFF0346002B00F0F1807B681B681846E8
:1021A00005F0B6FF034603F40013B3F5001F04D196
:1021B0007B681B684FF400125A617B681B681846E5
:1021C00005F0A6FF034603F48013B3F5801F04D186
:1021D0007B681B684FF480125A617B681B68184645
:1021E00005F096FF034603F08063B3F1806F04D1DE
:1021F0007B681B684FF080625A617B681B681846D9
:1022000005F086FF034603F00203022B03D17B682F
:102210001B6802225A617B681B68184605F078FF2C
:10222000034603F00053B3F1005F20D17B681B68C5
:102230004FF000525A61FB6803F588631B6803F096
:102240000103002B13D11021386905F06BFE3869AA
:1022500005F09AFE7B685B7A022B05D17B681B68D0
:102260000121184606F072F8786809F045FE7B688F
:102270001B68184605F04CFF034603F08073B3F16A
:10228000807F02D1786801F033FD7B681B681846B7
:1022900005F03EFF034603F00803082B06D17868DB
:1022A00009F00EFE7B681B6808225A617B681B6878
:1022B000184605F02DFF034603F00073B3F1007FCD
:1022C00039D17B681B68184606F09CFCB860002377
:1022D0007B6125E07B6903F00F03BA6822FA03F300
:1022E00003F00103002B18D07B695A01FB681344EB
:1022F00003F5A0631B6803F40043B3F5004F06D158
:102300007B69DBB21946786800F005F905E07B6966
:10231000DBB21946786800F067FF7B6901337B61A7
:102320007B685B791A467B699342D3D37B681B68D1
:102330004FF000725A617B681B68184605F0E8FE92
:10234000034603F01003102B01D1012300E000230A
:10235000002B14D07B681B689A697B681B6822F08D
:1023600010029A61786801F0E4FB7B681B689A6947
:102370007B681B6842F010029A6100E000BF1837CA
:10238000BD4680BD80B582B000AF78607B6893F8B1
:10239000D433012B01D1022313E07B68012283F89F
:1023A000D4237B681B680121184606F036F87B6849
:1023B0001B68184605F048FD7B68002283F8D4238B
:1023C000002318460837BD4680BD80B582B000AFF7
:1023D00078607B6893F8D433012B01D102230DE0A0
:1023E0007B68012283F8D4237B681B68184606F0BB
:1023F00077FD7B68002283F8D42300231846083732
:10240000BD4680BD80B582B000AF78607B681B6838
:10241000184605F0D8FF034618460837BD4680BD6C
:1024200080B483B000AF78600B46FB70FA787968AF
:1024300013461B019B1A9B000B444C331B78184618
:102440000C37BD465DF8047B704780B483B000AFA5
:1024500078600B46FB70FA78796813461B019B1A6B
:102460009B000B4438331B6818460C37BD465DF89B
:10247000047B704780B582B000AF78607B681B68D2
:10248000184606F01AF8034618460837BD4680BDC0
:1024900080B582B000AF78607B681B68184605F095
:1024A000F5FF034618460837BD4680BD80B483B0AB
:1024B00000AF78600B46FB70FA78796813461B0111
:1024C0009B1A9B000B441A3300221A70FA78796821
:1024D00013461B019B1A9B000B441B3300221A70EE
:1024E000FA78796813461B019B1A9B000B4425332D
:1024F00000221A70FA78796813461B019B1A9B0018
:102500000B44243300221A70002318460C37BD46B2
:102510005DF8047B704780B586B000AF78600B46ED
:10252000FB707B681B687B617B693B617B681B6818
:10253000FA781146184605F0FEFD034603F0040341
:10254000042B1AD1FB785A013B69134403F5A063AD
:102550001A4604239360FA78796813461B019B1A84
:102560009B000B444D3307221A707B681B68FA7876
:102570001146184606F057FB9EE07B681B68FA7808
:102580001146184605F0D7FD034603F48073B3F5F2
:10259000807F1BD1FB785A013B69134403F5A0638C
:1025A0001A464FF480739360FA78796813461B01DA
:1025B0009B1A9B000B444D3308221A707B681B68E2
:1025C000FA781146184606F02EFB75E07B681B680A
:1025D000FA781146184605F0AEFD034603F00803ED
:1025E000082B1AD1FB785A013B69134403F5A06309
:1025F0001A4608239360FA78796813461B019B1AE0
:102600009B000B444D3306221A707B681B68FA78D6
:102610001146184606F007FB4EE07B681B68FA7807
:102620001146184605F087FD034603F48063B3F5B1
:10263000806F1BD1FB785A013B69134403F5A063FB
:102640001A464FF480639360FA78796813461B0149
:102650009B1A9B000B444D3309221A707B681B6840
:10266000FA781146184606F0DEFA25E07B681B680A
:10267000FA781146184605F05EFD034603F0800324
:10268000802B19D1FB785A013B69134403F5A063F1
:102690001A4680239360FA78796813461B019B1AC7
:1026A0009B000B444D3307221A707B681B68FA7835
:1026B0001146184606F0B7FA7B681B68FA7811468F
:1026C000184605F038FD034603F40073B3F5007FA8
:1026D00012D17B681B68FA781146184606F0A3FAF7
:1026E000FB785A013B69134403F5A0631A464FF483
:1026F0000073936000F075BD7B681B68FA78114623
:10270000184605F018FD034603F00103012B40F0C5
:102710002881FB785A013B69134403F5A0631A46EC
:1027200020239360FA78796813461B019B1A9B005B
:102730000B441B331B78012B19D1FA7879681346A7
:102740001B019B1A9B000B441B3300221A70FB7861
:102750005A013B69134403F5A0635B68FA785101A1
:102760003A690A4402F5A06223F4803353607B681F
:102770009B79002B1BD0FA78796813461B019B1AB2
:102780009B000B4430331968FB785A013B691344B2
:1027900003F5A0631B69C3F31203FA78C91A7868BA
:1027A00013461B019B1A9B00034438331960FA78C7
:1027B000796813461B019B1A9B000B444D33012281
:1027C0001A70FA78796813461B019B1A9B000B4418
:1027D000443300221A60FB785A013B69134403F525
:1027E000A0631A4601239360FA78796813461B01A7
:1027F0009B1A9B000B4426331B78002B0AD0FA78D7
:10280000796813461B019B1A9B000B4426331B78E7
:10281000022B10D17B681B68FA781146184606F027
:1028200002FAFB785A013B69134403F5A0631A4688
:10283000102393603DE0FA78796813461B019B1AD8
:102840009B000B4426331B78032B0AD0FA78796857
:1028500013461B019B1A9B000B4426331B78012B4C
:1028600027D1FB785A013B69134403F5A0631B6829
:10287000FA7851013A690A4402F5A06243F0005324
:102880001360FA78796813461B019B1A9B000B446E
:102890004C3301221A70FA78796813461B019B1A8F
:1028A0009B000B444C331A78FB781946786809F082
:1028B00031FB7B689B79012B3BD1FA787968134611
:1028C0001B019B1A9B000B4438331968FA7878680F
:1028D00013461B019B1A9B00034428331B880B449F
:1028E000591EFA78786813461B019B1A9B00034413
:1028F00028331B88B1FBF3F303F00103002B00F036
:102900007084FA78796813461B019B1A9B000B446C
:102910003C331B78FA7883F00103D8B27968134608
:102920001B019B1A9B000B443C3302461A7000F0BB
:1029300058BCFA78796813461B019B1A9B000B441C
:102940003C331B78FA7883F00103D8B279681346D8
:102950001B019B1A9B000B443C3302461A7000F08B
:1029600040BC7B681B68FA781146184605F0E3FB0B
:10297000034603F02003202B31D1FB785A013B6939
:10298000134403F5A0631A4620239360FA7879680C
:1029900013461B019B1A9B000B441A331B78012B17
:1029A00040F01F84FA78796813461B019B1A9B003C
:1029B0000B441B3301221A70FA78796813461B0105
:1029C0009B1A9B000B444D3303221A707B681B68D3
:1029D000FA781146184606F026F900F002BC7B682A
:1029E0001B68FA781146184605F0A5FB034603F06C
:1029F0000203022B40F00583FB785A013B69134424
:102A000003F5A0631A4602239360FA7879681346A7
:102A10001B019B1A9B000B444D331B78012B14D1D7
:102A2000FA78796813461B019B1A9B000B444D33BF
:102A300002221A70FA78796813461B019B1A9B00D0
:102A40000B444C3301221A70CCE2FA7879681346B1
:102A50001B019B1A9B000B444D331B78062B14D192
:102A6000FA78796813461B019B1A9B000B444D337F
:102A700002221A70FA78796813461B019B1A9B0090
:102A80000B444C3305221A70ACE2FA78796813468D
:102A90001B019B1A9B000B444D331B78072B0BD05B
:102AA000FA78796813461B019B1A9B000B444D333F
:102AB0001B78092B40F0A680FA78796813461B0131
:102AC0009B1A9B000B444D3302221A70FA787968E6
:102AD00013461B019B1A9B000B4444331B68591C73
:102AE000786813461B019B1A9B000344443319600A
:102AF000FA78796813461B019B1A9B000B444433F8
:102B00001B68022B43D9FA78796813461B019B1A7C
:102B10009B000B44443300221A60FA78796813460C
:102B20001B019B1A9B000B441A331B78012B23D1EA
:102B3000FA78796813461B019B1A9B000B441B33E0
:102B400000221A70FA78796813461B019B1A9B00C1
:102B50000B441C3300221A70FB785A013B69134462
:102B600003F5A0635B68FA7851013A690A4402F5FB
:102B7000A06223F480335360FA78796813461B010E
:102B80009B1A9B000B444C3304221A7029E2FA78FA
:102B9000796813461B019B1A9B000B444C3302229D
:102BA0001A70FA78796813461B019B1A9B000B4434
:102BB00026331B78002B0BD0FA78796813461B015B
:102BC0009B1A9B000B4426331B78022B40F0098292
:102BD000FB785A013B69134403F5A0631B68FB6053
:102BE000FB6823F08043FB60FB6843F00043FB601D
:102BF000FB785A013B69134403F5A0631A46FB684E
:102C00001360EEE1FA78796813461B019B1A9B006A
:102C10000B444D331B78052B40F0C880FA78796857
:102C200013461B019B1A9B000B444D3302221A7062
:102C3000FA78796813461B019B1A9B000B441B33DF
:102C40001B78012B40F0CE81FA78796813461B017E
:102C50009B1A9B000B4426331B78032B6BD1FA780D
:102C6000796813461B019B1A9B000B4448331B6871
:102C7000591C786813461B019B1A9B000344483378
:102C80001960FA78796813461B019B1A9B000B4464
:102C900048331B68022B43D9FA78796813461B0125
:102CA0009B1A9B000B44483300221A60FA7879681B
:102CB00013461B019B1A9B000B441B3300221A7006
:102CC000FA78796813461B019B1A9B000B44443326
:102CD0001B68022B09D8FA78796813461B019B1AE6
:102CE0009B000B441C3301221A70FB785A013B698C
:102CF000134403F5A0635B68FA7851013A690A440A
:102D000002F5A06223F480335360FA7879681346A1
:102D10001B019B1A9B000B444C3304221A7014E0D5
:102D2000FA78796813461B019B1A9B000B444C33BD
:102D300002221A7009E0FA78796813461B019B1A7F
:102D40009B000B444C3302221A70FA7879681346C0
:102D50001B019B1A9B000B4426331B78002B0BD0C6
:102D6000FA78796813461B019B1A9B000B442633A3
:102D70001B78022B40F03681FB785A013B691344E3
:102D800003F5A0631B68FB60FB6823F08043FB60D6
:102D9000FB6843F00043FB60FB785A013B69134436
:102DA00003F5A0631A46FB6813601BE1FA787968A3
:102DB00013461B019B1A9B000B444D331B78032BBE
:102DC00040F08180FA78796813461B019B1A9B00BA
:102DD0000B444D3302221A70FA78796813461B01AE
:102DE0009B1A9B000B441B331B78012B40F0FA808D
:102DF000FA78796813461B019B1A9B000B444C33ED
:102E000002221A70FB785A013B69134403F5A06350
:102E10005B68FA7851013A690A4402F5A06243F40A
:102E200080335360FB785A013B69134403F5A06378
:102E3000DB68FA7851013A690A4402F5A06243F06E
:102E40004003D360FB785A013B69134403F5A06348
:102E5000DB68FA7851013A690A4402F5A06223F06E
:102E60002003D360FA78796813461B019B1A9B00F4
:102E70000B4426331B78002B0BD0FA787968134665
:102E80001B019B1A9B000B4426331B78022B40F03E
:102E9000A980FB785A013B69134403F5A0631B68C2
:102EA000FB60FB6823F08043FB60FB6843F000435A
:102EB000FB60FB785A013B69134403F5A0631A4693
:102EC000FB6813608EE0FA78796813461B019B1A41
:102ED0009B000B444D331B78042B43D1FA7879685F
:102EE00013461B019B1A9B000B444D3302221A70A0
:102EF000FA78796813461B019B1A9B000B444C33EC
:102F000002221A70FA78796813461B019B1A9B00FB
:102F10000B4426331B78002B0AD0FA7879681346C5
:102F20001B019B1A9B000B4426331B78022B59D1A3
:102F3000FB785A013B69134403F5A0631B68FB60EF
:102F4000FB6823F08043FB60FB6843F00043FB60B9
:102F5000FB785A013B69134403F5A0631A46FB68EA
:102F600013603FE0FA78796813461B019B1A9B00B7
:102F70000B444D331B78082B26D1FA787968134619
:102F80001B019B1A9B000B444D3302221A70FA78E6
:102F9000796813461B019B1A9B000B4444331B6842
:102FA000591C786813461B019B1A9B000344443349
:102FB0001960FA78796813461B019B1A9B000B4431
:102FC0004C3304221A700DE0FA78796813461B011D
:102FD0009B1A9B000B444D331B78022B00F00081A1
:102FE00000E000BFFA78796813461B019B1A9B002A
:102FF0000B444C331A78FB781946786808F08AFF3E
:10300000EFE07B681B68FA781146184605F093F8E4
:10301000034603F04003402B2FD1FB785A013B6954
:10302000134403F5A0631A4640239360FA78796845
:1030300013461B019B1A9B000B444D3305221A704B
:10304000FA78796813461B019B1A9B000B441A33CC
:103050001B78002B09D1FA78796813461B019B1A5B
:103060009B000B44443300221A607B681B68FA788B
:103070001146184605F0D7FDB3E07B681B68FA7867
:103080001146184605F057F8034603F01003102BBD
:1030900040F0A780FA78796813461B019B1A9B00C1
:1030A0000B4426331B78032B1BD1FA78796813461F
:1030B0001B019B1A9B000B44443300221A60FA78D0
:1030C000796813461B019B1A9B000B444D33042265
:1030D0001A707B681B68FA781146184605F0A3FD44
:1030E0003FE0FA78796813461B019B1A9B000B445A
:1030F00026331B78002B0AD0FA78796813461B0117
:103100009B1A9B000B4426331B78022B29D1FA789B
:10311000796813461B019B1A9B000B444433002221
:103120001A607B689B79002B0AD0FA78796813467D
:103130001B019B1A9B000B441B331B78012B10D1E6
:10314000FA78796813461B019B1A9B000B444D3398
:1031500004221A707B681B68FA781146184605F03D
:1031600062FDFA78796813461B019B1A9B000B4499
:103170001B331B78012B29D1FA78796813461B0180
:103180009B1A9B000B441B3300221A70FB785A01D8
:103190003B69134403F5A0635B68FA7851013A690F
:1031A0000A4402F5A06223F480335360FB785A018D
:1031B0003B69134403F5A063DB68FA7851013A696F
:1031C0000A4402F5A06243F02003D360FB785A0161
:1031D0003B69134403F5A0631A461023936000E093
:1031E00000BF1837BD4680BD80B586B000AF78609F
:1031F0000B46FB707B681B687B617B693B617B686E
:103200001B68FA781146184604F095FF034603F050
:103210000403042B1BD1FB785A013B69134403F5CB
:10322000A0631A4604239360FA78796813461B0159
:103230009B1A9B000B444D3307221A707B681B6856
:10324000FA781146184605F0EEFC00F06FBC7B687A
:103250001B68FA781146184604F06DFF034603F028
:103260002003202B40F08280FB785A013B691344F5
:1032700003F5A0631A4620239360FA787968134611
:103280001B019B1A9B000B4419331B78012B24D183
:10329000FA78796813461B019B1A9B000B4419337B
:1032A00000221A70FA78796813461B019B1A9B005A
:1032B0000B444C3302221A70FA78796813461B01CA
:1032C0009B1A9B000B444D3303221A707B681B68CA
:1032D000FA781146184605F0A6FCFA787968134684
:1032E0001B019B1A9B000B441A331B78012B40F0E7
:1032F0001D84FA78796813461B019B1A9B000B44C6
:103300001B331B78002B40F01184FA787968134640
:103310001B019B1A9B000B4426331B78012B09D001
:10332000FA78796813461B019B1A9B000B441B33E8
:1033300001221A70FA78796813461B019B1A9B00C8
:103340000B444D3303221A707B681B68FA781146D0
:10335000184605F068FCFA78796813461B019B1A39
:103360009B000B44443300221A60DFE37B681B6838
:10337000FA781146184604F0DEFE034603F40073A3
:10338000B3F5007F11D1FB785A013B69134403F573
:10339000A0631A464FF4007393607B681B68FA7849
:1033A0001146184605F03FFCC0E37B681B68FA78BD
:1033B0001146184604F0BFFE034603F00103012B3B
:1033C00068D1FA78796813461B019B1A9B000B445D
:1033D000443300221A607B681B68FA78114618464D
:1033E00004F0A9FE034603F04003402B12D1FA7803
:1033F000796813461B019B1A9B000B441933012269
:103400001A70FB785A013B69134403F5A0631A460E
:1034100040239360FA78796813461B019B1A9B003E
:103420000B441B331B78002B19D0FA7879681346AC
:103430001B019B1A9B000B441B3300221A70FB7864
:103440005A013B69134403F5A0635B68FA785101A4
:103450003A690A4402F5A06223F480335360FB7892
:103460005A013B69134403F5A0631A460123936094
:10347000FA78796813461B019B1A9B000B444D3365
:1034800001221A707B681B68FA781146184605F00D
:10349000CAFB4BE37B681B68FA781146184604F0B8
:1034A0004AFE034603F04003402B39D1FA7879688D
:1034B00013461B019B1A9B000B444D3305221A70C7
:1034C000FA78796813461B019B1A9B000B441A3348
:1034D0001B78002B09D1FA78796813461B019B1AD7
:1034E0009B000B44193301221A70FA78796813464D
:1034F0001B019B1A9B000B44443300221A607B681B
:103500001B68FA781146184605F08DFBFB785A01C6
:103510003B69134403F5A0631A464023936005E317
:103520007B681B68FA781146184604F004FE0346CF
:1035300003F00803082B1AD1FB785A013B691344A6
:1035400003F5A0631A4608239360FA787968134656
:103550001B019B1A9B000B444D3306221A707B689B
:103560001B68FA781146184605F05DFBDEE27B68C1
:103570001B68FA781146184604F0DDFD034603F097
:103580001003102B44D1FA78796813461B019B1A5B
:103590009B000B44443300221A60FA787968134682
:1035A0001B019B1A9B000B444D3304221A70FA78BE
:1035B000796813461B019B1A9B000B4419331B7837
:1035C000002B14D1FA78796813461B019B1A9B00D3
:1035D0000B4418331B78002B09D1FA78796813460D
:1035E0001B019B1A9B000B44193301221A707B6844
:1035F0001B68FA781146184605F015FBFB785A014E
:103600003B69134403F5A0631A46102393608DE2CF
:103610007B681B68FA781146184604F08CFD034657
:1036200003F08003802B69D17B689B79002B11D13B
:10363000FA78796813461B019B1A9B000B444D33A3
:1036400007221A707B681B68FA781146184605F045
:10365000EAFA49E0FA78796813461B019B1A9B0045
:103660000B4444331B68591C786813461B019B1A92
:103670009B00034444331960FA78796813461B01B0
:103680009B1A9B000B4444331B68022B22D9FA7807
:10369000796813461B019B1A9B000B44443300229C
:1036A0001A60FA78796813461B019B1A9B000B4439
:1036B0004C3304221A70FA78796813461B019B1A5E
:1036C0009B000B444C331A78FB781946786808F055
:1036D00021FC09E0FA78796813461B019B1A9B00CC
:1036E0000B444C3302221A70FB785A013B69134495
:1036F00003F5A0631A468023936017E27B681B687A
:10370000FA781146184604F016FD034603F4806368
:10371000B3F5806F1BD1FA78796813461B019B1AA9
:103720009B000B444D3309221A707B681B68FA78A2
:103730001146184605F077FAFB785A013B691344A5
:1037400003F5A0631A464FF480639360EEE17B6853
:103750001B68FA781146184604F0EDFC034603F0A6
:103760000203022B40F0DF81FB785A013B691344CE
:1037700003F5A0631A4602239360FA78796813462A
:103780001B019B1A9B000B444D331B78012B40F00F
:103790009380FA78796813461B019B1A9B000B44AF
:1037A0004D3302221A70FA78796813461B019B1A6E
:1037B0009B000B444C3301221A70FA787968134647
:1037C0001B019B1A9B000B4426331B78022B0BD04A
:1037D000FA78796813461B019B1A9B000B44263329
:1037E0001B78032B40F090817B689B79002B15D1CF
:1037F000FA78796813461B019B1A9B000B443D33F2
:103800001B78FA7883F00103D8B2796813461B015C
:103810009B1A9B000B443D3302461A707B689B79D0
:10382000012B40F07181FA78796813461B019B1ACD
:103830009B000B4434331B68002B00F06581FA7841
:10384000796813461B019B1A9B000B44343319689B
:10385000FA78786813461B019B1A9B0003442833AF
:103860001B880B44591EFA78786813461B019B1A73
:103870009B00034428331B88B1FBF3F3BB60BB6898
:1038800003F00103002B00F03F81FA7879681346BA
:103890001B019B1A9B000B443D331B78FA7883F085
:1038A0000103D8B2796813461B019B1A9B000B4495
:1038B0003D3302461A7027E1FA78796813461B01F6
:1038C0009B1A9B000B444D331B78032B20D1FA78B5
:1038D000796813461B019B1A9B000B444D3302224F
:1038E0001A70FA78796813461B019B1A9B000B44E7
:1038F0001B331B78012B40F00781FA787968134657
:103900001B019B1A9B000B444C3302221A70FBE0F4
:10391000FA78796813461B019B1A9B000B444D33C0
:103920001B78042B3AD1FA78796813461B019B1A4D
:103930009B000B444D3302221A70FA7879681346C3
:103940001B019B1A9B000B444C3302221A70FA781D
:10395000796813461B019B1A9B000B441B331B7891
:10396000012B40F0D180FA78796813461B019B1A2D
:103970009B000B441B3300221A70FB785A013B69F1
:10398000134403F5A0635B68FA7851013A690A446D
:1039900002F5A06223F480335360B5E0FA787968C9
:1039A00013461B019B1A9B000B444D331B78052BC0
:1039B00014D1FA78796813461B019B1A9B000B44BB
:1039C0004D3302221A70FA78796813461B019B1A4C
:1039D0009B000B444C3302221A7095E0FA78796808
:1039E00013461B019B1A9B000B444D331B78062B7F
:1039F00014D1FA78796813461B019B1A9B000B447B
:103A00004D3302221A70FA78796813461B019B1A0B
:103A10009B000B444C3305221A7075E0FA787968E4
:103A200013461B019B1A9B000B444D331B78072B3D
:103A30000AD0FA78796813461B019B1A9B000B4445
:103A40004D331B78092B70D1FA78796813461B0126
:103A50009B1A9B000B444D3302221A70FA78796846
:103A600013461B019B1A9B000B4444331B68591CD3
:103A7000786813461B019B1A9B000344443319606A
:103A8000FA78796813461B019B1A9B000B44443358
:103A90001B68022B14D9FA78796813461B019B1A0C
:103AA0009B000B44443300221A60FA78796813466D
:103AB0001B019B1A9B000B444C3304221A7022E01A
:103AC000FA78796813461B019B1A9B000B444C3310
:103AD00002221A70FB785A013B69134403F5A06374
:103AE0001B68FB60FB6823F08043FB60FB6843F0CE
:103AF0000043FB60FB785A013B69134403F5A06364
:103B00001A46FB68136000BFFA78796813461B01F8
:103B10009B1A9B000B444C331A78FB781946786843
:103B200008F0F8F902E000BF00E000BF1837BD461A
:103B300080BD80B58AB000AF78607B681B687B620F
:103B40007B6A3B627B681B681B6AFB61FB6903F055
:103B50000F03BB61FB695B0C03F00F037B61FB6927
:103B60001B09C3F30A033B617B69022B04D07B6909
:103B7000052B00F0B680B7E03B69002B00F0B38066
:103B80007968BA6913461B019B1A9B000B442C33BE
:103B90001B68002B00F0A7807968BA6913461B01E7
:103BA0009B1A9B000B4438331A683B69D11878681C
:103BB000BA6913461B019B1A9B00034434331B68EC
:103BC000994200F283807B6818687968BA69134665
:103BD0001B019B1A9B000B442C331B683A6992B261
:103BE000194604F03DFA7968BA6913461B019B1A1D
:103BF0009B000B442C331A683B69D1187868BA696A
:103C000013461B019B1A9B0003442C3319607968EF
:103C1000BA6913461B019B1A9B000B4438331A6880
:103C20003B69D1187868BA6913461B019B1A9B003F
:103C3000034438331960BB695A013B6A134403F5E6
:103C4000A0631B69DB0CC3F30903FB607968BA69E5
:103C500013461B019B1A9B000B4428331B881A46F2
:103C60003B6993423FD1FB68002B3CD0BB695A01B2
:103C70003B6A134403F5A0631B68BB60BB6823F079
:103C80008043BB60BB6843F00043BB60BB695A0123
:103C90003B6A134403F5A0631A46BB681360796856
:103CA000BA6913461B019B1A9B000B443C331B78DB
:103CB00083F00103D8B27968BA6913461B019B1AD5
:103CC0009B000B443C3302461A700CE07968BA69D9
:103CD00013461B019B1A9B000B444C3304221A70A1
:103CE00001E000BF00E000BF00BF2837BD4680BD37
:103CF00080B586B000AF78607B681B687B617B69AC
:103D00003B613B6903F588631B68FB603B6903F516
:103D100088631B68BB60BB6823F02E03BB60FB6835
:103D200003F00203022B0BD1FB6803F00103012B0C
:103D300002D1786808F0D2F8BB6843F00203BB6098
:103D4000FB6803F00803082B32D1BB6843F008037B
:103D5000BB60FB6803F00403042B26D17B685B7A0D
:103D6000022B13D1FB6803F4C023B3F5802F06D1D7
:103D70007B681B680221184604F0E8FA11E07B68B2
:103D80001B680121184604F0E1FA0AE07B68DB7940
:103D9000012B06D13B6903F580631A464EF660237A
:103DA0005360786808F0C4F802E0786808F0CEF84C
:103DB000FB6803F02003202B03D1BB6843F02003F2
:103DC000BB603B6903F588631A46BB68136000BF9C
:103DD0001837BD4680BD000080B584B000AF786064
:103DE000194BDB6803F00403042B0AD0164BDB6885
:103DF00003F007037A689A4201D001231FE00023F1
:103E00001DE0114BDB6823F007020F497B68134369
:103E1000CB60FDF729FBF86009E0FDF725FB0246C2
:103E2000FB68D31AB3F57A7F01D9012307E0064B6B
:103E30005B6803F40053B3F5005FEED1002318462E
:103E40001037BD4680BD00BF0048025880B400AFA7
:103E5000054BDB68044A43F08073D36000BFBD4666
:103E60005DF8047B704700BF0048025880B58CB0F5
:103E700000AF78607B68002B02D1012300F048BCC2
:103E80007B681B6803F00103002B00F08880994BCE
:103E90001B6903F03803FB62964B9B6ABB62FB6AAB
:103EA000102B07D0FB6A182B11D1BB6A03F0030358
:103EB000022B0CD18F4B1B6803F40033002B6DD009
:103EC0007B685B68002B69D1012300F021BC7B6813
:103ED0005B68B3F5803F06D1864B1B68854A43F487
:103EE000803313602EE07B685B68002B0CD1814B24
:103EF0001B68804A23F4803313607E4B1B687D4A25
:103F000023F4802313601DE07B685B68B3F5A02F6A
:103F10000CD1784B1B68774A43F480231360754BB0
:103F20001B68744A43F4803313600BE0714B1B68C9
:103F3000704A23F4803313606E4B1B686D4A23F480
:103F4000802313607B685B68002B13D0FDF78CFA2D
:103F5000786208E0FDF788FA02467B6AD31A642B80
:103F600001D90323D4E3634B1B6803F40033002B14
:103F7000F0D014E0FDF778FA786208E0FDF774FA03
:103F800002467B6AD31A642B01D90323C0E3594B41
:103F90001B6803F40033002BF0D100E000BF7B6806
:103FA0001B6803F00203002B00F0CA80514B1B6911
:103FB00003F038033B624F4B9B6AFB613B6A002B6B
:103FC00007D03B6A182B56D1FB6903F00303002B83
:103FD00051D1484B1B6803F00403002B05D07B68CC
:103FE000DB68002B01D1012392E3424B1B6823F0D5
:103FF00019027B68DB683F4913430B60FDF734FA15
:10400000786208E0FDF730FA02467B6AD31A022B89
:1040100001D903237CE3374B1B6803F00403002B17
:10402000F0D0FDF751FA034641F20302934217D84C
:104030007B681B69402B08D12E4B5B6823F47C33D3
:104040002C4A43F4003353607AE02A4B5B6823F434
:104050007C327B681B691B03264913434B606FE06E
:10406000244B5B6823F0FE427B681B691B062149D9
:1040700013434B6064E07B68DB68002B47D01D4B2B
:104080001B6823F019027B68DB681A4913430B6035
:10409000FDF7EAF9786208E0FDF7E6F902467B6A87
:1040A000D31A022B01D9032332E3124B1B6803F00E
:1040B0000403002BF0D0FDF707FA034641F2030298
:1040C000934219D87B681B69402B08D1094B5B6868
:1040D00023F47C33074A43F40033536030E0054B4C
:1040E0005B6823F47C327B681B691B030149134323
:1040F0004B6025E0004402589A4B5B6823F0FE4277
:104100007B681B691B06974913434B6018E0954B6E
:104110001B68944A23F001031360FDF7A5F9786248
:1041200008E0FDF7A1F902467B6AD31A022B01D9F8
:104130000323EDE28B4B1B6803F00403002BF0D14B
:104140007B681B6803F01003002B00F0A980854BEF
:104150001B6903F03803BB61824B9B6A7B61BB69BF
:10416000082B07D0BB69182B3AD17B6903F00303F6
:10417000012B35D17B4B1B6803F48073002B05D0DA
:104180007B68DB69802B01D00123C1E2FDF79CF93C
:10419000034641F20302934217D87B681B6A202B27
:1041A00008D1704B5B6823F0F8436E4A43F08043BC
:1041B000536075E06B4B5B6823F0F8427B681B6AC9
:1041C0009B06684913434B606AE0664BDB6823F04B
:1041D0007C527B681B6A1B0662491343CB605FE01D
:1041E0007B68DB69002B42D05E4B1B685D4A43F065
:1041F00080031360FDF738F9786208E0FDF734F9C1
:1042000002467B6AD31A022B01D9032380E2554B65
:104210001B6803F48073002BF0D0FDF755F90346BB
:1042200041F20302934217D87B681B6A202B08D106
:104230004C4B5B6823F0F8434A4A43F08043536099
:104240002EE0484B5B6823F0F8427B681B6A9B06B4
:10425000444913434B6023E0424BDB6823F07C521C
:104260007B681B6A1B063F491343CB6018E03D4B3C
:104270001B683C4A23F080031360FDF7F5F8786271
:1042800008E0FDF7F1F802467B6AD31A022B01D948
:1042900003233DE2334B1B6803F48073002BF0D102
:1042A0007B681B6803F00803002B36D07B685B69D2
:1042B000002B19D02B4B5B6F2A4A43F00103536745
:1042C000FDF7D2F8786208E0FDF7CEF802467B6A87
:1042D000D31A022B01D903231AE2224B5B6F03F09E
:1042E0000203002BF0D018E01E4B5B6F1D4A23F039
:1042F00001035367FDF7B8F8786208E0FDF7B4F8FA
:1043000002467B6AD31A022B01D9032300E2154B24
:104310005B6F03F00203002BF0D17B681B6803F096
:104320002003002B39D07B689B69002B1CD00D4BE0
:104330001B680C4A43F480531360FDF795F87862CC
:1043400008E0FDF791F802467B6AD31A022B01D9E7
:104350000323DDE1034B1B6803F40053002BF0D073
:104360001BE000BF004402589B4B1B689A4A23F491
:1043700080531360FDF778F8786208E0FDF774F871
:1043800002467B6AD31A022B01D90323C0E1924B68
:104390001B6803F40053002BF0D17B681B6803F00B
:1043A0000403002B00F081808C4B1B688B4A43F484
:1043B00080731360FDF758F8786208E0FDF754F851
:1043C00002467B6AD31A642B01D90323A0E1834BF5
:1043D0001B6803F48073002BF0D07B689B68012B73
:1043E00006D17D4B1B6F7C4A43F0010313672DE020
:1043F0007B689B68002B0CD1774B1B6F764A23F0B0
:1044000001031367744B1B6F734A23F00403136794
:104410001CE07B689B68052B0CD16F4B1B6F6E4AB1
:1044200043F0040313676C4B1B6F6B4A43F00103AB
:1044300013670BE0684B1B6F674A23F00103136798
:10444000654B1B6F644A23F0040313677B689B680A
:10445000002B15D0FDF708F878620AE0FDF704F8A4
:1044600002467B6AD31A41F28832934201D9032370
:104470004EE1594B1B6F03F00203002BEED014E00A
:10448000FCF7F2FF78620AE0FCF7EEFF02467B6A77
:10449000D31A41F28832934201D9032338E14E4BBB
:1044A0001B6F03F00203002BEED17B685B6A002BCD
:1044B00000F02D81484B1B6903F03803182B00F0E6
:1044C000BD807B685B6A022B40F09E80424B1B687C
:1044D000414A23F080731360FCF7C6FF786208E05E
:1044E000FCF7C2FF02467B6AD31A022B01D90323D1
:1044F0000EE1394B1B6803F00073002BF0D1364BF3
:104500009A6A374B13407A68916A7A68D26A1201C4
:104510000A43314913438B627B681B6B013BC3F336
:1045200008027B685B6B013B5B029BB21A437B68B2
:104530009B6B013B1B0403F4FE031A437B68DB6B9C
:10454000013B1B0603F0FE43234913430B63224B3D
:10455000DB6A214A23F00103D3621F4B5A6B214BC4
:1045600013407A68926CD2001B4913434B631A4B79
:10457000DB6A23F00C027B681B6C17491343CB6288
:10458000154BDB6A23F002027B685B6C1249134314
:10459000CB62114BDB6A104A43F48033D3620E4B7B
:1045A000DB6A0D4A43F40033D3620B4BDB6A0A4AE1
:1045B00043F48023D362084BDB6A074A43F00103CC
:1045C000D362054B1B68044A43F080731360FCF709
:1045D0004BFF786211E000BF0044025800480258C7
:1045E0000CFCFFFF0700FFFFFCF73EFF02467B6A63
:1045F000D31A022B01D903238AE0474B1B6803F02F
:104600000073002BF0D082E0434B1B68424A23F03A
:1046100080731360FCF728FF786208E0FCF724FF42
:1046200002467B6AD31A022B01D9032370E03A4B6E
:104630001B6803F00073002BF0D168E0364B9B6AD7
:104640003B61354B1B6BFB607B685B6A012B31D098
:104650003B6903F003027B689B6A9A422AD13B695B
:104660001B0903F03F027B68DB6A9A4222D1FB6898
:10467000C3F308027B681B6B013B9A421AD1FB68AB
:104680005B0A03F07F027B685B6B013B9A4211D1AE
:10469000FB681B0C03F07F027B689B6B013B9A421B
:1046A00008D1FB681B0E03F07F027B68DB6B013BCC
:1046B0009A4201D001232BE0174B5B6BDB08C3F35D
:1046C0000C033B617B689B6C3A699A421FD0124B8A
:1046D000DB6A114A23F00103D362FCF7C5FE78625E
:1046E00000BFFCF7C1FE02467B6A9342F9D00A4B39
:1046F0005A6B0A4B13407A68926CD20006491343F6
:104700004B63054BDB6A044A43F00103D362002389
:1047100018463037BD4680BD004402580700FFFFF1
:1047200080B586B000AF786039607B68002B01D11E
:1047300001239CE18A4B1B6803F00F033A689A42FD
:1047400010D9874B1B6823F00F0285493B68134340
:104750000B60834B1B6803F00F033A689A4201D049
:10476000012384E17B681B6803F00403002B10D055
:104770007B681A697B4B9B6903F070039A4208D9E6
:10478000784B9B6923F070027B681B697549134362
:104790008B617B681B6803F00803002B10D07B68DB
:1047A0005A69704BDB6903F070039A4208D96D4B6C
:1047B000DB6923F070027B685B696A491343CB6154
:1047C0007B681B6803F01003002B10D07B689A698C
:1047D000644BDB6903F4E0639A4208D9614BDB69FF
:1047E00023F4E0627B689B695E491343CB617B687D
:1047F0001B6803F02003002B10D07B68DA69594B4B
:104800001B6A03F070039A4208D9564B1B6A23F0C7
:1048100070027B68DB69534913430B627B681B683A
:1048200003F00203002B10D07B68DA684D4B9B69C4
:1048300003F00F039A4208D94A4B9B6923F00F02F9
:104840007B68DB68474913438B617B681B6803F017
:104850000103002B55D0434B9B6923F470627B68A6
:104860009B68404913438B617B685B68022B07D1CF
:104870003C4B1B6803F40033002B21D10123F6E0ED
:104880007B685B68032B07D1364B1B6803F0007312
:10489000002B15D10123EAE07B685B68012B07D16F
:1048A000304B1B6803F48073002B09D10123DEE039
:1048B0002C4B1B6803F00403002B01D10123D6E02D
:1048C000284B1B6923F007027B685B68254913436B
:1048D0000B61FCF7C9FD78610AE0FCF7C5FD0246F3
:1048E0007B69D31A41F28832934201D90323BEE097
:1048F0001C4B1B6903F038027B685B68DB009A4243
:10490000EBD17B681B6803F00203002B10D07B689F
:10491000DA68144B9B6903F00F039A4208D2114BDB
:104920009B6923F00F027B68DB680E4913438B61A0
:104930000B4B1B6803F00F033A689A4214D2084BE2
:104940001B6823F00F0206493B6813430B60044BBE
:104950001B6803F00F033A689A4205D0012386E0F2
:1049600000200052004402587B681B6803F00403D7
:10497000002B10D07B681A693F4B9B6903F07003D2
:104980009A4208D23C4B9B6923F070027B681B69FA
:10499000394913438B617B681B6803F00803002BC4
:1049A00010D07B685A69344BDB6903F070039A427C
:1049B00008D2314BDB6923F070027B685B692E49BA
:1049C0001343CB617B681B6803F01003002B10D0EE
:1049D0007B689A69284BDB6903F4E0639A4208D24A
:1049E000254BDB6923F4E0627B689B692249134312
:1049F000CB617B681B6803F02003002B10D07B6821
:104A0000DA691D4B1B6A03F070039A4208D21A4BF5
:104A10001B6A23F070027B68DB69174913430B6242
:104A200000F034F80246144B9B691B0A03F00F0395
:104A30001249CB5C03F01F0322FA03F33B610E4BD8
:104A40009B6903F00F030D4AD35C03F01F033A691F
:104A500022FA03F30A4A13600A4A3B6913600A4BBD
:104A60001B681846FCF7B6FC0346FB73FB7B184635
:104A70001837BD4680BD00BF00440258E0F600086C
:104A800004000024000000240800002480B489B041
:104A900000AFB34B1B6903F03803182B00F25581AC
:104AA00001A252F823F000BF0D4B00084B4D000847
:104AB0004B4D00084B4D00084B4D00084B4D000876
:104AC0004B4D00084B4D0008334B00084B4D000880
:104AD0004B4D00084B4D00084B4D00084B4D000856
:104AE0004B4D00084B4D0008394B00084B4D00085A
:104AF0004B4D00084B4D00084B4D00084B4D000836
:104B00004B4D00084B4D00083F4B0008944B1B6871
:104B100003F02003002B09D0914B1B68DB0803F046
:104B20000303904A22FA03F3BB6111E18D4BBB6191
:104B30000EE18D4BBB610BE18C4BBB6108E1884BF7
:104B40009B6A03F003037B61854B9B6A1B0903F09F
:104B50003F033B61824BDB6A03F00103FB60804B48
:104B60005B6BDB08C3F30C03FA6802FB03F307EE8D
:104B7000903AF8EE677AC7ED027A3B69002B00F0B5
:104B8000E1807B69022B00F083807B69022B00F2BD
:104B9000A1807B69002B03D07B69012B56D099E063
:104BA0006F4B1B6803F02003002B2DD06C4B1B6850
:104BB000DB0803F003036B4A22FA03F37B607B6894
:104BC00007EE903AF8EE676A3B6907EE903AF8EE26
:104BD000677A86EEA77A624B1B6BC3F3080307EE76
:104BE000903AF8EE676A97ED026ADFED615AC6EE19
:104BF000257A76EEA77AF7EE006A77EEA67A67EE68
:104C0000277AC7ED077A87E03B6907EE903AF8EE1E
:104C1000677ADFED586A86EEA77A514B1B6BC3F3B8
:104C2000080307EE903AF8EE676A97ED026ADFED47
:104C3000505AC6EE257A76EEA77AF7EE006A77EE3E
:104C4000A67A67EE277AC7ED077A65E03B6907EE3B
:104C5000903AF8EE677ADFED486A86EEA77A404B25
:104C60001B6BC3F3080307EE903AF8EE676A97ED03
:104C7000026ADFED3F5AC6EE257A76EEA77AF7EEA6
:104C8000006A77EEA67A67EE277AC7ED077A43E0E7
:104C90003B6907EE903AF8EE677ADFED386A86EE08
:104CA000A77A2F4B1B6BC3F3080307EE903AF8EE7D
:104CB000676A97ED026ADFED2E5AC6EE257A76EE28
:104CC000A77AF7EE006A77EEA67A67EE277AC7ED45
:104CD000077A21E03B6907EE903AF8EE677ADFED5C
:104CE000266A86EEA77A1E4B1B6BC3F3080307EEFA
:104CF000903AF8EE676A97ED026ADFED1D5AC6EE4C
:104D0000257A76EEA77AF7EE006A77EEA67A67EE56
:104D1000277AC7ED077A00BF114B1B6B5B0A03F0C4
:104D20007F0301333B603B6807EE903AB8EE677A49
:104D3000D7ED076AC6EE877AFCEEE77A17EE903A6F
:104D4000BB6105E00023BB6102E0074BBB6100BF14
:104D5000BB6918462437BD465DF8047B704700BF29
:104D6000004402580090D00300093D0040787D01C6
:104D7000000000460024744C0024744A20BCBE4B42
:104D800080B582B000AFFFF781FE0246104B9B69F1
:104D90001B0A03F00F030F49CB5C03F01F0322FA39
:104DA00003F37B600A4B9B6903F00F03094AD35C52
:104DB00003F01F037A6822FA03F3074A1360074AD5
:104DC0007B681360044B1B6818460837BD4680BDDE
:104DD00000440258E0F6000804000024000000240B
:104DE00080B500AFFFF7CCFF0246064BDB691B091D
:104DF00003F007030449CB5C03F01F0322FA03F31B
:104E0000184680BD00440258E0F6000880B500AFA7
:104E1000FFF7B6FF0246064BDB691B0A03F00703E8
:104E20000449CB5C03F01F0322FA03F3184680BD4C
:104E300000440258E0F600082DE9B04FCAB000AFB8
:104E4000C7F81401002387F82731002387F826319B
:104E5000D7F81431D3E9002302F00064002554EAA6
:104E6000050349D0D7F814319B6EB3F5401F2FD0FE
:104E7000B3F5401F28D8B3F5001F1AD0B3F5001FB3
:104E800022D8002B03D0B3F5801F07D01CE0B84B0D
:104E9000DB6AB74A43F40033D3621AE0D7F814311F
:104EA00008330221184601F08FFC034687F82731AA
:104EB0000FE0D7F8143128330221184601F036FDEF
:104EC000034687F8273104E0012387F8273100E003
:104ED00000BF97F82731002B0AD1A54B1B6D23F497
:104EE0004011D7F814319B6EA14A0B43136503E0C0
:104EF00097F8273187F82631D7F81431D3E9002302
:104F000002F480784FF0000958EA090347D0D7F837
:104F100014319B6D042B2AD801A252F823F000BF54
:104F2000354F0008434F0008594F0008774F0008DD
:104F3000774F00088E4BDB6A8D4A43F40033D3620F
:104F40001AE0D7F8143108330021184601F03CFC70
:104F5000034687F827310FE0D7F8143128330021B2
:104F6000184601F0E3FC034687F8273104E00123EB
:104F700087F8273100E000BF97F82731002B0AD1CE
:104F80007B4B1B6D23F00701D7F814319B6D784ADA
:104F90000B43136503E097F8273187F82631D7F8DC
:104FA0001431D3E9002302F4007A4FF0000B5AEADF
:104FB0000B034CD0D7F81431DB6DB3F5807F30D0C4
:104FC000B3F5807F29D8C02B2DD0C02B25D8802BBE
:104FD00018D0802B21D8002B02D0402B07D01CE00A
:104FE000634BDB6A624A43F40033D3621CE0D7F8B8
:104FF000143108330021184601F0E6FB034687F818
:10500000273111E0D7F8143128330021184601F078
:105010008DFC034687F8273106E0012387F8273106
:1050200002E000BF00E000BF97F82731002B0AD153
:105030004F4B1B6D23F4E071D7F81431DB6D4C4AF4
:105040000B43136503E097F8273187F82631D7F82B
:105050001431D3E9002302F48063C7F80831002338
:10506000C7F80C31D7E942120B46134353D0D7F897
:105070001431D3F8A830B3F5000F35D0B3F5000FD5
:105080002ED8B3F5C00F31D0B3F5C00F28D8B3F583
:10509000800F1AD0B3F5800F22D8002B03D0B3F5C0
:1050A000001F07D01CE0324BDB6A314A43F4003367
:1050B000D3621CE0D7F8143108330021184601F000
:1050C00083FB034687F8273111E0D7F814312833E2
:1050D0000021184601F02AFC034687F8273106E034
:1050E000012387F8273102E000BF00E000BF97F8F6
:1050F0002731002B0BD11E4B9B6D23F46001D7F899
:105100001431D3F8A8301A4A0B43936503E097F89B
:10511000273187F82631D7F81431D3E9002302F478
:105120000063C7F800310023C7F80431D7E9401203
:105130000B46134356D0D7F81431D3F8AC30B3F143
:10514000806F38D0B3F1806F31D8B3F1407F34D065
:10515000B3F1407F2BD8B3F1007F1DD0B3F1007FB6
:1051600025D8002B06D0B3F1807F0AD01FE000BF06
:1051700000440258A24BDB6AA14A43F40033D362D5
:105180001CE0D7F8143108330021184601F01CFB4D
:10519000034687F8273111E0D7F81431283300216E
:1051A000184601F0C3FB034687F8273106E00123C8
:1051B00087F8273102E000BF00E000BF97F82731F1
:1051C000002B0BD18E4B9B6D23F0E061D7F814318F
:1051D000D3F8AC308A4A0B43936503E097F8273144
:1051E00087F82631D7F81431D3E9002302F0007391
:1051F000C7F8F8300023C7F8FC30D7E93E120B4659
:1052000013433AD0D7F81431DB6C302B1FD0302B3E
:1052100019D8202B0CD0202B15D8002B19D0102BEF
:1052200011D1774BDB6A764A43F40033D36211E045
:10523000D7F8143108330221184601F0C5FA0346A5
:1052400087F8273106E0012387F8273102E000BF05
:1052500000E000BF97F82731002B0AD1684BDB6CC8
:1052600023F03001D7F81431DB6C654A0B43D3646B
:1052700003E097F8273187F82631D7F81431D3E9BE
:10528000002302F48053C7F8F0300023C7F8F4304D
:10529000D7E93C120B46134351D0D7F814311B6E9B
:1052A000B3F5804F35D0B3F5804F2ED8B3F5405FBE
:1052B00031D0B3F5405F28D8B3F5005F1AD0B3F50D
:1052C000005F22D8002B03D0B3F5805F07D01CE02D
:1052D0004B4BDB6A4A4A43F40033D3621CE0D7F8F5
:1052E000143108330021184601F06EFA034687F89E
:1052F000273111E0D7F8143128330021184601F086
:1053000015FB034687F8273106E0012387F827318C
:1053100002E000BF00E000BF97F82731002B0AD160
:10532000374B1B6D23F4E041D7F814311B6E344A20
:105330000B43136503E097F8273187F82631D7F838
:105340001431D3E9002302F40053C7F8E8300023F6
:10535000C7F8EC30D7E93A120B46134356D0D7F8CA
:1053600014315B6EB3F5A02F33D0B3F5A02F2CD83A
:10537000B3F5802F2FD0B3F5802F26D8B3F5403F5B
:105380002BD0B3F5403F20D8B3F5003F12D0B3F592
:10539000003F1AD8002B22D0B3F5803F15D1D7F8A3
:1053A000143108330121184601F00EFA034687F83C
:1053B000273115E0D7F8143128330121184601F0C0
:1053C000B5FA034687F827310AE0012387F8273129
:1053D00006E000BF04E000BF02E000BF00E000BF45
:1053E00097F82731002B0DD1054B1B6D23F4E021DD
:1053F000D7F814315B6E024A0B43136506E000BF19
:105400000044025897F8273187F82631D7F814312D
:10541000D3E9002302F48043C7F8E0300023C7F843
:10542000E430D7E938120B46134355D0D7F814317E
:10543000D3F8B030B3F1A04F33D0B3F1A04F2CD894
:10544000B3F1804F2FD0B3F1804F26D8B3F1405F36
:105450002BD0B3F1405F20D8B3F1005F12D0B3F18D
:10546000005F1AD8002B22D0B3F1805F15D1D7F896
:10547000143108330121184601F0A6F9034687F8D4
:10548000273115E0D7F8143128330121184601F0EF
:105490004DFA034687F827310AE0012387F82731C0
:1054A00006E000BF04E000BF02E000BF00E000BF74
:1054B00097F82731002B0BD1A34B9B6D23F0E041D4
:1054C000D7F81431D3F8B0309F4A0B43936503E00B
:1054D00097F8273187F82631D7F81431D3E900231C
:1054E00002F40043C7F8D8300023C7F8DC30D7E90E
:1054F00036120B46134337D0D7F814311B6FB3F174
:10550000005F0ED0B3F1005F16D8002B18D0B3F1B6
:10551000805F11D18C4BDB6A8B4A43F40033D3623A
:105520000FE0D7F8143108330121184601F04CF987
:10553000034687F8273104E0012387F8273100E08C
:1055400000BF97F82731002B0AD17F4B1B6D23F04A
:105550004051D7F814311B6F7B4A0B43136503E0AE
:1055600097F8273187F82631D7F81431D3E900238B
:1055700002F08073C7F8D0300023C7F8D430D7E9E1
:1055800034120B46134339D0D7F814319B6C032BDC
:105590001CD801A252F823F0D5550008A9550008DF
:1055A000B7550008D5550008674BDB6A664A43F4D7
:1055B0000033D3620FE0D7F81431083302211846C4
:1055C00001F002F9034687F8273104E0012387F848
:1055D000273100E000BF97F82731002B0AD15A4B42
:1055E000DB6C23F00301D7F814319B6C564A0B4354
:1055F000D36403E097F8273187F82631D7F81431C0
:10560000D3E9002302F48003C7F8C8300023C7F8A9
:10561000CC30D7E932120B46134300F09F804B4B3E
:105620001B684A4A43F480731360FBF71DFFC7F8F9
:1056300020010BE0FBF718FF0246D7F82031D31A00
:10564000642B03D9032387F8273105E03F4B1B6800
:1056500003F48073002BEDD097F82731002B79D11C
:10566000394B1A6FD7F81431D3F8B430534003F4E0
:105670004073002B15D0344B1B6F23F44073C7F8D5
:105680001C31314B1B6F304A43F4803313672E4B70
:105690001B6F2D4A23F4803313672B4AD7F81C3134
:1056A0001367D7F81431D3F8B430B3F5807F18D12D
:1056B000FBF7DAFEC7F820010DE0FBF7D5FE024646
:1056C000D7F82031D21A41F288339A4203D9032302
:1056D00087F8273105E01C4B1B6F03F00203002BFA
:1056E000EBD097F82731002B29D1D7F81431D3F814
:1056F000B43003F44073B3F5407F0ED1124B1B69F5
:1057000023F47C51D7F81431D3F8B4301A09104B74
:1057100013400D4A0B43136105E00B4B1B690A4A0A
:1057200023F47C531361084B196FD7F81431D3F865
:10573000B430C3F30B03044A0B4313670EE097F82E
:10574000273187F8263109E0004402580048025802
:10575000CFFFFF0097F8273187F82631D7F81431AB
:10576000D3E9002302F00103C7F8C0300023C7F8D3
:10577000C430D7E930120B46134300F08980D7F8C4
:105780001431DB6F282B6BD801A252F823F000BF35
:1057900069580008615800086158000861580008FD
:1057A00061580008615800086158000861580008F5
:1057B0003558000861580008615800086158000811
:1057C00061580008615800086158000861580008D5
:1057D0004B580008615800086158000861580008DB
:1057E00061580008615800086158000861580008B5
:1057F000695800086158000861580008615800089D
:105800006158000861580008615800086158000894
:10581000695800086158000861580008615800087C
:105820006158000861580008615800086158000874
:1058300069580008D7F8143108330121184600F0E0
:10584000C3FF034687F827310FE0D7F81431283318
:105850000121184601F06AF8034687F8273104E071
:10586000012387F8273100E000BF97F82731002B8C
:105870000AD1BF4B5B6D23F03801D7F81431DB6FD1
:10588000BB4A0B43536503E097F8273187F826316D
:10589000D7F81431D3E9002302F00203C7F8B83077
:1058A0000023C7F8BC30D7E92E120B46134341D072
:1058B000D7F814319B6F052B24D801A252F823F09E
:1058C0000D590008D9580008EF5800080D59000874
:1058D0000D5900080D590008D7F81431083301217B
:1058E000184600F071FF034687F827310FE0D7F81C
:1058F000143128330121184601F018F8034687F8BF
:10590000273104E0012387F8273100E000BF97F832
:105910002731002B0AD1964B5B6D23F00701D7F896
:1059200014319B6F924A0B43536503E097F827317C
:1059300087F82631D7F81431D3E9002302F00403A5
:10594000C7F8B0300023C7F8B430D7E92C120B46A3
:10595000134344D0D7F81431D3F89430052B25D80D
:1059600001A252F823F000BFB55900088159000880
:1059700097590008B5590008B5590008B5590008ED
:10598000D7F8143108330121184600F01DFF0346F3
:1059900087F827310FE0D7F8143128330121184652
:1059A00000F0C4FF034687F8273104E0012387F89D
:1059B000273100E000BF97F82731002B0BD16C4B4B
:1059C0009B6D23F00701D7F81431D3F89430684A5F
:1059D0000B43936503E097F8273187F82631D7F812
:1059E0001431D3E9002302F02003C7F8A8300023C4
:1059F000C7F8AC30D7E92A120B46134355D0D7F875
:105A00001431D3F89030B3F1A04F33D0B3F1A04F9D
:105A10002CD8B3F1804F2FD0B3F1804F26D8B3F1FB
:105A2000405F2BD0B3F1405F20D8B3F1005F12D0BC
:105A3000B3F1005F1AD8002B22D0B3F1805F15D1EB
:105A4000D7F8143108330021184600F0BDFE034694
:105A500087F8273115E0D7F814312833022118468A
:105A600000F064FF034687F827310AE0012387F836
:105A7000273106E000BF04E000BF02E000BF00E005
:105A800000BF97F82731002B0BD1394B5B6D23F00A
:105A9000E041D7F81431D3F89030354A0B435365C1
:105AA00003E097F8273187F82631D7F81431D3E986
:105AB000002302F04003C7F8A0300023C7F8A43049
:105AC000D7E928120B46134358D0D7F81431D3F82E
:105AD0009C30B3F5A05F33D0B3F5A05F2CD8B3F5FD
